:020000040800F2
:10000000D8260020B90200080D520008D14D000882
:1000100009520008410500087D7500080000000035
:10002000000000000000000000000000D1540008A3
:10003000D10500080000000075520008D5540008E2
:10004000D3020008D3020008D3020008D30200083C
:10005000D3020008D3020008D3020008D30200082C
:10006000D3020008D3020008D3020008D30200081C
:10007000D3020008D3020008D3020008D30200080C
:10008000D302000800000000C1030008D3020008EA
:1000900039740008E1050008D3020008D302000803
:1000A000D3020008D3020008D3020008D3020008DC
:1000B000D3020008D3020008D3020008D3020008CC
:1000C000D3020008D3020008D3020008D3020008BC
:1000D000D3020008D3020008D3020008D3020008AC
:1000E000D3020008D3020008D3020008D30200089C
:1000F000D3020008D3020008D30200080000000069
:1001000000000000D302000800000000D302000835
:10011000D30200080000000061550008D302000867
:10012000D3020008D3020008D3020008D30200085B
:10013000D30200080000000000000000D302000805
:10014000D3020008D30200080000000000000000F5
:10015000000000000000000000000000000000009F
:10016000000000000000000000000000D3020008B2
:10017000D3020008000000000000000000000000A2
:1001800000000000D3020008000000000000000092
:10019000000000000000000000000000000000005F
:1001A0000000000000000000D3020008D302000895
:1001B000D3020008D3020008D302000800000000A8
:1001C00000000000D3020008000000000000000052
:1001D000D3020008D302000800F002F800F05CF837
:1001E0000AA090E8000C82448344AAF10107DA4592
:1001F00001D100F051F8AFF2090EBAE80F0013F088
:10020000010F18BFFB1A43F0010318472C8D0000A3
:100210004C8D00000A444FF0000C10F8013B13F025
:10022000070408BF10F8014B1D1108BF10F8015B4F
:10023000641E05D010F8016B641E01F8016BF9D142
:1002400013F0080F1EBF10F8014BAD1C0C1B09D199
:100250006D1E58BF01F801CBFAD505E014F8016B0B
:1002600001F8016B6D1EF9D59142D6D3704700009D
:100270000023002400250026103A28BF78C1FBD8AF
:10028000520728BF30C148BF0B6070471FB508F048
:10029000FEF91FBD10B510BD00F05CF81146FFF768
:1002A000F5FF07F04FFA00F07AF803B4FFF7F2FF1A
:1002B00003BC00F07DF8000009488047094800476A
:1002C000FEE7FEE7FEE7FEE7FEE7FEE7FEE7FEE706
:1002D000FEE7FEE704480549054A064B7047000063
:1002E0004D550008D9010008D8160020D826002056
:1002F000D81E0020D81E00204FF0000200B5134683
:1003000094469646203922BFA0E80C50A0E80C5035
:10031000B1F12001BFF4F7AF090728BFA0E80C50E6
:1003200048BF0CC05DF804EB890028BF40F8042BDF
:1003300008BF704748BF20F8022B11F0804F18BF4C
:1003400000F8012B704770477047704700487047AE
:10035000880100207546FFF7F9FFAE4605006946A3
:10036000534620F00700854618B020B5FFF7B2FFCE
:10037000BDE820404FF000064FF000074FF00008A6
:100380004FF0000BAC46ACE8C009ACE8C009ACE8E3
:10039000C009ACE8C00921F007018D46704710B5CF
:1003A0000446AFF300802046BDE81040FFF77DBF54
:1003B00001491820ABBEFEE726000200704700008E
:1003C00041F27820C2F2000000F0FCBDB0B5016837
:1003D00004468A688868C0074FF0000031D012F0E8
:1003E000020218BFB0BD886800F00D0001281FD1BF
:1003F00088684FF6C072C7F6FF72104002308860FE
:100400000320086001F040FD21688968C90704BF26
:100410000020B0BD054602E08068C00712D001F0A0
:1004200033FD411B20680329F6D38168C907F3D047
:10043000E06D40F01000E065206E40F001002066A5
:100440000120B0BD0020B0BD70B582B004460020D0
:10045000019021688A68D20711D14FF6C076C7F69D
:10046000FF76886806F17F0210420BD0E06D40F005
:100470001000E065206E40F001002066012002B00F
:1004800070BD00BF8868304040F00100886040F2D5
:100490000830C5F200000068000221D401F0F4FC2D
:1004A00021680A68D20717D1054602E00868C0072C
:1004B00012D18868C00704D18868304040F001003C
:1004C000886001F0E1FC401B21680328EED3086836
:1004D000C007EBD1CAE700BF002002B070BD00BF6B
:1004E00040F22800C2F20000006842F66351800921
:1004F000C0F23E51A0FB0101880900EB40000C2135
:1005000001EB8000019001980028C7D001980138C4
:10051000019001980028C1D00198013801900198FC
:100520000028BBD001980138019001980028B5D06F
:1005300001980138019001980028E7D1AEE700004A
:10054000FEE70000002070470020704710B540F61D
:10055000A874C2F2000440F6A431C2F200012046A1
:10056000002205F0C9FA40F2A471C2F2000120464F
:1005700005F0B8FA002010BD10B540F6A874C2F21C
:1005800000040146204605F0ADFA204605F0D6F9F4
:10059000002010BD0020704710B540F6A872C2F2CE
:1005A0000002D2F8BC22D2F81432002B1CBF01206A
:1005B00010BD40F6A874C2F200040A460146204667
:1005C00005F09AFA2046BDE8104005F019BB00007E
:1005D00070470000EFF3108072B600BFFEE7000026
:1005E00080B540F27C2040F2803140F6A472C2F225
:1005F0000000C2F20001C2F2000200F009F841F26C
:10060000E420C2F20000BDE8804001F009B900001A
:1006100070B540F20C36034641F2E420C2F2000607
:1006200014460D46C2F200004021324601F042F865
:1006300010B10020C0B270BD3068F1682880080C8D
:100640002080C0B270BD0000B0B582B0044600206A
:10065000019094F85800012802D1022002B0B0BDE8
:10066000012084F8580020460D46FFF7AFFEE16DEB
:1006700010B141F010014BE041F2021291430231FE
:10068000E16521684FF6C073D1F808C0C3F6FF7367
:1006900003EA0C0305F080454DF601622B44C0F2DD
:1006A000040203F100438B608B68B3F1FF3F2BDC46
:1006B000019B01330193019B93421DD88B68B3F1D9
:1006C000FF3F21DC019B01330193019B934213D82F
:1006D0008B68B3F1FF3F17DC019B01330193019B52
:1006E000934209D88B68B3F1FF3F0DDC019B0133C6
:1006F0000193019B9342D7D9E06D40F0100020F0A8
:100700000201012004E000BFE16D012262F301015A
:10071000E165002184F8581002B0B0BD70470000B8
:100720002DE9F04181B00022009290F85820012A72
:1007300006D14FF0020C604601B0BDE8F08100BF69
:100740004269012380F8583012B10D6A012D19D188
:100750004A68092A3ED10A688B6A4FF4785606EA3D
:10076000524223B1CE6A03F07C0333431A43036839
:1007700044F20005DE6CC0F210452E401643DE64E4
:10078000426627E0846E1CB1436E00220AE000BF7F
:100790008B6A6A1E23B1CE6A03F07C0333431A438B
:1007A00000232C46D1E9005606F01F06C5F38465E8
:1007B00005FA06F63243661E42EA0302C0E919262C
:1007C00008D1036844F20005DE6CC0F210452E40EB
:1007D0003243DA64D0F80080D8F80820120714D425
:1007E000D8F80C2091F8256091F8265022F4401298
:1007F0004FEA455516B12A4305E000BF91F8246041
:1008000042EA06522A43C8F80C20D8F80820D8F843
:10081000086002F0040206F00806921916D18A6AEE
:10082000C2B1CA6AB2B191F82520012A1CD1C26DA9
:100830004FF0010C42F02002C26591F83060D8F808
:100840001020012E1ED022F0020223E04FF0000CF7
:10085000E9E000BF91F82560D8F80C20012E05D101
:1008600042F0007204E000BFD8F80C2022F00072C1
:100870004FF0000CC8F80C2091F83060D8F8102028
:10088000012EE0D1D1E90D6522F4FF7232432A43F3
:1008900042F00202C8F810200D68042608F1140284
:1008A00006EAD55EC5F340668C6852F82660C5F34B
:1008B00004550727AF40B4F1004F26EA070605D1DB
:1008C00042F80E60126842F0004206E0AC40344349
:1008D00042F80E40126822F00042C8F81420D1E914
:1008E0000425D8F80C60042A70D1D8F86020D8F814
:1008F00060200C68C2F3846694FAA4F52246B5FA27
:1009000085F5C4F3846E6FF3DF422C46002A08BFDE
:100910007446A6424FF6FF74C0F207040ED1D8F811
:10092000602022F00042C8F860200D6805EA040249
:10093000C5F3846E95FAA5F5B5FA85F5D8F8646027
:10094000D8F86460002AC6F384662F4608BF77464D
:10095000BE420ED1D8F8642022F00042C8F86420CC
:100960000D6805EA0402C5F3846E95FAA5F5B5FA9B
:1009700085F5D8F86860D8F86860002AC6F3846600
:100980002F4608BF7746BE420ED1D8F8682022F025
:100990000042C8F868200D6805EA040295FAA5F43B
:1009A000C5F3846EB4FA84F5D8F86C40D8F86C407E
:1009B000002AC4F3846408BF7546AC4233D1D8F82A
:1009C0006C2022F00042C8F86C202CE0062707EAD1
:1009D000960705FA07FE0E6808F1600555F82240F3
:1009E0004FF20007C0F2FF3706F0F8463C404EEAEF
:1009F0000607274347F0004745F822700A698F69C8
:100A000055F8226026F08076374345F822700A694F
:100A10000F7F55F82260012F26F0007608BF06F1FF
:100A2000007645F82260D8F80820D2074ED10D682C
:100A3000CF684FF6FF73D8F8B0602A4607F0180465
:100A4000C0F207036FF3DF42E34096432B4033438A
:100A50000026C4F27F06B742C8F8B03036D18AB15A
:100A600095FAA5F2B2FA82F2013202F01E03092BC6
:100A700002F01F020FD80123934002EB420243EA27
:100A8000025214E0012202EB956202F01E030A2BCF
:100A900002F01F02EFD301230027934002EB420232
:100AA000CFF6206707EB02521A4342F00072C2F3FE
:100AB000406708EB87078B687E69C2F304520725FD
:100AC0009540AE4303FA02F232437A610D68002189
:100AD000C8F208010D426BD040F20831C5F20001A6
:100AE0000C680022CCF22132954204F0E07204D06E
:100AF0001023C9F2C0039D4236D1230258D4B8F165
:100B0000A04F55D10B6823F0E0731A4342F4000262
:100B10000A6040F22801C2F20001096842F66352FD
:100B20008909C0F23E52A1FB0212910901EB410179
:100B3000182202EB810100910099C9B30099013993
:100B400000910099A1B3009901390091009979B3FE
:100B5000009901390091009951B300990139009130
:100B600000990029EAD123E00023CCF252739D4280
:100B700008BF14F080730FD00023CCF684339D425D
:100B800008BF14F4800313D1A1F5027398450FD068
:100B90004FF4800306E000BFA1F50273984507D02B
:100BA0004FF080730F6827F0E0773B431A430A60E9
:100BB000002180F85810604601B0BDE8F0810000C7
:100BC0002DE9F04182B041F27821C2F20001884261
:100BD0007AD140F27024C2F200042078012873D147
:100BE0004FF090402021012201F048F9254635F8C8
:100BF000040F43F6FF7140F200460843C4F60006B6
:100C0000288030464FF48051002201F037F941F23C
:100C100024606427A21DC2F2000029460123009728
:100C200003F030F8E0884FF480516FF39F30E0809C
:100C30003046012201F022F92178E088002906BF20
:100C4000208101462189401A01B240F2442800293E
:100C500048BF00F58040C2F20008608180B2414682
:100C600004F0CEF904F022F960780130607004F0ED
:100C7000E7F840F2F416C2F2000686ED000A04F02E
:100C8000A9F896ED002A9FED5E1A40F2F817B4EE2F
:100C9000412AC2F20007F1EE10FA87ED000A17DDD3
:100CA00086ED001A9FED561AB4EE410AF1EE10FAE5
:100CB0001EDC9FED541AB4EE410AF1EE10FAB8BFF3
:100CC00087ED001A16E000BF02B0BDE8F08100BF5A
:100CD0009FED4C1AB4EE412AF1EE10FAB8BF86ED42
:100CE000001A9FED471AB4EE410AF1EE10FAE0DD6A
:100CF00087ED001A607840F2EC150228C2F2000578
:100D000019D107F0A7F9B1EE001AB4EE410AF1EEDD
:100D100010FA85ED000A03DD85ED001A09E000BF39
:100D2000B9EE001AB4EE410AF1EE10FAB8BF85ED43
:100D3000001A0020607004F06DFA07F093F840F29A
:100D40003820C2F2000090ED000A42F63441BDEEB8
:100D5000C00A10EE100AC4F20101086040F23C2003
:100D6000C2F2000090ED000ABDEEC00A10EE100ABB
:100D7000486040F24020C2F2000090ED000ABDEE53
:100D8000C00A10EE100A8860D8F80400396844F8E8
:100D9000380F28683268C4E9010134F8300CE26089
:100DA00000EE100A0020B8EE400A606141F2E42033
:100DB00084ED040AC2F2000090ED180A14F82B0C1E
:100DC00014F82A1C01EE100A02EE101AB8EE400ABE
:100DD000B8EE411AB8EE422A2046282184ED060AD0
:100DE00084ED071A84ED082AFFF7D6FB4FF09040F8
:100DF0002021002202B0BDE8F04101F03FB800BF61
:100E0000ABAA2A41ABAA2AC17047000070B540F2D4
:100E10000015C5F200050446D5F80862006881682F
:100E2000090744BF022070BDC168C06C10F4C07FC8
:100E300008D1002906D4E06D40F02000E0650120D3
:100E400070BD00BF94F85800012804BF022070BD97
:100E5000012084F858002046FFF7F6FA20B100215F
:100E600084F8581070BD00BFE06D43F20101C00569
:100E700046BF206E20F0080000202066E06D884309
:100E800000F58050E065206806F01F01A84207D1F8
:100E900031B160222A60002284F858200DE000BFA2
:100EA000E26DA84222F48012E2654FF06002026017
:100EB0004FF0000284F8582007D1072914D80122E6
:100EC00002FA01F111F0C10F0ED0C168890144BFCF
:100ED000002070BD81684FF6C072C7F6FF721140E6
:100EE00008318160002070BDE06D40F48010E06545
:100EF000002070BD704700007047000070B582B0E0
:100F000090F85820012A03D10221084602B070BD92
:100F10000022019200920268B2F1A04F30D140F25B
:100F200008324FF6006C4FF60055C5F20002CFF6BE
:100F3000FF7CCFF6FF7552F80C40535923435B07F3
:100F40001ED4D1F800E01368BEF1000F23F4604412
:100F500022D04B6890F8386043EA4633234313604D
:100F6000535952F80C603343DB0723D1136840F622
:100F70001F768968B343194341EA0E0117E000BFA9
:100F8000C16D41F02001C1650121002280F8582087
:100F9000084602B070BD00BF1460515952F80C30C1
:100FA0001943C90708D1116840F61F7399431160AE
:100FB0000021EAE70021E8E70021E6E770470000AA
:100FC000704700002DE9F047056840F20018C5F2AF
:100FD00000082E68D5F804A0D8F808720446B007B7
:100FE0000FD51AF002000CD0E06DC00603D4E06DFE
:100FF00040F40060E0652046FFF790FB2568022082
:101000002860700707F01F0902D51AF0040004D108
:10101000300749D51AF0080046D0204650F85C2F1A
:10102000D20603D4026842F400720260EA6812F445
:10103000406F33D12A46454508BF4FF0A0421346C2
:10104000B9F1090F08BF2B46B9F1050F08BF2B46B0
:10105000B9F1000F08BF2B46AA4208BF1346DA6851
:1010600092041BD42A68120718D5AA6852070BD419
:101070006A6822F00C026A60016821F480710160E4
:101080000168C90406D509E0E06D40F01000E06594
:1010900004F16000016841F0010101602046FFF7A2
:1010A0008DFF25680C202860B00602D51AF02000BC
:1010B00004D170062CD51AF0400029D0204650F8F3
:1010C0005C2FD20603D4026842F400520260294623
:1010D000EF6CEA68454508BF4FF0A0410B46B9F1F7
:1010E000070F08BF2B46B9F1060F08BF2B46B9F111
:1010F000000F08BF2B46A94208BF0B46DB6817F458
:10110000C07F6BD02046FFF75BFD2568602028601C
:1011100030060CD51AF0800009D0E06D40F4803024
:10112000E065204600F0ACF9256880202860F005D5
:101130000DD51AF480700AD0E06D40F40030E065FF
:101140002046FFF7D7FE25684FF480702860B00571
:101150000DD51AF400700AD0E06D40F48020E065EF
:101160002046FFF7C9FE25684FF400702860F0069E
:101170001AD51AF0100017D0E06B38B1B9F1000F92
:101180004ED0D8F8080210F4604F0BD0E06D40F458
:101190008060E065206E40F0020020662046FFF788
:1011A0000FFF256810202860700558BFBDE8F08744
:1011B0001AF4806010D0E06D4FF4806140F48040FC
:1011C000E065206E40F00800206620462960BDE8FA
:1011D000F047FFF719BE00BFBDE8F087990106D5BB
:1011E00002F4406103F4005289187FF48BAF296840
:1011F00049067FF587AF13F400117FF483AFA96828
:10120000090711D4696821F060016960016821F45F
:10121000805101600168C9053FF574AF0AE000BF65
:10122000E868C007B2D1BDE7E06D40F01000E065AE
:1012300004F16000016841F00101016062E7000013
:10124000B0B582B00446002001904CB1E06D58B1B9
:1012500021688868800012D48868C00019D54CE0E5
:10126000012002B0B0BD00BF204600F00BF9002005
:10127000206684F85800216888688000ECD588686A
:101280004FF6C072C5F6FF72104088608868C000D3
:1012900033D44FF6C0728868C5F6FF7202F18052EF
:1012A000104000F18050886040F22800C2F2000037
:1012B000006842F663528009C0F23E52A0FB02026F
:1012C0009009022202EB400001900198A8B100BFF2
:1012D000019801380190019878B101980138019086
:1012E000019850B1019801380190019828B10198F6
:1012F0000138019001980028EAD18868C00009D41B
:10130000E06D40F01000E065206E40F001002066C6
:10131000012000E000208A68E36D02F0040203F07F
:101320001003D218E26D71D122F481720232E265AB
:101330008A68D2071AD140F2083C4FF600534FF6A4
:101340000062C5F2000CCFF6FF73CFF6FF725CF8B7
:1013500003305CF802201A43D20707D16268DCF838
:10136000003023F47C131A43CCF80020627FE36B37
:1013700043EA4232D4E902C31A4394F8243042EAE1
:101380000C02012B42EA034207D1D4F828C0002303
:10139000CFF6FE7303EB4C431A43E36A33B1D4F840
:1013A00030C003F4787343EA0C031A43D1F80CC03D
:1013B00044F20703CFF6F07303EA0C031A43CA6042
:1013C0000A69636B22F040621A430A618A68120755
:1013D00045D494F83820237F520042EA833CCB68FE
:1013E00044F2020223EA020242EA0C02CA602269C3
:1013F0000B698AB143F480330B61D1F8C0C043F666
:10140000FF732CEA03031A430EE000BF42F0100101
:101410000120E16502B0B0BD23F480320A61D1F849
:10142000C02043F6FF739A43C1F8C02094F84030BF
:101430000A69012B10D140F2FD7322EA030CD4E9B2
:101440001132D4E913E543EA0C031A4342EA0E02CF
:101450002A4342F0010201E022F001020A616269BE
:101460000B6B012A23F00F0202D1236A013B1A43BE
:101470000A63E16D012262F30101E16502B0B0BDD2
:101480007047000010B598B004460020CDE9160062
:1014900002A804304021FEF72FFF2068B0F1A04FD2
:1014A00002D018B010BD00BF4FF4004002904FF0C2
:1014B0000050119002A801F00BFE002818BFFFF7A2
:1014C00089F841F24C00C4F20200016841F4005175
:1014D0000160016801F4005101910199016841F036
:1014E00001010160006813A900F00100019001985A
:1014F0000F20139003201490002015904FF090407F
:1015000000F0E6FB12200021002200F035FD122041
:1015100000F01EFD18B010BDB0B5044600F0B4FCDC
:10152000054640F20000C2F200004068611C18BF8E
:10153000044400BF00F0A8FC401BA042FAD3B0BD99
:1015400010B590F85C30013B012B69D8006811F0B0
:10155000070ED0F858C00CF0010300D01BB311F0F7
:10156000380F02D01CF002041DD011F4E07F02D02D
:101570001CF0040417D011F4F05F02D01CF0080432
:1015800011D011F4604F02D01CF010040BD011F4F4
:10159000403F02D01CF0200405D011F47C0F06D08F
:1015A0001CF0400403D1C46D44F00104C465BEF1D5
:1015B000000F18BF002B3BD111F0380F18BF1CF0E3
:1015C000020335D111F4E07F18BF1CF004032FD1C2
:1015D00011F4F05F18BF1CF0080329D111F4604F1B
:1015E00018BF1CF0100323D111F4403F18BF1CF0AA
:1015F00020031DD111F47C0F18BF1CF0400317D13C
:101600000B061BD4CB0504D5D0F8E0301A43C0F844
:10161000E02000F15402002013681943116010BD4E
:1016200000F160020120022113681943116010BD0E
:10163000C36D43F00203C3650B06E3D5D0F8DC307D
:101640001343C0F8DC30CB05E3D5DDE780B590F877
:101650005C20013A012A13D80A68BAB101F1040EDC
:10166000D1E904319EE80450406C43EA4E7E41EAE1
:101670008C7100EBC20340F832E00020596080BD5D
:10168000016E41F002010166012080BDD1E9032312
:10169000D1E901CED206496942EA8E7242EA03429A
:1016A000006C114340F82C10002080BD70470000F2
:1016B000704700002DE9F04390F85C70022F1BD1B9
:1016C000D0F800C040291FD1DCF890703F0700F02F
:1016D0009D80DCF89070FF0146BFDCF88070C7F396
:1016E00040270027DCF89060C6F3012606EB070CC4
:1016F00000F148071DE000BF016E41F008010166DE
:101700000120BDE8F08300BFDCF898703F077DD072
:10171000DCF89870FF0146BFDCF88070C7F3002743
:101720000027DCF89860C6F3012606EB070C00F1F1
:101730004C073F680CEBCC0657F8365007EBC60E4B
:1017400015F08045556057F8365025F0604408BFC5
:10175000C5F38A44146057F8365005F0005595607B
:1017600057F8364004F000441461BEF80440D461D8
:10177000BEF8064014F00F04D460DEF8044004F410
:1017800080145461DEF8044004F4001494619EF85F
:10179000074004F07F041462DEF804404FEAD4747A
:1017A000546228D048F224780024C0F6000800BF14
:1017B0000EEB0406377A651C1F55D76818F80770BA
:1017C000BD4218D2757A1F197D70D56818F805903A
:1017D000A51C4D450FD2B57ABD70D56818F8059097
:1017E000E51C4D4507D2F57A0434FD70D56818F82C
:1017F0000550AC42DCD3006840290CBFC0F894C04F
:10180000C0F89CC00020BDE8F08300BF016E41F429
:10181000807101660120BDE8F08300007047000080
:101820002DE9F04F85B004460068016D426DD0F897
:1018300050B0456D076D466D036D01EA02080493D3
:10184000436D0393036D0293436D0193D0F854A04D
:10185000D0F850905FEA496307D51AF0400104D0F0
:10186000402101652046FFF7D9FF0BEA050B5FEA2F
:10187000C95008F4E0550ED51AF480700BD02068DA
:10188000D0F8D810D0F8E02011404FF480720265F3
:10189000204600F015FA37400BF007062DB12068FE
:1018A00029460565204600F00FFA07F038052EB1ED
:1018B000206831460665204600F0E4F92DB1206825
:1018C00029460565204600F0DFF95FEA895009D511
:1018D0001AF4007006D020684FF4007101652046AC
:1018E00000F0F4F95FEA09600DD51AF080000AD023
:1018F0002068D0F8D410D0F8DC2011408022026596
:10190000204600F0DFF95FEA894009D51AF400505B
:1019100006D020684FF400510165204600F0CEF952
:101920005FEA0940DDE9011000EA010509D51AF472
:10193000004006D020684FF400410165204600F0C9
:10194000BBF9DDE9031008405FEA494105F4602175
:101950000AD51AF4804207D022684FF480431365F9
:10196000226E42F08002226600F4710521B12068E7
:1019700001652046FFF79CFE25B120680565206EB5
:1019800028432066206E28B1204605B0BDE8F04F00
:10199000FFF78CBE05B0BDE8F08F000070B5D8B180
:1019A000044690F85C0028B9002084F85D002046C9
:1019B00000F018F92068816921F01001816100F0C0
:1019C00063FA054620688169090707D500F05CFACB
:1019D000401B0B28F6D312E0012070BD816941F055
:1019E0000101816100F050FA054600BF2168886955
:1019F000C0070DD100F048FA401B0B28F6D3206E2B
:101A0000032140F001002066012084F85C1070BDC5
:101A10004AF200408A69C4F20000A0F5804342F017
:101A2000020299428A6105D162684CF20013CFF636
:101A3000FF73C250227C8B69012A23F0400318BF38
:101A400040338B61627C8B69012A23F4804308BF99
:101A500003F580438B61A27C8B69012A23F48053B8
:101A600018BF03F580538B618A69D4E902E322F43D
:101A7000407545EA0E058D618D6925F0A4058D61DF
:101A80000D6925F010050D61A3B1012B0ED0022BBD
:101A900009D08D69032B45F080058D610D6945F0F6
:101AA00010050D6106D1202301E000BF04238D69DC
:101AB0002B438B61D4E90535D4E907266FF0FF0C81
:101AC000013D0CEB022242EA4562751E2A430025C5
:101AD000CFF6FF7505EB03431A43BEF5407FCA619D
:101AE00010D1D4E909E3D4E90B62013B0CEB0626E3
:101AF00033436FF00F0606EB02121A4305EB0E4359
:101B00001A43CA6004F134064CCED1F8C0502E43BB
:101B1000C1F8C0602064D1F880604AF2704526F4B4
:101B2000F816C4F2000546EA0242C1F88020656456
:101B3000D1F8802022F0706242EA0362C1F880206E
:101B400005F14001A16405F58C71E16405F5F871BA
:101B5000216505F502716165002105F5037200BF7D
:101B6000C0E90011C0E90211C0E90411C0E9061181
:101B7000C0E90811C0E90A11C0E90C11C0E90E1151
:101B8000C0E91011C0E91211C0E91411C0E9161121
:101B9000C0E91811C0E91A11C0E91C11C0E91E11F1
:101BA000C0E92011C0E92211C0E92411C0E92611C1
:101BB000C0E92811C0E92A11C0E92C11C0E92E1191
:101BC000C0E93011C0E93211C0F8D010904200F1E4
:101BD000D400C5D300200121A065206684F85C10E4
:101BE00070BD000010B596B0044668460430402130
:101BF000FEF782FB206846F20041C4F200018842F1
:101C000002D016B010BD00BF4FF4805000904FF0CE
:101C100000700C90684601F05BFA002818BFFEF7D0
:101C2000D9FC41F24C00C4F20200C16841F00071DD
:101C3000C160C16801F0007111911199016841F012
:101C400002010160006811A900F0020011901198D2
:101C50004FF440701190022012900020CDE9130043
:101C60000920159040F20040C4F6000000F030F862
:101C700015200221002200F07FF9152000F068F9FC
:101C800016B010BD704700007047000090F85C105F
:101C900001290BD1022180F85C1001688A6922F0C9
:101CA00001028A610021016608467047016E41F019
:101CB0000401016601207047704700007047000072
:101CC0007047000070470000704700007047000038
:101CD0002DE9F04F82B00D68002D00F0CB8041F26D
:101CE000004400F13847C4F6000406224FEAB72644
:101CF000A04208BF0522052E38BF4FEAB7220024B4
:101D000001274FF0000E0026009209E00D68013611
:101D100035FA06F20EF1040E04F1020400F0AA8076
:101D200007FA06FB15EA0B08F0D0D1F804A003224D
:101D30000AF0030CACF10105A240012D6FEA020983
:101D400010D88268CD6802EA0902A5402A43826061
:101D50004268CAF3001522EA0B02B5402A434260EA
:101D600006E000BFBCF1030F02D14FF0030C21E0ED
:101D7000C2688D6802EA0902A5402A43BCF1020F3D
:101D8000C26017D16FF0030202EA560202440EF05D
:101D90001C030F25D2F820C005FA03FA0D692CEABE
:101DA0000A0C05FA03F343EA0C031362D1F804A00A
:101DB0000AF0030C02680CFA04F302EA09021A435F
:101DC0001AF4403F0260A1D041F26003C4F2020362
:101DD0001A6840F2004942F001021A601A68C4F21F
:101DE000010902F001020192019A26F003024FF666
:101DF000084A4A44CFF6FF7A52F80AC00EF00C05A2
:101E00000F23009FAB402CEA030307FA05F52B4391
:101E100042F80A30D9F808C04B684CEA0805DA02E3
:101E200058BF2CEA080540F20C4CC9F80850C4F21F
:101E3000010CDCF800209F0242EA080558BF22EAA4
:101E40000805CCF80050D9F804209D0342EA0807A1
:101E500058BF22EA0807C9F80470D9F80020DB034C
:101E600042EA080758BF22EA0807C9F800700127AC
:101E70004CE700BF02B0BDE8F08F00001823002A35
:101E800008BF2823C150704741F2D460C2F200005D
:101E90000068704740F2000041F2D461C2F20000D5
:101EA000C2F2000140680A681044086070470000F0
:101EB00080B5032000F08CF80F2000F009F800280E
:101EC0001CBF012080BD00F029F8002080BD00006B
:101ED00070B540F20006C2F200067168E1B1044636
:101EE00040F22800C2F200004FF47A720068B2FBA0
:101EF000F1F1B0FBF1F002F04BF80F2C4FF00105BF
:101F000008D838B94FF0FF3021460022002500F0F4
:101F100033F83460284670BD012070BD82B041F2B4
:101F20005800C4F20200816841F0010181608168BB
:101F300001F0010101910199016841F080510160B6
:101F4000006800F080500090009802B001F0B6B830
:101F5000002848BF7047C1B200F01F00012202FAFA
:101F600000F04EF20012CEF2000242EAD10121F05E
:101F7000030108607047000010B54EF60C5CCEF20D
:101F8000000CDCF80030C3F3022E8EF00704042CA2
:101F900028BF0424BEF103034FF0FF3E0EFA04F401
:101FA00038BF0023A14399400EFA03F39A4311432B
:101FB00000F00F0200F160430901043A03F56443A5
:101FC0006244002848BF02F10C03197010BD0000E4
:101FD0004EF60C51CEF200010A684FF6FF031A408C
:101FE00060F30A2242F0806040F0FD7008607047A4
:101FF00001220168C0F8D022002280F8C822B1F87E
:10200000540040F00100A1F85400B1F8540040F031
:1020100002020020A1F854207047000010B50129E9
:10202000044613D011BB607A48B103F055FA4EF65E
:102030001050CEF20000016821F006010160D4F8D2
:10204000D802BDE8104004F037B800BFD4F8D80279
:1020500004F0B8F8607A002808BF10BD4EF61050A2
:10206000CEF20000016841F00601016010BD0000E1
:1020700080B501F0070C0CEB8C0C00EBCC0C01EBE9
:10208000810E0CF1100C00EBCE00090658BF00F5D4
:10209000A87C0020002A19BFCCF808300121ACF838
:1020A000063000218CF80C1080BD000001EB81028D
:1020B000D0F8D83200EBC200426A184603F0BCBE2A
:1020C00001EB8102D0F8D83200EBC200D0F86421D5
:1020D000184603F005BF000010B5044648B2B0F141
:1020E000FF3F01F0070000EB800104EBC10205DDBA
:1020F00002F5A871002382F8513103E0012302F1B7
:102100001001537494F890220870012A04BF022031
:1021100010BD2068012284F8902204F067FC0020A2
:1021200084F8900210BD0000B0B50446007901F0BB
:102130000F02824284BF0120B0BD48B2B0F1FF3F20
:1021400001F0070000EB800104EBC10206DD02F59F
:10215000A871002382F8513104E000BF012302F18D
:102160001001537494F890220025012A8D70087094
:1021700004BF0220B0BD2068012284F8902204F040
:10218000C9FC284684F89052B0BD000001F0070158
:1021900001EB810100EBC100D0F86C017047000039
:1021A00070B5064648B2B0F1FF3F01F0070000EB02
:1021B000800107DD06EBC10404F5A871002584F851
:1021C000515106E006EBC10C01240CF110018CF812
:1021D000114008700A61022BCB7004BF0020087107
:1021E00096F89002012804BF022070BD30680122D9
:1021F00086F8902204F0D4FA002086F8900270BD90
:1022000010B501F0070C0CEB8C0100EBC10E00685F
:102210000EF5A8710024CEF86421CEF86831CEF80E
:102220006C418EF851418EF850C104F0CBFC002077
:1022300010BD000010B50279044601F0070090427D
:1022400084BF012010BD4AB2B2F1FF3F0ADD01EBAD
:10225000810104EBC10202F5A871002382F851311B
:1022600008E000BF00EB800104EBC102012302F192
:102270001001537494F890320122012B8A70087077
:1022800004BF022010BD206884F8902204F080FC76
:10229000002084F8900210BD80B501F0070C0CEB13
:1022A0008C0100EBC10101F810CF00684FF0010C68
:1022B00001F1140781F824C04FF0000E87E80C40AC
:1022C0000B6281F801C004F07DFC002080BD00009D
:1022D0002DE9F04F81B00446006805F0B3F8010421
:1022E00020D4410500F1FA83410400F109848104FE
:1022F00000F11E84C10400F12584010500F1488429
:10230000010600F15B84810500F16884C00540F19D
:10231000F3832068B0F8441021F48071A0F84410D1
:10232000EAE300BF2068B0F94410B1F1FF3F00F3C9
:10233000E38304F5267140F60F7B009123E000BF94
:10234000B0F8501094F85021014401EBC201B1F8EB
:102350000634B4F8562100996FF39F23C4F86C310A
:1023600005F074F82068018801EA0B0180310180D2
:10237000204600F0DDFD00BF2068B0F94410B1F147
:10238000FF3F00F3B983B0F8442012F00F090DD0DD
:1023900030F929104FEA490AB1F1FF3F1FFA81F8DD
:1023A0002EDD5FEA0860E7D560E100BF0188D20654
:1023B0006AD401EA0B0101F500410180B0F8501028
:1023C000227C084400EBC200B0F80204616A6FF39B
:1023D0009F20E0620844606220460021FFF766FE0D
:1023E000207B0028C8D0A06A0028C5D1207B2168A6
:1023F00040F08000C0B2A1F84C0000202073BBE781
:1024000030F81A1040F60F7C01EA0B01803120F8F9
:102410001A1009EB890104EBC10B9BF85C110BF559
:10242000A876002900F082809BF85311022940F021
:102430008F80B0F850703178DBF8683107440BF5C5
:10244000B4725FEA484507EBC10700F19B80B7F81B
:10245000067400256FF39F27DB1B38BF2B461360E4
:1024600040F2A6805FEA486200F1B28030F8212095
:1024700048F2C00302EA0C021A4320F82120002F80
:1024800040F0A780CCE000BF0A053FF559AF09B284
:10249000B1F1FF3F3FF770AF018801EA0B018031D6
:1024A0000180B0F8501094F85021014401EBC201B2
:1024B000B1F806346FF39F23C4F86C3193B1D4F8AC
:1024C000641179B1B4F8562104F0C0FFD4F8640166
:1024D000D4F86C110844C4F8640120460021FFF7C9
:1024E000EFFD206801880A053FF546AF01F4405131
:1024F000B1F5405F3FF440AFB0F8501000F2064233
:10250000535A6FF39F235352D4F860313F2BC0F0DE
:102510000782DE068E5A4FEA53174FF0FF3508BF89
:1025200005EB531746EA87237DE200BFB0F8501051
:102530003278014401EBC201B1F806746FF39F27B2
:10254000002F6DD0DBF86411BBF8562163E000BFAB
:10255000327848F2C00330F8221001EA0C01194326
:1025600020F8221030F82230B0F8501000EBC202F0
:102570005B04114416D4B1F806746FF39F2747BB70
:102580004EE000BFB7F8027400256FF39F27DB1BF6
:1025900038BF2B46136021D95FEA48622DD4B7BB00
:1025A0003EE000BFB1F802746FF39F277FBB37E0B6
:1025B00030F8212043F60F731A404CF28003A3F544
:1025C00000535A4020F821205FEA48627FF54EAF61
:1025D00037B3DBF86411BBF85A211CE030F8212036
:1025E00043F60F731A404CF28003A3F500535A4090
:1025F00020F821205FEA4862D1D530F8212048F246
:10260000C00302EA0C021A4320F8212047B1DBF88C
:102610006411BBF858213B4604F018FF01E000BFED
:102620000027DBF86C11DBE9590239443844CBF858
:102630006C11CBF864011AB1DBF86001B8420BD918
:1026400031782046FFF73CFD40F60F7B5FEA0860DB
:102650007FF592AE0AE000BF2068314604F0B2FA7E
:1026600040F60F7B5FEA08607FF586AE206809EBD5
:10267000890130F81A2004EBC10502EA0B0101F5CB
:10268000004120F81A10E97C05F11009012923D135
:10269000297F00294FF00001A96200F03B815FEA29
:1026A000486100F18780697C012900F01D810029C3
:1026B00040F03081B0F8501099F80020084400EB49
:1026C000C200B0F806146FF39F21A0F80614B0F80A
:1026D000061441F400410FE15FEAC8511ED4B0F87E
:1026E000502099F80010024402EBC102B2F8022413
:1026F000AB6A6FF39F229B1A4FF0000738BF3B462F
:10270000AB6240F20981696AEB6A11446962991807
:10271000E962494604F056FA2EE600BFB0F8507060
:1027200099F800102A4652F8286F5FEA486300EBD8
:10273000C10C59D40CF2064E3EF8077000236FF31B
:102740009F27F61B38BF1E46166040F285805FEA61
:10275000484208D430F821204CF2800302EA0B02F0
:102760001A4320F821202A4612F8341F012940F08C
:10277000A4812B4653F8308F53E904C153F8046CFD
:1027800039443E44E04543F80C1C43F8046C80F0A7
:102790000381B8F1000F00F05D810027C4461F607F
:1027A00017706A7C012A40F0FE80B0F850202EF8A5
:1027B00002C075E1697C012900F0A280002940F087
:1027C000A980B0F8501099F80020084400EBC2002E
:1027D000B0F802146FF39F21A0F80214B0F80214AD
:1027E00041F4004194E000BF0CF2024E3EF8077045
:1027F00000236FF39F27F61B38BF1E4616604FD984
:102800005FEA484208D530F821204CF2800302EA02
:102810000B021A4320F821202B4613F8341F0129FC
:1028200040F04B812A4652F830CF52E9046152F809
:10283000048C3944B844B44542F80C1C42F8048C6A
:1028400080F0CC804FF00008BCF1000F83F80080CE
:1028500040F0C780BC46C6E06A7C012A6CD0002AE2
:1028600074D1B0F850206244B2F802346FF39F2361
:10287000A2F80234B2F8023443F40043A2F802345E
:10288000B0F850003EF800206FF39F222EF8002091
:102890003EF8002042F400422EF8002056E000BF2F
:1028A0006A7C012A5AD0002A62D1B0F850203EF842
:1028B00002706FF39F272EF802703EF8027047F403
:1028C00000472EF80270B0F850006044B0F80624BB
:1028D0006FF39F22A0F80624B0F8062442F40042C9
:1028E000A0F8062444E000BFB0F8501099F800208A
:1028F000084400EBC2000021A0F806140AE000BF63
:10290000B0F8501099F80020084400EBC2000021F4
:10291000A0F8021499F800102046FFF7C7FB2BE53A
:10292000002B00F07F8003F001078E5A07EB530362
:1029300046EA83237CE000BFB0F8502000236244C5
:10294000A2F80234B0F850002EF800302046FFF70D
:10295000ADFB5FEA484012D5AFE000BFB0F85020B1
:1029600000232EF80230B0F850006044A0F806347E
:102970002046FFF79BFB5FEA484040F19E802068BD
:1029800099F800104CF2800330F8212002EA0B0283
:102990001A4320F8212090E0A8EB0C021A606A7C10
:1029A000012A3FF402AF002A7AD1B0F85070BCF18E
:1029B0003F0F3EF807206FF39F222EF8072051D3D8
:1029C0005FEACC634FEA5C1237F80E304FF0FF3607
:1029D00008BF06EB5C1243EA82225DE0ACEB06081E
:1029E000B446C2F800806A7C012A2DD0002A5FD14B
:1029F000B0F85070BCF13F0F3EF807206FF39F22F4
:102A00002EF807203AD35FEACC634FEA5C1237F81E
:102A10000E304FF0FF3608BF06EB5C1243EA82220D
:102A200042E000BF8B5A48F20007CFF6FF773B43E6
:102A30008B52018843F60F7211404CF28002A2F5CE
:102A400080525140018097E4B0F850202EF802C027
:102A50002EE000BF00231370BC466A7C012AA2D17D
:102A6000A3E600BFBCF1000F14D00CF0010237F850
:102A70000E3002EB5C0243EA82220FE0BCF1000F51
:102A800010D00CF0010237F80E3002EB5C0243EA82
:102A900082220BE037F80E2042F4004227F80E2085
:102AA0006A8B06E037F80E2042F4004227F80E2029
:102AB0002A8B1FFA8CF304F01FFD206899F8001090
:102AC00040F63F7330F821201A4048F2C003103B13
:102AD0005A4020F82120FFF74FBC00BF2068B0F813
:102AE000441021F48061A0F84410204600F0E2F97F
:102AF00094F8900201280DD101B0BDE8F08F00BF1D
:102B00002068B0F8441021F48041A0F8441001B0CE
:102B1000BDE8F08F0120002584F89002257320681D
:102B2000002104F0E1FC84F8905201B0BDE8F08F80
:102B30002068B0F8441021F40051A0F8441001B00E
:102B4000BDE8F08F2068B0F8401021F00401A0F833
:102B50004010B0F8401021F00801A0F8401094F89F
:102B6000C802012806D1002084F8C80220460021AE
:102B7000FFF754FA204600F0AFF92068B0F844108F
:102B800021F48051A0F8441001B0BDE8F08F00BFDF
:102B90002168B1F8400040F00800A1F84000B1F809
:102BA000440020F40060A1F84400B1F8400040F077
:102BB00004022046A1F840200BE000BF2068B0F8D6
:102BC000441021F08001A0F8441094F8C81299B183
:102BD000204601B0BDE8F04F00F0C8B92168B1F857
:102BE000440020F400722046A1F8442001B0BDE862
:102BF000F04F00F085B900BFB0F8401041F004017B
:102C0000A0F84010B0F8401041F00801A0F84010C2
:102C1000012184F8C812B0F854003C2101EA900266
:102C200020460121C4F8CC2201B0BDE8F04FFFF7E7
:102C3000F5B90000F0B581B0002800F0038104462A
:102C400090F8910228B9002084F89002204600F004
:102C5000FDF8032084F89102206803F051FF2179E8
:102C6000002900F0DD80A1F1010E01F0030CBEF19E
:102C7000030F4FF0000334D301F0FC0004F1A00275
:102C8000012600256F1C02F8687CAF1C02F8905CDE
:102C900002F8407CEF1C043502F88F6C02F88D3C82
:102CA00042E9203342F8783C02F8676C02F8653C50
:102CB00042E9163342F8503C02F83F6C02F83D3CC2
:102CC00042E90C3342F8283C02F8176C02F8187CF1
:102CD00002F8153C42E9023342F8A03B8542D1D1CB
:102CE0002B46BCF1000F29D003EB830004EBC00599
:102CF00001220020BCF1010F6A742B74E874C5E94D
:102D00000800A8621AD05D1C05EB850604EBC60618
:102D1000BCF1020F72743574F074C6E90800B06239
:102D20000CD0981C00EB800204EBC202012310744B
:102D300000205374D074C2E90800906200296FD05B
:102D4000BEF1030F4FF0000233D301F0FC0004F595
:102D5000F07100235F1C01F8687C9F1C01F8903C17
:102D600001F8407CDF1C043301F88F2C01F88D2C16
:102D700041E9202241F8782C01F8672C01F8652CF4
:102D800041E9162241F8502C01F83F2C01F83D2C66
:102D900041E90C2241F8282C01F8172C01F8187C85
:102DA00001F8152C41E9022241F8A02B8342D1D130
:102DB0001A46BCF1000F33D002EB820004EBC001D5
:102DC0000020BCF1010F81F8510181F8502181F8F8
:102DD0005301C1E95800C1F8680121D0511C01EB31
:102DE000810304EBC303BCF1020F83F8510183F8A4
:102DF000501183F85301C3E95800C3F868010FD09C
:102E0000901C00EB800104EBC101002281F85121EC
:102E100081F8500181F85321C1E95822C1F8682195
:102E200094E8070003F05EFE00200121207384F87F
:102E30009112A17A012903D12046FFF7D9F8002089
:102E400001B0F0BD012001B0F0BD000010B592B09E
:102E5000044601A804304021FDF74EFA206845F6EB
:102E60000041C4F20001884202D012B010BD00BF80
:102E70004FF40050019001A800F02AF9002818BF73
:102E8000FDF7A8FB41F25800C4F2020001680022DD
:102E900041F4000101600068002100F4000000908E
:102EA00000981420FFF768F81420FFF751F812B0CB
:102EB00010BD000010B504464079022818BFFDF788
:102EC00089FBD4F8D802012103F010F9D4F8D80214
:102ED000BDE8104003F0BCB810B50446407A48B1D4
:102EE0004EF61050CEF20000016821F0060101609C
:102EF00002F0F2FAD4F8D802BDE8104003F0DCB8D2
:102F0000D0F8D80203F0E2B810B5044690F8900269
:102F1000012804BF022010BD012084F89002217313
:102F2000206804F0E1FA002084F8900210BD00004F
:102F3000D0F8D82200F52671104603F0EDB8000055
:102F400010B5044690F89002012804BF022010BD7D
:102F50002068012184F8901204F064FA206803F0DC
:102F6000B7FD002084F8900210BD000010B50446A3
:102F7000D0F8D80203F026F9607A002808BF10BD07
:102F80004EF61050CEF20000016841F006010160DB
:102F900010BD0000B0F5007F42D0002840F08080D6
:102FA00047F21400C4F2000050F8141CC26E01F481
:102FB000C06122F48072B1F5806FC2662ED150F8E4
:102FC000141C012262F34A2140F8141C40F228012B
:102FD000C2F200010968322251434DF68362C4F205
:102FE0001B32A1FB0212910C0268520511D54A1C3A
:102FF0000FD0026852050CD559B10268520508D5A8
:10300000012906D00268520503D50229A1F1040165
:10301000EAD10068400544BF032070470020704794
:1030200047F21400C4F2000050F8141CC26E01F400
:10303000C06142F48072B1F5806FC266EED150F883
:10304000141C012262F34A2140F8141C40F22801AA
:10305000C2F200010968322251434DF68362C4F284
:103060001B32A1FB0212910C0268520511D54A1CB9
:103070000FD0026852050CD559B10268520508D527
:10308000012906D00268520503D50229A1F10401E5
:10309000EAD10068400544BF03207047BEE700BF87
:1030A00047F21400C4F2000050F8141C022262F32C
:1030B0004A2140F8141C00207047000047F2080025
:1030C000C4F20000016841F48041016070470000D3
:1030D0002DE9F04182B00446807841F2880600076D
:1030E000C4F2020602D400202FE000BF56F8300CD4
:1030F00010F080580BD156F8300C40F0805046F854
:10310000300C56F8300C00F080500190019847F2D6
:103110000007C4F20007386840F480703860FEF79A
:10312000B3FE05463868C00500F1D680FEF7ACFE58
:10313000401B0228F6D90320B8F1000F05D156F83C
:10314000301C21F0805146F8301C2168CA0713D189
:103150008A0719D44A071FD40A0725D48A062BD414
:103160004A0631D40A0637D4CA053DD48A0543D469
:103170004A0549D457E000BF3268636822F0030271
:103180001A4332608A07E5D53268A36822F00C0240
:103190001A4332604A07DFD53268E36822F0300212
:1031A0001A4332600A07D9D53268236922F0C00277
:1031B0001A4332608A06D3D53268636922F44062CA
:1031C0001A4332604A06CDD53268A36922F44052D0
:1031D0001A4332600A06C7D53268E36922F44042D6
:1031E0001A433260CA05C1D53268236A22F44032DC
:1031F0001A4332608A05BBD53268636A22F44022E2
:103200001A4332604A050ED53268A36A22F440128E
:103210001A43B3F5801F326005D156F87C2C42F476
:10322000801246F87C2C0A050ED53268E36A22F437
:1032300040021A43B3F5800F326005D156F87C2C5A
:1032400042F4801246F87C2CCA040ED53268236BF7
:1032500022F040721A43B3F1807F326005D156F8F4
:103260007C2C42F4801246F87C2C8A040ED53268FD
:10327000636B22F040621A43B3F1006F326005D1F4
:1032800056F87C2C42F4801246F87C2C4A040ED569
:103290003268A36B22F040621A43B3F1006F3260D0
:1032A00005D156F87C2C42F4801246F87C2C090497
:1032B0000ED53168E26B21F040511143B2F1805FCD
:1032C000316005D156F87C1C41F4803146F87C1CF5
:1032D00002B0BDE8F08100BFB06810F4407010D0BB
:1032E000216C88420BD0B068B16820F4407041F482
:1032F0008031B160B16821F48031B160B060C00745
:103300000CD1B068216C20F440700843B0600020FC
:10331000B8F1000F7FF419AF11E700BFFEF7B4FD5D
:10332000054641F2883700BFB0688007E9D4FEF750
:10333000ABFD401BB842F7D9FDE600007047000026
:103340002DE9F04700286DD042F2000AC4F2020ACB
:103350000446DAF800000D4600F00F0088420CD257
:10336000DAF8000020F00F002843CAF80000DAF86D
:10337000000000F00F00A84254D1216841F2080873
:10338000C807C4F2020803D1880740F1D880BDE025
:10339000606802283AD0032840D158F8082C9201DE
:1033A00040D5D8F80420D8F8043042F20046C3F3E0
:1033B000031302F00302D8F804700133C0F2F406DC
:1033C000032A04BF41F20026C0F27A06B6FBF3F2EC
:1033D000D8F80430C7F306277A43C3F341630227C2
:1033E00007EB4303B2FBF3F24BF20043C0F2C443DA
:1033F0009A4261D9D8F8002012F0F00F51D0890715
:103400005AD5A168002957D14BE000BF58F8081CD5
:1034100089035CBF0120BDE8F08707E058F8081C6D
:10342000490503D40120BDE8F08700BFD8F800109B
:1034300001F00C0104293FD0D8F8001001F00C0174
:10344000082939D0D8F8001001F00C010C2933D12B
:10345000D8F80410D8F8042042F20047C2F303124F
:1034600001F00301D8F804300132C0F2F407032957
:1034700004BF41F20027C0F27A07B7FBF2F1D8F897
:103480000420C3F306235943C2F34162022303EB32
:103490004202B1FBF2F14BF20042C0F2C44291424F
:1034A0000AD9D8F80010082262F307114FF0010979
:1034B000C8F8001002E000BF4FF00009D8F8001073
:1034C00021F003010843C8F80000FEF7DDFC0646C2
:1034D00041F28837D8F80000616800F00C00B0EBCA
:1034E000810F07D0FEF7D0FC801BB842F2D9032031
:1034F000BDE8F0872168880708D4B9F1000F1ED015
:10350000D8F8000020F0F00017E000BF480705D50C
:10351000D8F8000040F4E060C8F80000080706D5BD
:10352000D8F80000072262F30D20C8F80000D8F890
:103530000000A26820F0F0001043C8F80000DAF89C
:10354000000000F00F00A8421BD9DAF8000020F0BC
:103550000F002843CAF80000FEF796FC064641F229
:10356000883700BFDAF8000000F00F00A84207D04B
:10357000FEF78AFC801BB842F4D90320BDE8F0872F
:103580002168480707D5D8F80000E26820F4E06019
:103590001043C8F80000080708D5D8F800002169D2
:1035A00020F4605040EAC100C8F80000D8F80000DC
:1035B00042F20041C0F2F40100F00C000428084679
:1035C0002DD0D8F8000000F00C00082841F20020AF
:1035D000C0F27A0023D0D8F8002002F00C020C2AA6
:1035E0001CD1D8F80420D8F8043002F00302C3F349
:1035F0000313D8F804700133032A08BF0146B1FB56
:10360000F3F0D8F80410C7F30627C1F34161022292
:10361000784302EB4101B0FBF1F000E00020D8F864
:10362000001048F21472C1F30311C0F60002515C9D
:1036300040F2280201F01F0120FA01F140F20000DF
:10364000C2F200000068C2F200021160BDE8F0475B
:10365000FEF73EBC41F20000C4F20200016841F4F2
:10366000002101607047000010B541F21C04C4F253
:1036700002042068C00558BF10BDFFF75FFE4FF47D
:103680008070606010BD00002DE9F04182B000281C
:1036900000F006810446007841F20006C007C4F23B
:1036A000020655D12078800774D42078000700F1F5
:1036B00097802078400700F1B7802078800600F1DD
:1036C0000781E569002D00F03082B06800F00C0041
:1036D0000C2840F05981012D00F0E280F068216A49
:1036E00000F003028A4240F0DB80626A6FF00F0351
:1036F00000F0F00103EB0212914240F0D180A16A88
:1037000000F4FE42B2EB012F40F0CA80E16A00F003
:103710007842B2EBC16F40F0C380226B0023CFF63A
:10372000E07303EA025200F4C001A2F500129142D4
:1037300040F0B680616B4FF07E4202EA016100F01A
:10374000C06001F17E41884240F0AA80EDE100BFF7
:10375000B06800F00C01F06808295BD0032281F00A
:103760000C0122EA00000844B0FA80F0400951D16F
:103770006068B0F5803F07D0B0F5A02F40F0DA8048
:10378000306840F480203060306840F48030306031
:10379000DBE000BFB068F16800F00C00042869D0DD
:1037A00001F0030180F00C0081F002010844B0FA3E
:1037B00080F040095ED1E1683068002900F0D280D5
:1037C00040F480703060FEF75FFB054630684005CE
:1037D00000F1FC80FEF758FB401B0228F6D92EE1D1
:1037E0006169D6F89400002900F0908040F0010053
:1037F000C6F89400FEF748FB054600BFD6F89400D3
:1038000080073FF556AFFEF73FFB401B0228F5D976
:1038100015E100BF306880037FF544AF6068002881
:103820007FF440AF3CE000BFB06D10F0805808D18D
:10383000B06D40F08050B065B06D00F080500190E8
:10384000019847F20007C4F200073868C0052BD47E
:10385000386840F480703860FEF716FB054600BFFC
:103860003868C00520D4FEF70FFB401B0228F7D9AB
:10387000E5E000BF3068400501D5E06880B17068C0
:10388000216920F0FE4040EA0160706040F20000D3
:10389000C2F200000068FEF71BFB00283FF405AFF2
:1038A000012002B0BDE8F081A068012808D00528F9
:1038B00040F0AA80D6F8900040F00400C6F89000CE
:1038C000D6F8900040F00100C6F89000A9E000BFD3
:1038D000A169D6F89800002900F0808040F001002E
:1038E000C6F89800FEF7D0FA054600BFD6F8980053
:1038F00080073FF5E6AEFEF7C7FA401B02284FF0FF
:103900000300F3D902B0BDE8F08100BF20F0010050
:10391000C6F89400FEF7B8FA054600BFD6F8940042
:1039200080077FF5C6AEFEF7AFFA401B0228F5D937
:1039300085E000BF3168002821F4803131603168B2
:1039400021F48021316000F07F80FEF79DFA05466A
:10395000306880033FF5A6AEFEF796FA401B642858
:10396000F6D96CE020F480703060FEF78DFA0546E1
:10397000306840057FF599AEFEF786FA401B0228B5
:103980004FF00300F4D9BDE7306820F0807030605C
:10399000FEF77AFA022D05460CD100BF306880018F
:1039A00040F17E80FEF770FA401B02284FF00300C2
:1039B000F4D9A7E73068800140F1B080FEF764FADF
:1039C000401B02284FF00300F4D99BE7706821697F
:1039D00020F0FE4040EA0160706066E620F00100E1
:1039E000C6F89800FEF750FA054600BFD6F89800D2
:1039F00080077FF566AEFEF747FA401B02284FF0BE
:103A00000300F3D97EE700BFD6F8901021F0010142
:103A1000C6F89010D6F8901021F00401C6F8901066
:103A200010B3FEF731FA054641F28837D6F8900018
:103A300080072BD4FEF728FA401BB842F6D90320A2
:103A400002B0BDE8F08100BFFEF71EFA054600BFD8
:103A5000306880037FF526AEFEF716FA401B642817
:103A60004FF00300F4D94DE7FEF70EFA054641F298
:103A7000883700BFD6F89000800707D5FEF704FA14
:103A8000401BB8424FF00300F4D93BE7B8F1000FF8
:103A90007FF413AEB06D20F08050B0650DE600BF2E
:103AA000F06848F20C01C0F29F1104F1200700EA0F
:103AB000010C8ECF6FF00F00D4E90C5400EB021014
:103AC0000022CFF6E07241EA0C0102EA05520843F7
:103AD000A2F500124FF07E4540EA032005EA046596
:103AE000104305F17E4540EAC7602843F060306826
:103AF00040F080703060F06840F08070F060FEF759
:103B0000C3F90446306880010FD4FEF7BDF9001BED
:103B100002284FF00300F5D9F4E600BFF0684FF635
:103B2000FC71CFF6EE610840F060002002B0BDE805
:103B3000F0810000002804BF01207047B0B50446A2
:103B4000406A28B10020206104F1140006E000BFA3
:103B50006068B0F5827F03D004F11C000021016091
:103B60000025A56294F85D0020B9204684F85C50D9
:103B700000F052F8022084F85D002068D4F80CE0D0
:103B80000268BEF5E06F22F0400202604EF400626F
:103B900098BF0125B2F5706F1CBF0023A3624FEAE6
:103BA000053CD4E90135D4E9042103F4827305F41A
:103BB00004452B4402F002021A44A36901F00101FA
:103BC000E569114403F40072114405F03802256AD6
:103BD000114405F08002A56A114405F40052114316
:103BE00001600421626A0EF4706501EA1341636B9F
:103BF00045EA0C0502F01002294303F008031143C3
:103C000019434160C16921F40061C16100200121B3
:103C1000206684F85D10B0BD80B586B0006843F6BC
:103C20000001C4F20001884202D006B080BD00BF8E
:103C300041F24C00C4F20200C16841F48041C1600D
:103C4000C16801F4804101910199016841F00201CC
:103C50000160006801A900F00200019001984FF492
:103C600060400190022002900020CDE90300052071
:103C7000059040F20040C4F60000FEF729F806B0B7
:103C800080BD00002DE9F04381B0044690F85C004F
:103C9000012803D1022001B0BDE8F08301201E46B7
:103CA00015460F4684F85C00FEF7EEF894F85D10B8
:103CB000814601290CD1002F4FF0010018BF002DC3
:103CC00014D1002184F85C1001B0BDE8F08300BF7E
:103CD0006068B0F5827F40F0B180A06800284FF0A6
:103CE000020008BF0429ECD1E5E700BF002EE8D0B0
:103CF00094F85D0004281CBF052084F85D000020B6
:103D000020662564A4F84660A4F84460A763E687AB
:103D1000C4E913002068A687E1684268B1F5E06F46
:103D200022F48052134698BF03F58053012E88BFBA
:103D3000134643600268520603D4026842F0400210
:103D400002606268731EB2FA82F2B3FA83F3DDF89E
:103D5000208052095B09B1F5E06F43EA020175D991
:103D600031B137F8021BC160A763E08F0138E087EB
:103D7000012518F1010036D102E000BFFEF784F8FA
:103D8000E08F20B9B4F84600002800F0CD8020680C
:103D9000816889070CD5E18F51B1012D08D1A16B44
:103DA000002531F8022BC260A163E18F0139E18760
:103DB0008168C907E2D0B4F846100029DED0C06897
:103DC000216C012521F8020B2164B4F8460001386A
:103DD000A4F84600D2E700BFFEF756F8A0EB0900B2
:103DE000404580F09F80E08F20B9B4F8460000285D
:103DF00000F09A802068816889070CD5E18F51B165
:103E0000012D08D1A16B002531F8022BC260A163FE
:103E1000E18F0139E1878168C907DDD0B4F8461028
:103E20000029D9D0C068216C012521F8020B21643A
:103E3000B4F846000138A4F84600CDE7022000217E
:103E400084F85C1001B0BDE8F08300BF89B1E18F58
:103E500002294FF6FE7103D337F8022BC26004E04B
:103E60003A7801310273A06B471CA763E08F0844C6
:103E7000E087012608F10105E08F18B9B4F8460083
:103E8000002851D020688168890719D5E18FB9B120
:103E9000012E15D1E28FA16B022A07D331F8022B34
:103EA000C260A163E18F023908E000BF09780173A5
:103EB000A16B20680131A163E18F01390026E18700
:103EC0008168C90726D0B4F8461019B3B4F8461073
:103ED000022913D3C168226C22F8021B2264B4F8B1
:103EE00046100239A4F84610B4F84610012910D83B
:103EF000416841F4805141600BE000BF007B216CC0
:103F00000870206C01302064B4F846000138A4F831
:103F100046000126FDF7B8FF002DADD0A0EB09004B
:103F20004045A9D3032029E020464FF4C051424622
:103F30004B4601F0A1F968B9204641464A4601F0D6
:103F40005FFA38B920464FF4C06142464B4601F053
:103F500093F978B1206E40F0200020662020206682
:103F60000120216E51B10120002184F85C1001B0C4
:103F7000BDE8F0830020216E0029F4D1012184F8EE
:103F80005D10002184F85C1001B0BDE8F0830000F2
:103F9000411E0020B0EB116F1CBF012070474EF294
:103FA0001002CEF2000251604EF62351CEF2000113
:103FB000F0230B700721906011607047704700007C
:103FC0007047000070470000B0B590F83C20012A0F
:103FD00004BF0220B0BDD1E90232D1E900CE22F403
:103FE0007C5223F4705343EA020448F2FF73CEF686
:103FF000F0730EEA0302224303F5006404EA0C04A2
:1040000042EA040C0C6903F5C05222404C6942EAB2
:104010000C02224303F5605422400C6B03F5F0437D
:1040200023401A438B6940F2000CCC69CEF6FF7C2A
:104030000CEA03431443D0F800C043F20042C4F238
:104040000102944543EA040305D042F60042C4F25B
:104050000102944516D14FF6FF72CDF60F421A4079
:10406000D1E9083ED1E90A410025CDF6F04505EA3F
:104070000454224323F008531A432EF000531A43EA
:1040800042EA01030021CCF8443080F83C10084695
:10409000B0BD00007047000070470000704700008E
:1040A00070B590F83C20012A4FF0020247D080F80A
:1040B0003D20026843F2004C54689368C4F2010C3E
:1040C00042F6004E6245C4F2010E01D0724503D1A2
:1040D0004D6824F470042C434FF68F75CFF6FF55CE
:1040E0000E682C4042F6FF35C4F201053443AA4263
:1040F00054600FDCB2F1804F16D040F20046C4F29B
:104100000006B24210D040F60006C4F20006B242E9
:104110000AD00EE0724507D044F20006C4F2010650
:10412000B24201D0624504D1896823F0800319436B
:1041300091600121002280F83D1080F83C2010465B
:1041400070BD000041B1082910D0042914BF00F14E
:10415000470200F145020BE090F84420012A1CBF01
:1041600001207047022280F8442013E000F146024B
:104170001278012A1CBF012070470222082907D0AB
:10418000042914BF80F8472080F8452002E000BFD2
:1041900080F84620026801F00F000421136A01FA3A
:1041A00000F023EA00011162116A08431062506CAA
:1041B00042F6FF31C4F2010140F400408A425064EB
:1041C00010DCB2F1804F1FD040F20040C4F200007A
:1041D000824219D040F60000C4F20000824213D09F
:1041E0001FE000BF42F60040C4F2010082420BD043
:1041F00044F20000C4F20100824205D043F20040C4
:10420000C4F2010082420CD190680721C0F2010182
:10421000014006294FF0000008D0B1F5803F08BFEB
:104220007047106840F001001060002070470000E7
:1042300070470000002804BF0120704710B50446F5
:1042400090F83D0028B9002084F83C00204600F09A
:1042500023F8022084F83D002068211D01F086F932
:10426000012084F8480084F83E0084F83F0084F878
:10427000400084F8410084F8420084F8430084F848
:10428000440084F8450084F8460084F8470084F828
:104290003D00002010BD000080B582B0006841F2F2
:1042A0000001C4F20001884214D042F60041C4F279
:1042B000010188420CD141F25800C4F20200816829
:1042C00041F400618160806800F400600190019811
:1042D00002B080BD41F25800C4F202000168002221
:1042E00041F0100101600068012100F01000009011
:1042F00000983620FDF740FE362002B0BDE8804031
:10430000FDF726BE90F83D1001291CBF0120704723
:10431000022180F83D10016842F6FF32C868C4F2FD
:104320000102914240F00100C8600FDCB1F1804F02
:104330001ED040F20040C4F20000814218D040F686
:104340000000C4F20000814212D01EE042F600409C
:10435000C4F2010081420BD044F20000C4F201001B
:10436000814205D043F20040C4F2010081420CD1E9
:1043700088680722C0F201020240062A4FF00000BE
:1043800008D0B2F5803F08BF7047086840F00100D0
:10439000086000207047000080B590F83C20012A9A
:1043A0004FF0020200F0A98080F83D20D0F800C054
:1043B0008822DCF80830CFF6CE721A40CCF80820FC
:1043C0000B686F2B10DD1F22C0F21002934237DC06
:1043D000B3F5005F46DA702B00F09280B3F5805F92
:1043E00000F08480D6E000BF2F2B35DD4F2B3FDC63
:1043F000302B6FD0402B40F0CD80D1F804E0C9685D
:10440000DCF82030DCF8202022F00102CCF820205B
:10441000DCF8182022F0F00242EA011123F00A022F
:1044200042EA0E02CCF81810CCF82020DCF8081074
:104430004FF68872CFF6CF721140473154E000BF7B
:104440003F21C0F210018B423ADC2021C0F2100162
:104450008B423FD0302139E0E3B3102B3AD0202BF0
:1044600038D097E060D0B3F1101F33D092E000BF96
:10447000502B6DD0602B40F08D80D1F804E0C968DE
:10448000DCF82030DCF8202022F01002CCF82020CC
:10449000DCF8182022F4704242EA013123F0A00235
:1044A00042EA0E12CCF81810CCF82020DCF80810E4
:1044B0004FF68872CFF6CF721140673114E000BF1B
:1044C0004021C0F210018B4204D07021C0F21001D3
:1044D0008B425FD1DCF808104FF68872CFF6CF72AE
:1044E0001140194341F00701CCF8081000220121C6
:1044F00080F83D10002180F83C10104680BD00BFC0
:10450000D1E901E3C968DCF8082043EA0E0322F48C
:104510007F4243EA01211143CCF80810DCF808106F
:1045200041F07701E0E700BFD1E901E3C968DCF8B9
:10453000082043EA0E0322F47F4243EA012111439B
:10454000CCF80810DCF8081041F48041CCE700BF3B
:10455000D1F804E0C968DCF82030DCF8202022F033
:104560000102CCF82020DCF8182022F0F00242EA08
:10457000011123F00A0242EA0E02CCF81810CCF81E
:104580002020DCF808104FF68872CFF6CF72114069
:104590005731A9E70122AAE770470000F0B581B0C2
:1045A00004460068C5680669B10717D515F0020111
:1045B00014D06FF002010161012121778069800729
:1045C00004D02046FFF7E8FF06E000BF204600F0D9
:1045D0000BF9204600F026FB00202077700719D544
:1045E00015F0040016D020686FF00401016102216B
:1045F0002177806910F4407F04D02046FFF7CCFF7C
:1046000006E000BF204600F0EFF8204600F00AFB6D
:1046100000202077300717D515F0080014D0206847
:104620006FF00801016104212177C069800703D080
:104630002046FFF7B1FF05E0204600F0D5F8204600
:1046400000F0F0FA00202077F00619D515F01000E0
:1046500016D020686FF01001016108212177C06930
:1046600010F4407F04D02046FFF796FF06E000BF1D
:10467000204600F0B9F8204600F0D4FA0020207758
:10468000F00718BF15F0010006D020686FF0010197
:104690000161204600F08CFB16F4025F05F08007F4
:1046A00018BF002F02D1F00509D410E020686FF484
:1046B000025101612046FFF783FCF00507D537B1B1
:1046C00020686FF4807101612046FFF777FC700667
:1046D00009D515F0400006D020686FF04001016157
:1046E000204600F073FBB00609D515F0200006D077
:1046F00020686FF0200101612046FFF763FCF002A3
:1047000009D515F4801006D020686FF4801101617E
:104710002046FFF7C1FCB00209D515F4001006D001
:1047200020686FF4001101612046FFF7B3FC7002AE
:1047300009D515F4800006D020686FF4800101616E
:104740002046FFF7ABFC30020CD515F4000009D071
:1047500021686FF4000220460A6101B0BDE8F04014
:10476000FFF766BD01B0F0BDF0B585B0006842F658
:104770000041C4F20101884202D005B0F0BD00BF83
:1047800041F24C00C4F2020001686C4641F00101A4
:1047900001600168022501F00101009100990168A2
:1047A000002641F0020101600068062700F00200C7
:1047B000009000984FF4F06000904FF09040214638
:1047C0000195CDE902660497FDF782FA03208DE892
:1047D000610040F20040C4F600002146CDE90367C5
:1047E000FDF776FA05B0F0BD704700002DE9F04105
:1047F00090F83C30012B04BF0220BDE8F0814FEA65
:10480000B202052A00F28A81DFE812F006005000A9
:10481000A400F8004C01900103681D6A1A6AA3F114
:10482000804622F001021A621A465C6852F818CFDC
:104830008F68A6F59636D1F800E025F002054FEA1C
:10484000B626072E45EA07050AD80127B74017F014
:10485000E50F1FBFCF6825F00C0527F004073D4387
:10486000072E0BD8012707FA06F616F0E50F1FBF33
:1048700024F44074D1E9056734433C434FF68C7609
:10488000CFF6FE760CEA060747EA0E075C609F61EA
:104890004F6809695F631D629F6947F008079F6160
:1048A0009F6927F004079F617DE100BF036843F221
:1048B00000461D6A1A6AC4F2010622F010021A624A
:1048C0001A46D3F804C052F8188FB3428E68D1F854
:1048D00000E025F0200545EA061505D042F6004621
:1048E000C4F20106B34207D1CE686FF0400725F04D
:1048F000C00507EA06163543A3F18046A6F59636AD
:104900004FEAB626072E0CD8012707FA06F616F04E
:10491000E50F1FBFD1E905672CF44064374344EA33
:10492000870C48F6FF44CFF6FF6404EA080444EA23
:104930000E27C3F804C09F614F6809699F631D6219
:104940009F6947F400679F619F6927F480679F61B3
:1049500028E100BF036843F200461D6A1A6AC4F2E8
:10496000010622F480721A621A46D3F804C052F883
:104970001CEFB3428E68D1F8008025F4007545EA3B
:10498000062505D042F60046C4F20106B34207D11F
:10499000CE6840F2FF47360225F44065BE433543FA
:1049A000A3F18046A6F596364FEAB626072E0CD818
:1049B000012707FA06F616F0E50F1FBFD1E90567D4
:1049C0002CF44054374344EA071C4FF68C74CFF65E
:1049D000FE740EEA040747EA0807C3F804C0DF6163
:1049E0004F680969DF631D62DF6947F00807DF610F
:1049F000DF6927F00407DF61D5E000BF036843F2F9
:104A000000461D6A1A6AC4F2010622F480521A6234
:104A10001A46D3F804C052F81C8FB3428E68D1F8FE
:104A200000E025F4005545EA063505D042F600467B
:104A3000C4F20106B34207D1CE6844F6FF773603CD
:104A400025F44045BE433543A3F18046A6F596368E
:104A50004FEAB626072E0CD8012707FA06F616F0FD
:104A6000E50F1FBFD1E905672CF44044374344EA02
:104A7000871C48F6FF44CFF6FF6404EA080444EAC2
:104A80000E27C3F804C0DF614F6809691F641D6207
:104A9000DF6947F40067DF61DF6927F48067DF6162
:104AA00080E000BF0368D3F820C01A6AA3F18047F2
:104AB00022F480321A621A46A7F596375D6852F8DA
:104AC000508FD1F800E08E684FEAB727072F09D83A
:104AD0000124BC4014F0E50F1EBF4C6925F480355D
:104AE00045EA04252CF4003747EA06474FF68C7652
:104AF000CFF6FE76033606EA080646EA0E065D6045
:104B00001E654E6809699E641F621F6D47F00807A5
:104B10001F651F6D27F004071F6544E00121002277
:104B200080F83C200846BDE8F08100BF0368D3F858
:104B300020C01A6AA3F1804722F480121A621A4632
:104B4000A7F596375D6852F8508FD1F800E08E686F
:104B50004FEAB727072F09D80124BC4014F0E50F0E
:104B60001EBF4C6925F4802545EA84252CF40017E6
:104B700047EA065748F6FF46CFF6FF6606F5407649
:104B800006EA080646EA0E265D601E654E6809695B
:104B9000DE641F621F6D47F400671F651F6D27F4F9
:104BA00080671F6509021368194311600021002204
:104BB00080F83C200846BDE8F0810000002804BFD2
:104BC0000120704710B5044690F83D0028B9002038
:104BD00084F83C00204600F023F8022084F83D00D1
:104BE0002068211D00F0C2FC012084F8480084F8F0
:104BF0003E0084F83F0084F8400084F8410084F8C7
:104C0000420084F8430084F8440084F8450084F8A6
:104C1000460084F8470084F83D00002010BD0000E5
:104C2000704700007047000061B10A1F4FEAB202EE
:104C3000032A11D8DFE802F00214181C00F13F0328
:104C400018E000BF90F83E20012A1CBF01207047E9
:104C5000022280F83E202CE000F143030AE000BF6E
:104C600000F1400306E000BF00F1410302E000BF95
:104C700000F142031B78012B1CBF01207047032A5F
:104C800008D8DFE802F0030B0F1300BF022280F800
:104C90003F200EE0022280F843200AE0022280F842
:104CA000402006E0022280F8412002E0022280F843
:104CB0004220026801F01F010120136A00FA01F18D
:104CC0008B431362136A0B43A2F18041A1F5963125
:104CD0004FEAB1210629136244D8884010F0650FCD
:104CE00040D0506C42F6FF31C4F2010140F4004064
:104CF0008A42506410DCB2F1804F1FD040F2004075
:104D0000C4F20000824219D040F60000C4F2000054
:104D1000824213D01FE000BF42F60040C4F20100FF
:104D200082420BD044F20000C4F20100824205D05E
:104D300043F20040C4F2010082420CD19068072186
:104D4000C0F20101014006294FF0000008D0B1F582
:104D5000803F08BF7047106840F0010010600020DD
:104D6000704700BF42F6FF30C4F201008242C2DD4C
:104D700043F6FF70C4F20100824207DC42F60040B5
:104D8000C4F201008242D3D1D8E700BF44F2000050
:104D9000C4F201008242D1D044F60000C4F2010006
:104DA000824202BF506C40F400405064D3E70000E0
:104DB00040F20C31C2F2000101F12802904218BF0A
:104DC0007047886A6FF00101016170477047000009
:104DD000FEE7000040F2E810C2F2000090ED020A87
:104DE00090ED0A1A40F2D020C2F2000030EE410AE3
:104DF00090ED081AB1EE042A30EE011AB4EE421A10
:104E0000F1EE10FA80ED070A80ED081A06DCB9EE23
:104E1000042AB4EE421AF1EE10FA03DAB0EE421AA6
:104E200080ED082A90ED062A90ED053A21EE021A4F
:104E300020EE030A30EE010A80ED090A70470000F7
:104E400040F2E810C2F2000090ED010A90ED0B1A5A
:104E500040F2D020C2F2000030EE410A90ED031A79
:104E6000B3EE042A30EE011AB4EE421AF1EE10FA53
:104E700080ED020A80ED031A06DCBBEE042AB4EED4
:104E8000421AF1EE10FA03DAB0EE421A80ED032A6C
:104E900090ED012A90ED003A21EE021A20EE030A6D
:104EA00030EE010A80ED040A7047000041F27820DC
:104EB000C2F2000001684FF60002D1F88000CFF680
:104EC000FF7212FA80F000EE100A9FED2D1AB8EE74
:104ED000C00A20EE010AB3EE042A80EE020A9FED1A
:104EE000293A40F2E810C2F2000080EE030A80ED99
:104EF0000C0AD1F8843012FA83F304EE103AB8EEBB
:104F0000C44A24EE014A84EE024A84EE034A80ED4C
:104F10000D4AD1F8881012FA81F105EE101AB8EE98
:104F2000C55A25EE011A81EE021A81EE031ABEEE71
:104F3000003A34EE012A22EE032A32EE000A9FEDF7
:104F4000122A80ED0E1A34EE411A21EE021A90ED6B
:104F5000062A90ED053A80ED0F0A80ED101A22EE38
:104F6000014A20EE035A23EE011A20EE020A35EE22
:104F7000044A31EE400A80ED0A4A80ED0B0A704780
:104F8000000080390AD7A33B7DD0133F80B540F69F
:104F9000A87040F20801C2F20000C2F20001002233
:104FA00000F010FF002818BFFBF714FB40F6A870B4
:104FB00040F22C01C2F20000C2F2000101F02AF915
:104FC000002818BFFBF706FB40F6A87040F250110E
:104FD000C2F20000C2F2000100F0C6FC002818BFB7
:104FE000FBF7F8FA40F6A870C2F2000001F032F9BF
:104FF000002808BF80BDBDE88040FBF7EBBA000089
:105000002DE9F04381B02DED108B82B040F2582491
:10501000C2F20004894621886288411A94ED03BADD
:105020009FED6E1A8E1894ED01AA94ED020A6FF3AB
:105030009F3694ED04CA2BEE011A2080668004F19D
:105040000C0831EE009A31EE0A8A03F059F9B0EEFD
:10505000490A07460D4603F025F810EE100A03F042
:10506000A5FA02460B463846294603F0B1F903F08B
:105070006DF80EEE100A304603F042F9B0EE480A21
:1050800005460E4603F00EF810EE100A03F08EFAF5
:1050900002460B462846314603F09AF903F056F8CB
:1050A0009FED4FDA0FEE100A2FEE0D0A03F032F8E3
:1050B000DFED4C8A20EE280A3FEE40FA9FED4A0AC7
:1050C0003FEE4C1A21EE000A9FED481A30EE0C0A12
:1050D00084ED040A2EEE010A30EE090A84ED020A7C
:1050E0002FEE010A30EE088A28EE0D0A03F012F8BE
:1050F00020EE280A38EE400A3DA0B5EE400AF1EE57
:1051000010FAB8BF043090ED001A01A930EE010A80
:105110009FED391A84ED010A2FEE010A30EE0B0AD9
:105120004046012284ED030A02F02AFA9DED010AAD
:10513000B3EE091AB4EE410AF1EE10FA04DA9FED6B
:105140002F9A0020E06003E094ED030A20EE0D9A10
:1051500094ED010A94ED021A30EE4A0A20EE0D8A0F
:1051600094ED05BAB0EE480A21EE0DCA02F0D2FF66
:105170006088B6EE002A01EE100AB8EE411A31EE50
:10518000021A9FED1F2A9FED1FAA21EE02DA8DEE73
:105190000A1A38EE400A3BEE008A84ED058AB0EE2A
:1051A000410A02F0B7FF20EE0A0A29EE0A1AB2EE0F
:1051B0000C2A30EE4D0A21EE021A89ED00CA89ED63
:1051C000019A89ED020A89ED031A89ED048A02B079
:1051D000BDEC108B01B0BDE8F08300BF17B75138AC
:1051E0000000803800008046CDCCCC3DCCCCCC3DFE
:1051F00000000080000080460000484200000000DF
:10520000E0EDAF3BDB0FC940FEE70000FEF72CFAF4
:10521000FEE7000010B540F2E814C2F2000494ED7D
:10522000190A02F0FFF994ED191A84ED050AB0EE9F
:10523000410A02F041FA94ED031A94ED042A94ED28
:10524000053A84ED060A45F2E74020EE014A22EED7
:10525000035A20EE020A21EE031AC4F2E33035EEBF
:10526000444A31EE000AE06184ED084A84ED090AFF
:1052700010BD0000704700002DE9F04782B0002605
:105280001F4690460D4681468DF80360FCF7FCFDF5
:10529000381A00EB0807FCF7F7FD40F22801C2F2CC
:1052A0000001096823225143090DD9F800407943D0
:1052B0000191A168294271D0824618F1010037D0CE
:1052C000B5F5C06F1CD100BF207B8DF803009DF8A1
:1052D0000300FCF7D9FDA0EB0A00B84262D20198A6
:1052E00001990028A1F101010191D9F80010896804
:1052F00008BF074611F4C06FE6D100264EE000BF9C
:10530000FCF7C2FDA0EB0A00B8424BD2019801990C
:105310000028A1F101010191D9F80010896808BFA6
:1053200007462942ECD10026304602B0BDE8F0879E
:105330000026B5F5C06F25D1207B8DF803009DF8C0
:105340000300A06810F4C06FEDD0207B8DF803003F
:105350009DF80300A06810F4C06FE4D0207B8DF8A6
:1053600003009DF80300A06810F4C06FDBD0207B21
:105370008DF803009DF80300A06810F4C06FDBD126
:105380000CE000BFA0682842CDD0A0682842CAD057
:10539000A0682842C7D0A0682842F3D1304602B0A6
:1053A000BDE8F087D9E900014268B1F5827F22F0BB
:1053B000E00242600BD1D9F80810B1F5004F02D0DD
:1053C000B1F5806F03D1016821F040010160D9F887
:1053D0002810B1F5005F07D1016821F40051016088
:1053E000016841F400510160012089F85D0000204E
:1053F00089F85C000326304602B0BDE8F087000063
:10540000F0B581B015460E460446FCF73DFD281A5E
:105410008719FCF739FD40F22801C2F20001096842
:10542000C1F3CB317943009121688A68120622D5F5
:105430000546701C15D000BFFCF726FD401BB84286
:105440001CD2009800990028A1F101010091216867
:10545000896808BF07460806EED40CE08868000695
:1054600009D58868000606D58868000644BF8868A4
:105470005FEA0060F2D4002001B0F0BDD4E9000181
:105480004268B1F5827F22F0E00242600AD1A16851
:10549000B1F5004F02D0B1F5806F03D1016821F062
:1054A00040010160A16AB1F5005F07D1016821F4F4
:1054B00000510160016841F400510160012084F84D
:1054C0005D00002084F85C00032001B0F0BD000006
:1054D00070470000FCF7DEBCB0B594B0002400209B
:1054E000CDE90A44CDE90844FDF754FD212006909A
:1054F0004FF4A020079001200C9002205421032596
:10550000CDE9101006210D90CDE90E50CDE9121015
:1055100006A8FEF7B9F828B1EFF3108072B600BF05
:10552000FEE700BF0F20CDE9010501A80421CDE968
:1055300003440594FDF704FF20B1EFF3108072B629
:10554000FEE700BFFEF786F814B0B0BD4EF68850F7
:10555000CEF20000016841F4700101607047000064
:1055600040F23430C2F20000FFF718B880B540F2C4
:10557000FF7C0268C4F2000C604521DD40F60003A8
:10558000C4F20003984224D043F20043C4F2010362
:1055900098421ED042F60043C4F20103984218D04C
:1055A00043F2FF33C4F2010398421CDC604529DC5E
:1055B000B0F1804F3CD040F20043C4F2000335E02C
:1055C000B0F1804F05D040F20043C4F2000398428E
:1055D000E6D14B6822F070021A4343F2FF33C4F263
:1055E00001039842E2DD44F2FF33C4F20103984222
:1055F00012DC43F20043C4F20103984218D044F293
:10560000000311E040F60003C4F2000398420FD0FB
:1056100042F6004308E000BF44F60003C4F2010371
:10562000984205D044F20043C4F20103984203D1EA
:10563000CB6822F440721A434B6922F0800E8A68CC
:1056400043EA0E03D1F800C00360C262A0F18042B9
:10565000A2F596324FEAB222072AC0F828C007D82E
:10566000012303FA02F212F0E50F1CBF096901637E
:10567000012141610169C90708BF80BD016921F0AD
:105680000101016180BD000010B540F28434C2F216
:1056900000040A4602A0214600F026FB204610BD69
:1056A00043444320436F6E666967000010B5D0F82D
:1056B000BC323BB38E4601EB810100EB810151F816
:1056C000184F64B1D0F8C4C20EEB8E020CEBC202CC
:1056D000D2F820C0B4FBFCF202FB1C42A2B10024B1
:1056E000C3F81442D0F8C002D0F810C0BCF1000FCB
:1056F00006D0D3F8080203F504717246E04700248F
:10570000204610BD032010BD00240C60714600220D
:10571000002300F061FD204610BD0000B0B5D0F8B8
:10572000BC527DB1044600F013FCD4F8C02205F54C
:105730000371D368D5F80422C5F80C0210469847C7
:105740000020B0BD0320B0BDB0B58121044600F0FB
:1057500061FB002520460121258700F05BFB2046E8
:105760008221A4F8785100F055FBD4F8BC02E5641E
:1057700048B1D4F8C00240688047D4F8BC0201F0B8
:1057800007F8C4F8BC520020B0BD000040F2EC00A5
:105790001222C2F200000A807047000010B5D0F853
:1057A000BC428CB1D0F8C01281B194F80002FF283D
:1057B0000CD08B6894F8012221469847FF2084F88A
:1057C0000002002010BD00BF032010BD002010BD4E
:1057D000014640F200100A22C2F200000A8070471F
:1057E000014640F264004322C2F200000A80704782
:1057F000014640F2A8004322C2F200000A8070472E
:10580000014640F20C104322C2F200000A807047A9
:10581000F0B581B004464FF4077000F0BBFFE8B369
:105820000546C4F8BC02207C4026002808BF4FF47F
:105830000076204681210222334600F0E3FB012757
:105840002046012102223346278700F0DBFB10208F
:10585000A4F84E002046822103220823A4F8787180
:1058600000F0D0FBD4F8C002A4F84C700068804768
:105870000020C5F81402C5F81802207CD5F80422CF
:10588000002820464FF001010CBF4FF40073402365
:1058900000F0CCFB002001B0F0BD00BF0020C4F838
:1058A000BC02022001B0F0BD10B540F28434C2F257
:1058B00000040A4602A0214600F016FA204610BD58
:1058C00043444320496E746572666163650000005D
:1058D00040F264100422C2F200000A807047000007
:1058E00010B540F28434C2F200040A4602A02146F8
:1058F00000F0FAF9204610BD53544D6963726F658C
:105900006C656374726F6E696373000010B540F26A
:105910008434C2F200040A4602A0214600F0E4F9F1
:10592000204610BD53544D33322056697274756150
:105930006C20436F6D506F727400000080B5D0F81A
:10594000BC1279B190F810C0D1F804224023012193
:10595000BCF1000F08BF4FF4007300F067FB00209C
:1059600080BD00BF032080BD00290EBF0320C0F80A
:10597000C012002070470000B0B547F29050C1F649
:10598000FF70026883684FF01A0C9B18A1F800C0E2
:1059900000F0A3804FF0370C1A0F0CEB1371406826
:1059A000B3F1204F38BF02F1300140F26812C2F269
:1059B0000002917019014FF0000E0CEB117582F886
:1059C00003E0C3F30364B1F1204F38BF04F13005A5
:1059D000190215710CEB117582F805E0C3F303543D
:1059E000B1F1204F38BF04F13005190395710CEB6C
:1059F000117582F807E0C3F30344B1F1204F38BFBB
:105A000004F13005190415720CEB117582F809E0E8
:105A1000C3F30334B1F1204F38BF04F13005190549
:105A200095720CEB117582F80BE0C3F30324B1F10E
:105A3000204F38BF04F1300519061573C3F3031462
:105A40000CEB1175B1F1204F4FEA037103F00F0316
:105A500082F80DE038BF04F1300503F13704957387
:105A600082F80FE0B1F1204F38BF03F13004010F8D
:105A70000CEB1073147482F811E0B0F1204F38BFB2
:105A800001F1300301010CEB1174937482F813E0FF
:105A9000C0F30363B1F1204F38BF03F130040102BA
:105AA0001475C0F303530CEB1174B1F1204F4FEA9E
:105AB000003182F815E038BF03F130040CEB1173AC
:105AC000947582F817E0C0F30340B1F1204F38BF5E
:105AD00000F13003137682F819E040F26810C2F248
