:020000040800F2
:100000001077002439030008B1A4000829880008EB
:10001000A9A400084906000891DF000800000000BC
:1000200000000000000000000000000021B60008F1
:10003000B90C000800000000D9A8000829B6000883
:100040005303000853030008530300085303000838
:100050005303000853030008530300085303000828
:1000600053030008530300085303000871070008F6
:1000700081070008530300085303000853030008D6
:1000800053030008530300085303000853030008F8
:1000900053030008530300085303000853030008E8
:1000A00053030008530300085303000853030008D8
:1000B0005303000831B80008530300085303000835
:1000C00053030008530300085303000853030008B8
:1000D00053030008530300085303000853030008A8
:1000E00053030008530300080000000053030008F6
:1000F0005303000853030008530300085303000888
:100100005303000853030008530300085303000877
:100110005303000853030008530300085303000867
:100120005303000853030008530300085303000857
:100130005303000853030008530300085303000847
:1001400000000000000000000000000000000000AF
:100150005303000853030008530300085303000827
:100160005303000853030008530300085303000817
:100170005303000853030008610700080000000053
:1001800053030008530300085303000853030008F7
:1001900053030008530300085303000853030008E7
:1001A00053030008530300085303000853030008D7
:1001B00053030008530300085303000853030008C7
:1001C00053030008530300085303000853030008B7
:1001D00053030008B9A400085303000853030008A0
:1001E0005303000853030008530300085303000897
:1001F0005303000853030008530300085303000887
:100200005303000853030008530300085303000876
:100210005303000853030008530300085303000866
:1002200053030008530300085303000800000000B4
:1002300053030008530300080000000053030008A4
:100240005303000853030008530300085303000836
:100250005303000853030008530300085303000826
:100260005303000853030008530300085303000816
:100270005303000853030008530300080000000064
:100280005303000853030008530300080000000054
:10029000000000005303000800F002F800F03CF8F2
:1002A0000AA090E8000C82448344AAF10107DA45D1
:1002B00001D100F031F8AFF2090EBAE80F0013F0E7
:1002C000010F18BFFB1A43F001031847B8090100DA
:1002D000D8090100103A24BF78C878C1FAD852076B
:1002E00024BF30C830C144BF04680C6070470000B0
:1002F0000023002400250026103A28BF78C1FBD82F
:10030000520728BF30C148BF0B6070471FB50FF0C0
:10031000FCF91FBD10B510BD00F0F2F81146FFF753
:10032000F5FF0EF03DFF00F010F903B4FFF7F2FF08
:1003300003BC00F017F9000009488047094800474E
:10034000FEE7FEE7FEE7FEE7FEE7FEE7FEE7FEE785
:10035000FEE7FEE704480549054A064B70470000E2
:1003600061B70008990200081047002410770024A4
:10037000105700241057002453EA020C00F0698043
:100380002DE9F04B4FF00006002B1FBFB3FA83F5A9
:1003900003FA05F424FA05F65E4012BF1643B2FADA
:1003A00082F502FA05F4C5F120051EBF22FA05FC0C
:1003B00044EA0C04203556EA044C4FEA144418BFB2
:1003C000641C4FF000084FF00009904271EB030CE1
:1003D00039D3002919BFB1FA81F701FA07F6B0FA4B
:1003E00080F700FA07F6C7F120071EBF20FA07FCC6
:1003F00046EA0C062037B6FBF4FCA7EB0507103FD6
:1004000007F01F0BCBF120062CFA06F60CFA0BFBBB
:1004100044BFB3460026202FA4BF5E464FF0000B1A
:100420005BEA060C08BF4FF0010B19EB0B0948EB18
:100430000608ABFB027C06FB02CC0BFB03CCC01B0B
:1004400071EB0C01C1E70B46024641464846BDE848
:10045000F08B13B5084318BF4FF0FF300146AFF3E0
:100460000080BDE81C4070474FF000020429C0F036
:10047000128010F0030C00F01B80CCF1040CBCF1D6
:10048000020F18BF00F8012BA8BF20F8022BA1EB28
:100490000C0100F00DB85FEAC17C24BF00F8012B0D
:1004A00000F8012B48BF00F8012B70474FF0000205
:1004B00000B5134694469646203922BFA0E80C505A
:1004C000A0E80C50B1F12001BFF4F7AF090728BF35
:1004D000A0E80C5048BF0CC05DF804EB890028BFB1
:1004E00040F8042B08BF704748BF20F8022B11F0DA
:1004F000804F18BF00F8012B704770477047704756
:10050000754600F02BF8AE4605006946534620F0CC
:100510000700854618B020B5FFF71CFFBDE8204056
:100520004FF000064FF000074FF000084FF0000BAF
:10053000AC46ACE8C009ACE8C009ACE8C009ACE81E
:10054000C00921F007018D46704710B50446AFF38E
:1005500000802046BDE81040FFF7E7BE0048704726
:100560000001002401491820ABBEFEE7260002006E
:10057000704700000000000044F2A4110246C2F2DD
:1005800000410846114606F043BD0000000000008F
:1005900080B544F2A410C2F2004006F04DFD0438CC
:1005A00018BF012080BD000010B500F01DF8012823
:1005B00009D144F2A410C2F2004006F025FE044620
:1005C00018B1204610BD022010BD44F2A4104FF413
:1005D0008041C2F2004006F093FB002818BF0124BE
:1005E000204610BD0000000081B001208DF80300FE
:1005F0009DF8030001B0704780B582B094460A466A
:10060000014644F2A410C2F200400093634607F092
:1006100003F8002818BF012002B080BD00000000D0
:1006200080B582B094460A46014644F2A410C2F254
:1006300000400093634607F0CBF8002818BF012064
:1006400002B080BD00000000FEE7000000000000D6
:1006500000207047000000000020704700000000EC
:1006600010B543F22C6442F61C61C2F20044C2F29F
:100670000041002220460BF02FFF42F21C61204671
:10068000C2F200410BF018FF002010BD0000000076
:1006900010B543F22C640146C2F2004420460BF030
:1006A0000BFF20460BF0E4FE002010BD0000000010
:1006B0000020704700000000806B816C496D0229AA
:1006C00006D0012180F83510C16C41F04001C164B1
:1006D00000F002BC0000000010B5846BA26BA06C9F
:1006E000002A01680B6803F4002209D0A36BDB0722
:1006F00012D18AB1C968E26B01EBC201002213E09A
:10070000C2B90868000317D4E06BD4E9103202EBD9
:1007100080000861A3630FE00A6812030CD4096922
:10072000E26B01EBC201012200F0CAFDA06B0138AF
:10073000A06301E0606CC860A06B216C88420BD1A3
:100740002068C16841F00101C1600068800758BF9E
:1007500010BD012084F8350010BD0000000000002D
:1007600043F60810C2F2004000F0D2BB00000000C7
:1007700043F65810C2F2004001F062BA00000000D7
:10078000704700000000000040F20F42D0F800C0A7
:10079000C4F20202944510DC6F22C4F202029445B6
:1007A00020DC3F22C4F20202944536DC1022C4F25F
:1007B0000202944554D028224EE040F26F42C4F227
:1007C000020294451ADC40F23F42C4F20202944510
:1007D0002ADC40F21042C4F20202944540D040F2BA
:1007E000284239E09F22C4F20202944525DC70229F
:1007F000C4F20202944533D088222DE040F29F4299
:10080000C4F2020294451FDC40F27042C4F20202BC
:10081000944525D040F288421EE04022C4F20202F4
:1008200094451DD0582217E040F24042C4F2020223
:10083000944515D040F258420EE0A022C4F20202C4
:1008400094450DD0B82207E040F2B842C4F202024B
:10085000944505D040F2A042C4F20202944517D15B
:100860000CF0F8024AF6AB23103ACAF6AA23A2FB10
:10087000033109A35F2AC1F302115B5C40F2FF312F
:100880002CEA0101C36588BF0431816508467047C1
:100890002CF0FF01F9E700BF000610160006101645
:1008A00080B540F20F4ED0F800C0C4F2020EF445FD
:1008B00014DC40F26F0EC4F2020EF44523DC40F269
:1008C0003F0EC4F2020EF4453BDC40F2100EC4F2BF
:1008D000020EF4455CD040F2280E55E040F26F4E17
:1008E000C4F2020EF4451DDC40F23F4EC4F2020E8B
:1008F000F4452FDC40F2104EC4F2020EF44547D00E
:1009000040F2284E40E040F29F0EC4F2020EF44541
:1009100029DC40F2700EC4F2020EF44538D040F2E9
:10092000880E31E040F29F4EC4F2020EF44523DC03
:1009300040F2704EC4F2020EF44529D040F2884EC7
:1009400022E040F2400EC4F2020EF44520D040F204
:10095000580E19E040F2404EC4F2020EF44517D092
:1009600040F2584E10E040F2A00EC4F2020EF445E0
:100970000ED040F2B80E07E040F2B84EC4F2020EBC
:10098000F44505D040F2A04EC4F2020EF44509D160
:10099000CCF804308068402809D1CCF80820CCF885
:1009A0000C1080BDCCF8043080684028F5D0CCF81D
:1009B0000810CCF80C2080BD70B540F26F44D0F820
:1009C00000C0C4F20204D0F858E0A44519DC9F2509
:1009D000C4F20205AC4531DC5725C4F20205AC4532
:1009E00056DC1025C4F20205AC4500F092802825A3
:1009F000C4F20205AC4500F08C804025C4F202052B
:100A000084E045F22F45C5F60205AC452BDC40F2EB
:100A1000B745C4F20205AC4548DC40F27045C4F26B
:100A20000205AC4575D040F28845C4F20205AC45DC
:100A30006FD040F2A045C4F2020567E040F22745BE
:100A4000C4F20205AC4540DCA025C4F20205AC4569
:100A50005FD0B825C4F20205AC455AD040F210452B
:100A6000C4F2020552E045F26B45C5F60205AC45FD
:100A70003CDC45F23045C5F60205AC4549D045F2AF
:100A80004445C5F60205AC4543D045F258453BE028
:100A90005825C4F20205AC453BD07025C4F20205CE
:100AA000AC4536D08825C4F202052FE040F2B845A7
:100AB000C4F20205AC452CD045F20845C5F6020546
:100AC000AC4526D045F21C451EE040F22845C4F254
:100AD0000205AC451DD040F24045C4F20205AC45CC
:100AE00017D040F25845C4F202050FE045F26C45BC
:100AF000C5F60205AC450CD045F29445C5F6020595
:100B0000AC4506D045F28045C5F60205AC4540F03F
:100B1000D180456EC66E002E866E6E601CBFD0E919
:100B20001C566E60A44515DC9F24C4F20204A44543
:100B30002BDC5724C4F20204A4454EDC1024C4F27A
:100B40000204A44576D02824C4F20204A44571D03E
:100B500040246BE045F22F44C5F60204A44527DC8F
:100B600040F2B744C4F20204A44542DC40F27044AF
:100B7000C4F20204A4455DD040F28844C4F20204E9
:100B8000A44557D040F2A04450E040F22744C4F2BC
:100B90000204A4453CDCA024C4F20204A44549D0CC
:100BA000B824C4F20204A44544D040F210443DE00D
:100BB00045F26B44C5F60204A44553DC45F23044CB
:100BC000C5F60204A4455FD045F24444C5F60204CC
:100BD000A44559D045F2584452E05824C4F20204C6
:100BE000A44527D07024C4F20204A44522D088244E
:100BF0001CE040F2B844C4F20204A4451AD045F205
:100C00000844C5F60204A4453ED045F21C4437E032
:100C100040F22844C4F20204A4450BD040F2404400
:100C2000C4F20204A44505D040F25844C4F20204C0
:100C3000A4453FD18468C06D00F01F003F2505FA30
:100C400000F0CEF80800DCF80000402C20F48020F2
:100C5000CCF80000CCF8043023D0CCF80810CCF845
:100C60000C2070BD45F26C44C5F60204A4450BD0BF
:100C700045F28044C5F60204A44505D045F29444EB
:100C8000C5F60204A44515D1C46D806804F01F04A4
:100C90000125402805FA04F4CEF80440CCF80430CD
:100CA00004D1CCF80820CCF80C1070BDCCF808109A
:100CB000CCF80C2070BD0000704700000000000060
:100CC000EFF3108072B600BFFEE7000000000000E6
:100CD00080B543F22063C2F200435A7A002A1CBF57
:100CE000012080BD93F809C08646002003F80C005F
:100CF0005A7A03EB8202C2F804E05A7A1A4410725C
:100D000093F809C00CF101025A720CF130020A701A
:100D100042F63A72A1F80120C87080BD00000000C0
:100D200080B50A68002A026822D022F4F84C4A6A88
:100D3000D1E9073E43EA0C0343EA0E031A4302607B
:100D4000426847F6FF7322EA030CCA68D1E9013E04
:100D500043EA0C03D1F810C043EA0E031A434B696F
:100D600042EA0C0289691A4311434160002080BDA8
:100D700047F6FF7322EA030CCA68D1E9013E43EA51
:100D80000C03D1F810C043EA0E031A434B6942EA40
:100D90000C02D1F818C01A43CB6942EA0C02D1F810
:100DA00020C01A43496A42EA0C0211430160002044
:100DB00080BD0000000000000246406943F6FE735B
:100DC00020EA0303002043EA41015161704700001B
:100DD00010B5024600696FF315006FF01F04D1E9EA
:100DE00000ECD1E9023140EA0E0004EB431340EA83
:100DF0000C000343002043EA4121116110BD0000B3
:100E00002DE9F041002A826835D040F6FF734FF299
:100E10000006CFF60F73CFF6FF761A40CB684F6906
:100E20006FF00F0406EB03330026CFF6F0761A437B
:100E300006EB07573A438260C2688E68D1E90037F3
:100E400002F07042013B04EB07176FF0FF040D69DD
:100E500004EB062600241A43CFF6FF7489693A434F
:100E600004EB0545013932432A4342EA0161C1607E
:100E70000020BDE8F08101F1080602F0704CD1E9D4
:100E800000E278CE6FF00F074FF2000807EB021276
:100E90006FF0FF0707EB0323AEF1010747EA0C07EA
:100EA000CFF6FF7840F2000E3A4308EB0434CFF659
:100EB000FF7E00271A4389690EEB0545CFF6F077D0
:100EC000224307EB065301392A431A4342EA0161E0
:100ED00081600020BDE8F081704700000000000044
:100EE00010B582B0044640F2000C00200021AA2276
:100EF000AA23CCF2000CCDF800C008F0BDFD20689C
:100F0000C16841F00101C16002B010BD00000000E5
:100F100070B50446006840F2B9660569C0F600067F
:100F2000690721D4A8072DD4E8063BD4280705D5A6
:100F3000206808214161204600F0BEF9E80708BF9B
:100F400070BD20680168890703D5C16821F01E01C2
:100F5000C160C16821F00101C160012141612046E9
:100F6000BDE87040FFF7BCBF04214161E06C40F078
:100F70000200E06484F83510A06C066500F010FDF6
:100F8000A807D1D521680222A06C4A61E16C41F02A
:100F90000101E164042184F83510066500F000FDCC
:100FA000E806C3D5206810214161204600F054F8BE
:100FB0002807C3D5BCE70000002849D0B0B50446D7
:100FC00090F8350010B9204600F04AF8022084F865
:100FD0003500D4F818E04FF20705BEF1000FCFF648
:100FE000E0751CBF0020606294E80510E368102AD9
:100FF000016801EA05010160D4E9045141EA0301F5
:10100000236A41EA0501656A41EA0C0141EA0301EC
:10101000A36A41EA0501E56A41EA0301236B41EA5B
:101020000501056841EA030141EA050141EA0E01B3
:1010300041EA0201016001D1E1698161C16841F0C9
:101040001E01C1600020E064012184F83510B0BDAC
:101050000120704700000000704700000000000001
:101060002DE9F04387B004460020C4F602000027B3
:101070002168069781420397CDE90477029702D051
:1010800007B0BDE8F08344F2E04102ADC5F60201CD
:1010900000F180504FF002084FF00D0951F8042C78
:1010A00042F0010241F8042C51F8042C02F0010234
:1010B0000192019A0A6842F001020A600A6802F08D
:1010C00001020192019A0A6842F080020A600A68ED
:1010D00002F080020192019A0A6842F004020A605A
:1010E0000A6802F004020192019A0A6842F48072CE
:1010F0000A60096801F4807101910199402102910F
:101100002946CDE903870597CDF8189002F0F8F944
:1011100040F600064FF4F850C5F602062946CDE920
:10112000020806F5A050CDF81890CDE9047702F03A
:10113000E7F94FF400602946CDE902083046CDF8C2
:101140001890CDE9047702F0DBF9F0202946CDE9CB
:10115000020806F5C050CDF81890CDE9047702F0EA
:10116000CFF943F658151020C2F20045C4F2020030
:1011700028604B20C5E901074FF4806028614FF4D7
:10118000805068614FF48040A8614FF48070E8613E
:101190004FF440302862042068620120EF60C5E906
:1011A0000A0728462F6301F097FA08B1FFF788FD78
:1011B0004E2000210022A564AC6302F045FC4E20C5
:1011C00002F032FC07B0BDE8F08300000000000030
:1011D000B0B582B0044690F8340001284FF0020008
:1011E00065D04FF0010E84F834E084F83500D4F86F
:1011F00000C0A06CDCF8005045F48045CCF80050ED
:10120000DCF8005025F00205CCF80050DCF8005066
:10121000294340F2B965CCF8001040F2D961C0F61C
:101220000005C5640025C0F60001B5EB134FC1638E
:101230000565A563E563256465640AD10CF12801A1
:1012400001F05AFD50B34020E064012084F83500DD
:101250002AE04164C4F838E0E3636264E16BB1F50D
:10126000803F0BD3002100BFE36B5B08E363A36BFC
:101270005B00A363E36BB1EB134FF5D1A16B0239B4
:10128000A163A16B2164E16BE56B009502EB810327
:101290000CF1280100F090F80028D4D120680168F2
:1012A00041F0010101600020002184F8341002B0F7
:1012B000B0BD00000000000070470000000000000A
:1012C00040F20F430068C4F20203984210DC6F231F
:1012D000C4F20203984220DC3F23C4F20203984286
:1012E00036DC1023C4F20203984254D028234EE087
:1012F00040F26F43C4F2020398421ADC40F23F43CB
:10130000C4F2020398422ADC40F21043C4F2020302
:10131000984240D040F2284339E09F23C4F20203B0
:10132000984225DC7023C4F20203984233D088230C
:101330002DE040F29F43C4F2020398421FDC40F2CA
:101340007043C4F20203984225D040F288431EE065
:101350004023C4F2020398421DD0582317E040F204
:101360004043C4F20203984215D040F258430EE0C5
:10137000A023C4F2020398420DD0B82307E040F244
:10138000B843C4F20203984205D040F2A043C4F22D
:101390000203984208D112B100F1100201E000F1FD
:1013A0000C0200201160704712B100F11002F8E742
:1013B00000F10C02F5E700002DE9F04104468068D9
:1013C000802805D14FF4807060650120BDE8F08170
:1013D00094F83400012802D10220BDE8F0810120F8
:1013E00084F8340094F83500012822D1022084F8D2
:1013F00035000020606540F20F482068C4F2020802
:1014000040F26F454045DDF818C0C4F2020513DC18
:101410006F27C4F20207B8421FDC3F27C4F202075D
:10142000B84235DC1027C4F20207B84254D028274E
:101430004DE04FF40060C7E7A8421ADC40F23F4796
:10144000C4F20207B8422ADC40F21047C4F2020795
:10145000B84241D040F2284739E09F27C4F2020742
:10146000B84225DC7027C4F20207B84234D088277E
:101470002DE040F29F47C4F20207B8421FDC40F261
:101480007047C4F20207B84226D040F288471EE0F7
:101490004027C4F20207B8421ED0582717E040F296
:1014A0004047C4F20207B84216D040F258470EE057
:1014B000A027C4F20207B8420ED0B82707E040F2D6
:1014C000B847C4F20207B84206D040F2A047C4F2BF
:1014D0000207B84240F05A8207683F2647F4802747
:1014E000076008270361D4E9160303F01F0306FA17
:1014F00003F3C35120466346FFF7D2F92068A842A0
:1015000019DC9F21C4F20201884231DC5721C4F268
:101510000201884256DC1021C4F20201884200F028
:1015200092802821C4F20201884200F08C80402180
:10153000C4F2020184E045F22F41C5F6020188425F
:101540002BDC40F2B741C4F20201884248DC40F291
:101550007041C4F20201884275D040F28841C4F261
:10156000020188426FD040F2A041C4F2020167E05C
:1015700040F22741C4F20201884240DCA021C4F2BB
:10158000020188425FD0B821C4F2020188425AD0D9
:1015900040F21041C4F2020152E045F26B41C5F63F
:1015A000020188423CDC45F23041C5F60201884226
:1015B00049D045F24441C5F60201884243D045F284
:1015C00058413BE05821C4F2020188423BD07021CF
:1015D000C4F20201884236D08821C4F202012FE011
:1015E00040F2B841C4F2020188422CD045F20841D1
:1015F000C5F60201884226D045F21C411EE040F2A9
:101600002841C4F2020188421DD040F24041C4F298
:101610000201884217D040F25841C4F202010FE0A3
:1016200045F26C41C5F6020188420CD045F2944166
:10163000C5F60201884206D045F28041C5F6020196
:10164000884240F09681616EE26E002AA26E4A6086
:101650001CBFD4E91C124A60404510DC6F21C4F263
:10166000020188421CDC3F21C4F20201884232DCC4
:101670001021C4F20201884251D028214AE0A84238
:101680001ADC40F23F41C4F2020188422ADC40F2F7
:101690001041C4F20201884241D040F2284139E0B1
:1016A0009F21C4F20201884225DC7021C4F20201AC
:1016B000884234D088212DE040F29F41C4F20201DB
:1016C00088421FDC40F27041C4F20201884226D0F9
:1016D00040F288411EE04021C4F2020188421ED03F
:1016E000582117E040F24041C4F20201884216D06E
:1016F00040F258410EE0A021C4F2020188420ED00F
:10170000B82107E040F2B841C4F20201884206D095
:1017100040F2A041C4F20201884240F02A810168EF
:101720000B2262F344010160416941F08001416193
:10173000216C09B9A16C19B108210268114301603B
:10174000A84219DC9F21C4F20201884231DC5721F2
:10175000C4F20201884256DC1021C4F20201884220
:1017600000F091802821C4F20201884200F08B80B1
:101770004021C4F2020184E045F22F41C5F6020186
:1017800088422BDC40F2B741C4F20201884248DCB7
:1017900040F27041C4F20201884274D040F28841A4
:1017A000C4F2020188426ED040F2A041C4F20201AC
:1017B00067E040F22741C4F20201884240DCA021E8
:1017C000C4F2020188425ED0B821C4F2020188420C
:1017D00059D040F21041C4F2020152E045F26B418F
:1017E000C5F6020188423CDC45F23041C5F60201F3
:1017F000884248D045F24441C5F60201884242D0B1
:1018000045F258413BE05821C4F2020188423AD0E7
:101810007021C4F20201884235D08821C4F202014D
:101820002FE040F2B841C4F2020188422BD045F2C9
:101830000841C5F60201884225D045F21C411EE050
:1018400040F22841C4F2020188421CD040F24041DB
:10185000C4F20201884216D040F25841C4F202019B
:101860000FE045F26C41C5F6020188420BD045F20B
:101870009441C5F60201884205D045F28041C5F683
:10188000020188426ED1216E0A68D20303D50A682C
:1018900042F480720A60E16E19B10A6842F4807203
:1018A0000A60404510DC6F21C4F2020188421CDC52
:1018B0003F21C4F20201884232DC1021C4F202014D
:1018C00088424FD028214AE0A8421ADC40F23F412A
:1018D000C4F2020188422ADC40F21041C4F2020143
:1018E00088423FD040F2284139E09F21C4F20201F2
:1018F000884225DC7021C4F20201884232D088215E
:101900002DE040F29F41C4F2020188421FDC40F208
:101910007041C4F20201884224D040F288411EE0A6
:101920004021C4F2020188421CD0582117E040F245
:101930004041C4F20201884214D040F258410EE006
:10194000A021C4F2020188420CD0B82107E040F285
:10195000B841C4F20201884204D040F2A041C4F26E
:1019600002018842016841F0010101600020BDE8E8
:10197000F0810168052262F343010160216C19B90D
:10198000A16C00293FF4DCAE0421D6E6076848F2DA
:1019900020063743076001260427A3E50000000066
:1019A00080B5D8B190F83510022919D140F20F4214
:1019B0000168C4F20202914216DC6F23C4F20203F2
:1019C000994226DC3F23C4F2020399423CDC1023F7
:1019D000C4F2020399425AD0282354E0012080BD6A
:1019E00080214165012080BD40F26F43C4F20203B3
:1019F00099421ADC40F23F43C4F2020399422ADCC6
:101A000040F21043C4F20203994240D040F228430E
:101A100039E09F23C4F20203994225DC7023C4F20B
:101A20000203994233D088232DE040F29F43C4F251
:101A3000020399421FDC40F27043C4F20203994250
:101A400025D040F288431EE04023C4F202039942AD
:101A50001DD0582317E040F24043C4F202039942DC
:101A600015D040F258430EE0A023C4F2020399427D
:101A70000DD0B82307E040F2B843C4F20203994204
:101A800005D040F2A043C4F2020399426ED19142C4
:101A90004FF0040280F8352010DC6F20C4F2020001
:101AA000814220DC3F20C4F20200814236DC10205B
:101AB000C4F20200814253D028204EE040F26F4031
:101AC000C4F2020081421ADC40F23F40C4F202003C
:101AD00081422ADC40F21040C4F2020081423FD031
:101AE00040F2284039E09F20C4F20200814225DC08
:101AF0007020C4F20200814232D088202DE040F2F2
:101B00009F40C4F2020081421FDC40F27040C4F2E8
:101B10000200814224D040F288401EE04020C4F2FE
:101B2000020081421CD0582017E040F24040C4F22D
:101B30000200814214D040F258400EE0A020C4F2CE
:101B4000020081420CD0B82007E040F2B840C4F255
:101B50000200814204D040F2A040C4F2020081425F
:101B6000086820F001000860002080BD0A6822F0AB
:101B70000E020A6045F25742C5F6020291420A6817
:101B800022F001020A600EDC45F22F42C5F6020285
:101B9000914217DC45F20842C5F60202914226D076
:101BA00045F21C421FE045F27F42C5F60202914217
:101BB00011DC45F25842C5F60202914217D045F2B7
:101BC0006C4210E045F23042C5F6020291420ED05E
:101BD00045F2444207E045F29442C5F602029142C2
:101BE00005D045F28042C5F6020291421AD1D0E9F1
:101BF000181CD0E916E30A6822F480720A6003F028
:101C00001F01012202FA01F1CEF80410816ECCF816
:101C10000410C16E31B10A6822F480720A60D0E902
:101C20001C124A60012180F83510026D002180F8F5
:101C300034100AB190470021084680BD0000000022
:101C40002DE9F04381B00021009140F224010446C7
:101C5000C2F2004148F2B512C1F64E32A56D0968D4
:101C600040F26F490068C4F20209A1FB021848451E
:101C70002E682A6815DC9F21C4F2020188422BDC01
:101C80005721C4F2020188424FDC1021C4F2020144
:101C9000884278D02821C4F20201884273D04021C2
:101CA0006CE045F22F41C5F60201884227DC40F284
:101CB000B741C4F20201884243DC40F27041C4F2F1
:101CC000020188425FD040F28841C4F2020188429A
:101CD00059D040F2A04151E040F22741C4F2020144
:101CE00088423DDCA021C4F2020188424BD0B821D9
:101CF000C4F20201884246D040F210413EE045F273
:101D00006B41C5F60201884275DC45F23041C5F6EB
:101D10000201884200F0828045F24441C5F602018A
:101D200088427BD045F2584173E05821C4F2020149
:101D3000884228D07021C4F20201884223D0882131
:101D40001CE040F2B841C4F2020188421BD045F2C7
:101D50000841C5F60201884260D045F21C4158E0B6
:101D600040F22841C4F2020188420CD040F24041C6
:101D7000C4F20201884206D040F25841C4F2020186
:101D8000884240F05884E16D082201F01F018A402A
:101D9000324200F0168140F20F43C4F2020398422F
:101DA0004FF0040313DC6F27C4F20207B84200F3BC
:101DB00091803F27C4F20207B84200F3D280102777
:101DC000C4F20207B84200F0F0802827E8E0484556
:101DD00000F38C8040F23F47C4F20207B84200F3A0
:101DE000C78040F21047C4F20207B84200F0DD801D
:101DF00040F22847D4E045F26C41C5F60201884222
:101E00000CD045F28041C5F60201884206D045F269
:101E10009441C5F60201884240F00D840368E16DEB
:101E200001F01F01042707FA01F6164218BF13F04C
:101E300004072CD1022707FA01F6164218BF13F047
:101E400002076AD1CA40120740F1F58313F0080275
:101E500000F0F18340F20F42C4F2020290426FF0B0
:101E60001C0200F3FF826F23C4F20203984200F3C6
:101E700031833F23C4F20203984200F366831023A8
:101E8000C4F20203984200F0988328238FE31904D8
:101E90006E603AD4990600F1CA8340F20F41C4F251
:101EA000020188426FF0080100F301836F22C4F23F
:101EB0000202904200F32D833F22C4F202029042BC
:101EC00000F38D831022C4F20202904200F0AC8332
:101ED0002822A3E39F27C4F20207B84251DC7027EF
:101EE000C4F20207B84260D0882759E040F29F4709
:101EF000C4F20207B8424BDC40F27047C4F202075A
:101F0000B84252D040F288474AE0D80300F1A68296
:101F1000A16C002940F09D828DE319046E6000F1F0
:101F2000B482990600F1D38340F20F41C4F202015A
:101F300088426FF0140100F30F836F22C4F2020293
:101F4000904200F37B833F22C4F20202904200F3EE
:101F500090831022C4F20202904200F0AF83282244
:101F6000A6E34027C4F20207B8421ED0582717E064
:101F700040F24047C4F20207B84216D040F2584738
:101F80000EE0A027C4F20207B8420ED0B82707E03F
:101F900040F2A047C4F20207B84206D040F2B84768
:101FA000C4F20207B84218BF082307681F4208D0CE
:101FB000036823F004030360AA60626D42F001022B
:101FC000626501228A4032426FD040F20F43C4F270
:101FD0000203984210DC6F23C4F2020398421CDC17
:101FE0003F23C4F20203984232DC1023C4F20203FE
:101FF000984251D028234AE048451ADC40F23F433A
:10200000C4F2020398422ADC40F21043C4F20203F5
:10201000984241D040F2284339E09F23C4F20203A2
:10202000984225DC7023C4F20203984234D08823FE
:102030002DE040F29F43C4F2020398421FDC40F2BD
:102040007043C4F20203984226D040F288431EE057
:102050004023C4F2020398421ED0582317E040F2F6
:102060004043C4F20203984216D040F258430EE0B7
:10207000A023C4F2020398420ED0B82307E040F236
:10208000B843C4F20203984206D040F2A043C4F21F
:102090000203984240F0FF81436903F0800323B1BB
:1020A000AA60626D42F00202626504228A403242F6
:1020B0006FD040F20F43C4F20203984210DC6F234A
:1020C000C4F2020398421CDC3F23C4F2020398428C
:1020D00032DC1023C4F20203984251D028234AE094
:1020E00048451ADC40F23F43C4F2020398422ADC1E
:1020F00040F21043C4F20203984241D040F2284318
:1021000039E09F23C4F20203984225DC7023C4F215
:102110000203984234D088232DE040F29F43C4F25A
:10212000020398421FDC40F27043C4F2020398425B
:1021300026D040F288431EE04023C4F202039842B6
:102140001ED0582317E040F24043C4F202039842E5
:1021500016D040F258430EE0A023C4F20203984286
:102160000ED0B82307E040F2B843C4F2020398420D
:1021700006D040F2A043C4F20203984240F091819D
:10218000036803F0020323B1AA60626D42F0040207
:102190006265102202FA01F131427DD040F20F4215
:1021A000C4F2020290424FF0080210DC6F23C4F226
:1021B000020398421CDC3F23C4F20203984232DC43
:1021C0001023C4F20203984251D028234AE0484524
:1021D0001ADC40F23F43C4F2020398422ADC40F288
:1021E0001043C4F20203984241D040F2284339E040
:1021F0009F23C4F20203984225DC7023C4F2020339
:10220000984234D088232DE040F29F43C4F2020369
:1022100098421FDC40F27043C4F20203984226D079
:1022200040F288431EE04023C4F2020398421ED0CD
:10223000582317E040F24043C4F20203984216D0FC
:1022400040F258430EE0A023C4F2020398420ED09D
:10225000B82307E040F2A043C4F20203984206D03C
:1022600040F2B843C4F20203984218BF0422036844
:10227000134211D0A96001684903016806D4C90559
:1022800006D4016821F00801016001E0080352D47E
:10229000216C09B120468847E06D00F01F01202025
:1022A00000FA01F2324200F0AB8040F20F432068A6
:1022B000C4F2020398424FF0100310DC6F27C4F2FF
:1022C0000207B8421CDC3F27C4F20207B84236DCE2
:1022D0001027C4F20207B84255D028274EE04845DF
:1022E0001ADC40F23F47C4F20207B8422EDC40F24B
:1022F0001047C4F20207B84245D040F228473DE0FB
:102300009F27C4F20207B84229DC7027C4F20207F3
:10231000B84238D0882731E040F29F47C4F2020724
:10232000B84223DC40F27047C4F20207B8422AD018
:1023300040F2884722E0A16C0029ABD1ACE74027EE
:10234000C4F20207B8421ED0582717E040F24047B7
:10235000C4F20207B84216D040F258470EE0A02758
:10236000C4F20207B8420ED0B82707E040F2A047F7
:10237000C4F20207B84206D040F2B847C4F20207DE
:10238000B84218BF022307681F4239D0AA6094F8E8
:102390003520042A02681BD122F01602026042692D
:1023A00022F080024261226C0AB9A26C1AB1026862
:1023B00022F0080202603F208840A860012084F8D3
:1023C0003500216D0020002984F8340041D132E12C
:1023D000510301680CD4C9050ED4016821F0100125
:1023E0000160012084F83500002084F8340003E007
:1023F000080301D4616C00E0E16B09B12046884715
:10240000606D002800F01781606DC0071DD00420AA
:1024100084F8350020684FEA9821026822F0010212
:10242000026000BF009A013200928A4202D802681C
:10243000D207F7D10068C0074FF0030008BF0120A2
:1024400084F83500002084F83400E16C002900F0A5
:10245000F280204601B0BDE8F0430847216C002916
:10246000F7D1E8E0484541DC40F23F43C4F20203C3
:10247000984200F3848040F21043C4F20203984271
:1024800000F09B8040F2284391E0D8033DD4616C7A
:102490000029DED1CFE003680023002B7FF400AEDB
:1024A00003E603680023002B7FF46EAE71E6484517
:1024B0003CDC40F23F42C4F20202904200F39680BC
:1024C00040F21042C4F20202904200F0AD8040F2AD
:1024D0002842A3E09F23C4F20203984258DC7023F1
:1024E000C4F20203984268D0882360E040F29F4320
:1024F000C4F20203984252DC40F27043C4F2020379
:1025000098425AD040F2884351E0E16B0029A0D1B3
:1025100091E09F22C4F20202904270DC7022C4F269
:102520000202904200F08080882277E040F29F42D1
:10253000C4F20202904269DC40F27042C4F202022C
:10254000904271D040F2884268E04023C4F2020316
:10255000984232D058232AE048457BDC40F23F4283
:10256000C4F20202904200F38B8040F21042C4F2A7
:102570000202904200F0A28040F2284298E040F22D
:102580004043C4F20203984217D040F258430EE091
:10259000A023C4F2020398420FD0B82307E040F210
:1025A000A043C4F20203984207D040F2B843C4F2F9
:1025B0000203984218BF6FF00E0203681A400260CF
:1025C000012000FA01F16960606584F8350000209F
:1025D000E16C84F8340000297FF43BAF2BE040220B
:1025E000C4F2020290421FD0582217E040F240424B
:1025F000C4F20202904217D040F258420EE0A022EC
:10260000C4F2020290420FD0B82207E040F2A0428A
:10261000C4F20202904207D040F2B842C4F2020271
:10262000904218BF6FF00401026811400160216CF4
:1026300000297FF40EAF01B0BDE8F0839F22C4F201
:102640000202904225DC7022C4F20202904235D090
:1026500088222DE040F29F42C4F2020290421FDC29
:1026600040F27042C4F20202904227D040F2884207
:102670001EE04022C4F2020290421FD0582217E00E
:1026800040F24042C4F20202904217D040F2584257
:102690000EE0A022C4F2020290420FD0B82207E05E
:1026A00040F2A042C4F20202904207D040F2B84287
:1026B000C4F20202904218BF6FF00A010268114092
:1026C0000160012084F83500002084F83400E16BBB
:1026D00000297FF4BEAEAEE72DE9F041044600F0DC
:1026E000F7FFECB140F26F4805462068C4F20208DB
:1026F000404518DC9F21C4F2020188422EDC57219C
:10270000C4F20201884254DC1021C4F20201884262
:102710007DD02821C4F20201884278D0402171E0A6
:102720000120BDE8F08145F22F41C5F60201884243
:1027300027DC40F2B741C4F20201884245DC40F296
:102740007041C4F20201884261D040F28841C4F273
:10275000020188425BD040F2A04153E040F22741A1
:10276000C4F2020188423FDCA021C4F20201884287
:102770004DD0B821C4F20201884248D040F2104145
:1027800040E045F26B41C5F60201884200F39280B9
:1027900045F23041C5F60201884200F09D8045F2C5
:1027A0004441C5F60201884200F0968045F2584146
:1027B0008EE05821C4F20201884228D07021C4F270
:1027C0000201884223D088211CE040F2B841C4F2C3
:1027D000020188421BD045F20841C5F60201884239
:1027E0007AD045F21C4173E040F22841C4F2020164
:1027F00088420CD040F24041C4F20201884206D027
:1028000040F25841C4F20201884240F0C5800221E2
:1028100084F83510002184F83410016821F001019A
:10282000016000BF20680168C9070CD000F050FFAC
:10283000401B0628F6D320206065032084F835006D
:102840000120BDE8F08148F23F0204F1080601686A
:10285000CFF61062114065694CCE1143A26919434D
:10286000E3693143266A0D43616A2B43042943EA35
:10287000060343EA020303D1D4E90B652E43334335
:1028800041F20006C5F600463668B6F1005F6CD32B
:102890006568A5F12906202E05D23F27CCF2C03766
:1028A000F740FF075CD1A5F14F060025042E38BF85
:1028B000012556E045F26C41C5F6020188420BD075
:1028C00045F28041C5F60201884205D045F29441A7
:1028D000C5F6020188425FD104F1080E022184F896
:1028E0003510002184F834100168A3699EE8045073
:1028F000A2F18005E769B5FA85F566696D09402A98
:102900004FEA853543EA07026FF3101142EA0602E7
:1029100008BF102541EADC0142EA0E022943236A7E
:1029200041EAD2014AF6F832CAF2FD724CF6CD47BE
:102930000244CCF6CC4741EA1311A2FB0723016005
:102940006FF0030000EA9300E0652046FDF71CFFEE
:10295000E16D012201F01F0102FA01F1416045E041
:102960000125002D18BF43F4801303600429436937
:1029700023F0070341EA03012DD1D4E90A5341EAC8
:10298000050143B3B2F5005F08D09AB9022D16D005
:10299000012D09D09DB115E040204DE7032D11D840
:1029A000DFE805F00A0D0A02A3F1C072B2FA82F262
:1029B000520908E0032D01D2012204E002D1C3F341
:1029C000006200E0002232B140206065012084F8FE
:1029D0003500BDE8F08141612046FDF7D5FEE16D8F
:1029E0003F2201F01F0102FA01F181602068404599
:1029F00019DC9F21C4F20201884231DC5721C4F264
:102A00000201884256DC1021C4F20201884200F023
:102A100092802821C4F20201884200F08C8040217B
:102A2000C4F2020184E045F22F41C5F6020188425A
:102A30002BDC40F2B741C4F20201884248DC40F28C
:102A40007041C4F20201884275D040F28841C4F25C
:102A5000020188426FD040F2A041C4F2020167E057
:102A600040F22741C4F20201884240DCA021C4F2B6
:102A7000020188425FD0B821C4F2020188425AD0D4
:102A800040F21041C4F2020152E045F26B41C5F63A
:102A9000020188423CDC45F23041C5F60201884221
:102AA00049D045F24441C5F60201884243D045F27F
:102AB00058413BE05821C4F2020188423BD07021CA
:102AC000C4F20201884236D08821C4F202012FE00C
:102AD00040F2B841C4F2020188422CD045F20841CC
:102AE000C5F60201884226D045F21C411EE040F2A4
:102AF0002841C4F2020188421DD040F24041C4F294
:102B00000201884217D040F25841C4F202010FE09E
:102B100045F26C41C5F6020188420CD045F2944161
:102B2000C5F60201884206D045F28041C5F6020191
:102B3000884240F0D08045F2574C45F6FC01C5F67E
:102B4000020CC5F6020160450EDC45F22F43C5F6C6
:102B50000203984217DC45F20843C5F60203984287
:102B600026D045F21C431FE045F27F43C5F6020321
:102B7000984211DC45F25843C5F60203984217D03B
:102B800045F26C4310E045F23043C5F6020398422B
:102B90000ED045F2444307E045F29443C5F60203E4
:102BA000984205D045F28043C5F60203984250D1C1
:102BB00000F0FC034CF6CD47083BCCF6CC47A3FB1A
:102BC0000737A1F1FC05A1F17C063B0905EB830267
:102BD0002266A26803F01F030127802A666607FAAF
:102BE00003F2A26601D1002262606268A56ED4E998
:102BF0001876D3B2013A072A3B60756015D85E1E7D
:102C0000072E62D8604501F1440213DC45F22F47DC
:102C1000C5F60207B8423CDC45F20847C5F6020794
:102C2000B8424BD045F21C4744E000206067C4E93D
:102C30001B0050E045F27F47C5F60207B84231DC81
:102C400045F25847C5F60207B84237D045F26C47FF
:102C500030E000F0F8034AF6AB27103BCAF6AA278B
:102C6000A3FB073740F20F43C4F2020308253E09D5
:102C7000984203F1AA02334688BF05EB171340F6CA
:102C800000059042C4F2020528BF334605F18006D4
:102C90009CE745F23047C5F60207B8420ED045F230
:102CA000444707E045F28047C5F60207B84205D021
:102CB00045F29447C5F60207B84213D101EB8300F1
:102CC000E06601202267B040606704F16C020023D7
:102CD00007CA03604A6000206065012184F835104E
:102CE000BDE8F08140F60000C4F2020000F1FC01F2
:102CF00000F5A072E2E70000B0B5E0B3054690F839
:102D00003400012801D10220B0BD012085F8340033
:102D100095F83500012828D1022085F835000020DB
:102D200068652868046824F0010404602846FDF7FB
:102D300043FE40F20F422868C4F2020240F26F41A3
:102D40009042C4F2020118DC6F23C4F202039842DD
:102D500024DC3F23C4F2020398423ADC1023C4F27D
:102D60000203984259D0282352E04FF4006068656E
:102D7000002085F834000120B0BD88421ADC40F202
:102D80003F43C4F2020398422ADC40F21043C4F2EB
:102D90000203984241D040F2284339E09F23C4F215
:102DA0000203984225DC7023C4F20203984234D017
:102DB00088232DE040F29F43C4F2020398421FDCB7
:102DC00040F27043C4F20203984226D040F2884396
:102DD0001EE04023C4F2020398421ED0582317E09D
:102DE00040F24043C4F20203984216D040F25843E6
:102DF0000EE0A023C4F2020398420ED0B82307E0ED
:102E000040F2B843C4F20203984206D040F2A04315
:102E1000C4F20203984240F0238103680B2464F358
:102E2000440303602B6C1BB1082304682343036035
:102E3000884219DC9F23C4F20203984231DC5723F5
:102E4000C4F20203984256DC1023C4F202039842F3
:102E500000F091802823C4F20203984200F08B8096
:102E60004023C4F2020384E045F22F43C5F6020377
:102E700098422BDC40F2B743C4F20203984248DC8C
:102E800040F27043C4F20203984274D040F2884387
:102E9000C4F2020398426ED040F2A043C4F202038F
:102EA00067E040F22743C4F20203984240DCA023CB
:102EB000C4F2020398425ED0B823C4F202039842DF
:102EC00059D040F21043C4F2020352E045F26B4382
:102ED000C5F6020398423CDC45F23043C5F60203D6
:102EE000984248D045F24443C5F60203984242D086
:102EF00045F258433BE05823C4F2020398423AD0CB
:102F00007023C4F20203984235D08823C4F202032E
:102F10002FE040F2B843C4F2020398422BD045F2AE
:102F20000843C5F60203984225D045F21C431EE033
:102F300040F22843C4F2020398421CD040F24043BE
:102F4000C4F20203984216D040F25843C4F202037E
:102F50000FE045F26C43C5F6020398420BD045F2F0
:102F60009443C5F60203984205D045F28043C5F666
:102F7000020398426ED12B6E1C68E40303D51C68D3
:102F800044F480741C60EB6E1BB11D6845F48075C1
:102F90001D60904210DC6F21C4F2020188421CDCEB
:102FA0003F21C4F20201884232DC1021C4F2020146
:102FB00088424FD028214AE088421ADC40F23F4143
:102FC000C4F2020188422ADC40F21041C4F202013C
:102FD00088423FD040F2284139E09F21C4F20201EB
:102FE000884225DC7021C4F20201884232D0882157
:102FF0002DE040F29F41C4F2020188421FDC40F202
:103000007041C4F20201884224D040F288411EE09F
:103010004021C4F2020188421CD0582117E040F23E
:103020004041C4F20201884214D040F258410EE0FF
:10303000A021C4F2020188420CD0B82107E040F27E
:10304000B841C4F20201884204D040F2A041C4F267
:1030500002018842016841F0010101600020B0BD19
:103060000368052464F3430303602B6C002B3FF4D7
:10307000DFAE0423D9E60000B0B5044600F028FB1B
:1030800040F2FA010546C2F20041621C097818BFFD
:103090000C4400BF00F01CFB401BA042FAD3B0BDA3
:1030A0002DE9F04F85B0002840D04AF200080446D0
:1030B000C4F200080068404502D108F580706060E5
:1030C00094F8980028B9002084F89900204600F070
:1030D000CBF92068816921F01001816100F0F8FAD4
:1030E000054600BF20688169090705D500F0F0FAA0
:1030F000401B0B28F6D310E0816941F0010181618A
:1031000000F0E6FA054600BF20688169C90711D1C1
:1031100000F0DEFA401B0B28F6D30120D4F89C10F7
:103120000843C4F89C00032084F89800012005B0EF
:10313000BDE8F08F816941F002018161217C8269E3
:1031400022F04002012918BF40328261617C82690D
:1031500022F48042012908BF02F580428261A17CED
:10316000826922F48052012918BF02F580528261DF
:10317000816921F44073D4E902120B4383618369AE
:1031800023F0A4038361036923F0100303619AB160
:10319000012A0DD0022A09D08369032A43F0800353
:1031A0008361036943F01002026105D1202200E02F
:1031B000042283691A438261D4E90572E369561EC9
:1031C0006FF0FF02256A02EB0323B1F5407F43EA6B
:1031D0004663A5F1010646EA030640F20003CFF676
:1031E000FF7303EB074746EA0701C16110D1D4E939
:1031F0000B65D4E90917013F02EB06226FF00F06B9
:103200003A4306EB05173A4303EB01411143C16012
:10321000236E2BB1616ED0F8C0201143C0F8C010EE
:10322000E16DCDE90313D9424FF22471C0F60001DC
:1032300009D0D0F8C820A36E22F0070251F823303D
:103240001A43C0F8C820D4F840A0BAF1000F09D042
:10325000D0F8BC20636C22F0070251F823301A43E7
:10326000C0F8BC20A76C57B1D0F8BC20E36C22F0AA
:10327000700251F8233042EA0312C0F8BC20D4F89F
:1032800050C0BCF1000F0AD0D0F8BC20636D22F40E
:10329000E06251F8231042EA0121C0F8BC10404519
:1032A00004D161688A6822F003028A600021C4F8B0
:1032B0009410C4F89C10012184F898104FF6FC7209
:1032C000D0F88410D4F83C9021EA0203656CD4E96C
:1032D0000D120292019543EA8103C0F88430D0F8C0
:1032E000843023F47F0343EA0243C0F88430531848
:1032F000D0F888606FF38F0646EA8306C0F88860CE
:10330000D0F8886003EB490326F4FE0646EA094636
:10331000C0F88860D0F8A0606FF38F0646EA830695
:10332000C0F8A060D0F8A06005FB0A3326F4FE06C2
:1033300046EA0A46C0F8A060D0F8B0606FF38F0686
:1033400046EA8306C0F8B060D0F8B06026F4FE0606
:1033500046EA0746C0F8B060E66CD0F8AC506FF3B0
:103360008F0506FB07337E4345EA8305C0F8AC5062
:10337000D4F8548008FB0C35D0F8F0306FF38F038D
:1033800008FB0CFC43EA8503C0F8F030D0F8F0E00D
:10339000A36D2EF47C1242EA0342C0F8F02005EB44
:1033A0004302D0F8C0506FF38F0545EA8202C0F89F
:1033B000C020D0F8C020DDF80CB022F47C1242EA24
:1033C0000B42C0F8C020019AD0F8C05025F07C55BF
:1033D00002FB0AFE4AF20002C4F20002DDF810A06D
:1033E00002EB8101029A01F5406145EA0A6501EBB1
:1033F0008207C0F8C05007EBC902A56E02EB8E0031
:10340000626700EB86060BFB05F2276706EB8C076D
:10341000C4E91E060AFB05F007EBC30303EB8202B7
:10342000C4F884304DF2FC33E16602EB8000C4F254
:1034300000039842C4F88070C4F88820C4F8900053
:1034400001D920206AE6814209D2002041F8040B0C
:10345000D4F890209142F9D305B0BDE8F08F002058
:1034600005B0BDE8F08F0000B0B5B8B0044602A8C2
:10347000C0210025CDE93655CDE934553395FDF70A
:1034800015F84AF200012068C4F20001884201D018
:1034900038B0B0BD4FF40040029002A803951E95CD
:1034A00001F0F2FD08B1FDF70BFC44F2E040C5F677
:1034B0000200C16841F48071C160C16801F480718B
:1034C00001910199016841F080010160006833A910
:1034D00000F08000019001984FF4C040339002202A
:1034E00034900020CDE935000920379041F60040A6
:1034F000C5F6020000F004F838B0B0BD00000000CE
:103500002DE9F04F82B00C68002C00F0C58000F16E
:10351000264242F2004302F1FF72C5F602030A2777
:1035200098424FEAB22540F2040E08BF0927092D40
:10353000C5F6000E38BF4FEAB22700224FF0030C49
:1035400000970026002709E001370C6834FA07F3DA
:1035500006F1020602F1040200F09E80012303FA44
:1035600007FA14EA0A09EFD0D1F804B00BF003040B
:10357000A4F10108B8F1010F11D8D0F808800CFAB5
:1035800006F3CD6828EA0303B5402B438360CBF3F1
:103590000015436823EA0A03BD402B434360032C14
:1035A0001DD0C3680CFA06F5AB438D68B540022CFC
:1035B00043EA0503C36012D16FF0030302F01C0558
:1035C00003EA57030F24034404FA05FAD3F82080D2
:1035D0000C6928EA0A08AC4044EA08041C62036843
:1035E0000CFA06F44D68A34305F0030415F4403FBC
:1035F00004FA06F443EA04030360A5D044F2F44459
:1036000040F2084AC5F60204C5F6000A0F252368F1
:1036100043F002032360236803F00203019327F0C1
:103620000303019C02F00C0453F80A80A54028EA29
:103630000508009D05FA04F444EA080443F80A402A
:103640004FF0B04ADAF800804C6848EA0905E30216
:1036500058BF28EA0905A302CAF80050DEF8008026
:1036600048EA090558BF28EA0905A303CEF8005027
:10367000DEF8808048EA090558BF28EA0905E40316
:10368000CEF88050DEF87C3043EA090558BF23EAC3
:103690000905CEF87C5057E702B0BDE8F08F000076
:1036A0000069084018BF01207047000000000000BA
:1036B000002A08BF09048161704700000000000073
:1036C00041F20000C5F600400068000C70470000A1
:1036D00044F20870C2F20040006870470000000029
:1036E00090F84120202A03D190F84020012A01D1EE
:1036F00002207047242280F841200268136823F0DA
:1037000001031360136823F4805313601368194393
:103710001160116841F001011160202180F8411011
:10372000002180F8401008467047000000000000AB
:1037300090F84120202A03D190F84020012A01D19D
:1037400002207047242280F841200268136823F089
:1037500001031360136823F4706343EA01211160CD
:10376000116841F001011160202180F84110002111
:1037700080F840100846704700284ED010B5044627
:1037800090F8410028B9002084F84000204600F05D
:1037900047F8242084F8410094E80310E36821F0FE
:1037A00070610268012B22F00102026001614FF496
:1037B0000441826808BF4FF4004122F40042826055
:1037C00041EA0C0181604168022B21F4006104F19F
:1037D000100308BF01F500614160416841F00071CC
:1037E00041F400414160C16821F40041C1600ECB49
:1037F000114341EA0321C160D4E90712114301607A
:10380000016841F00101016000206064202184F81A
:103810004110206384F8420010BD01207047000071
:10382000B0B5B8B0044602A8C0210025CDE9365590
:10383000CDE934553395FCF739FE41F60041206857
:10384000C5F60001884239D045F60001C4F20001F6
:10385000884264D10820029002A800240394239493
:1038600001F012FC08B1FDF72BFA44F2E04540F6F6
:103870000041C5F60205C5F60201286840F0800047
:103880002860286800F08000019001983020339073
:103890001220CDE934040420379001F5805033A97B
:1038A0003694FFF72DFEA86840F48000A860A86851
:1038B00000F480000190019838B0B0BD1020029053
:1038C00002A80395289501F0DFFB08B1FDF7F8F990
:1038D00044F2E04433A9C5F60204206840F0080031
:1038E0002060206800F00800019001984FF44050DB
:1038F0003390122034900020CDE935000420379019
:1039000040F60040C5F60200FFF7FAFD606940F09E
:1039100080006061606900F080000190019838B01B
:10392000B0BD00000000000040F2FA0044F208714F
:10393000C2F20040C2F2004100780A6810440860F8
:10394000704700000000000080B5032000F0ACF8D4
:1039500002F056FA44F218414FF27C73C5F60201A8
:10396000C0F600030A68096801F00F01C2F30322E0
:10397000595C9A5C01F01F0102F01F02D04040F236
:103980002802C2F2004220FA01F1116040F2240143
:10399000C2F2004108600F2000F00AF800281CBFA6
:1039A000012080BD00F030F8002080BD0000000044
:1039B000B0B540F2FA01C2F20041097801B3044601
:1039C00040F22400C2F200404FF47A72B2FBF1F1EF
:1039D0000068B0FBF1F004F0AFFA0F2C4FF00105D6
:1039E0000CD858B94FF0FF3000222146002500F0D6
:1039F0002BF840F2FC00C2F2004004602846B0BD43
:103A00000120B0BD0000000081B044F2F440C5F6D2
:103A10000200016841F002010160006800F002004C
:103A20000090009801B07047002848BF704700F030
:103A30001F01012202FA01F14EF200124009CEF2FA
:103A4000000242F82010704770B54EF60C5C4FF043
:103A5000FF36CEF2000C00F1604505F56445DCF858
:103A60000030C3F3022E8EF00703042B28BF04237B
:103A7000BEF1030406FA03F321EA030100F00F0389
:103A800038BF0024043B0028634406FA04F048BF12
:103A900003F10C05A14022EA000008430001287050
:103AA00070BD0000000000004EF60C514FF6FF0301
:103AB000CEF200010A681A4060F30A2242F08060E8
:103AC00040F0FD700860704701680122C0F8D824FA
:103AD000002280F8CC24886940F000608861486D3D
:103AE00040F08052002042F003024A657047000017
:103AF000704700000000000002680020516270471B
:103B0000B0B5D0F800E0DEF82400D1B1DEF82830FE
:103B1000B1F1010C00EB13430BD05FFA8CF10EF501
:103B20008070002450F8045F01348C4203EB15438D
:103B3000F8D30EEB8C0043EA0241C0F804110020D8
:103B4000B0BD40EA0240CEF828000020B0BD000021
:103B5000D0F8E00408F098BF01EBC10200EB82024C
:103B6000D0F8E004126A08F0FBBE0000000000007C
:103B700001EBC10200EB8202D0F8E004D2F860222F
:103B800008F046BF00000000D0F8E00408F080BF55
:103B900010B54AB2044601F00F00B2F1FF3F00EB4E
:103BA000C00104EB810205DD02F51571002382F8E6
:103BB000553203E002F114010123537594F8942463
:103BC0000870012A01D1022010BD012084F894045C
:103BD000206809F039FD002084F8940410BD00002D
:103BE000B0B50279044601F00F00904201D90120DE
:103BF000B0BD49B2B1F1FF3F09DD00EBC0010023C8
:103C000004EB810202F5157182F8553207E000EBF2
:103C1000C001012304EB810202F11401537594F8F1
:103C2000942400258D70012A087001D10220B0BDB6
:103C3000012084F89404206809F096FE284684F850
:103C40009454B0BD0000000001F00F0101EBC10170
:103C500000EB8100D0F8680270470000000000000F
:103C600070B54CB2064601F00F00B4F1FF3F00EB17
:103C7000C00107DD06EB8104002504F5157184F809
:103C8000555206E006EB810C01240CF114018CF86E
:103C900015404D7808708A60002D0B7118BF48835D
:103CA000022B01D10020487196F89404012801D11B
:103CB000022070BD012086F89404306809F0E4FB0E
:103CC000002086F8940470BD80B501F00F0E0EEB55
:103CD000CE0100EB810C0021CCE998238379CCF84C
:103CE00068128CF855120CF51571012B8CF854E202
:103CF00008BFCCF8702200681A4609F07DFE00204B
:103D000080BD000000000000B0B50446007901F05D
:103D10000F05854201D90120B0BD48B2B0F1FF3F87
:103D200009DD01EBC100002204EB800000F51571F4
:103D300080F8552207E005EBC500012204EB800066
:103D400000F11401427594F8942401208870012A2E
:103D50000D7001D10220B0BD84F89404206809F0F0
:103D60002BFE2DB9A179206804F29C4209F0CCFD0C
:103D7000002084F89404B0BD10B501F00F0C0124AC
:103D80000CEBCC0100EB810E714601F814CF4FF023
:103D9000000CC1F814C090F806C04C70CA60BCF1A9
:103DA000010F0B6108BFCEF830200068624609F0B1
:103DB00023FE002010BD00002DE9F04F89B00568FA
:103DC0008246284609F094FF10B109B0BDE8F08F93
:103DD000DAF8000009F0BCFF0028F6D0D5F8080892
:103DE000C0F30D20CAF8D404DAF8000009F0B0FFDF
:103DF000800705D5DAF80000416901F00201416150
:103E0000DAF8000005F5006609F0A2FFC006059586
:103E10003ED5DAF80000816921F0100181612C6A39
:103E200004F00F05C4F34340062819D0022828D116
:103E300047F6F07014EA000823D005EBC5004FEAFE
:103E400018140AEB800705982246D7F8601209F08B
:103E500083FFD7F8600200EB1810C7F8600207E094
:103E60000AF29C410822059809F076FFC4F30A146F
:103E700005EBC5000AEB8000D0F868122144C0F8B9
:103E80006812DAF80000816941F010018161059D36
:103E9000DAF80000049609F05BFF0003CDF820A0DB
:103EA00040F10381DAF8000009F02EFF002800F04D
:103EB000FC8006464FF4306800244FF0000B0AF2F5
:103EC0009C40079009E000BF0BF1010B760808F158
:103ED000200804F1240400F0E880F007F4D05FFA31
:103EE0008BF9DAF80000494609F02AFF8246C0073C
:103EF0006CD005EB080001218160089F386808EB51
:103F00000001036C8A68BF79012F2AD117073BD4BF
:103F1000970658D412F0280F059D57D143F20B078E
:103F2000C4F65477BB4202D312F4004248D1089F32
:103F3000002C07EB0402D2F8743209696FF3DF41F9
:103F4000A3EB0101C2F8681240F0AD80D2F86432F0
:103F5000002B00F0A380D2F860020844C2F860028F
:103F6000A0E043F20B07C4F65477FF37BB4219D1E8
:103F7000100425D49006059D01D52020886008985E
:103F80004946FFF7F5FD21E043F20B00059DC4F61D
:103F9000547083421AD312F4004017D04FF40040FB
:103FA000886013E03CB90899D1F8641219B900216E
:103FB000079A09F0A9FC08984946FFF7D9FD04E0E3
:103FC0004FF4004000E020208860059D5FEA0A7001
:103FD00026D505EB08000821816043F20B01089803
:103FE000C4F654714F1E0068056C4044BD428168A0
:103FF00005D911F400411CBF4FF4004181600898BD
:1040000000F0EEFBBD42059D0AD908988079012891
:1040100006D108980121079A006809F075FC00BFD5
:104020005FEACA6016D45FEA8A701AD45FEA8A60CF
:1040300003D505EB0800202181605FEA8A40DDF8A6
:1040400020A07FF541AF05EB08004FF400518160DF
:104050003AE700BF05EB0800102181605FEA8A7033
:10406000E4D56869000604D50499486840F4806086
:1040700048600898204490F85712012906D1002181
:1040800080F857120898494600F0A6FA05EB080098
:10409000022181605FEA8A60CBD4CEE70121079AD2
:1040A00009F032FC089F384686E7DAF80000AB4694
:1040B00009F04EFE400340F1E380DAF8000009F019
:1040C0001BFE002800F0DC80064600270BF5106080
:1040D00003900AF29C40029005E000BF760807F1C9
:1040E000010700F0CD80F007F8D0F9B2DAF800004F
:1040F000079109F011FE0446C007039D0AD120076D
:1041000032D4E00636D460063AD4A0073ED4200666
:10411000E4D554E0049B07F00F004FF0010C05EBD1
:1041200047120CFA00F0596B21EA00005863C2F8FC
:1041300008C09AF80600012810D107EBC7000AEB67
:104140008000D0E90712114401623FB9406A28B9E2
:10415000DAF800000121029A09F0D6FB50460799CF
:10416000FFF7FAFC2007CCD505EB4710082181604A
:10417000E006C8D505EB4710102181606006C4D564
:1041800005EB471040218160A007C0D5584639464D
:1041900009F07AFD07EBC7000AEB800010F8171F43
:1041A000012905D1002101705046079900F010FA4D
:1041B00005EB47100221816020067FF58FAF07EBEA
:1041C000C7000AEB8000814659F8241FC84658F8FA
:1041D000042F9142FFF482AF8346DAF80030891A47
:1041E0005BF81C2F914238BF0A4603EB4711069338
:1041F0000332D1F818399BB2B3EB920F28D301F5F3
:10420000106A00F1200500BFD8F80000D9F80010AE
:1042100081421DD9081A0899DBF80040A0428A792A
:1042200038BF044629680092A3B2DDE9060209F00E
:104230008FFE286820442860D8F800002044C8F881
:104240000000E01CDAF8181089B2B1EB900FDBD255
:10425000D9F80000D8F800108842DDF820A0DDF879
:1042600014B03FF63BAF069A07F00F00012101FAA8
:1042700000F0D2F8341821EA0000C2F834082DE723
:10428000DAF8000009F064FDB0F1FF3F049C18DC8F
:10429000606820F0010060609AF8CC04012807D122
:1042A00000208AF8CC0400215046FFF721FC02E0F0
:1042B000504600F079FADAF80000416901F0004157
:1042C0004161DAF8000009F043FD00050BD5A06854
:1042D000C00702D0504600F0ABFADAF8000041699E
:1042E00001F400614161DAF8000009F031FD0001DC
:1042F00018D5DAF80000416901F0006141619AF8CF
:10430000CC1419B1504600F093FA0BE001218AF861
:10431000CC14406D0121C0F38300CAF8D00450468C
:10432000FFF7E6FBDAF8000009F012FDC00453D5F0
:104330006068102120F001006060DAF8000009F0E8
:10434000A3FC9AF80400D0B10BF510614FF67F3250
:104350008A6001380B6823F400130B60C1F808224F
:10436000D1F8003223F40013C1F80032D1F8003242
:1043700043F00063C1F8003201F12001E8D1E069A7
:1043800040F00110E0619AF80F0040B1D4F88400C9
:1043900040F00B00C4F8840004F1440006E06069BA
:1043A00042F22B010843606104F1100001680AF237
:1043B0009C4241F00B010160206820F4FE60206007
:1043C0009AF80610DAF8000009F09EFADAF8000010
:1043D000416901F480514161DAF8000009F0B8FC4C
:1043E00080041CD5DAF8000009F092F8DAF8000031
:1043F00009F06EFC8AF80700DAF8004001F078FC5A
:104400009AF807200146204609F016FD504600F0B4
:10441000B3F9DAF80000416901F400514161DAF8BA
:10442000000009F095FC000708D5504600F0C0F9DF
:10443000DAF80000416901F008014161DAF8000092
:1044400009F086FC000628D50599886920F08000CF
:1044500088619AF8040002281FD3012440F27B25CA
:1044600006E000BF9AF8040001342435844214D2D7
:104470001AF805000128F5D104F00F00220600EB20
:10448000C0000AEB800000F1140158BF00F515715F
:10449000DAF8000009F0ACFBE4E7DAF8000009F014
:1044A00057FCC0022FD59AF80400022825D305989E
:1044B0000AF13C0500F512640126012707E000BF60
:1044C0009AF80400013720342435874215D2206839
:1044D00029780129F4D1B0F1FF3FF1DC07F00F009A
:1044E00005F8016C00EBC0000AEB800000F114013C
:1044F000DAF8000009F07CFBE2E7DAF80000416935
:1045000001F480114161DAF8000009F021FC800219
:1045100035D59AF80410059D02292AD305F5326095
:1045200001390AF51F72012306E000BF013900F1CD
:10453000200002F124021CD007681678012EF5D164
:10454000B7F1FF3FF2DCDAF8D46407F4803706F005
:104550000106B742EAD102F8013CAF6947F0800793
:10456000AF616F693F06E1D40499486840F4007078
:104570004860DAF80000416901F400114161DAF89D
:10458000000009F0E5FB400008D55046FFF7E0FACF
:10459000DAF80000416901F080414161DAF8000079
:1045A00009F0D6FB40077FF510ACDAF8000044684C
:1045B000600702D55046FFF7E7FADAF800004168D5
:1045C0002143416009B0BDE8F08F00000000000009
:1045D000D0F8E00408F0BCBAD0F8E00408F0CCBA97
:1045E00010B582B000285DD0044690F8950428B933
:1045F000002084F89404204600F06AF8032084F830
:104600009504206809F078F9D4E9000194F810C005
:10461000D4E90223CDF800C008F08AFF00283ED17B
:104620002068002109F0C0FBC8BB207960B300EB13
:10463000C00000214FEA800E4FF0010C0023002241
:10464000E01824339E450275C28502F1010280F80C
:1046500015C00176C16101624162F1D100210022E1
:10466000002300BFA0182432964580F8543203F18D
:10467000010380F8551280F85812C0F85C12C0F897
:104680006012C0F86412EDD1D4E9000194F810C0B2
:10469000D4E90223CDF800C009F03AF828B102208D
:1046A00084F89504012002B010BD00206074012040
:1046B00084F89504207B012802D12046FFF704FAF4
:1046C000206809F015F8002002B010BD00000000BD
:1046D000B0B5B8B0044602A8C0210025CDE93655D2
:1046E000CDE934553395FBF7E1FE00212068C4F293
:1046F0000801884201D038B0B0BD4FF4802002904C
:104700004FF44010249002A8039500F0BDFC08B1BE
:10471000FCF7D6FA00F0CCF844F2D84433A9C5F639
:104720000204A06840F00100A060A06800F0010051
:10473000019001984FF4C050339002203490002033
:10474000CDE935000A2037900020C5F60200FEF7BB
:10475000D7FE2068002140F0006020602068002221
:1047600000F00060019001986520FFF76DF9652069
:10477000FFF75AF938B0B0BD10B5C179044631B170
:10478000022901D1012102E0FCF79AFA0121D4F8B3
:10479000E00408F07DFAD4F8E004BDE8104008F029
:1047A00027BA000000000000D0F8E00408F054BA76
:1047B000D0F8E00408F05CBA10B5044690F8940410
:1047C000012801D1022010BD012084F894046174F5
:1047D000206809F01DFB002084F8940410BD00003F
:1047E000D0F8E02400F29C41104608F069BA0000BD
:1047F00010B5044690F89404012801D1022010BDA0
:104800002068012184F89414C168490606D5617BAB
:10481000012903D1816B41F48031816309F02CFAC5
:10482000206808F055FF002084F8940410BD0000B3
:1048300010B50446D0F8E00408F09AFA2068D0F8E1
:10484000001E41F00101C0F8001EE07A002808BFF8
:1048500010BD4EF61050CEF20000016841F0060186
:10486000016010BD00000000B0B544F60C05C5F6AF
:10487000020529684907296805D401F00701081ACB
:1048800018BF0120B0BD21F0070108432860FEF7E2
:104890001FFF044655F8080C800407D4FEF718FFE4
:1048A000001BB0F57A7FF5D90120B0BD0020B0BD66
:1048B00044F60C00C5F60200016841F08071016009
:1048C000704700000000000080B501F011FA44F2CA
:1048D00020414FF27C72C5F60201C0F60002096861
:1048E000C1F30211515C01F01F01C84080BD0000FE
:1048F00080B544F2304EC5F6020E5EF8083C5EF814
:10490000081CC1F3051C5EF8041CBCF1000FDEF8A6
:10491000042018D001F0010103F003034942022BE7
:1049200001EAD2016FF35F3100EE101AB8EE400ACF
:104930000ED0012B0FD01BB95EF8301C89060DD4A8
:104940009FED341A18E000218160C0E9001180BD9C
:104950009FED2F1A10E09FED2D1A0DE05EF8301C30
:1049600049F20002C0F2D032C1F3C10122FA01F1D2
:1049700001EE101AB8EE411ADEF800109FED263A4B
:104980006FF35F2102EE101ADEF80010C1F346212A
:10499000B8EE422A00EE032A00EE10CAB7EE003A43
:1049A000B8EE400A81EE000A32EE031A02EE101A47
:1049B000B8EE422A20EE010A32EE031A80EE011A06
:1049C000BCEEC11A80ED001ADEF80010C1F30641FA
:1049D00001EE101AB8EE411A31EE031A80EE011AF8
:1049E000BCEEC11A80ED011ADEF80010C1F30661B9
:1049F00001EE101AB8EE411A31EE031A80EE010AE8
:104A0000BCEEC00A10EE101A816080BD0024744A0A
:104A100020BCBE4B0024744C000000390000000094
:104A200080B544F2384EC5F6020E5EF8103C5EF8D2
:104A3000101C5EF80C2CC1F3053CDEF80410BCF130
:104A4000000F15D0C908D20601EAE2716FF35F3199
:104A500000EE101A03F003010229B8EE400A0CD050
:104A600071B95EF8381C89060DD49FED351A18E02F
:104A700000218160C0E9001180BD9FED301A10E077
:104A80009FED2D1A0DE05EF8381C49F20002C0F2CD
:104A9000D032C1F3C10122FA01F101EE101AB8EED1
:104AA000411ADEF800109FED273A6FF35F2102EE06
:104AB000101ADEF80010C1F34621B8EE422A00EECB
:104AC000032A00EE10CAB7EE003AB8EE400A81EEB3
:104AD000000A32EE031A02EE101AB8EE422A20EE55
:104AE000010A32EE031A80EE011ABCEEC11A80ED03
:104AF000001ADEF80010C1F3064101EE101AB8EEFC
:104B0000411A31EE031A80EE011ABCEEC11A80ED93
:104B1000011ADEF80010C1F3066101EE101AB8EEBA
:104B2000411A31EE031A80EE010ABCEEC00A10EE03
:104B3000101A816080BD00BF0024744A20BCBE4BA7
:104B40000024744C0000003980B544F2404EC5F694
:104B5000020E5EF8183C5EF8181C5EF8142CC1F3C7
:104B6000055CDEF80410BCF1000F15D0C908D205B1
:104B700001EAE2716FF35F3100EE101A03F00301F6
:104B80000229B8EE400A0CD071B95EF8401C8906C3
:104B90000DD49FED351A18E000218160C0E90011A5
:104BA00080BD9FED301A10E09FED2D1A0DE05EF8EC
:104BB000401C49F20002C0F2D032C1F3C10122FA16
:104BC00001F101EE101AB8EE411ADEF800109FED67
:104BD000273A6FF35F2102EE101ADEF80010C1F3DE
:104BE0004621B8EE422A00EE032A00EE10CAB7EEC4
:104BF000003AB8EE400A81EE000A32EE031A02EEE5
:104C0000101AB8EE422A20EE010A32EE031A80EEA4
:104C1000011ABCEEC11A80ED001ADEF80010C1F3D3
:104C2000064101EE101AB8EE411A31EE031A80EE79
:104C3000011ABCEEC11A80ED011ADEF80010C1F3B2
:104C4000066101EE101AB8EE411A31EE031A80EE39
:104C5000010ABCEEC00A10EE101A816080BD00BFD0
:104C60000024744A20BCBE4B0024744C0000003960
:104C700010B584B0024641F6FF7300209B1A70EB1A
:104C800001033BDB40F2FF339B1A70EB010361DA57
:104C900082F480630B4300F0F38082F400630B43E3
:104CA00000F0128182F48052114340F0778144F287
:104CB0000041C5F60201086DC0F30232042A00F279
:104CC000488148F20000C0F2BB00DFE812F00F019B
:104CD0002F01360167010500C86C0A68520700F011
:104CE0004052086802D5002A00F09C81C00540F1BE
:104CF0006481B2F1805F00F0AE815EE147F6FF7340
:104D00009B1A70EB010355DA82F400430B4300F069
:104D1000EF8082F480330B4300F0FA8082F40022AB
:104D2000114340F03B8144F20040C5F60200816D22
:104D300001F44031B1F5003F00F01481B1F5803F3E
:104D400000F01C81002940F004810068000140F15E
:104D50000081EEE082F480730B4355D082F4007240
:104D6000114340F01B8144F20041C5F60201086D79
:104D7000C0F38212042A00F2EC8048F20000C0F274
:104D8000BB00DFE812F0B300D300DA000B0105002E
:104D9000C86C0A68520700F04052086802D5002A21
:104DA00000F04081C00540F10881B2F1805F00F061
:104DB000528102E182F400530B434AD082F48042D4
:104DC000114340F0EB8044F20044C5F60204A06DAC
:104DD000C0F30270052800F2BC80DFE810F0060086
:104DE000FF000101030108010A0100F081FF216AAF
:104DF0004FF27C72C0F60002C1F30211515C01F067
:104E00001F01C84004B010BD44F20041C5F60201C4
:104E1000086D00F00702042A00F29B8048F20000AF
:104E2000C0F2BB00DFE802F0628289BA0300C86CFE
:104E30000A68520700F04052086802D5002A00F0C4
:104E4000F180C00540F1B980B2F1805F00F00381CC
:104E5000B3E044F20040C5F60200016DC1F3024127
:104E6000052900F27680DFE811F00600CB00D200C1
:104E7000D900E700510004B0BDE8104000F060BF69
:104E800044F20041C5F60201886DC0F34252042A83
:104E90005FD848F20000C0F2BB00DFE802F027470D
:104EA0004E7F0300C86C0A68520700F04052086841
:104EB00002D5002A00F0B680C00540F17E80B2F134
:104EC000805F00F0C88078E044F20041C5F602013E
:104ED000886DC0F30262042A3BD848F20000C0F299
:104EE000BB00DFE802F003232A5B5D0008682EE0C8
:104EF00044F20040C5F60200016D01F04051B1F1ED
:104F0000005F44D0B1F1805F20D011BB006871E038
:104F100044F20040C5F60200C16C0068C90316D512
:104F2000000116D501A8FFF77BFD2DE00868000100
:104F30000FD501A8FFF774FD05E00868800008D5CB
:104F400001A8FFF701FE019804B010BD00688001C0
:104F500002D4002004B010BD01A8FFF7C9FC0298DC
:104F600004B010BDC16C0268520701F040510268E4
:104F70006CD500296AD1C2F3C10055E000688000F9
:104F8000E7D501A8FFF7E0FD039804B010BD006865
:104F90000001DED501A8FFF743FD029804B010BD63
:104FA000C86C0A68520700F04052086800D5CAB3BE
:104FB000C00502D5B2F1805F4DD00868B2F1005F44
:104FC00000F400314FF0000004BF47F64000C0F28B
:104FD0007D10002908BF084604B010BD206810E00D
:104FE000206815E020684007B3D520681AE02068E3
:104FF00023E0206847F640018003C0F27D1121E0E4
:1050000000680001A5D501A8FFF70AFDA7E7006821
:1050100080009ED501A8FFF797FDA0E7016849072A
:1050200097D50068C0F3C10049F20001C0F2D03149
:1050300021FA00F004B010BD006840F60011C00570
:10504000C0F23D0101EAE07004B010BDD20508D500
:10505000B1F1805F05D140F60010C0F23D0004B010
:1050600010BD0068B1F1005F00F400324FF00000A5
:1050700004BF47F64000C0F27D10002A08BF10466A
:1050800004B010BD000000002DE9F04381B00446DB
:10509000C07844F22C490007C5F6020901D4002566
:1050A0002EE0A06E4FEA305003280DD80025DFE82F
:1050B00000F0020E1714D9F80000002540F400306B
:1050C000C9F8000055B913E001253DB910E004F11D
:1050D0000800022105F004FC05464DB1A84611E088
:1050E00004F12800022105F08BFC0546002DF5D1C6
:1050F000D9F82400A16E20F440100843C9F8240018
:105100004FF000086078C00730D0A06D042807D8A1
:10511000DFE800F00A131C030300FDB1A84625E0F8
:105120000125002DFAD119E0D9F8000040F4003033
:10513000C9F80000002DF1D110E004F108000021B1
:1051400005F0CEFB0546002DE8D107E004F128006C
:10515000002105F055FC0546002DDFD1D9F82400CB
:10516000A16D20F007000843C9F82400607880078B
:1051700032D5E06D4FEAB010042807D8DFE800F020
:105180000A131C030300FDB1A84625E00125002DEC
:10519000FAD119E0D9F8000040F40030C9F8000055
:1051A000002DF1D110E004F10800002105F098FB7A
:1051B0000546002DE8D107E004F12800002105F0A4
:1051C0001FFC0546002DDFD1D9F82400E16D20F445
:1051D000E0700843C9F824006078400734D5D4F85B
:1051E000A8004FEA7050042807D8DFE800F00A133F
:1051F0001C030300FDB1A84626E00125002DFAD1CD
:1052000019E0D9F8000040F40030C9F80000002D82
:10521000F1D110E004F10800002105F061FB054622
:10522000002DE8D107E004F12800002105F0E8FB9B
:105230000546002DDFD1D9F82C00D4F8A81020F4B1
:1052400060000843C9F82C006078000734D5D4F812
:10525000AC004FEA3060042807D8DFE800F00A13FA
:105260001C030300FDB1A84626E00125002DFAD15C
:1052700019E0D9F8000040F40030C9F80000002D12
:10528000F1D110E004F10800002105F029FB0546EA
:10529000002DE8D107E004F12800002105F0B0FB63
:1052A0000546002DDFD1D9F82C00D4F8AC1020F041
:1052B000E0600843C9F82C00E078800728D5E06C4E
:1052C0004FEA3010032806D8DFE800F00209120286
:1052D000B5B1A8461CE00125002DFAD110E0D9F89F
:1052E000000040F40030C9F80000002DF1D107E0C3
:1052F00004F10800022105F0F3FA0546002DE8D17B
:10530000D9F82000E16C20F030000843C9F82000F3
:105310006078C00632D5206E4FEA3030042807D8B6
:10532000DFE800F00A131C030300FDB1A84625E0E6
:105330000125002DFAD119E0D9F8000040F4003021
:10534000C9F80000002DF1D110E004F1080000219F
:1053500005F0C6FA0546002DE8D107E004F1280063
:10536000002105F04DFB0546002DDFD1D9F82400C2
:10537000216E20F4E0400843C9F8240060788006DC
:1053800026D5606E4FEA3040052807D8DFE800F0E8
:10539000030A100303039DB1A84619E00125002D5F
:1053A000FAD10DE004F10800012105F099FA04E0BA
:1053B00004F12800012105F023FB0546002DEBD167
:1053C000D9F82400616E20F4E0200843C9F82400D5
:1053D0006078400628D5D4F8B0004FEA3070052830
:1053E00007D8DFE800F0030A100303039DB1A846C5
:1053F0001AE00125002DFAD10DE004F10800012189
:1054000005F06EFA04E004F12800012105F0F8FA35
:105410000546002DEBD1D9F82C00D4F8B01020F0BF
:10542000E0400843C9F82C006078000620D5206FC2
:10543000D8B1B0F1005F12D0B0F1805F25D1D9F8BA
:10544000000040F40030C9F8000085B9D9F8240004
:10545000216F20F040500843C9F8240008E004F10F
:105460000800012105F03CFA0546002DEED0A846C3
:10547000E078C0072AD0A06C03280AD8DFE800F043
:10548000020D1602D5B1A84620E00125002DEED16F
:10549000DCE70125002DF6D110E0D9F8000040F43A
:1054A0000030C9F80000002DEDD107E004F108003C
:1054B000022105F015FA0546002DE4D1D9F82000A7
:1054C000A16C20F003000843C9F82000A078400632
:1054D00042D5D9F8D40340F48070C9F8D403FEF75C
:1054E000F7F80646D9F8D403C00505D4FEF7F0F85E
:1054F000801B6528F6D303256DBBD9F84410D4F87A
:10550000B400414011F4407F11D0D9F84410D9F8CB
:10551000442042F48032C9F84420D9F8442021F4D0
:10552000407122F48032C9F84420C9F84410B0F523
:10553000807F0FD1FEF7CCF8064641F2893700BFD5
:10554000D9F84400800705D4FEF7C2F8801BB842A2
:10555000F6D3032585B1A8462078C00742D0E06F76
:105560004FEAF000052823D8DFE800F003262C03DB
:1055700003037DB3A84635E04FF6CF73D4F8B400EB
:1055800059F81C2CC0F2FF0300F4407122F47C5245
:1055900003EA1013B1F5407F08BF1A436FF31F30C1
:1055A00049F81C2CD9F844100843C9F84400D3E743
:1055B0000125002DDED10DE004F10800012105F0E8
:1055C0008FF904E004F12800012105F019FA0546DD
:1055D000002DCFD1D9F82800E16F20F03800084322
:1055E000C9F828002078800724D5A06F052807D89F
:1055F000DFE800F0030A100303039DB1A84619E099
:105600000125002DFAD10DE004F10800012105F07B
:1056100067F904E004F12800012105F0F1F90546DD
:10562000002DEBD1D9F82800A16F20F00700084326
:10563000C9F828002078400726D5D4F8940005281A
:1056400007D8DFE800F0030A100303039DB1A84662
:105650001AE00125002DFAD10DE004F10800012126
:1056600005F03EF904E004F12800012105F0C8F935
:105670000546002DEBD1D9F82C00D4F8941020F079
:1056800007000843C9F82C002078800628D5D4F8F4
:1056900090004FEA3070052807D8DFE800F0030AD1
:1056A000100303039DB1A8461AE00125002DFAD18D
:1056B0000DE004F10800002105F012F904E004F106
:1056C0002800022105F09CF90546002DEBD1D9F800
:1056D0002800D4F8901020F0E0400843C9F82800D2
:1056E0002078400628D5D4F89C004FEAB020052841
:1056F00007D8DFE800F0030A100303039DB1A846B2
:105700001AE00125002DFAD10DE004F10800002176
:1057100005F0E6F804E004F12800022105F070F934
:105720000546002DEBD1D9F82C00D4F89C1020F4BC
:10573000E0500843C9F82C002078000628D5D4F89A
:10574000A0004FEA7030052807D8DFE800F0030A10
:10575000100303039DB1A8461AE00125002DFAD1DC
:105760000DE004F10800002105F0BAF804E004F1AE
:105770002800022105F044F90546002DEBD1D9F8A7
:105780002C00D4F8A01020F460400843C9F82C0085
:105790002078000716D5D4F88400B0F5805F08D1D2
:1057A00004F12800022105F02BF9002818BF4FF062
:1057B0000108D9F82800D4F8841020F44050084398
:1057C000C9F828002078C00616D5D4F89800B0F59E
:1057D000807F08D104F12800022105F011F900288A
:1057E00018BF4FF00108D9F82C00D4F8981020F415
:1057F00040700843C9F82C00A078000722D5D4F8DF
:10580000A400B0F5003F1AD0B0F5803F11D0C8BB5E
:1058100004F10800002105F063F805468DB9D9F8B8
:105820002C00D4F8A41020F440300843C9F82C0010
:1058300008E004F12800022105F0E2F80546002DF9
:10584000EDD0A846A078400729D5D4F88800B0F557
:10585000401F21D0B0F5001F18D0B0F5801F40F0D8
:10586000BE80D9F8000040F40030C9F80000ADB99E
:10587000D9F82800D4F8881020F440100843C9F85B
:1058800028000CE00125002DDBD1C8E704F1280039
:10589000012105F0B5F80546002DE9D0A846A0780D
:1058A000C00720D0206DB0F5803F10D0B8B9D9F82E
:1058B000000040F40030C9F800009DB9D9F820007C
:1058C000216D20F480300843C9F820000BE004F17A
:1058D0000800022105F004F805461DB9EEE7012590
:1058E000002DEBD0A846E078800608D504F128000A
:1058F000022105F085F8002818BF4FF00108D4E90F
:1059000000108A037AD5D4F880206FF0010303EBEE
:105910003223022B0AD34FEA32233BB1012B63D14E
:10592000D9F8003043F40033C9F80030002D5ED0C0
:10593000CA0266D4CA006ED48A0278D44A0000F142
:105940008180CA0F40F08E80090200F19680C00766
:1059500007D004F10800002104F0C2FF002818BF9E
:1059600005462079800707D504F10800012104F0DD
:10597000B7FF002818BF05462079400707D504F176
:105980000800022104F0ACFF002818BF054620796A
:10599000000707D504F12800002105F031F80028A0
:1059A00018BF05462079C00607D504F1280001215B
:1059B00005F026F8002818BF05462079800607D58F
:1059C00004F12800022105F01BF8002818BF01256A
:1059D000002D18BF0125284601B0BDE8F083012540
:1059E000002D7FF45BAF43E70125002DA0D1D9F84E
:1059F000283023F440731A43C9F828204546CA02C8
:105A000098D5D9F82420636F22F000421A43C9F8D0
:105A10002420CA0090D559F81C2CD4F8B83022F4B0
:105A200080421A4349F81C2C8A027FF587AFD9F8C7
:105A30002420E36E22F080721A43C9F824204A0021
:105A40007FF57FAF59F81C2C22F4004249F81C2C3A
:105A5000D4F8BC2059F81C3C1A4349F81C2CCA0F36
:105A60003FF472AFD9F82020636D22F040521A4300
:105A7000C9F8202009027FF56AAFD9F82810D4F8B8
:105A80008C2021F440011143C9F82810C0077FF48D
:105A900060AF66E7000000002DE9F04381B0002808
:105AA00000F0F68042F200080446C5F2002889465C
:105AB000D8F8000000F00F0088420ED2D8F800009D
:105AC00020F00F0040EA0900C8F80000D8F80000F4
:105AD00000F00F00484540F0DB80206844F2184792
