:020000040800F2
:10000000A075002439030008619E0008597D00088E
:10001000599E000841060008F9E2000800000000AF
:1000200000000000000000000000000071AC0008AB
:100030005108000800000000799E000879AC000813
:100040005303000853030008530300085303000838
:100050005303000853030008530300085303000828
:10006000530300085303000853030008190700084E
:100070005303000853030008530300085303000808
:1000800053030008530300085303000853030008F8
:1000900053030008530300085303000853030008E8
:1000A00053030008530300085303000853030008D8
:1000B00053030008A1AE00085303000853030008CF
:1000C00053030008530300085303000853030008B8
:1000D00053030008530300085303000853030008A8
:1000E00053030008530300080000000053030008F6
:1000F0005303000853030008530300085303000888
:100100005303000853030008530300085303000877
:100110005303000853030008530300085303000867
:100120005303000853030008530300085303000857
:100130005303000853030008530300085303000847
:1001400000000000000000000000000000000000AF
:100150005303000853030008530300085303000827
:100160005303000853030008530300085303000817
:1001700053030008530300080907000800000000AB
:1001800053030008530300085303000853030008F7
:1001900053030008530300085303000853030008E7
:1001A00053030008530300085303000853030008D7
:1001B00053030008530300085303000853030008C7
:1001C00053030008530300085303000853030008B7
:1001D00053030008699E00085303000853030008F6
:1001E0005303000853030008530300085303000897
:1001F0005303000853030008530300085303000887
:100200005303000853030008530300085303000876
:100210005303000853030008530300085303000866
:1002200053030008530300085303000800000000B4
:1002300053030008530300080000000053030008A4
:100240005303000853030008530300085303000836
:100250005303000853030008530300085303000826
:100260005303000853030008530300085303000816
:100270005303000853030008530300080000000064
:100280005303000853030008530300080000000054
:10029000000000005303000800F002F800F03CF8F2
:1002A0000AA090E8000C82448344AAF10107DA45D1
:1002B00001D100F031F8AFF2090EBAE80F0013F0E7
:1002C000010F18BFFB1A43F0010318476832010001
:1002D00088320100103A24BF78C878C1FAD8520792
:1002E00024BF30C830C144BF04680C6070470000B0
:1002F0000023002400250026103A28BF78C1FBD82F
:10030000520728BF30C148BF0B6070471FB50FF0C0
:1003100078FE1FBD10B510BD00F0F2F81146FFF7D2
:10032000F5FF0FF095FC00F010F903B4FFF7F2FFB2
:1003300003BC00F017F9000009488047094800474E
:10034000FEE7FEE7FEE7FEE7FEE7FEE7FEE7FEE785
:10035000FEE7FEE704480549054A064B70470000E2
:10036000D1AD000899020008A0450024A075002422
:10037000A0550024A055002453EA020C00F0698027
:100380002DE9F04B4FF00006002B1FBFB3FA83F5A9
:1003900003FA05F424FA05F65E4012BF1643B2FADA
:1003A00082F502FA05F4C5F120051EBF22FA05FC0C
:1003B00044EA0C04203556EA044C4FEA144418BFB2
:1003C000641C4FF000084FF00009904271EB030CE1
:1003D00039D3002919BFB1FA81F701FA07F6B0FA4B
:1003E00080F700FA07F6C7F120071EBF20FA07FCC6
:1003F00046EA0C062037B6FBF4FCA7EB0507103FD6
:1004000007F01F0BCBF120062CFA06F60CFA0BFBBB
:1004100044BFB3460026202FA4BF5E464FF0000B1A
:100420005BEA060C08BF4FF0010B19EB0B0948EB18
:100430000608ABFB027C06FB02CC0BFB03CCC01B0B
:1004400071EB0C01C1E70B46024641464846BDE848
:10045000F08B13B5084318BF4FF0FF300146AFF3E0
:100460000080BDE81C4070474FF000020429C0F036
:10047000128010F0030C00F01B80CCF1040CBCF1D6
:10048000020F18BF00F8012BA8BF20F8022BA1EB28
:100490000C0100F00DB85FEAC17C24BF00F8012B0D
:1004A00000F8012B48BF00F8012B70474FF0000205
:1004B00000B5134694469646203922BFA0E80C505A
:1004C000A0E80C50B1F12001BFF4F7AF090728BF35
:1004D000A0E80C5048BF0CC05DF804EB890028BFB1
:1004E00040F8042B08BF704748BF20F8022B11F0DA
:1004F000804F18BF00F8012B704770477047704756
:10050000754600F02BF8AE4605006946534620F0CC
:100510000700854618B020B5FFF71CFFBDE8204056
:100520004FF000064FF000074FF000084FF0000BAF
:10053000AC46ACE8C009ACE8C009ACE8C009ACE81E
:10054000C00921F007018D46704710B50446AFF38E
:1005500000802046BDE81040FFF7E7BE0048704726
:100560000801002401491820ABBEFEE72600020066
:10057000704700000000000044F288110246C2F2F9
:1005800000410846114605F037BF0000000000009A
:1005900080B544F28810C2F2004005F041FF0438F3
:1005A00018BF012080BD000080B500F019F80128B7
:1005B00014D144F28810C2F2004006F031F800284D
:1005C00018BF80BD44F288104FF48041C2F2004051
:1005D00005F07AFD002818BF012080BD022080BDF3
:1005E00081B001208DF803009DF8030001B0704731
:1005F00080B582B094460A46014644F28810C2F2A1
:1006000000400093634606F003FA002818BF01205B
:1006100002B080BD0000000080B582B094460A465A
:10062000014644F28810C2F200400093634606F08F
:10063000FBFA002818BF012002B080BD00000000B6
:10064000FEE70000000000000020704700000000EE
:10065000002070470000000010B543F2346442F6F9
:100660002861C2F20044C2F20041002220460BF091
:10067000DFFB42F228612046C2F200410BF0C8FBCA
:10068000002010BD0000000010B543F234640146A4
:10069000C2F2004420460BF0BBFB20460BF094FB5B
:1006A000002010BD00000000002070470000000086
:1006B00010B543F23462C2F20042D2F8BC22D2F842
:1006C0001422002A1CBF012010BD43F234640A46E4
:1006D000C2F20044014620460BF0AAFB2046BDE8CA
:1006E00010400BF035BC0000806B816C496D022915
:1006F00006D0012180F83510C16C41F04001C16481
:1007000000F0BAB90000000043F61010C2F2004039
:1007100000F0BAB90000000043F66010C2F20040D9
:1007200000F06EBC0000000040F20F42D0F800C0A4
:10073000C4F20202944511DC6F22C4F20202944515
:1007400022DC3F22C4F20202944539DC1022C4F2BA
:10075000020294455AD0282254E000BF40F26F4272
:10076000C4F2020294451BDC40F23F42C4F2020292
:1007700094452DDC40F21042C4F20202944545D06B
:1007800040F228423EE000BF9F22C4F2020294459C
:1007900028DC7022C4F20202944537D0882231E06E
:1007A00040F29F42C4F20202944523DC40F27042C0
:1007B000C4F20202944529D040F2884222E000BFF0
:1007C0004022C4F20202944520D058221AE000BF11
:1007D00040F24042C4F20202944517D040F258421F
:1007E00010E000BFA022C4F2020294450ED0B8224D
:1007F00008E000BF40F2B842C4F20202944505D0BE
:1008000040F2A042C4F20202944517D10CF0F80263
:100810004AF6AB23103ACAF6AA23A2FB03310AA375
:100820005F2AC1F302115B5C40F2FF312CEA010147
:10083000C36588BF04318165084670472CF0FF010D
:1008400081650846704700BF0006101600061016A6
:100850007047000000000000EFF3108072B600BF88
:10086000FEE700000000000080B543F22863C2F2FA
:1008700000435A7A002A1CBF012080BD93F809C0AA
:100880008646002003F80C005A7A03EB8202C2F875
:1008900004E05A7A1A44107293F809C00CF101026C
:1008A0005A720CF130020A7042F63A72A1F8012035
:1008B000C87080BD0000000080B50A68002A026888
:1008C00022D022F4F84C4A6AD1E9073E43EA0C03ED
:1008D00043EA0E031A430260426847F6FF7322EAB6
:1008E000030CCA68D1E9013E43EA0C03D1F810C0F9
:1008F00043EA0E031A434B6942EA0C0289691A4320
:1009000011434160002080BD47F6FF7322EA030CCB
:10091000CA68D1E9013E43EA0C03D1F810C043EAAA
:100920000E031A434B6942EA0C02D1F818C01A436D
:10093000CB6942EA0C02D1F820C01A43496A42EA64
:100940000C0211430160002080BD00000000000087
:100950000246406943F6FE7320EA0303002043EA9F
:10096000410151617047000010B5024600696FF304
:1009700015006FF01F04D1E900ECD1E9023140EA23
:100980000E0004EB431340EA0C000343002043EA4B
:100990004121116110BD00002DE9F041002A82685B
:1009A00036D040F6FF734FF20006CFF60F73CFF646
:1009B000FF761A40CB684F696FF00F0406EB0333E4
:1009C0000026CFF6F0761A4306EB07573A438260CB
:1009D000C2688E68D1E9003702F07042013B04EB37
:1009E00007176FF0FF040D6904EB062600241A4375
:1009F000CFF6FF7489693A4304EB05450139324368
:100A00002A4342EA0161C1600020BDE8F08100BFD5
:100A100001F1080602F0704CD1E900E278CE6FF0E7
:100A20000F074FF2000807EB02126FF0FF0707EB0A
:100A30000323AEF1010747EA0C07CFF6FF7840F237
:100A4000000E3A4308EB0434CFF6FF7E00271A432A
:100A500089690EEB0545CFF6F077224307EB065385
:100A600001392A431A4342EA016181600020BDE84E
:100A7000F08100000000000070470000000000004E
:100A8000704700000000000070B50446006840F2A6
:100A9000E9660569C0F60006690721D4A8072DD4C8
:100AA000E8063BD4280705D5206808214161204687
:100AB00000F042F9E80708BF70BD206801688907A7
:100AC00003D5C16821F01E01C160C16821F0010198
:100AD000C160012141612046BDE87040FFF7D0BFF1
:100AE00004214161E06C40F00200E06484F83510BC
:100AF000A06C066500F024F9A807D1D52168022270
:100B0000A06C4A61E16C41F00101E164042184F8C8
:100B10003510066500F014F9E806C3D520681021E9
:100B20004161204600F054F82807C3D5BCE7000017
:100B3000002849D0B0B5044690F8350010B92046D9
:100B400000F04AF8022084F83500D4F818E04FF29B
:100B50000705BEF1000FCFF6E0751CBF00206062F4
:100B600094E80510E368102A016801EA05010160B4
:100B7000D4E9045141EA0301236A41EA0501656AA7
:100B800041EA0C0141EA0301A36A41EA0501E56A71
:100B900041EA0301236B41EA0501056841EA0301CB
:100BA00041EA050141EA0E0141EA0201016001D179
:100BB000E1698161C16841F01E01C1600020E0640B
:100BC000012184F83510B0BD0120704700000000FD
:100BD00070470000000000002DE9F04385B0044696
:100BE0000020C4F602002168814203D005B0BDE8B0
:100BF000F08300BF44F2E0416D46C5F6020100F10A
:100C000080504FF00208002751F8042C4FF00D09D6
:100C100042F0010241F8042C51F8042C02F00102C8
:100C20000092009A0A6842F001020A600A6802F023
:100C300001020092009A0A6842F080020A600A6883
:100C400002F080020092009A0A6842F004020A60F0
:100C50000A6802F004020092009A0A6842F4807264
:100C60000A60096801F480710091009940210091A7
:100C70002946CDF80480CDE90277CDF8109001F037
:100C800067FB40F600064FF4F850C5F60206294609
:100C9000CDE9000806F5A050CDF81090CDE9027717
:100CA00001F056FB4FF400602946CDE900083046BC
:100CB000CDF81090CDE9027701F04AFBF0202946EB
:100CC000CDE9000806F5C050CDF81090CDE90277C7
:100CD00001F03EFB43F660151020C2F20045C4F25D
:100CE000020028604B20C5E901074FF480602861AD
:100CF0004FF4805068614FF48040A8614FF48070D9
:100D0000EF60C5E907070420686203202F63C5E987
:100D10000A07284600F08CFD08B1FFF79DFD4E2024
:100D200000210022A564AC6301F0F2FD4E2001F029
:100D3000DBFD05B0BDE8F083704700000000000057
:100D400080B5D8B190F83510022919D140F20F4280
:100D50000168C4F20202914216DC6F23C4F202035E
:100D6000994227DC3F23C4F2020399423EDC102360
:100D7000C4F2020399425FD0282359E0012080BDCC
:100D800080214165012080BD40F26F43C4F202031F
:100D900099421BDC40F23F43C4F2020399422DDC2E
:100DA00040F21043C4F20203994245D040F2284376
:100DB0003EE000BF9F23C4F20203994228DC702367
:100DC000C4F20203994237D0882331E040F29F43B6
:100DD000C4F20203994223DC40F27043C4F20203DE
:100DE000994229D040F2884322E000BF4023C4F258
:100DF0000203994220D058231AE000BF40F240433A
:100E0000C4F20203994217D040F2584310E000BFE9
:100E1000A023C4F2020399420ED0B82308E000BF19
:100E200040F2B843C4F20203994205D040F2A04315
:100E3000C4F20203994275D191424FF0040280F846
:100E4000352011DC6F20C4F20200814222DC3F20F9
:100E5000C4F20200814239DC1020C4F20200814257
:100E600059D0282054E000BF40F26F40C4F2020085
:100E700081421BDC40F23F40C4F2020081422DDC83
:100E800040F21040C4F20200814244D040F22840B7
:100E90003EE000BF9F20C4F20200814228DC7020A7
:100EA000C4F20200814236D0882031E040F29F40F7
:100EB000C4F20200814223DC40F27040C4F202001E
:100EC000814228D040F2884022E000BF4020C4F296
:100ED000020081421FD058201AE000BF40F240407B
:100EE000C4F20200814216D040F2584010E000BF28
:100EF000A020C4F2020081420DD0B82008E000BF5B
:100F000040F2B840C4F20200814204D040F2A04056
:100F1000C4F202008142086820F00100086000204D
:100F200080BD00BF0A6822F00E020A6045F25742F7
:100F3000C5F6020291420A6822F001020A600FDC43
:100F400045F22F42C5F60202914219DC45F20842F1
:100F5000C5F60202914229D045F21C4222E000BFB0
:100F600045F27F42C5F60202914213DC45F2584237
:100F7000C5F60202914219D045F26C4212E000BF60
:100F800045F23042C5F6020291420FD045F244428A
:100F900008E000BF45F29442C5F60202914205D036
:100FA00045F28042C5F6020291421AD1D0E9181CDE
:100FB000D0E916E30A6822F480720A6003F01F0188
:100FC000012202FA01F1CEF80410816ECCF804106F
:100FD000C16E31B10A6822F480720A60D0E91C1235
:100FE0004A60012180F83510026D002180F834102C
:100FF0000AB190470021084680BD000000000000B3
:101000002DE9F04782B00021019140F20801044629
:10101000C2F2004148F2B512C1F64E32A56D096820
:1010200040F26F490068C4F20209A1FB021848456A
:101030002E68296816DC9F21C4F2020188422DDC4B
:101040005721C4F20201884252DC1021C4F202018D
:1010500088427CD02821C4F20201884277D0402106
:1010600070E000BF45F22F42C5F60202904229DC33
:1010700040F2B742C4F20202904245DC40F27041B5
:10108000C4F20201884262D040F28841C4F20201F7
:1010900088425CD040F2A04154E000BF40F22741BA
:1010A000C4F2020188423FDCA021C4F2020188425E
:1010B0004DD0B821C4F20201884248D040F210411C
:1010C00040E000BF45F26B42C5F60202904275DC7B
:1010D00045F23042C5F60202904200F0828045F2AD
:1010E0004442C5F6020290427BD045F2584273E07A
:1010F0005821C4F20201884229D07021C4F20201B1
:10110000884224D088211DE040F2B842C4F2020295
:1011100090421CD045F20842C5F60202904260D0CF
:1011200045F21C4258E000BF40F22841C4F20201DF
:1011300088420CD040F24041C4F20201884206D0FD
:1011400040F25841C4F20201884240F05A83E16DF6
:10115000082201F01F0140F20F4A8A40C4F2020A3D
:10116000324200F0E68050454FF0040312DC6F2756
:10117000C4F20207B8426FDC3F27C4F20207B8424C
:1011800000F3A4801027C4F20207B84200F0C58023
:101190002827BDE048456BDC40F23F47C4F2020718
:1011A000B84200F39B8040F21047C4F20207B842F5
:1011B00000F0B38040F22847AAE000BF45F26C423D
:1011C000C5F6020290420CD045F28042C5F60202FA
:1011D000904206D045F29442C5F60202904240F099
:1011E00010830268E36D03F01F0304279F400F4242
:1011F00018BF12F0040621D102279F400F4218BFEA
:1012000012F002064CD1D940090740F1FA8212F0DF
:10121000080100F0F682016821F00E010160012052
:1012200000FA03F16960606584F835000020E16C24
:1012300084F83400002940F0DC82E2E211046F609F
:1012400026D4910603D4016821F004010160216CC9
:10125000002940F0CE82D4E29F27C4F20207B842B0
:1012600046DC7027C4F20207B84256D088274FE008
:1012700040F29F47C4F20207B84241DC40F2704797
:10128000C4F20207B84248D040F2884740E000BFAD
:10129000D00300F1B382A16C002940F0AA82B0E231
:1012A00011046F6000F1B082910609D4016821F049
:1012B0000A010160012084F83500002084F8340020
:1012C000E16B002940F095829BE200BF4027C4F209
:1012D0000207B84221D058271AE000BF40F2404729
:1012E000C4F20207B84218D040F2584710E000BFDD
:1012F000A027C4F20207B8420FD0B82708E000BF09
:1013000040F2A047C4F20207B84206D040F2B84704
:10131000C4F20207B84218BF082307681F4208D06A
:10132000036823F004030360AA60626D42F00102C7
:10133000626501228A4032426FD0504510DC6F2333
:10134000C4F2020398421DDC3F23C4F20203984218
:1013500034DC1023C4F20203984256D028234FE015
:1013600048451BDC40F23F43C4F2020398422DDCA7
:1013700040F21043C4F20203984246D040F22843A0
:101380003EE000BF9F23C4F20203984228DC702392
:10139000C4F20203984238D0882331E040F29F43E0
:1013A000C4F20203984223DC40F27043C4F2020309
:1013B00098422AD040F2884322E000BF4023C4F282
:1013C0000203984221D058231AE000BF40F2404364
:1013D000C4F20203984218D040F2584310E000BF14
:1013E000A023C4F2020398420FD0B82308E000BF44
:1013F00040F2A043C4F20203984206D040F2B84340
:10140000C4F20203984240F0058243691B0604D5EA
:10141000AA60626D42F00202626504228A40324292
:101420006FD0504510DC6F23C4F2020398421DDCDC
:101430003F23C4F20203984234DC1023C4F20203B7
:10144000984256D028234FE048451BDC40F23F43EA
:10145000C4F2020398422DDC40F21043C4F20203AE
:10146000984246D040F228433EE000BF9F23C4F29A
:101470000203984228DC7023C4F20203984238D059
:10148000882331E040F29F43C4F20203984223DCF8
:1014900040F27043C4F2020398422AD040F28843DB
:1014A00022E000BF4023C4F20203984221D0582317
:1014B0001AE000BF40F24043C4F20203984218D041
:1014C00040F2584310E000BFA023C4F20203984248
:1014D0000FD0B82308E000BF40F2A043C4F20203DB
:1014E000984206D040F2B843C4F20203984240F05A
:1014F000998103689B0704D5AA60626D42F00402DB
:101500006265102202FA01F1314200F081805045FB
:101510004FF0080210DC6F23C4F2020398421DDC76
:101520003F23C4F20203984234DC1023C4F20203C6
:10153000984256D028234FE048451BDC40F23F43F9
:10154000C4F2020398422DDC40F21043C4F20203BD
:10155000984246D040F228433EE000BF9F23C4F2A9
:101560000203984228DC7023C4F20203984238D068
:10157000882331E040F29F43C4F20203984223DC07
:1015800040F27043C4F2020398422AD040F28843EA
:1015900022E000BF4023C4F20203984221D0582326
:1015A0001AE000BF40F24043C4F20203984218D050
:1015B00040F2584310E000BFA023C4F20203984257
:1015C0000FD0B82308E000BF40F2A043C4F20203EA
:1015D000984206D040F2B843C4F20203984218BFC2
:1015E00004220368134213D0A9600168490301680B
:1015F00008D4C90508D4016821F008010160216CF4
:1016000021B905E008034FD4216C09B12046884771
:10161000E06D00F01F01202000FA01F2324200F0DC
:10162000AB8020681023504510DC6F27C4F20207FE
:10163000B8421DDC3F27C4F20207B84238DC10274D
:10164000C4F20207B8425AD0282753E048451BDCB1
:1016500040F23F47C4F20207B84231DC40F2104783
:10166000C4F20207B8424AD040F2284742E000BF25
:101670009F27C4F20207B8422CDC7027C4F202078D
:10168000B8423CD0882735E040F29F47C4F20207B9
:10169000B84227DC40F27047C4F20207B8422ED0AD
:1016A00040F2884726E000BFA16C0029AED1AFE729
:1016B0004027C4F20207B84221D058271AE000BFE1
:1016C00040F24047C4F20207B84218D040F25847EF
:1016D00010E000BFA027C4F20207B8420FD0B8271D
:1016E00008E000BF40F2A047C4F20207B84206D0AB
:1016F00040F2B847C4F20207B84218BF0223076895
:101700001F4239D0AA6094F83520042A02681BD100
:1017100022F016020260426922F080024261226CCD
:101720000AB9A26C1AB1026822F0080202603F20D6
:101730008840A860012084F83500216D0020002930
:1017400084F8340055D15CE0510301680CD4C9051C
:101750000ED4016821F010010160012084F83500E9
:10176000002084F8340003E0080301D4616C00E039
:10177000E16B09B120468847606D002841D0606D5B
:10178000C00734D0042084F8350020684FEA98213F
:10179000026822F001020260019A013201928A423B
:1017A0001AD80268D20717D0019A013201928A42F0
:1017B00012D80268D2070FD0019A013201928A42F0
:1017C0000AD80268D20707D0019A013201928A42F0
:1017D00002D80268D207DFD10068C0074FF00300CB
:1017E00008BF012084F83500002084F83400E16C43
:1017F00039B1204602B0BDE8F0470847216C002906
:10180000F7D102B0BDE8F087D0030DD4616C002998
:10181000EFD1F6E7026804228A4032427FF401AE3B
:101820006FE600BF02686CE6E16B0029E1D1E8E7F2
:101830002DE9F041044600F073FEFCB140F26F4820
:1018400005462068C4F2020840451BDC9F21C4F213
:101850000201884232DC5721C4F20201884259DC7D
:101860001021C4F20201884200F083802821C4F2D2
:101870000201884200F07D80402175E00120BDE832
:10188000F08100BF45F22F41C5F60201884229DCF4
:1018900040F2B741C4F20201884247DC40F2704195
:1018A000C4F20201884264D040F28841C4F20201CD
:1018B00088425ED040F2A04156E000BF40F227418E
:1018C000C4F20201884241DCA021C4F20201884234
:1018D0004FD0B821C4F2020188424AD040F21041F0
:1018E00042E000BF45F26B41C5F60201884200F3B9
:1018F000C18045F23041C5F60201884200F0CD803A
:1019000045F24441C5F60201884200F0C68045F226
:101910005841BDE05821C4F20201884229D070210B
:10192000C4F20201884224D088211DE040F2B8416F
:10193000C4F2020188421CD045F20841C5F60201FA
:10194000884200F0AA8045F21C41A1E040F2284103
:10195000C4F2020188420CD040F24041C4F20201BC
:10196000884206D040F25841C4F20201884240F059
:101970002981022184F83510002184F8341001688F
:1019800021F00101016000BF20680168C9070DD086
:1019900000F0C6FD401B0628F6D32020606503201A
:1019A00084F835000120BDE8F08100BF48F23F0215
:1019B00004F108060168CFF6106211406CCE1143A5
:1019C000A2691943E3692943256A0E43616A3343D7
:1019D000042943EA050343EA020303D1D4E90B6572
:1019E0002E43334341F20006C5F600463668B6F191
:1019F000005F1DD36668A6F12905292D18D8DFE8F8
:101A000005F01515151515151717171717171717AB
:101A1000171717171717171715151515171717175E
:101A200015151717171717171515151543F48013E4
:101A300003600429436923F0070341EA030140F0EE
:101A4000DD80D4E90A53002B41EA050100F0D6807D
:101A5000B2F5005F00F0B880002A40F0C180022D8E
:101A600000F0C180012D00F0B580002D00F0BB809A
:101A7000C4E000BF45F26C41C5F6020188420CD0BB
:101A800045F28041C5F60201884206D045F29441F4
:101A9000C5F60201884240F0958004F1080E02214B
:101AA00084F83510002184F834100168A3699EE899
:101AB0000450A2F18007E669B7FA87F765697F09E4
:101AC000402A4FEA873743EA06026FF3101142EAD1
:101AD000050208BF102741EADC0142EA0E02236A30
:101AE000394341EAD20141EA131140F80819C0B262
:101AF000CD2148433C2101EA9020E0652046FEF7D5
:101B000013FEE16D012201F01F0102FA01F14160B3
:101B10002068404500F381809F21C4F20201884281
:101B200014DC5721C4F20201884227DC1021C4F2E0
:101B30000201884200F0C7802821C4F202018842D5
:101B400000F0C1804021C4F20201B9E040F2274117
:101B5000C4F20201884221DCA021C4F202018842C1
:101B600000F0B180B821C4F20201884200F0AB80DD
:101B700040F21041C4F20201A2E000BF5821C4F2B9
:101B80000201884200F09F807021C4F20201884265
:101B900000F099808821C4F2020191E040F22841CE
:101BA000C4F20201884200F08E8040F24041C4F24B
:101BB0000201884200F0878040F25841C4F20201DD
:101BC0007EE000BF4020E9E6032D17D8DFE805F0EE
:101BD0000E0B0E02A3F1C072B2FA82F2520904E0B7
:101BE000032D03D30AD1C3F300623AB140206065EC
:101BF000012084F83500BDE8F08100BF4161204636
:101C0000FEF792FDE16D3F2201F01F0102FA01F1A2
:101C10008160206840457FF77FAF45F22F41C5F6D0
:101C20000201884216DC40F2B741C4F20201884248
:101C300026DC40F27041C4F20201884243D040F2F7
:101C40008841C4F2020188423DD040F2A041C4F272
:101C5000020135E045F26B41C5F6020188421FDC06
:101C600045F23041C5F6020188422CD045F244418C
:101C7000C5F60201884226D045F258411EE000BF59
:101C800040F2B841C4F2020188421CD045F208413A
:101C9000C5F60201884216D045F21C410EE000BF95
:101CA00045F26C41C5F6020188420CD045F29441E0
:101CB000C5F60201884206D045F28041C5F6020110
:101CC000884240F0E18045F2574C45F6FC01C5F6EC
:101CD000020CC5F6020160450EDC45F22F42C5F646
:101CE0000202904218DC45F20842C5F60202904218
:101CF00028D045F21C4221E045F27F42C5F602029F
:101D0000904213DC45F25842C5F60202904219D0C7
:101D100045F26C4212E000BF45F23042C5F60202C5
:101D200090420FD045F2444208E000BF45F2944291
:101D3000C5F60202904205D045F28042C5F6020285
:101D4000904247D100F0FC024CF6CD43083ACCF665
:101D5000CC43A2FB0323A1F1FC05A1F17C061B09E6
:101D600005EB830503F01F02A3682566802B4FF067
:101D7000010303FA02F26666A26605D100206060E4
:101D8000286072601EE000BF6768FBB2013F072F4A
:101D90002B60726016D85E1E082E19D2604501F1C4
:101DA000440237DC45F22F47C5F60207B84241DC52
:101DB00045F20847C5F60207B84259D045F21C471C
:101DC0004AE000BF00206067C4E91B005CE000BF80
:101DD000E06E54E000F0F8024AF6AB23103ACAF67F
:101DE000AA23A2FB032740F20F43C4F202030825F3
:101DF0003A09984203F1AA06134688BF05EB171368
:101E000040F60005B042C4F2020505F1800628BF85
:101E10001346A5E745F27F47C5F60207B84213DC33
:101E200045F25847C5F60207B84221D045F26C4743
:101E300012E000BF45F23047C5F60207B84217D09E
:101E400045F2444708E000BF45F28047C5F6020767
:101E5000B8420DD045F29447C5F60207B84207D004
:101E600040F60000C4F2020000F1FC0100F5A0728F
:101E700001EB83000121E066B14022676167002128
:101E80000160D4E91C01416000206065012184F8F3
:101E90003510BDE8F0810000B0B5044600F040FB0D
:101EA00040F200010546C2F20041621C097818BFE9
:101EB0000C4400BF00F034FB401BA042FAD3B0BD7D
:101EC0002DE9F04F85B0A8B34AF200080446C4F2E9
:101ED00000080068404531D094F89810A9B3816992
:101EE00021F01001816100F01BFB0546206881692B
:101EF000090705D500F014FB401B0B28F6D310E0B2
:101F0000816941F00101816100F00AFB054600BFD3
:101F100020688169C90721D100F002FB401B0B2812
:101F2000F6D30120D4F89C100843C4F89C00032089
:101F300084F89800012005B0BDE8F08F08F58071A5
:101F4000616094F898100029C9D1002084F89900A4
:101F5000204600F0B5F92068C1E700BF816941F073
:101F600002018161217C826922F04002012918BFAF
:101F700040328261617C826922F48042012908BF7B
:101F800002F580428261A17C826922F4805201299B
:101F900018BF02F580528261816921F44073D4E94F
:101FA00002120B438361836923F0A40383610369F5
:101FB00023F0100303619AB1012A0DD0022A09D03F
:101FC0008369032A43F080038361036943F01002AD
:101FD000026105D1202200E0042283691A43826154
:101FE000D4E90572E369561E6FF0FF02256A02EB21
:101FF0000323B1F5407F43EA4663A5F1010646EAB3
:10200000030640F20003CFF6FF7303EB074746EAEF
:102010000701C16110D1D4E90B65D4E90917013F6B
:1020200002EB06226FF00F063A4306EB05173A4320
:1020300003EB01411143C160236E2BB1616ED0F8F7
:10204000C0201143C0F8C010E16DCDE90313D9429F
:1020500040F21C01C0F6010109D0D0F8C820A36EDF
:1020600022F0070251F823301A43C0F8C820D4F8F0
:1020700040A0BAF1000F09D0D0F8BC20636C22F068
:10208000070251F823301A43C0F8BC20A76C57B19F
:10209000D0F8BC20E36C22F0700251F8233042EA01
:1020A0000312C0F8BC20D4F850C0BCF1000F0AD015
:1020B000D0F8BC20636D22F4E06251F8231042EAAC
:1020C0000121C0F8BC10404504D161688A6822F043
:1020D00003028A600021C4F89410C4F89C10012106
:1020E00084F898104FF6FC72D0F88410D4F83C9025
:1020F00021EA0203656CD4E90D120292019543EACC
:102100008103C0F88430D0F8843023F47F0343EA9D
:102110000243C0F884305318D0F888606FF38F06FC
:1021200046EA8306C0F88860D0F8886003EB49036C
:1021300026F4FE0646EA0946C0F88860D0F8A0609A
:102140006FF38F0646EA8306C0F8A060D0F8A0605F
:1021500005FB0A3326F4FE0646EA0A46C0F8A060EC
:10216000D0F8B0606FF38F0646EA8306C0F8B0601F
:10217000D0F8B06026F4FE0646EA0746C0F8B06024
:10218000E66CD0F8AC506FF38F0506FB07337E4347
:1021900045EA8305C0F8AC50D4F8548008FB0C35F0
:1021A000D0F8F0306FF38F0308FB0CFC43EA850393
:1021B000C0F8F030D0F8F0E0A36D2EF47C1242EAC3
:1021C0000342C0F8F02005EB4302D0F8C0506FF393
:1021D0008F0545EA8202C0F8C020D0F8C020DDF8A3
:1021E0000CB022F47C1242EA0B42C0F8C020019AE3
:1021F000D0F8C05025F07C5502FB0AFE4AF20002DE
:10220000C4F20002DDF810A002EB8101029A01F590
:10221000406145EA0A6501EB8207C0F8C05007EB50
:10222000C902A56E02EB8E00626700EB86060BFB0F
:1022300005F2276706EB8C07C4E91E060AFB05F0CA
:1022400007EBC30303EB8202C4F884304DF2FC3386
:10225000E16602EB8000C4F200039842C4F880708B
:10226000C4F88820C4F8900002D920205AE600BFA4
:10227000814221D20A46002042F8040BD4F8903063
:102280009A4215D2486001F10802D4F890309A427F
:102290003FBF0020886001F10C02D4F8903038BFB5
:1022A0009A4205D2C8601031D4F890209142E1D30F
:1022B00005B0BDE8F08F00BF002005B0BDE8F08F8D
:1022C00010B5B6B06946044601F10800B821FEF722
:1022D000EDF84AF200012068C4F20001884201D002
:1022E00036B010BD4FF400400090684600240194C1
:1022F00002F082F808B1FEF7AFFA44F2E040C5F60A
:102300000200C16841F48071C160C16801F480714C
:1023100031913199016841F080010160006831A973
:1023200000F08000319031984FF4C040319002208D
:10233000CDE932040920359041F600403494C5F6C9
:10234000020000F005F836B010BD000000000000EB
:102350002DE9F04F82B00D68002D00F0CB8000F128
:10236000264242F2004302F1FF72C5F602030A263A
:1023700098424FEAB22444F2F44E08BF0926092CD1
:1023800040F2040C38BF4FEAB226C5F6020EC5F67D
:10239000000C009600220027002609E001360D6897
:1023A00035FA06F307F1040702F1020200F0A280F9
:1023B000012303FA06F415EA0408EFD0D1F804A0CB
:1023C00003230AF0030B9340ABF101056FEA030905
:1023D000012D0FD88368CD6803EA090395402B438C
:1023E0008360CAF300154368A34305FA06F4234348
:1023F000436005E0BBF1030F02D14FF0030B21E076
:10240000C3688C6803EA09039440BBF1020F43EAF6
:102410000403C36016D16FF0030307F01C0503EA41
:1024200056030F24034404FA05FBD3F820A00C69DB
:102430002AEA0B0AAC4044EA0A041C62D1F804A060
:102440000AF0030B03680BFA02F403EA09031AF417
:10245000403F43EA04030360A0D0DEF8003040F2BE
:10246000084A43F00203CEF80030DEF80030C5F62B
:10247000000A03F00203019326F00303019C07F016
:102480000C040F2553F80A90A54029EA0509009D80
:1024900005FA04F444EA090443F80A404FF0B04A4C
:1024A000DAF800904C6849EA0805E30258BF29EAC7
:1024B0000805A302CAF80050DCF8009049EA0805B4
:1024C00058BF29EA0805A303CCF80050DCF8809037
:1024D00049EA080558BF29EA0805E403CCF880500A
:1024E000DCF87C3043EA080558BF23EA0805CCF83D
:1024F0007C5053E702B0BDE8F08F00000000000000
:10250000002A08BF09048161704700000000000034
:1025100041F20000C5F600400068000C7047000062
:1025200044F29850C2F2004000687047000000007A
:1025300090F84120202A03D190F84020012A01D1AF
:1025400002207047242280F841200268136823F09B
:1025500001031360136823F4805313601368194355
:102560001160116841F001011160202180F84110D3
:10257000002180F84010084670470000000000006D
:1025800090F84120202A03D190F84020012A01D15F
:1025900002207047242280F841200268136823F04B
:1025A00001031360136823F4706343EA012111608F
:1025B000116841F001011160202180F841100021D3
:1025C00080F840100846704710B310B5044690F8E4
:1025D000410028B9002084F84000204600F04CF863
:1025E000242084F8410094E80910E2680168012A77
:1025F00021F00101016023F070610161816821F423
:102600000041816006D14CF4004181600CE000BFC4
:1026100001207047022A4CF40441816004D14168D2
:1026200041F4006103E000BF416821F400614160B2
:1026300004F1100C416841F0007141F40041416027
:10264000C16821F40041C1609CE80E10114341EAC9
:102650000321C160216A41EA0C010160016841F077
:102660000101016000206064202184F84110206392
:1026700084F8420010BD0000B0B5B8B0044602A80E
:10268000C0210025CDE93655CDE934553395FDF708
:102690000DFF41F600412068C5F6000188423DD09B
:1026A00045F60001C4F2000188426BD045F20041BA
:1026B000C4F20001884263D10820029002A80024DD
:1026C000039401F099FE08B1FEF7C6F844F2E04524
:1026D00033A9C5F60205286840F002002860286882
:1026E00000F0020001900198C02033901220CDE943
:1026F00034040420379040F200403694C5F60200BE
:10270000FFF726FEA86840F40010A860A86800F44F
:1027100000100190019838B0B0BD00BF10200290A9
:1027200002A8039501F068FE08B1FEF795F844F29F
:10273000E04440F20041C5F60204C5F602012068FB
:1027400040F008002060206800F008000190019827
:102750004FF440503390122034900020CDE93500E2
:102760000420379001F5006033A9FFF7F1FD60699F
:1027700040F080006061606900F080000190019885
:1027800038B0B0BD0820029002A80024039401F0E4
:1027900033FE08B1FEF760F844F2E04540F2004134
:1027A000C5F60205C5F60201286840F080002860E1
:1027B000286800F0800001900198302033901220AA
:1027C000CDE934040420379001F5C05033A9369484
:1027D000FFF7BEFDA86840F48000A860A86800F478
:1027E00080000190019838B0B0BD000000000000EA
:1027F00040F2000044F29851C2F20040C2F200419F
:1028000000780A681044086070470000000000006B
:1028100080B5032000F0ACF802F04AFD44F2184104
:1028200040F27403C5F60201C0F601030A680968A4
:1028300001F00F01C2F30322595C9A5C01F01F0101
:1028400002F01F02D04040F20C02C2F2004220FA15
:1028500001F1116040F20801C2F2004108600F204E
:1028600000F00AF800281CBF012080BD00F02CF801
:10287000002080BD0000000070B540F20006C2F2EA
:1028800000463178E1B1044640F20800C2F200404F
:102890004FF47A72B2FBF1F10068B0FBF1F004F092
:1028A000E3FD0F2C4FF0010508D838B94FF0FF3089
:1028B00000222146002500F02BF87460284670BDE8
:1028C000012070BD0000000081B044F2F440C5F664
:1028D0000200016841F002010160006800F002009E
:1028E0000090009801B07047002848BF704781B23F
:1028F00000F01F000122490902FA00F04EF2001216
:10290000CEF2000242F821007047000000000000F3
:1029100070B54EF60C5C4FF0FF36CEF2000C00F1B5
:10292000604505F56445DCF80030C3F3022E8EF0F7
:102930000703042B28BF0423BEF1030406FA03F3A4
:1029400021EA030100F00F0338BF0024043B0028F4
:10295000634406FA04F048BF03F10C05A14022EAE3
:10296000000008430001287070BD00000000000056
:102970004EF60C514FF6FF03CEF200010A681A40E2
:1029800060F30A2242F0806040F0FD7008607047FA
:1029900001680122C0F8D824002280F8CC2488697C
:1029A00040F000608861486D40F08052002042F0A5
:1029B00003024A65704700007047000000000000F5
:1029C00002680020516270472DE9F04F81B0D0F8C5
:1029D0000080D8F8240099B1D8F82830B1F1010E60
:1029E00000EB134375D0AEF101000EF00307C0B247
:1029F00003280DD201214FF0000A002F50D168E0CA
:102A000040EA0240C8F82800002001B0BDE8F08F7D
:102A100008F1F4050021009741F0010408F5827CDB
:102A200055F8100FE4B241F00207FFB203EB104B70
:102A30005CF8244041F00303D8B25CF827600B1D1A
:102A40000EF0FC095FFA83FA0BEB1444CA4504EB61
:102A500016445CF820001ED0194643F00103DBB297
:102A600004EB104A41F0020455F8106FE4B241F053
:102A70000307FFB25CF823000B1D0AEB16465FFA52
:102A800083FA5CF8244006EB1046CA455CF8270040
:102A900006EB1444E0D104EB10430531009FC7B1AD
:102AA00008EB8A00012FD0F8040103EB104310D08B
:102AB000C8B2022F08EB8000D0F8040103EB1043EA
:102AC00007D0481CC0B208EB8000D0F8040103EB2B
:102AD000104308EB8E0043EA0241C0F804110020C5
:102AE00001B0BDE8F08F0000D0F8E00409F070BD3F
:102AF00001EBC10200EB8202D0F8E004126A09F097
:102B0000CBBC00000000000001EBC10200EB820220
:102B1000D0F8E004D2F8602209F01EBD00000000E9
:102B2000D0F8E00409F058BD10B54AB2044601F0EF
:102B30000F00B2F1FF3F00EBC00104EB81020BDD9F
:102B400002F51571002382F8553294F89424087028
:102B5000012A0AD1022010BD02F11401012353758C
:102B600094F894240870012AF4D0012084F8940485
:102B700020680AF055FB002084F8940410BD000082
:102B8000B0B50279044601F00F00904202D901204D
:102B9000B0BD00BF49B2B1F1FF3F09DD00EBC0019C
:102BA000002304EB810202F5157182F8553207E02B
:102BB00000EBC001012304EB810202F11401537503
:102BC00094F8942400258D70012A087002D1022007
:102BD000B0BD00BF012084F8940420680AF018FEFC
:102BE000284684F89454B0BD01F00F0101EBC101F7
:102BF00000EB8100D0F86802704700000000000080
:102C000070B54CB2064601F00F00B4F1FF3F00EB87
:102C1000C00107DD06EB8104002504F5157184F879
:102C2000555206E006EB810C01240CF114018CF8DE
:102C300015404D7808708A60002D0B7118BF4883CD
:102C4000022B01D10020487196F89404012801D18B
:102C5000022070BD012086F8940430680AF070F9F3
:102C6000002086F8940470BD80B501F00F0E0EEBC5
:102C7000CE0100EB810C0021CCE998238379CCF8BC
:102C800068128CF855120CF51571012B8CF854E272
:102C900008BFCCF8702200681A460AF005FE002032
:102CA00080BD000000000000B0B50446007901F0CE
:102CB0000F05854202D90120B0BD00BF48B2B0F176
:102CC000FF3F09DD01EBC100002204EB800000F5AD
:102CD000157180F8552207E005EBC500012204EBD1
:102CE000800000F11401427594F89424012088704A
:102CF000012A0D7002D10220B0BD00BF84F89404F7
:102D000020680AF0B1FD1DB1002084F89404B0BD24
:102D1000A179206804F29C420AF04AFD002084F860
:102D20009404B0BD0000000010B501F00F0C0124A8
:102D30000CEBCC0100EB810E714601F814CF4FF083
:102D4000000CC1F814C090F806C04C70CA60BCF109
:102D5000010F0B6108BFCEF83020006862460AF010
:102D6000A3FD002010BD00002DE9F04F89B00568DB
:102D7000824628460AF0A0FF10B109B0BDE8F08FE6
:102D8000DAF800000AF0C8FF0028F6D0D5F80808E5
:102D9000C0F30D20CAF8D404DAF800000AF0BCFF32
:102DA0008007DAF8000003D5416901F002014161B2
:102DB00005F5006104910AF0AFFFC006DAF80000E3
:102DC00005953BD5816921F0100181612C6A04F0E1
:102DD0000F05C4F34340062818D0022827D147F630
:102DE000F07014EA000622D005EBC50034090AEBA6
:102DF000800705982246D7F860120AF091FFD7F8AD
:102E0000600200EB1610C7F8600207E00AF29C416E
:102E1000082205980AF084FFC4F30A1405EBC500E4
:102E20000AEB8000D0F868122144C0F86812DAF882
:102E30000000816941F010018161059D0AF06CFF7D
:102E40000003CDF820A040F10381DAF800000AF079
:102E50003FFF002800F0FC8006460AF51D784FF47D
:102E600030644FF0000B0AF29C40079009E000BF6D
:102E70000BF1010B760804F1200408F1240800F09E
:102E8000E780F007F4D05FFA8BF9DAF800004946E2
:102E90000AF03AFF8246C0076DD0281901218160EF
:102EA000089F38682118036C8A68BF79012F29D1DF
:102EB00017073BD497065BD412F0280F059D5AD113
:102EC00043F20B07C4F65477BB4202D312F400421C
:102ED0004AD1D8F8002009696FF3DF41BBF1000F38
:102EE000A2EB0101059D48F80C1C19D1089BD3F8F1
:102EF0006422002A00F0A680D3F860020844C3F8D8
:102F000060020DE043F20B07C4F65477FF37BB4273
:102F10001AD1100428D49006059D01D52020886080
:102F200008984946FFF7F0FD25E000BF43F20B008B
:102F3000059DC4F6547083421DD312F400401AD08C
:102F40004FF40040886016E0BBF1000F07D10899EC
:102F5000D1F8641219B90021079A0AF029FC0898DF
:102F60004946FFF7D1FD05E04FF4004001E000BF06
:102F700020208860059D5FEA0A7025D52819082160
:102F8000816043F20B010898C4F654714F1E00682B
:102F9000056C2044BD42816805D911F400411CBF75
:102FA0004FF400418160089800F0A2FDBD42059DEC
:102FB0000AD908988079012806D108980121079A32
:102FC00000680AF0F5FB00BF5FEACA600CD45FEA54
:102FD0008A700FD45FEA8A6025D45FEA8A40DDF800
:102FE00020A07FF545AF27E02819102181605FEA16
:102FF0008A70EFD56869000604D50499486840F4E2
:103000008060486018F81D0C012806D1002008F8DF
:103010001D0C0898494600F09BFB2819022181608D
:103020005FEA8A60D9D52819202181605FEA8A4049
:10303000DDF820A07FF51CAF28194FF40051816006
:1030400016E700BF0121079A0AF0B2FB68E700BF4C
:10305000DAF80000AB460AF05FFE400340F1E08082
:10306000DAF800000AF02CFE002800F0D9800646AD
:1030700000270BF5106003900AF29C40029004E0D8
:10308000760807F1010700F0CB80F007F8D0F9B21D
:10309000DAF8000007910AF023FE0446C007039DFA
:1030A0000AD1200734D4E00638D460063CD4A00707
:1030B00040D42006E4D556E0049B07F00F004FF003
:1030C000010C05EB47120CFA00F0596B21EA0000E5
:1030D0005863C2F808C09AF80600012812D107EB1D
:1030E000C7000AEB8000D0E90712114401624FB912
:1030F000DAF8240030B9DAF800000121029A0AF067
:1031000057FB00BF50460799FFF7F2FC2007CAD5CE
:1031100005EB471008218160E006C6D505EB471096
:10312000102181606006C2D505EB47104021816007
:10313000A007BED5584639460AF04EFD07EBC7003A
:103140000AEB800010F8171F012905D1002101703A
:103150005046079900F0F8FA05EB4710022181600C
:1031600020067FF58DAF07EBC7000AEB8002914682
:1031700059F8241FC84658F8040F8142FFF480AF65
:103180009346DAF800400B1A5BF81C5FAB4238BF7D
:103190001D4604EB4713069405F1030CD3F81859A8
:1031A000ADB2B5EB9C0F29D303F5106A02F12005EF
:1031B000D9F8001081421FD9081A0899DBF800409D
:1031C000A0428A7938BF044629680092A3B2DDE99B
:1031D00006020BF055F82868E11C20442860D8F856
:1031E00000002044C8F80000DAF8182092B2B2EBD0
:1031F000910FDDD2D9F80010DDF820A0DDF814B071
:1032000081423FF63DAF069A07F00F00012101FA17
:1032100000F0D2F8341821EA0000C2F834082FE791
:10322000DAF800000AF078FD00281DD4DAF8000072
:103230000AF072FD000536D4DAF800000AF06CFDE1
:10324000000141D4DAF800000AF066FDC0044DD454
:10325000DAF80000DDF810800AF05EFD8004DAF88C
:10326000000000F1688181E10499486820F00100C4
:1032700048609AF8CC04012808D100208AF8CC04D0
:1032800000215046FFF798FB03E000BF504600F0D6
:1032900013FCDAF80000416901F0004141610AF0D5
:1032A0003BFD0005C8D504988068C00702D0504691
:1032B00000F046FCDAF80000416901F40061416168
:1032C0000AF02AFD0001BDD5DAF80000416901F0DD
:1032D000006141619AF8CC1411B3504600F030FC03
:1032E000DAF800000AF018FDC004B1D50499486866
:1032F00020F001004860DAF8000010210AF06CFCB0
:103300009AF80400010600F0DB804FF0FF3100F076
:10331000030C51FA80F1032916D2002182E000BF8C
:1033200001218AF8CC14406D0121C0F38300CAF852
:10333000D0045046FFF740FBDAF800000AF0ECFC3E
:10334000C0047FF585AFD1E7C0B24FF6A05800F0BA
:10335000FC0E4FF6C0554FF6E0544FF600600BF5EB
:10336000366300214FF67F37CFF6FF78CFF6FF7533
:10337000CFF6FF74CFF6FF70A3F51872A3F51076A1
:10338000043197608E4553F8082022F4001243F868
:10339000082043F8587C53F8602C22F4001243F8BC
:1033A000602C53F8602C42F0006243F8602CB76048
:1033B000A3F508765A5922F400125A5143F8387C82
:1033C00053F8402C22F4001243F8402C53F8402CC0
:1033D00042F0006243F8402CB760A3F500761A591A
:1033E00022F400121A5143F8187C53F8202C22F4CE
:1033F000001243F8202C53F8202C42F0006243F8CE
:10340000202CB7601A5822F400121A509F601A68D4
:1034100022F400121A601A6842F000621A6003F186
:103420008003A9D1BCF1000F059849D000F51062C6
:1034300000F5306002EB41174FF67F334E01BCF1CF
:10344000010FBB6000EB4115975927F40017975106
:10345000AB60875927F400178751875947F00067F9
:1034600087512DD04F1CBCF1020F4FEA471502EBDC
:10347000471600EB4717B360565926F4001656510D
:10348000BB60435923F400134351435943F0006395
:10349000435115D002314FF67F364F0102EB4113F5
:1034A00000EB41119E60D35923F40013D3518E6079
:1034B000C15921F40011C151C15941F00061C151FC
:1034C000DDF81080D8F81C0040F00110C8F81C008E
:1034D0009AF80F0040B1D8F8840040F00B00C8F80B
:1034E000840008F1440008E0D8F8140042F22B01EF
:1034F0000843C8F8140008F1100001680AF29C4261
:1035000041F00B010160D8F8000020F4FE60C8F81B
:1035100000009AF80610DAF800000AF049F9DAF823
:103520000000416901F4805141610AF0F5FB80041B
:10353000DAF800001AD509F04BFDDAF800000AF0BD
:10354000ABFB8AF80700DAF8004001F029FE9AF890
:103550000720014620460AF003FE504600F094FA88
:10356000DAF80000416901F4005141610AF0D4FB2E
:10357000000707D4DAF800000AF0CEFB00060ED4EC
:1035800036E000BF504600F09BFADAF800004169CF
:1035900001F0080141610AF0BFFB000628D505993A
:1035A000886920F0800088619AF8040002281FD3FF
:1035B000012440F27B2503E001342435844217D2F4
:1035C0001AF805100129F7D104F00F00220600EBCC
:1035D000C0000AEB800000F1140158BF00F515711E
:1035E000DAF800000AF068FA9AF80400E4E700BF8D
:1035F000DAF800000AF090FBC00251D4DAF80000BB
:103600000AF08AFB8002059D40F180809AF8041040
:1036100002292BD305F5326001390AF51F72012307
:1036200006E000BF013900F1200002F124021DD0A4
:1036300007681678012EF5D1B7F1FF3FF2DCDAF812
:10364000D46407F4803706F00106B742EAD102F8E5
:10365000013CAF6947F08007AF616F693F06E1D475
:10366000D8F8040040F40070C8F80400DAF800004C
:10367000416901F4001141610AF04EFB40004BD555
:103680005046FFF731FADAF80000416901F0804155
:1036900041610AF041FB400745D4FFF76EBB00BF14
:1036A0009AF80400022825D305990AF13C0501F592
:1036B00012640126012705E001372034874205F115
:1036C000240517D221682A78012AF5D1B1F1FF3FEC
:1036D000F2DC07F00F0005F8016C00EBC0000AEB0C
:1036E000800000F11401DAF800000AF0E5F99AF818
:1036F0000400E1E7DAF80000416901F4801141615A
:103700000AF00AFB8002059D3FF580AFDAF8000061
:103710000AF002FB4000B3D4DAF800000AF0FCFA29
:1037200040077FF52AABDAF800004468610704D54A
:103730005046FFF7F5F9DAF800004168214341608F
:1037400009B0BDE8F08F0000D0F8E00408F0A4BF95
:10375000D0F8E00408F0B4BFF0B581B0002800F064
:103760002881044690F8950428B9002084F8940430
:10377000204600F035F9032084F8950420680AF00B
:103780000FF8D4E90001267CD4E90223009609F061
:103790002FFC002840F00A81206800210AF018FB65
:1037A000002840F003812179002900F0F680A1F182
:1037B000010C01F0030EBCF1030F4FF0000345D3E1
:1037C00001F0FC0204F19A000126002500F8865C55
:1037D0006F1C20F86C5C00F8627C20F8487CAF1C01
:1037E00000F83E7C20F8247CEF1C043500F8856C42
:1037F00000F8823C954240F87E3C40F87A3C40F824
:10380000763C00F8616C00F85E3C40F85A3C40F8A9
:10381000563C40F8523C00F83D6C00F83A3C40F809
:10382000363C40F8323C40F82E3C00F8196C00F869
:103830001A7C078000F8163C40F8123C40F80E3C19
:1038400040F80A3C00F19000C0D12B46BEF1000FB9
:103850002DD003EBC3000122BEF1010F04EB800564
:103860004FF000006A752B75EB852876C5E90700D7
:1038700068621CD05D1CBEF1020F05EBC50604EBAF
:10388000860672753575F5853076C6E90700706273
:103890000DD0981C012300EBC00204EB820253758B
:1038A0001075D08500201076C2E90700506200290B
:1038B00073D0BCF1030F4FF0000236D301F0FC00CF
:1038C00004F53471002300BF01F87C3C5F1C01F853
:1038D000587C9F1C01F8347CDF1C043301F87B2CDE
:1038E000834201F8782C41E91D2241F86C2C01F843
:1038F000572C01F8542C41E9142241F8482C01F8C6
:10390000332C01F8302C41E90B2241F8242C01F82A
:103910000F2C01F8107C01F80C2C41F8082C41F810
:10392000042C41F8902BCFD11A46BEF1000F34D0B1
:1039300002EBC200BEF1010F04EB80014FF000006A
:1039400081F8550281F8542281F85802C1E99700A4
:10395000C1F8640221D0511CBEF1020F01EBC1037A
:1039600004EB830383F8550283F8541283F858025A
:10397000C3E99700C3F864020FD0901C002200EB4B
:10398000C00104EB810181F8552281F8540281F8CD
:103990005822C1E99722C1F86422D4E90001277CAA
:1039A000D4E90223009709F09FFC28B1022084F893
:1039B0009504012001B0F0BD00206074012084F85E
:1039C0009504207B012802D12046FEF7E1FF206804
:1039D00009F07AFC002001B0F0BD000000000000FA
:1039E000B0B5B8B002A9044601F10800B821FCF74F
:1039F0005DFD00212068C4F20801884202D038B081
:103A0000B0BD00BF4FF4802002904FF440102490CE
:103A100002A80024039400F0EFFC08B1FCF71CFF9F
:103A200000F0D2F844F2D84533A9C5F60205A868DB
:103A300040F00100A860A86800F0010033903398BE
:103A40004FF4C05033900220CDE934040A2037905F
:103A500000203694C5F60200FEF77AFC28680021A3
:103A600040F0006028602868002200F000600190AB
:103A700001986520FEF74CFF6520FEF735FF38B052
:103A8000B0BD00000000000010B50446C07918B1B8
:103A9000022803D1012104E0002102E0FCF7DCFE52
:103AA0000121D4F8E00408F097FED4F8E004BDE862
:103AB000104008F041BE0000D0F8E00408F070BEED
:103AC000D0F8E00408F078BE10B5044690F89404ED
:103AD000012801D1022010BD012084F894046174F2
:103AE00020680AF029FB002084F8940410BD00002F
:103AF000D0F8E02400F29C41104608F085BE00009A
:103B000010B5044690F89404012801D1022010BD9C
:103B10002068012184F89414C168490606D5617BA8
:103B2000012903D1816B41F4803181630AF04CF8A3
:103B3000206809F0B9FB002084F8940410BD00004F
:103B400010B50446D0F8E00408F0BAFE2068D0F8BA
:103B5000001E41F00101C0F8001EE07A002808BFF5
:103B600010BD4EF61050CEF20000016841F0060183
:103B7000016010BD00000000B0B544F60C05C5F6AC
:103B8000020529684907296806D401F00701081AC7
:103B900018BF0120B0BD00BF21F007010843286015
:103BA000FEF7BEFC044600BF55F8080C800407D49D
:103BB000FEF7B6FC001BB0F57A7FF5D90120B0BD49
:103BC0000020B0BD0000000044F60C00C5F6020065
:103BD000016841F080710160704700000000000042
:103BE00080B501F0DDFA44F2204140F27402C5F6DE
:103BF0000201C0F601020968C1F30211515C01F033
:103C00001F01C84080BD000080B544F2304EC5F6AB
:103C1000020E5EF8083C5EF8081CC1F3051C5EF855
:103C2000041CBCF1000FDEF8042019D001F00101E2
:103C300003F003034942022B01EAD2016FF35F3123
:103C400000EE101AB8EE400A10D0012B12D01BB9AA
:103C50005EF8301C890611D49FED361A1CE000BFB7
:103C600000218160C0E9001180BD00BF9FED301AC6
:103C700012E000BF9FED2D1A0EE000BF5EF8301C71
:103C800049F20002C0F2D032C1F3C10122FA01F1BF
:103C900001EE101AB8EE411ADEF800109FED263A38
:103CA0006FF35F2102EE101ADEF80010C1F3462117
:103CB000B8EE422A00EE032A00EE10CAB7EE003A30
:103CC000B8EE400A81EE000A32EE031A02EE101A34
:103CD000B8EE422A20EE010A32EE031A80EE011AF3
:103CE000BCEEC11A80ED001ADEF80010C1F30641E7
:103CF00001EE101AB8EE411A31EE031A80EE011AE5
:103D0000BCEEC11A80ED011ADEF80010C1F30661A5
:103D100001EE101AB8EE411A31EE031A80EE010AD4
:103D2000BCEEC00A10EE101A816080BD0024744AF7
:103D300020BCBE4B0024744C000000390000000081
:103D400080B544F2384EC5F6020E5EF8103C5EF8BF
:103D5000101C5EF80C2CC1F3053CDEF80410BCF11D
:103D6000000F15D0C908D20601EAE2716FF35F3186
:103D700000EE101A03F003010229B8EE400A0DD03C
:103D800081B95EF8381C890610D49FED361A1BE005
:103D900000218160C0E9001180BD00BF9FED301A95
:103DA00012E000BF9FED2D1A0EE000BF5EF8381C38
:103DB00049F20002C0F2D032C1F3C10122FA01F18E
:103DC00001EE101AB8EE411ADEF800109FED263A07
:103DD0006FF35F2102EE101ADEF80010C1F34621E6
:103DE000B8EE422A00EE032A00EE10CAB7EE003AFF
:103DF000B8EE400A81EE000A32EE031A02EE101A03
:103E0000B8EE422A20EE010A32EE031A80EE011AC1
:103E1000BCEEC11A80ED001ADEF80010C1F30641B5
:103E200001EE101AB8EE411A31EE031A80EE011AB3
:103E3000BCEEC11A80ED011ADEF80010C1F3066174
:103E400001EE101AB8EE411A31EE031A80EE010AA3
:103E5000BCEEC00A10EE101A816080BD0024744AC6
:103E600020BCBE4B0024744C000000390000000050
:103E700080B544F2404EC5F6020E5EF8183C5EF87E
:103E8000181C5EF8142CC1F3055CDEF80410BCF1BC
:103E9000000F15D0C908D20501EAE2716FF35F3156
:103EA00000EE101A03F003010229B8EE400A0DD00B
:103EB00081B95EF8401C890610D49FED361A1BE0CC
:103EC00000218160C0E9001180BD00BF9FED301A64
:103ED00012E000BF9FED2D1A0EE000BF5EF8401CFF
:103EE00049F20002C0F2D032C1F3C10122FA01F15D
:103EF00001EE101AB8EE411ADEF800109FED263AD6
:103F00006FF35F2102EE101ADEF80010C1F34621B4
:103F1000B8EE422A00EE032A00EE10CAB7EE003ACD
:103F2000B8EE400A81EE000A32EE031A02EE101AD1
:103F3000B8EE422A20EE010A32EE031A80EE011A90
:103F4000BCEEC11A80ED001ADEF80010C1F3064184
:103F500001EE101AB8EE411A31EE031A80EE011A82
:103F6000BCEEC11A80ED011ADEF80010C1F3066143
:103F700001EE101AB8EE411A31EE031A80EE010A72
:103F8000BCEEC00A10EE101A816080BD0024744A95
:103F900020BCBE4B0024744C00000039000000001F
:103FA00010B584B0024641F6FF7300209B1A70EBF7
:103FB00001033BDB40F2FF339B1A70EB010361DA34
:103FC00082F480630B4300F0F78082F400630B43BC
:103FD00000F0188182F48052114340F0868144F24F
:103FE0000041C5F60201086DC0F30232042A00F256
:103FF000548148F20000C0F2BB00DFE812F0150166
:104000003701410176010500C86C0A68520700F0CB
:104010004052086802D5002A00F0B981C00540F17D
:104020007581B2F1805F00F0CC816FE147F6FF73DC
:104030009B1A70EB010355DA82F400430B4300F046
:10404000F58082F480330B4300F0008182F400227B
:10405000114340F04A8144F20040C5F60200816DF0
:1040600001F44031B1F5003F00F02081B1F5803F0F
:1040700000F02A81002940F010810068000140F121
:104080000C81F6E082F480730B4357D082F4007207
:10409000114340F02A8144F20041C5F60201086D47
:1040A000C0F38212042A00F2F88048F20000C0F245
:1040B000BB00DFE812F0B900DB00E5001A010500E3
:1040C000C86C0A68520700F04052086802D5002AFE
:1040D00000F05D81C00540F11981B2F1805F00F010
:1040E000708113E182F400530B434DD082F480427F
:1040F000114340F0FA8044F20044C5F60204A06D7A
:10410000C0F30270052800F2C880DFE810F0070055
:104110001101130115011B011D0100BF01F040F841
:10412000216A40F27402C0F60102C1F30211515C2F
:1041300001F01F01C84004B010BD00BF44F20041AF
:10414000C5F60201086D00F00702042A00F2A580FE
:1041500048F20000C0F2BB00DFE802F0668892C7B8
:10416000040000BFC86C0A68520700F0405208689B
:1041700002D5002A00F00B81C00540F1C780B2F1E2
:10418000805F00F01E81C1E044F20040C5F60200ED
:10419000016DC1F30241052900F27F80DFE811F0D3
:1041A0000600DE00E800F2000201540004B0BDE8A1
:1041B000104001F01DB800BF44F20041C5F60201F5
:1041C000886DC0F34252042A00F2678048F2000072
:1041D000C0F2BB00DFE802F0284A5489040000BFA7
:1041E000C86C0A68520700F04052086802D5002ADD
:1041F00000F0CD80C00540F18980B2F1805F00F011
:10420000E08083E044F20041C5F60201886DC0F30E
:104210000262042A41D848F20000C0F2BB00DFE885
:1042200002F003252F646700086834E044F2004080
:10423000C5F60200016D01F04051B1F1005F4DD0B3
:10424000B1F1805F26D041BB00687EE044F20040BF
:10425000C5F60200C16C0068C9031CD500011CD55D
:1042600001A8FFF76DFD039804B010BD08680001B8
:1042700013D501A8FFF764FD019804B010BD00BF7D
:104280000868800009D501A8FFF7F2FD019804B085
:1042900010BD00BF0068800102D4002004B010BD32
:1042A00001A8FFF7B1FC029804B010BDC16C026810
:1042B000520701F04051026840F17E80002940F031
:1042C0007B80C2F3C10064E000688000E5D501A8EE
:1042D000FFF7CEFD039804B010BD00BF00680001D9
:1042E000DBD501A8FFF72CFD029804B010BD00BF7C
:1042F000C86C0A68520700F04052086801D5002ACD
:1043000045D0C00502D5B2F1805F5AD00868B2F13D
:10431000005F00F400314FF0000004BF47F640009A
:10432000C0F27D10002908BF084604B010BD00BFD0
:10433000206814E020681CE020684007ADD52068A4
:1043400025E000BF20682EE0206847F6400180038A
:10435000C0F27D1101EAE07004B010BD00680001F8
:104360009BD501A8FFF7ECFC029804B010BD00BF7C
:10437000006880007FF591AF01A8FFF779FD0298F2
:1043800004B010BD016849077FF587AF0068C0F32E
:10439000C10049F20001C0F2D03121FA00F004B0AE
:1043A00010BD00BF006840F60011C005C0F23D011D
:1043B00001EAE07004B010BDD20509D5B1F1805F0B
:1043C00006D140F60010C0F23D0004B010BD00BFA1
:1043D0000068B1F1005F00F400324FF0000004BF4C
:1043E00047F64000C0F27D10002A08BF104604B016
:1043F00010BD0000000000002DE9F0470446C07821
:1044000044F22C480007C5F6020833D5A06E4FEAE7
:10441000305103290CD8DFE801F003111D2600BF3D
:10442000D8F8001041F40031C8F800101BE000BFBC
:1044300001266078C0070BD020E000BF04F108001F
:10444000022105F01DFD064660B16078C00715D158
:10445000354646E004F12800022105F0A5FD064698
:104460000028F2D1A06ED8F8241021F4401108439E
:10447000C8F8240000266078C007E9D0A06D0428A1
:104480000ED83546DFE800F00412181E1E0000BFEB
:10449000D8F80000354640F40030C8F8000011E0BC
:1044A00001250127607880071FD452E004F108003D
:1044B000002105F0E5FC04E004F12800002105F0EE
:1044C00073FD05462F461DB1607880070DD440E08E
:1044D000D8F82400A16D20F0070000250843C8F893
:1044E000240037466078800733D5E06D4FEAB0107E
:1044F00004280DD8DFE800F00412181E1E0000BFCB
:10450000D8F8000040F40030C8F8000012E000BF06
:1045100001250126607840071FD455E004F108000A
:10452000002105F0ADFC04E004F12800002105F0B5
:104530003BFD05462E461DB1607840070DD443E093
:10454000D8F82400E16D20F4E07000250843C8F895
:1045500024003E466078400736D5D4F8A8004FEADC
:10456000705004280CD8DFE800F00313191F1F0057
:10457000D8F8000040F40030C8F8000014E000BF94
:1045800001254FF001096078000721D456E000BFF3
:1045900004F10800002105F073FC04E004F1280098
:1045A000002105F001FD0546A9461DB16078000710
:1045B0000ED443E0D8F82C00D4F8A81020F4600002
:1045C00000250843C8F82C00B1466078000735D5AF
:1045D000D4F8AC004FEA306004280DD8DFE800F0D2
:1045E0000412181E1E0000BFD8F8000040F400306E
:1045F000C8F8000012E000BF01250127E07880071D
:1046000020D44EE004F10800002105F039FC04E05C
:1046100004F12800002105F0C7FC05462F461DB116
:10462000E07880070ED43CE0D8F82C00D4F8AC1029
:1046300020F0E06000250843C8F82C004F46E078E1
:1046400080072ED5E06C4FEA301003280ED8DFE843
:1046500000F00903130900BFD8F8000040F400304F
:10466000C8F800002E467DB912E000BF01250126E2
:104670006078C00619D44CE004F10800022105F06E
:10468000FFFB05462E461DB16078C0060DD440E004
:10469000D8F82000E16C20F0300000250843C8F86D
:1046A00020003E466078C00633D5206E4FEA303099
:1046B00004280DD8DFE800F00412181E1E0000BF09
:1046C000D8F8000040F40030C8F8000012E000BF45
:1046D00001250127607880061FD44EE004F1080010
:1046E000002105F0CDFB04E004F12800002105F0D5
:1046F0005BFC05462F461DB1607880060DD43CE07A
:10470000D8F82400216E20F4E04000250843C8F8C2
:1047100024003746607880062FD5606E4FEA30401F
:10472000052809D8DFE800F0040E1404040400BFD3
:104730002E46ADB918E000BF01250126607840067D
:104740001FD44FE004F10800012105F099FB04E0BB
:1047500004F12800012105F027FC05462E461DB175
:10476000607840060DD43DE0D8F82400616E20F456
:10477000E02000250843C8F824003E466078400643
:1047800030D5D4F8B0004FEA3070052808D8DFE8FB
:1047900000F0030D130303032F46ADB918E000BF6B
:1047A000012501276078000620D442E004F10800CA
:1047B000012105F065FB04E004F12800012105F06A
:1047C000F3FB05462F461DB1607800060ED430E09D
:1047D000D8F82C00D4F8B01020F0E04000250843B1
:1047E000C8F82C0037466078000622D5206F58B1F3
:1047F000B0F1005F0CD0B0F1805F2FD1D8F800008D
:1048000040F40030C8F800002E469DB908E000BF13
:1048100004F10800012105F033FB05462E464DB991
:10482000D8F82400216F20F0405000250843C8F834
:1048300024003E46E078C00733D0A06C032813D88C
:10484000DFE800F008021A08D8F8000040F4003051
:10485000C8F80000A946BDB91AE000BF012501262D
:10486000E078C007E9D11CE001254FF00109A078EC
:1048700040061AD51CE000BF04F10800022105F033
:10488000FFFA0546A9461DB1A07840060DD50FE0F8
:10489000D8F82000A16C20F0030000250843C8F8D8
:1048A0002000B146A078400602D44F4618E000BF71
:1048B000D8F8D40340F48070C8F8D403FDF730FE74
:1048C000064600BFD8F8D403C00507D4FDF728FE7C
:1048D000801B6428F6D90325032701E02F468DB1FC
:1048E0002078C00761D0E06F4FEAF00005283BD880
:1048F000DFE800F004404604040400BF002D2E460B
:1049000046D149E0D8F84410D4F8B400414011F43D
:10491000407F11D0D8F84410D8F8442042F48032B7
:10492000C8F84420D8F8442021F4407122F48032A1
:10493000C8F84420C8F84410B0F5807F40F0DE820B
:10494000FDF7EEFD064641F2883A0325032700BF36
:10495000D8F84400800700F1CF82FDF7E1FD801B0D
:104960005045F5D9BCE700BF012601252078800716
:104970001FD44CE004F10800012105F081FA04E0A5
:1049800004F12800012105F00FFB05462E461DB15C
:10499000207880070DD43AE0D8F82800E16F20F0A5
:1049A000380000250843C8F828003E4620788007D4
:1049B0002DD5A06F052809D8DFE800F0040E1404F7
:1049C000040400BF2F46ADB918E000BF0127012540
:1049D000207840071FD44DE004F10800012105F0C4
:1049E0004FFA04E004F12800012105F0DDFA054644
:1049F0002F461DB1207840070DD43BE0D8F82800A1
:104A0000A16F20F0070000250843C8F828003746AA
:104A1000207840072ED5D4F89400052808D8DFE880
:104A200000F0030D130303032E46ADB918E000BFD9
:104A3000012601252078800620D451E004F10800E9
:104A4000012105F01DFA04E004F12800012105F020
:104A5000ABFA05462E461DB1207880060ED43FE005
:104A6000D8F82C00D4F8941020F007000025084353
:104A7000C8F82C003E462078800631D5D4F8900046
:104A80004FEA3070052809D8DFE800F0040E14045E
:104A9000040400BF2F46ADB918E000BF012701256F
:104AA0002078400620D451E004F10800002105F0F0
:104AB000E7F904E004F12800022105F075FA054643
:104AC0002F461DB1207840060ED43FE0D8F82800CC
:104AD000D4F8901020F0E04000250843C8F82800E2
:104AE00037462078400631D5D4F89C004FEAB020F4
:104AF000052809D8DFE800F0040E1404040400BF00
:104B00002E46ADB918E000BF012601252078000629
:104B100020D454E004F10800002105F0B1F904E0CC
:104B200004F12800022105F03FFA05462E461DB18A
:104B3000207800060ED442E0D8F82C00D4F89C105F
:104B400020F4E05000250843C8F82C003E462078A9
:104B5000000634D5D4F8A0004FEA703005280FD8ED
:104B6000DFE800F004141A04040400BF2F46E5B186
:104B70002068010727D4C1063ED4000355D475E050
:104B80000127012520680107F5D51CE004F1080084
:104B9000002105F075F904E004F12800022105F078
:104BA00003FA0546002D2F46E2D1D8F82C00D4F8A0
:104BB000A01020F4604000250843C8F82C003746B8
:104BC00020680107D7D5D4F88400B0F5805F09D1FB
:104BD00004F12800022105F0E7F9002818BF012799
:104BE000D4F88400D8F8281021F440510843C8F8BC
:104BF00028002068C106C0D5D4F89800B0F5807FA1
:104C000009D104F12800022105F0CEF9002818BFCF
:104C10000127D4F89800D8F82C1021F440710843EB
:104C2000C8F82C002068000320D5D4F8A400B0F503
:104C3000003F0FD0B0F5803F06D078BB04F10800EC
:104C4000002105F01DF904E004F12800022105F01F
:104C5000ABF905462E4655B9D8F82C00D4F8A41067
:104C600020F4403000250843C8F82C003E46A078C8
:104C700040072BD5D4F88800B0F5401F0BD0B0F515
:104C8000001F11D0B0F5801F2AD1D8F8000040F4E1
:104C90000030C8F800002F46CDB90DE001260125EF
:104CA000A0784007E6D411E004F12800012105F0C6
:104CB0007BF905462F4655B9D8F82800D4F8881056
:104CC00020F4401000250843C8F828003746A07893
:104CD000C0070AD13E462168880016D533E000BFE0
:104CE00001270125A078C007F4D0206DB0F5803FE2
:104CF00010D018BBD8F8000040F40030C8F800000D
:104D00002E4685B1216888001DD460688A0326D4A8
:104D100069E000BF04F10800022105F0B1F8054682
:104D2000002D2E46EED1D8F82000216D20F48030E1
:104D300000250843C8F82000CCE700BF0126012564
:104D400021688800E1D504F12800022105F02CF942
:104D5000002818BF0126D4E900108A0343D5D4F8EF
:104D600080206FF0010303EB3223022B0BD34FEAB9
:104D7000322343B1012B40F0B980D8F8003043F41E
:104D80000033C8F800303DB3CA022FD4CA0037D46C
:104D90008A0240D44A0048D4CA0F55D109025DD4D2
:104DA000C10766D181076FD4410779D4010700F1AB
:104DB0008380C10600F18C80800607D504F12800AD
:104DC000022105F0F1F8002818BF0125002D18BFB9
:104DD00001252846BDE8F087D8F8283023F4407331
:104DE0001A43C8F828203546CA02CFD5D8F824205F
:104DF000636F22F000421A43C8F82420CA00C7D5C6
:104E000058F81C2CD4F8B83022F480421A4348F8E1
:104E10001C2C8A02BED5D8F82420E36E22F08072C2
:104E20001A43C8F824204A00B6D558F81C2C22F49E
:104E3000004248F81C2CD4F8BC2058F81C3C1A43FB
:104E400048F81C2CCA0FA9D0D8F82020636D22F096
:104E500040521A43C8F820200902A1D5D8F82810DA
:104E6000D4F88C2021F440011143C8F82810C10760
:104E700098D004F10800002105F002F8002818BFBE
:104E80000546606881078FD504F10800012104F010
:104E9000F7FF002818BF0546606841077FF586AF19
:104EA00004F10800022104F0EBFF002818BF0546BA
:104EB000606801077FF57DAF04F12800002105F04F
:104EC00073F8002818BF05466068C1067FF574AF07
:104ED00004F12800012105F067F8002818BF0546F5
:104EE000606880067FF572AF68E700BF0125CA02DF
:104EF0007FF54CAF7AE700BFD4F8B4004FF6CF731C
:104F000058F81C2CC0F2FF0300F4407122F47C52CC
:104F100003EA10136FF31F30B1F5407F08BF1A4347
:104F2000002548F81C2CD8F844100843C8F8440061
:104F3000FFF7BBBC000000002DE9F04381B0002862
:104F400000F02A8142F200080446C5F20028894692
:104F5000D8F8000000F00F0088420ED2D8F8000008
:104F600020F00F0040EA0900C8F80000D8F800005F
:104F700000F00F00484540F00F81206844F21847C8
:104F80004107C5F602070AD521693A6802F07002A6
:104F9000914204D93A6822F0700211433960010746
:104FA0000AD561697A6802F07002914204D97A6880
:104FB00022F0700211437960C1060AD5A1697A68AE
:104FC00002F4E062914204D97A6822F4E06211436B
:104FD000796081060AD5E169BA6802F070029142EF
:104FE00004D9BA6822F070021143B96010F00201CE
:104FF0000AD0E2683B6803F00F039A4204D93B6889
:1050000023F00F031A433A60C20746D0386820F4F1
:105010007061D4E90102012841EA0201396009D036
:1050200003280DD0022811D157F8181C890340F12C
:10503000B38010E057F8181CC90540F1AD800AE0B4
:1050400057F8181C890140F1A78004E057F8181C94
:10505000490740F1A18057F8081C21F007010843D7
:1050600047F8080CFDF75CFA064641F2883500BFA8
:1050700057F8080C616800F03800B0EBC10F09D098
:10508000FDF74EFA801BA842F2D9032001B0BDE81B
:10509000F08300BF206800F0020151B1E1683A6876
:1050A00002F00F02914204D23A6822F00F0211433B
:1050B0003960D8F8001001F00F0149450DD9D8F832
:1050C000001021F00F0141EA0901C8F80010D8F8DA
:1050D000001001F00F0149455ED141070AD5216951
:1050E0003A6802F07002914204D23A6822F07002EB
:1050F0001143396001070AD561697A6802F07002CC
:10510000914204D27A6822F0700211437960C1069C
:105110000AD5A1697A6802F4E062914204D27A6801
:1051200022F4E0621143796080060AD5E069B9682B
:1051300001F07001884204D2B96821F0700108437F
:10514000B86000F0B5F8396840F274033A68C0F608
:105150000103C1F3032102F00F02595C9A5C01F0D4
:105160001F0120FA01F102F01F0040F20C0221FAA7
:1051700000F0C2F20042106040F2040040F2080267
:10518000C2F20040C2F200420068116001B0BDE806
:10519000F043FDF771BB00BF012001B0BDE8F08313
:1051A00080B500F085F844F2184140F27403C5F66A
:1051B0000201C0F601030A68096801F00F01C2F399
:1051C0000322595C9A5C02F01F0220FA02F201F0FD
:1051D0001F0040F20C0122FA00F0C2F20041086008
:1051E00040F20801C2F200410A6080BD00000000E8
:1051F00080B500F05DF844F2184C40F27401C5F639
:10520000020CC0F60101DCF80020DCF8003003F0ED
:105210000F03C2F30322CB5C8A5C02F01F02D04072
:1052200003F01F0240F20C0320FA02F2C2F2004324
:105230001A6040F20803C2F200431860DCF8040070
:10524000C0F30210085C00F01F0022FA00F080BDDD
:1052500080B500F02DF844F2184C40F27401C5F608
:10526000020CC0F60101DCF80020DCF8003003F08D
:105270000F03C2F30322CB5C8A5C02F01F02D04012
:1052800003F01F0240F20C0320FA02F2C2F20043C4
:105290001A6040F20803C2F200431860DCF8040010
:1052A000C0F30220085C00F01F0022FA00F080BD6D
:1052B00044F20041C5F602010869C0F3C2000328A8
:1052C00010D002282ED098BB0868800649F2000052
:1052D000C0F2D03058BF70470968C1F3C101C8405F
:1052E000704700BF8A6A886AC0F3051CC86ABCF1AF
:1052F000000F4B6B22D000F0010002F0030240428D
:10530000022A00EAD3006FF35F3000EE100AB8EE15
:10531000400A15D0C2B90868800619D49FED281A32
:1053200023E000BF47F64000C0F27D10704700BF89
:1053300040F60010C0F23D00704700BF00207047EB
:105340009FED1E1A11E000BF9FED1B1A0DE000BF7C
:10535000086849F20002C0F2D032C0F3C10022FA5C
:1053600000F001EE100AB8EE411A086B9FED153AF5
:105370006FF35F2002EE100A086BC0F34620B8EE10
:10538000422A013000EE032A00EE10CAB7EE003ABE
:10539000B8EE400A81EE000A32EE031A20EE010A4E
:1053A00001EE100AB8EE411A80EE010ABCEEC00A06
:1053B00010EE100A704700BF0024744A20BCBE4B98
:1053C0000024744C0000003970B586B0002844F207
:1053D000E04640F2000014460D46C5F60206C5F64A
:1053E000020023D0316800F5006041F00401316013
:1053F000316801F00401019101994FF400710191AC
:10540000022102910321049100210391059101A938
:10541000FCF79EFF56F8D00C20F07E4040EAC41006
:10542000284346F8D00C06B070BD00BF316841F08B
:1054300001013160316801F00101019101994FF4DE
:1054400080710191022102910321049100210391B5
:10545000059101A9FCF77CFF56F8D00C20F0FE70F6
:105460002843204346F8D00C06B070BD0000000071
:10547000F0B581B0002800F063810446007844F262
:105480000046C007C5F6020622D12078800740F109
:10549000BC80306910F03801B06A3FD0182908BFCD
:1054A0005FEA80703AD0E0683168002862D021F06D
:1054B000190108433060FDF733F8054630684007AE
:1054C00048D4FDF72DF8401B0228F7D977E100BF3B
:1054D000306900F03801B06A102905D018290BD1C5
:1054E00000F00300022807D130688003CDD5606842
:1054F0000028CAD124E100BF606800284CD0B0F574
:10550000A02F61D0B0F5803F62D0306820F48030A9
:105510003060306820F480205DE000BF30684007D4
:10552000E06802D5002800F00B81316821F01901F4
:1055300008433060FCF7F4FF054600BF30684007C1
:1055400008D4FCF7EDFF401B02284FF00300F5D90B
:1055500021E200BFFCF7DCFF41F20301884249D899
:1055600020697168402821F47C314BD141F400302E
:105570004AE000BF21F001003060FCF7D1FF054692
:105580003068400741D5FCF7CBFF401B02284FF0A5
:105590000300F5D9FFE100BF306820F480303060AF
:1055A000306820F480203060FCF7BAFF054600BF69
:1055B000306880037FF569AFFCF7B2FF401B6428B9
:1055C0004FF00300F4D9E6E1306840F48020306009
:1055D000306840F480303060FCF7A2FF054600BF21
:1055E000306880033FF551AFFCF79AFF401B6428F9
:1055F000F6D9E4E07068216920F0FE4040EA0160DD
:1056000002E000BF41EA003070602078C00654D547
:10561000306900F03801B06A082905D0182919D17D
:1056200000F00300012815D13068C00503D5E069FA
:10563000802840F08580FCF76BFF41F2030188422F
:105640001ED8206A7168202821F0F84132D141F03B
:10565000804031E0E0690028306819D040F08000D7
:105660003060FCF75DFF05463068C005E3D4FCF709
:1056700057FF401B02284FF00300F5D98BE100BF14
:10568000F068216A20F07C5040EA0160F06014E08C
:1056900020F080003060FCF743FF05463068C0050D
:1056A0000BD5FCF73DFF401B02284FF00300F5D956
:1056B00071E100BF41EA806070602078000743D448
:1056C0002078800654D42078400765D4656A9DB35D
:1056D000306900F03800182840F0A880012DB16A28
:1056E000306B2DD001F00302A36A9A4228D1C1F396
:1056F0000511E26A914223D10146226B6FF35F21CB
:10570000013A91421CD1C0F34622616B01398A42B1
:1057100016D1C0F30642A16B01398A4210D1C0F301
:105720000660E16B013988420AD1706BA16CC0F34D
:10573000CC00814240F03281002001B0F0BD00BFBA
:10574000012001B0F0BD00BF60690028706F39D042
:1057500040F001007067FCF7E3FE0546706F8007BC
:10576000AED4FCF7DDFE401B0228F7D927E000BFCE
:10577000A0690028306847D040F480503060FCF7C2
:10578000CFFE0546306880049DD4FCF7C9FE401B5F
:105790000228F7D913E000BFD6F8000440F4807067
:1057A000C6F80004FCF7BCFE054600BFD6F80004AE
:1057B000C00519D4FCF7B4FE401B6428F6D90320B9
:1057C00001B0F0BD20F001007067FCF7A9FE0546AE
:1057D000706F80077FF574AFFCF7A2FE401B0228B4
:1057E0004FF00300F4D9D6E0A068002840D0052887
:1057F00058D001285AD0306F20F001003067306F48
:1058000020F0040055E000BF20F480503060FCF729
:1058100087FE0546306880047FF555AFFCF780FEB3
:10582000401B02284FF00300F4D9B4E0306820F0A8
:1058300080703060FCF774FE022D05460CD100BF6D
:105840003068800148D5FCF76BFE401B02284FF002
:105850000300F5D99FE000BF306880017FF56CAF91
:10586000FCF75EFE401B02284FF00300F4D992E0E3
:10587000306F20F001003067306F20F00400306797
:10588000FCF74EFE054641F28837306F80077FF502
:105890001DAFFCF745FE401BB8424FF00300F4D9A2
:1058A00079E000BF306F40F004003067306F40F0A7
:1058B00001003067FCF734FE054641F2883700BF2F
:1058C000306F80073FF502AFFCF72AFE401BB8425D
:1058D0004FF00300F4D95EE004F12807B06A40F20B
:1058E000F33188438ECF0843591E40EA02104FF42B
:1058F0007E426FF35F21B06202EB47204FF4FE025D
:1059000080B2E36B0844A16B02EB01414FF0FE4211
:1059100001F4FE0102EB0362084402F0FE41084478
:105920003063F06A4FF6F87120F00100F062706B9E
:10593000A26C884340EAC2007063F06A216C20F0D8
:105940000C000843F062F06A616C20F0020008432A
:10595000F062F06A40F48030F062F06A40F40030A7
:10596000F062F06A40F48020F062F06A40F00100DA
:10597000F062306840F080703060FCF7D1FD044682
:10598000306880013FF5D8AEFCF7CAFD001B022845
:105990004FF00300F4D901B0F0BD00BFF06A20F071
:1059A0000100F062FCF7BCFD0546FCF7B9FDA8421A
:1059B000FBD0706B4FF6F871A26C884340EAC200CE
:1059C0007063F06A40F00100F062002001B0F0BDA9
:1059D0002DE9F041C0B10446FCF79AFD94F8380077
:1059E0002168012814D145F20440C5F60000814227
:1059F00005D045F60400C4F20100814204D160687C
:105A0000012801D1606C18B10120BDE8F08100BF10
:105A100046F2030045F60005C4F20100C4F2010598
:105A200081424FF0010013DC45F60342C4F201024B
:105A3000914227DC45F60402C4F20102914230D0C3
:105A400045F62402C4F2010291422AD0D3E100BFFC
:105A500045F20342C5F6000291426BDC46F20402B5
:105A6000C4F20102914206D046F22402C4F20102BD
:105A7000914240F0C08105F5006594F89100D0B9DD
:105A800012E000BF45F60442C4F20102914206D082
:105A900045F62442C4F20102914240F0AC8105F582
:105AA000806594F8910030B9002084F89000204679
:105AB00000F0AEF9216840F208004EF61B42C2F237
:105AC0000040C9F2CB520068A0FB0202086820F433
:105AD000803008606FEA12329000043000F08E814E
