:020000040800F2
:10000000F811002439030008097E0008E1650008A2
:10001000017E00083105000821A000080000000052
:10002000000000000000000000000000F18900084E
:10003000A106000800000000117E0008F9890008F0
:100040005303000853030008530300085303000838
:100050005303000853030008530300085303000828
:100060005303000853030008530300086905000800
:100070005303000853030008530300085303000808
:1000800053030008530300085303000853030008F8
:1000900053030008530300085303000853030008E8
:1000A00053030008530300085303000853030008D8
:1000B00053030008218C0008530300085303000871
:1000C00053030008530300085303000853030008B8
:1000D00053030008530300085303000853030008A8
:1000E00053030008530300080000000053030008F6
:1000F0005303000853030008530300085303000888
:100100005303000853030008530300085303000877
:100110005303000853030008530300085303000867
:100120005303000853030008530300085303000857
:100130005303000853030008530300085303000847
:1001400000000000000000000000000000000000AF
:100150005303000853030008530300085303000827
:100160005303000853030008530300085303000817
:10017000530300085303000859050008000000005D
:1001800053030008530300085303000853030008F7
:1001900053030008530300085303000853030008E7
:1001A00053030008530300085303000853030008D7
:1001B00053030008530300085303000853030008C7
:1001C00053030008530300085303000853030008B7
:1001D00053030008530300085303000853030008A7
:1001E0005303000853030008530300085303000897
:1001F0005303000853030008530300085303000887
:100200005303000853030008530300085303000876
:100210005303000853030008530300085303000866
:1002200053030008530300085303000800000000B4
:1002300053030008530300080000000053030008A4
:100240005303000853030008530300085303000836
:100250005303000853030008530300085303000826
:100260005303000853030008530300085303000816
:100270005303000853030008530300080000000064
:100280005303000853030008530300080000000054
:10029000000000005303000800F002F800F03CF8F2
:1002A0000AA090E8000C82448344AAF10107DA45D1
:1002B00001D100F031F8AFF2090EBAE80F0013F0E7
:1002C000010F18BFFB1A43F001031847F4DA0000CE
:1002D00014DB0000103A24BF78C878C1FAD852075E
:1002E00024BF30C830C144BF04680C6070470000B0
:1002F0000023002400250026103A28BF78C1FBD82F
:10030000520728BF30C148BF0B6070471FB50AF0C5
:1003100007FB1FBD10B510BD00F0D0F81146FFF768
:10032000F5FF09F081FE00F0EEF803B4FFF7F2FFED
:1003300003BC00F0F5F80000094880470948004771
:10034000FEE7FEE7FEE7FEE7FEE7FEE7FEE7FEE785
:10035000FEE7FEE704480549054A064B70470000E2
:10036000518B000899020008F80B0024F8110024B2
:10037000F80D0024F80D002453EA020C00F0698007
:100380002DE9F04B4FF00006002B1FBFB3FA83F5A9
:1003900003FA05F424FA05F65E4012BF1643B2FADA
:1003A00082F502FA05F4C5F120051EBF22FA05FC0C
:1003B00044EA0C04203556EA044C4FEA144418BFB2
:1003C000641C4FF000084FF00009904271EB030CE1
:1003D00039D3002919BFB1FA81F701FA07F6B0FA4B
:1003E00080F700FA07F6C7F120071EBF20FA07FCC6
:1003F00046EA0C062037B6FBF4FCA7EB0507103FD6
:1004000007F01F0BCBF120062CFA06F60CFA0BFBBB
:1004100044BFB3460026202FA4BF5E464FF0000B1A
:100420005BEA060C08BF4FF0010B19EB0B0948EB18
:100430000608ABFB027C06FB02CC0BFB03CCC01B0B
:1004400071EB0C01C1E70B46024641464846BDE848
:10045000F08B13B5084318BF4FF0FF300146AFF3E0
:100460000080BDE81C4070474FF0000200B5134605
:1004700094469646203922BFA0E80C50A0E80C50C4
:10048000B1F12001BFF4F7AF090728BFA0E80C5075
:1004900048BF0CC05DF804EB890028BF40F8042B6E
:1004A00008BF704748BF20F8022B11F0804F18BFDB
:1004B00000F8012B7047704770477047754600F091
:1004C0002BF8AE4605006946534620F007008546E6
:1004D00018B020B5FFF73EFFBDE820404FF0000602
:1004E0004FF000074FF000084FF0000BAC46ACE8AF
:1004F000C009ACE8C009ACE8C009ACE8C00921F00B
:1005000007018D46704710B50446AFF300802046C2
:10051000BDE81040FFF709BF0048704710000024F5
:1005200001491820ABBEFEE726000200704700001C
:10053000FEE7000000000000806B816C496D02291D
:1005400006D0012180F83510C16C41F04001C16432
:1005500000F092B90000000040F27800C2F20040C2
:1005600000F092B90000000040F2C800C2F2004062
:1005700000F046BC0000000040F20F42D0F800C07E
:10058000C4F20202944511DC6F22C4F202029445C7
:1005900022DC3F22C4F20202944539DC1022C4F26C
:1005A000020294455AD0282254E000BF40F26F4224
:1005B000C4F2020294451BDC40F23F42C4F2020244
:1005C00094452DDC40F21042C4F20202944545D01D
:1005D00040F228423EE000BF9F22C4F2020294454E
:1005E00028DC7022C4F20202944537D0882231E020
:1005F00040F29F42C4F20202944523DC40F2704272
:10060000C4F20202944529D040F2884222E000BFA1
:100610004022C4F20202944520D058221AE000BFC2
:1006200040F24042C4F20202944517D040F25842D0
:1006300010E000BFA022C4F2020294450ED0B822FE
:1006400008E000BF40F2B842C4F20202944505D06F
:1006500040F2A042C4F20202944517D10CF0F80215
:100660004AF6AB23103ACAF6AA23A2FB03310AA327
:100670005F2AC1F302115B5C40F2FF312CEA0101F9
:10068000C36588BF04318165084670472CF0FF01BF
:1006900081650846704700BF000610160006101658
:1006A0007047000000000000EFF3108072B600BF3A
:1006B000FEE700000000000080B50A68002A02681A
:1006C00022D022F4F84C4A6AD1E9073E43EA0C03EF
:1006D00043EA0E031A430260426847F6FF7322EAB8
:1006E000030CCA68D1E9013E43EA0C03D1F810C0FB
:1006F00043EA0E031A434B6942EA0C0289691A4322
:1007000011434160002080BD47F6FF7322EA030CCD
:10071000CA68D1E9013E43EA0C03D1F810C043EAAC
:100720000E031A434B6942EA0C02D1F818C01A436F
:10073000CB6942EA0C02D1F820C01A43496A42EA66
:100740000C0211430160002080BD00000000000089
:100750000246406943F6FE7320EA0303002043EAA1
:10076000410151617047000010B5024600696FF306
:1007700015006FF01F04D1E900ECD1E9023140EA25
:100780000E0004EB431340EA0C000343002043EA4D
:100790004121116110BD00002DE9F041002A82685D
:1007A00036D040F6FF734FF20006CFF60F73CFF648
:1007B000FF761A40CB684F696FF00F0406EB0333E6
:1007C0000026CFF6F0761A4306EB07573A438260CD
:1007D000C2688E68D1E9003702F07042013B04EB39
:1007E00007176FF0FF040D6904EB062600241A4377
:1007F000CFF6FF7489693A4304EB0545013932436A
:100800002A4342EA0161C1600020BDE8F08100BFD7
:1008100001F1080602F0704CD1E900E278CE6FF0E9
:100820000F074FF2000807EB02126FF0FF0707EB0C
:100830000323AEF1010747EA0C07CFF6FF7840F239
:10084000000E3A4308EB0434CFF6FF7E00271A432C
:1008500089690EEB0545CFF6F077224307EB065387
:1008600001392A431A4342EA016181600020BDE850
:10087000F081000000000000704700000000000050
:10088000704700000000000070B50446006840F2A8
:1008900039560569C0F60006690721D4A8072DD48A
:1008A000E8063BD4280705D5206808214161204689
:1008B00000F042F9E80708BF70BD206801688907A9
:1008C00003D5C16821F01E01C160C16821F001019A
:1008D000C160012141612046BDE87040FFF7D0BFF3
:1008E00004214161E06C40F00200E06484F83510BE
:1008F000A06C066500F024F9A807D1D52168022272
:10090000A06C4A61E16C41F00101E164042184F8CA
:100910003510066500F014F9E806C3D520681021EB
:100920004161204600F054F82807C3D5BCE7000019
:10093000002849D0B0B5044690F8350010B92046DB
:1009400000F04AF8022084F83500D4F818E04FF29D
:100950000705BEF1000FCFF6E0751CBF00206062F6
:1009600094E80510E368102A016801EA05010160B6
:10097000D4E9045141EA0301236A41EA0501656AA9
:1009800041EA0C0141EA0301A36A41EA0501E56A73
:1009900041EA0301236B41EA0501056841EA0301CD
:1009A00041EA050141EA0E0141EA0201016001D17B
:1009B000E1698161C16841F01E01C1600020E0640D
:1009C000012184F83510B0BD0120704700000000FF
:1009D00070470000000000002DE9F04385B0044698
:1009E0000020C4F602002168814203D005B0BDE8B2
:1009F000F08300BF44F2E0416D46C5F6020100F10C
:100A000080504FF00208002751F8042C4FF00D09D8
:100A100042F0010241F8042C51F8042C02F00102CA
:100A20000092009A0A6842F001020A600A6802F025
:100A300001020092009A0A6842F080020A600A6885
:100A400002F080020092009A0A6842F004020A60F2
:100A50000A6802F004020092009A0A6842F4807266
:100A60000A60096801F480710091009940210091A9
:100A70002946CDF80480CDE90277CDF8109001F039
:100A800067FB40F600064FF4F850C5F6020629460B
:100A9000CDE9000806F5A050CDF81090CDE9027719
:100AA00001F056FB4FF400602946CDE900083046BE
:100AB000CDF81090CDE9027701F04AFBF0202946ED
:100AC000CDE9000806F5C050CDF81090CDE90277C9
:100AD00001F03EFB40F2C8051020C2F20045C4F20E
:100AE000020028604B20C5E901074FF480602861AF
:100AF0004FF4805068614FF48040A8614FF48070DB
:100B0000EF60C5E907070420686203202F63C5E989
:100B10000A07284600F08CFD08B1FFF7C5FD4E20FE
:100B200000210022A564AC6301F086FE4E2001F096
:100B30006FFE05B0BDE8F0837047000000000000C4
:100B400080B5D8B190F83510022919D140F20F4282
:100B50000168C4F20202914216DC6F23C4F2020360
:100B6000994227DC3F23C4F2020399423EDC102362
:100B7000C4F2020399425FD0282359E0012080BDCE
:100B800080214165012080BD40F26F43C4F2020321
:100B900099421BDC40F23F43C4F2020399422DDC30
:100BA00040F21043C4F20203994245D040F2284378
:100BB0003EE000BF9F23C4F20203994228DC702369
:100BC000C4F20203994237D0882331E040F29F43B8
:100BD000C4F20203994223DC40F27043C4F20203E0
:100BE000994229D040F2884322E000BF4023C4F25A
:100BF0000203994220D058231AE000BF40F240433C
:100C0000C4F20203994217D040F2584310E000BFEB
:100C1000A023C4F2020399420ED0B82308E000BF1B
:100C200040F2B843C4F20203994205D040F2A04317
:100C3000C4F20203994275D191424FF0040280F848
:100C4000352011DC6F20C4F20200814222DC3F20FB
:100C5000C4F20200814239DC1020C4F20200814259
:100C600059D0282054E000BF40F26F40C4F2020087
:100C700081421BDC40F23F40C4F2020081422DDC85
:100C800040F21040C4F20200814244D040F22840B9
:100C90003EE000BF9F20C4F20200814228DC7020A9
:100CA000C4F20200814236D0882031E040F29F40F9
:100CB000C4F20200814223DC40F27040C4F2020020
:100CC000814228D040F2884022E000BF4020C4F298
:100CD000020081421FD058201AE000BF40F240407D
:100CE000C4F20200814216D040F2584010E000BF2A
:100CF000A020C4F2020081420DD0B82008E000BF5D
:100D000040F2B840C4F20200814204D040F2A04058
:100D1000C4F202008142086820F00100086000204F
:100D200080BD00BF0A6822F00E020A6045F25742F9
:100D3000C5F6020291420A6822F001020A600FDC45
:100D400045F22F42C5F60202914219DC45F20842F3
:100D5000C5F60202914229D045F21C4222E000BFB2
:100D600045F27F42C5F60202914213DC45F2584239
:100D7000C5F60202914219D045F26C4212E000BF62
:100D800045F23042C5F6020291420FD045F244428C
:100D900008E000BF45F29442C5F60202914205D038
:100DA00045F28042C5F6020291421AD1D0E9181CE0
:100DB000D0E916E30A6822F480720A6003F01F018A
:100DC000012202FA01F1CEF80410816ECCF8041071
:100DD000C16E31B10A6822F480720A60D0E91C1237
:100DE0004A60012180F83510026D002180F834102E
:100DF0000AB190470021084680BD000000000000B5
:100E00002DE9F04782B00021019140F2080104462B
:100E1000C2F2004148F2B512C1F64E32A56D096822
:100E200040F26F490068C4F20209A1FB021848456C
:100E30002E68296816DC9F21C4F2020188422DDC4D
:100E40005721C4F20201884252DC1021C4F202018F
:100E500088427CD02821C4F20201884277D0402108
:100E600070E000BF45F22F42C5F60202904229DC35
:100E700040F2B742C4F20202904245DC40F27041B7
:100E8000C4F20201884262D040F28841C4F20201F9
:100E900088425CD040F2A04154E000BF40F22741BC
:100EA000C4F2020188423FDCA021C4F20201884260
:100EB0004DD0B821C4F20201884248D040F210411E
:100EC00040E000BF45F26B42C5F60202904275DC7D
:100ED00045F23042C5F60202904200F0828045F2AF
:100EE0004442C5F6020290427BD045F2584273E07C
:100EF0005821C4F20201884229D07021C4F20201B3
:100F0000884224D088211DE040F2B842C4F2020297
:100F100090421CD045F20842C5F60202904260D0D1
:100F200045F21C4258E000BF40F22841C4F20201E1
:100F300088420CD040F24041C4F20201884206D0FF
:100F400040F25841C4F20201884240F05A83E16DF8
:100F5000082201F01F0140F20F4A8A40C4F2020A3F
:100F6000324200F0E68050454FF0040312DC6F2758
:100F7000C4F20207B8426FDC3F27C4F20207B8424E
:100F800000F3A4801027C4F20207B84200F0C58025
:100F90002827BDE048456BDC40F23F47C4F202071A
:100FA000B84200F39B8040F21047C4F20207B842F7
:100FB00000F0B38040F22847AAE000BF45F26C423F
:100FC000C5F6020290420CD045F28042C5F60202FC
:100FD000904206D045F29442C5F60202904240F09B
:100FE00010830268E36D03F01F0304279F400F4244
:100FF00018BF12F0040621D102279F400F4218BFEC
:1010000012F002064CD1D940090740F1FA8212F0E1
:10101000080100F0F682016821F00E010160012054
:1010200000FA03F16960606584F835000020E16C26
:1010300084F83400002940F0DC82E2E211046F60A1
:1010400026D4910603D4016821F004010160216CCB
:10105000002940F0CE82D4E29F27C4F20207B842B2
:1010600046DC7027C4F20207B84256D088274FE00A
:1010700040F29F47C4F20207B84241DC40F2704799
:10108000C4F20207B84248D040F2884740E000BFAF
:10109000D00300F1B382A16C002940F0AA82B0E233
:1010A00011046F6000F1B082910609D4016821F04B
:1010B0000A010160012084F83500002084F8340022
:1010C000E16B002940F095829BE200BF4027C4F20B
:1010D0000207B84221D058271AE000BF40F240472B
:1010E000C4F20207B84218D040F2584710E000BFDF
:1010F000A027C4F20207B8420FD0B82708E000BF0B
:1011000040F2A047C4F20207B84206D040F2B84706
:10111000C4F20207B84218BF082307681F4208D06C
:10112000036823F004030360AA60626D42F00102C9
:10113000626501228A4032426FD0504510DC6F2335
:10114000C4F2020398421DDC3F23C4F2020398421A
:1011500034DC1023C4F20203984256D028234FE017
:1011600048451BDC40F23F43C4F2020398422DDCA9
:1011700040F21043C4F20203984246D040F22843A2
:101180003EE000BF9F23C4F20203984228DC702394
:10119000C4F20203984238D0882331E040F29F43E2
:1011A000C4F20203984223DC40F27043C4F202030B
:1011B00098422AD040F2884322E000BF4023C4F284
:1011C0000203984221D058231AE000BF40F2404366
:1011D000C4F20203984218D040F2584310E000BF16
:1011E000A023C4F2020398420FD0B82308E000BF46
:1011F00040F2A043C4F20203984206D040F2B84342
:10120000C4F20203984240F0058243691B0604D5EC
:10121000AA60626D42F00202626504228A40324294
:101220006FD0504510DC6F23C4F2020398421DDCDE
:101230003F23C4F20203984234DC1023C4F20203B9
:10124000984256D028234FE048451BDC40F23F43EC
:10125000C4F2020398422DDC40F21043C4F20203B0
:10126000984246D040F228433EE000BF9F23C4F29C
:101270000203984228DC7023C4F20203984238D05B
:10128000882331E040F29F43C4F20203984223DCFA
:1012900040F27043C4F2020398422AD040F28843DD
:1012A00022E000BF4023C4F20203984221D0582319
:1012B0001AE000BF40F24043C4F20203984218D043
:1012C00040F2584310E000BFA023C4F2020398424A
:1012D0000FD0B82308E000BF40F2A043C4F20203DD
:1012E000984206D040F2B843C4F20203984240F05C
:1012F000998103689B0704D5AA60626D42F00402DD
:101300006265102202FA01F1314200F081805045FD
:101310004FF0080210DC6F23C4F2020398421DDC78
:101320003F23C4F20203984234DC1023C4F20203C8
:10133000984256D028234FE048451BDC40F23F43FB
:10134000C4F2020398422DDC40F21043C4F20203BF
:10135000984246D040F228433EE000BF9F23C4F2AB
:101360000203984228DC7023C4F20203984238D06A
:10137000882331E040F29F43C4F20203984223DC09
:1013800040F27043C4F2020398422AD040F28843EC
:1013900022E000BF4023C4F20203984221D0582328
:1013A0001AE000BF40F24043C4F20203984218D052
:1013B00040F2584310E000BFA023C4F20203984259
:1013C0000FD0B82308E000BF40F2A043C4F20203EC
:1013D000984206D040F2B843C4F20203984218BFC4
:1013E00004220368134213D0A9600168490301680D
:1013F00008D4C90508D4016821F008010160216CF6
:1014000021B905E008034FD4216C09B12046884773
:10141000E06D00F01F01202000FA01F2324200F0DE
:10142000AB8020681023504510DC6F27C4F2020700
:10143000B8421DDC3F27C4F20207B84238DC10274F
:10144000C4F20207B8425AD0282753E048451BDCB3
:1014500040F23F47C4F20207B84231DC40F2104785
:10146000C4F20207B8424AD040F2284742E000BF27
:101470009F27C4F20207B8422CDC7027C4F202078F
:10148000B8423CD0882735E040F29F47C4F20207BB
:10149000B84227DC40F27047C4F20207B8422ED0AF
:1014A00040F2884726E000BFA16C0029AED1AFE72B
:1014B0004027C4F20207B84221D058271AE000BFE3
:1014C00040F24047C4F20207B84218D040F25847F1
:1014D00010E000BFA027C4F20207B8420FD0B8271F
:1014E00008E000BF40F2A047C4F20207B84206D0AD
:1014F00040F2B847C4F20207B84218BF0223076897
:101500001F4239D0AA6094F83520042A02681BD102
:1015100022F016020260426922F080024261226CCF
:101520000AB9A26C1AB1026822F0080202603F20D8
:101530008840A860012084F83500216D0020002932
:1015400084F8340055D15CE0510301680CD4C9051E
:101550000ED4016821F010010160012084F83500EB
:10156000002084F8340003E0080301D4616C00E03B
:10157000E16B09B120468847606D002841D0606D5D
:10158000C00734D0042084F8350020684FEA982141
:10159000026822F001020260019A013201928A423D
:1015A0001AD80268D20717D0019A013201928A42F2
:1015B00012D80268D2070FD0019A013201928A42F2
:1015C0000AD80268D20707D0019A013201928A42F2
:1015D00002D80268D207DFD10068C0074FF00300CD
:1015E00008BF012084F83500002084F83400E16C45
:1015F00039B1204602B0BDE8F0470847216C002908
:10160000F7D102B0BDE8F087D0030DD4616C00299A
:10161000EFD1F6E7026804228A4032427FF401AE3D
:101620006FE600BF02686CE6E16B0029E1D1E8E7F4
:101630002DE9F041044600F073FEFCB140F26F4822
:1016400005462068C4F2020840451BDC9F21C4F215
:101650000201884232DC5721C4F20201884259DC7F
:101660001021C4F20201884200F083802821C4F2D4
:101670000201884200F07D80402175E00120BDE834
:10168000F08100BF45F22F41C5F60201884229DCF6
:1016900040F2B741C4F20201884247DC40F2704197
:1016A000C4F20201884264D040F28841C4F20201CF
:1016B00088425ED040F2A04156E000BF40F2274190
:1016C000C4F20201884241DCA021C4F20201884236
:1016D0004FD0B821C4F2020188424AD040F21041F2
:1016E00042E000BF45F26B41C5F60201884200F3BB
:1016F000C18045F23041C5F60201884200F0CD803C
:1017000045F24441C5F60201884200F0C68045F228
:101710005841BDE05821C4F20201884229D070210D
:10172000C4F20201884224D088211DE040F2B84171
:10173000C4F2020188421CD045F20841C5F60201FC
:10174000884200F0AA8045F21C41A1E040F2284105
:10175000C4F2020188420CD040F24041C4F20201BE
:10176000884206D040F25841C4F20201884240F05B
:101770002981022184F83510002184F83410016891
:1017800021F00101016000BF20680168C9070DD088
:1017900000F0C6FD401B0628F6D32020606503201C
:1017A00084F835000120BDE8F08100BF48F23F0217
:1017B00004F108060168CFF6106211406CCE1143A7
:1017C000A2691943E3692943256A0E43616A3343D9
:1017D000042943EA050343EA020303D1D4E90B6574
:1017E0002E43334341F20006C5F600463668B6F193
:1017F000005F1DD36668A6F12905292D18D8DFE8FA
:1018000005F01515151515151717171717171717AD
:101810001717171717171717151515151717171760
:1018200015151717171717171515151543F48013E6
:1018300003600429436923F0070341EA030140F0F0
:10184000DD80D4E90A53002B41EA050100F0D6807F
:10185000B2F5005F00F0B880002A40F0C180022D90
:1018600000F0C180012D00F0B580002D00F0BB809C
:10187000C4E000BF45F26C41C5F6020188420CD0BD
:1018800045F28041C5F60201884206D045F29441F6
:10189000C5F60201884240F0958004F1080E02214D
:1018A00084F83510002184F834100168A3699EE89B
:1018B0000450A2F18007E669B7FA87F765697F09E6
:1018C000402A4FEA873743EA06026FF3101142EAD3
:1018D000050208BF102741EADC0142EA0E02236A32
:1018E000394341EAD20141EA131140F80819C0B264
:1018F000CD2148433C2101EA9020E0652046FEF7D7
:101900003BFEE16D012201F01F0102FA01F141608D
:101910002068404500F381809F21C4F20201884283
:1019200014DC5721C4F20201884227DC1021C4F2E2
:101930000201884200F0C7802821C4F202018842D7
:1019400000F0C1804021C4F20201B9E040F2274119
:10195000C4F20201884221DCA021C4F202018842C3
:1019600000F0B180B821C4F20201884200F0AB80DF
:1019700040F21041C4F20201A2E000BF5821C4F2BB
:101980000201884200F09F807021C4F20201884267
:1019900000F099808821C4F2020191E040F22841D0
:1019A000C4F20201884200F08E8040F24041C4F24D
:1019B0000201884200F0878040F25841C4F20201DF
:1019C0007EE000BF4020E9E6032D17D8DFE805F0F0
:1019D0000E0B0E02A3F1C072B2FA82F2520904E0B9
:1019E000032D03D30AD1C3F300623AB140206065EE
:1019F000012084F83500BDE8F08100BF4161204638
:101A0000FEF7BAFDE16D3F2201F01F0102FA01F17C
:101A10008160206840457FF77FAF45F22F41C5F6D2
:101A20000201884216DC40F2B741C4F2020188424A
:101A300026DC40F27041C4F20201884243D040F2F9
:101A40008841C4F2020188423DD040F2A041C4F274
:101A5000020135E045F26B41C5F6020188421FDC08
:101A600045F23041C5F6020188422CD045F244418E
:101A7000C5F60201884226D045F258411EE000BF5B
:101A800040F2B841C4F2020188421CD045F208413C
:101A9000C5F60201884216D045F21C410EE000BF97
:101AA00045F26C41C5F6020188420CD045F29441E2
:101AB000C5F60201884206D045F28041C5F6020112
:101AC000884240F0E18045F2574C45F6FC01C5F6EE
:101AD000020CC5F6020160450EDC45F22F42C5F648
:101AE0000202904218DC45F20842C5F6020290421A
:101AF00028D045F21C4221E045F27F42C5F60202A1
:101B0000904213DC45F25842C5F60202904219D0C9
:101B100045F26C4212E000BF45F23042C5F60202C7
:101B200090420FD045F2444208E000BF45F2944293
:101B3000C5F60202904205D045F28042C5F6020287
:101B4000904247D100F0FC024CF6CD43083ACCF667
:101B5000CC43A2FB0323A1F1FC05A1F17C061B09E8
:101B600005EB830503F01F02A3682566802B4FF069
:101B7000010303FA02F26666A26605D100206060E6
:101B8000286072601EE000BF6768FBB2013F072F4C
:101B90002B60726016D85E1E082E19D2604501F1C6
:101BA000440237DC45F22F47C5F60207B84241DC54
:101BB00045F20847C5F60207B84259D045F21C471E
:101BC0004AE000BF00206067C4E91B005CE000BF82
:101BD000E06E54E000F0F8024AF6AB23103ACAF681
:101BE000AA23A2FB032740F20F43C4F202030825F5
:101BF0003A09984203F1AA06134688BF05EB17136A
:101C000040F60005B042C4F2020505F1800628BF87
:101C10001346A5E745F27F47C5F60207B84213DC35
:101C200045F25847C5F60207B84221D045F26C4745
:101C300012E000BF45F23047C5F60207B84217D0A0
:101C400045F2444708E000BF45F28047C5F6020769
:101C5000B8420DD045F29447C5F60207B84207D006
:101C600040F60000C4F2020000F1FC0100F5A07291
:101C700001EB83000121E066B1402267616700212A
:101C80000160D4E91C01416000206065012184F8F5
:101C90003510BDE8F0810000B0B5044600F040FB0F
:101CA00040F200010546C2F20041621C097818BFEB
:101CB0000C4400BF00F034FB401BA042FAD3B0BD7F
:101CC0002DE9F04F85B0A8B34AF200080446C4F2EB
:101CD00000080068404531D094F89810A9B3816994
:101CE00021F01001816100F01BFB0546206881692D
:101CF000090705D500F014FB401B0B28F6D310E0B4
:101D0000816941F00101816100F00AFB054600BFD5
:101D100020688169C90721D100F002FB401B0B2814
:101D2000F6D30120D4F89C100843C4F89C0003208B
:101D300084F89800012005B0BDE8F08F08F58071A7
:101D4000616094F898100029C9D1002084F89900A6
:101D5000204600F0B5F92068C1E700BF816941F075
:101D600002018161217C826922F04002012918BFB1
:101D700040328261617C826922F48042012908BF7D
:101D800002F580428261A17C826922F4805201299D
:101D900018BF02F580528261816921F44073D4E951
:101DA00002120B438361836923F0A40383610369F7
:101DB00023F0100303619AB1012A0DD0022A09D041
:101DC0008369032A43F080038361036943F01002AF
:101DD000026105D1202200E0042283691A43826156
:101DE000D4E90572E369561E6FF0FF02256A02EB23
:101DF0000323B1F5407F43EA4663A5F1010646EAB5
:101E0000030640F20003CFF6FF7303EB074746EAF1
:101E10000701C16110D1D4E90B65D4E90917013F6D
:101E200002EB06226FF00F063A4306EB05173A4322
:101E300003EB01411143C160236E2BB1616ED0F8F9
:101E4000C0201143C0F8C010E16DCDE90313D942A1
:101E50004AF63C11C0F6000109D0D0F8C820A36EA4
:101E600022F0070251F823301A43C0F8C820D4F8F2
:101E700040A0BAF1000F09D0D0F8BC20636C22F06A
:101E8000070251F823301A43C0F8BC20A76C57B1A1
:101E9000D0F8BC20E36C22F0700251F8233042EA03
:101EA0000312C0F8BC20D4F850C0BCF1000F0AD017
:101EB000D0F8BC20636D22F4E06251F8231042EAAE
:101EC0000121C0F8BC10404504D161688A6822F045
:101ED00003028A600021C4F89410C4F89C10012108
:101EE00084F898104FF6FC72D0F88410D4F83C9027
:101EF00021EA0203656CD4E90D120292019543EACE
:101F00008103C0F88430D0F8843023F47F0343EA9F
:101F10000243C0F884305318D0F888606FF38F06FE
:101F200046EA8306C0F88860D0F8886003EB49036E
:101F300026F4FE0646EA0946C0F88860D0F8A0609C
:101F40006FF38F0646EA8306C0F8A060D0F8A06061
:101F500005FB0A3326F4FE0646EA0A46C0F8A060EE
:101F6000D0F8B0606FF38F0646EA8306C0F8B06021
:101F7000D0F8B06026F4FE0646EA0746C0F8B06026
:101F8000E66CD0F8AC506FF38F0506FB07337E4349
:101F900045EA8305C0F8AC50D4F8548008FB0C35F2
:101FA000D0F8F0306FF38F0308FB0CFC43EA850395
:101FB000C0F8F030D0F8F0E0A36D2EF47C1242EAC5
:101FC0000342C0F8F02005EB4302D0F8C0506FF395
:101FD0008F0545EA8202C0F8C020D0F8C020DDF8A5
:101FE0000CB022F47C1242EA0B42C0F8C020019AE5
:101FF000D0F8C05025F07C5502FB0AFE4AF20002E0
:10200000C4F20002DDF810A002EB8101029A01F592
:10201000406145EA0A6501EB8207C0F8C05007EB52
:10202000C902A56E02EB8E00626700EB86060BFB11
:1020300005F2276706EB8C07C4E91E060AFB05F0CC
:1020400007EBC30303EB8202C4F884304DF2FC3388
:10205000E16602EB8000C4F200039842C4F880708D
:10206000C4F88820C4F8900002D920205AE600BFA6
:10207000814221D20A46002042F8040BD4F8903065
:102080009A4215D2486001F10802D4F890309A4281
:102090003FBF0020886001F10C02D4F8903038BFB7
:1020A0009A4205D2C8601031D4F890209142E1D311
:1020B00005B0BDE8F08F00BF002005B0BDE8F08F8F
:1020C00010B5B6B06946044601F10800B821FEF724
:1020D000CBF94AF200012068C4F20001884201D025
:1020E00036B010BD4FF400400090684600240194C3
:1020F00001F022F808B1FEF7D7FA44F2E040C5F645
:102100000200C16841F48071C160C16801F480714E
:1021100031913199016841F080010160006831A975
:1021200000F08000319031984FF4C040319002208F
:10213000CDE932040920359041F600403494C5F6CB
:10214000020000F005F836B010BD000000000000ED
:102150002DE9F04F82B00D68002D00F0CB8000F12A
:10216000264242F2004302F1FF72C5F602030A263C
:1021700098424FEAB22444F2F44E08BF0926092CD3
:1021800040F2040C38BF4FEAB226C5F6020EC5F67F
:10219000000C009600220027002609E001360D6899
:1021A00035FA06F307F1040702F1020200F0A280FB
:1021B000012303FA06F415EA0408EFD0D1F804A0CD
:1021C00003230AF0030B9340ABF101056FEA030907
:1021D000012D0FD88368CD6803EA090395402B438E
:1021E0008360CAF300154368A34305FA06F423434A
:1021F000436005E0BBF1030F02D14FF0030B21E078
:10220000C3688C6803EA09039440BBF1020F43EAF8
:102210000403C36016D16FF0030307F01C0503EA43
:1022200056030F24034404FA05FBD3F820A00C69DD
:102230002AEA0B0AAC4044EA0A041C62D1F804A062
:102240000AF0030B03680BFA02F403EA09031AF419
:10225000403F43EA04030360A0D0DEF8003040F2C0
:10226000084A43F00203CEF80030DEF80030C5F62D
:10227000000A03F00203019326F00303019C07F018
:102280000C040F2553F80A90A54029EA0509009D82
:1022900005FA04F444EA090443F80A404FF0B04A4E
:1022A000DAF800904C6849EA0805E30258BF29EAC9
:1022B0000805A302CAF80050DCF8009049EA0805B6
:1022C00058BF29EA0805A303CCF80050DCF8809039
:1022D00049EA080558BF29EA0805E403CCF880500C
:1022E000DCF87C3043EA080558BF23EA0805CCF83F
:1022F0007C5053E702B0BDE8F08F00000000000002
:10230000002A08BF09048161704700000000000036
:1023100041F20000C5F600400068000C7047000064
:1023200040F6F430C2F20040006870470000000040
:1023300070B582B000B3044690F8D50328B90020E8
:1023400084F8D403204600F03BF8032084F8D5033A
:10235000206807F06DFBD4E90001267CD4E9022354
:10236000009607F04DFA58B10125022684F8D5638E
:10237000284602B070BD00BF0125284602B070BDDE
:1023800020680121012507F097FC4FF0020628B1D3
:1023900084F8D563284602B070BD00BFD4E90001BF
:1023A000257CD4E90223009507F04AFB0546002866
:1023B0000CBF0126012584F8D563284602B070BD04
:1023C000B0B5B8B002A9044601F10800B821FEF783
:1023D0004BF800212068C4F20801884202D038B0CE
:1023E000B0BD00BF4FF4802002904FF44010249005
:1023F00002A80024039400F09FFE08B1FEF754F9F0
:1024000000F082FA44F2D84533A9C5F60205A8685F
:1024100040F00100A860A86800F0010033903398F4
:102420004FF4C05033900220CDE934040A20379095
:1024300000203694C5F60200FFF78AFE286840F0B7
:1024400000602860286800F000600190019838B0B2
:10245000B0BD00000000000090F84120202A03D108
:1024600090F84020012A01D102207047242280F8F0
:1024700041200268136823F001031360136823F4FA
:1024800080531360136819431160116841F0010112
:102490001160202180F84110002180F8401008468A
:1024A000704700000000000090F84120202A03D16E
:1024B00090F84020012A01D102207047242280F8A0
:1024C00041200268136823F001031360136823F4AA
:1024D000706343EA01211160116841F0010111604C
:1024E000202180F84110002180F8401008467047F4
:1024F00010B310B5044690F8410028B9002084F8C4
:102500004000204600F04CF8242084F8410094E874
:102510000910E2680168012A21F00101016023F03D
:1025200070610161816821F40041816006D14CF441
:10253000004181600CE000BF01207047022A4CF48A
:102540000441816004D1416841F4006103E000BFAF
:10255000416821F40061416004F1100C416841F0D0
:10256000007141F400414160C16821F40041C16043
:102570009CE80E10114341EA0321C160216A41EA3F
:102580000C010160016841F00101016000206064FC
:10259000202184F84110206384F8420010BD00001F
:1025A000B0B5B8B0044602A8C0210025CDE9365523
:1025B000CDE934553395FDF757FF41F600412068CA
:1025C000C5F6000188423DD045F60001C4F2000185
:1025D00088426BD045F20041C4F20001884263D1C9
:1025E0000820029002A80024039400F0A5FD08B181
:1025F000FEF75AF844F2E04533A9C5F6020528680B
:1026000040F002002860286800F002000190019864
:10261000C02033901220CDE934040420379040F2DA
:1026200000403694C5F60200FFF792FDA86840F41A
:102630000010A860A86800F400100190019838B05C
:10264000B0BD00BF1020029002A8039500F074FDF9
:1026500008B1FEF729F844F2E04440F20041C5F623
:102660000204C5F60201206840F0080020602068DE
:1026700000F00800019001984FF440503390122070
:1026800034900020CDE935000420379001F500603A
:1026900033A9FFF75DFD606940F08000606160690B
:1026A00000F080000190019838B0B0BD0820029081
:1026B00002A80024039400F03FFD08B1FDF7F4FFE9
:1026C00044F2E04540F20041C5F60205C5F60201BC
:1026D000286840F080002860286800F080000190A1
:1026E0000198302033901220CDE934040420379033
:1026F00001F5C05033A93694FFF72AFDA86840F4CD
:102700008000A860A86800F480000190019838B0AB
:10271000B0BD00000000000040F2000040F6F431BF
:10272000C2F20040C2F2004100780A68104408601A
:10273000704700000000000080B5032000F0ACF8F6
:1027400001F056FC44F218414AF69413C5F6020112
:10275000C0F600030A68096801F00F01C2F3032202
:10276000595C9A5C01F01F0102F01F02D04040F258
:102770000C02C2F2004220FA01F1116040F208019D
:10278000C2F2004108600F2000F00AF800281CBFC8
:10279000012080BD00F02CF8002080BD000000006A
:1027A00070B540F20006C2F200463178E1B104464D
:1027B00040F20800C2F200404FF47A72B2FBF1F12D
:1027C0000068B0FBF1F003F093FA0F2C4FF0010515
:1027D00008D838B94FF0FF3000222146002500F01C
:1027E0002BF87460284670BD012070BD0000000009
:1027F00081B044F2F440C5F60200016841F00201E4
:102800000160006800F002000090009801B070477D
:10281000002848BF704781B200F01F00012249091B
:1028200002FA00F04EF20012CEF2000242F821004D
:10283000704700000000000070B54EF60C5C4FF0D1
:10284000FF36CEF2000C00F1604505F56445DCF87A
:102850000030C3F3022E8EF00703042B28BF04239D
:10286000BEF1030406FA03F321EA030100F00F03AB
:1028700038BF0024043B0028634406FA04F048BF34
:1028800003F10C05A14022EA000008430001287072
:1028900070BD0000000000004EF60C514FF6FF0323
:1028A000CEF200010A681A4060F30A2242F080600A
:1028B00040F0FD7008607047B0B544F60C05C5F6F1
:1028C000020529684907296806D401F00701081A9A
:1028D00018BF0120B0BD00BF21F0070108432860E8
:1028E000FFF71EFD044600BF55F8080C800407D40E
:1028F000FFF716FD001BB0F57A7FF5D90120B0BDBA
:102900000020B0BD0000000044F60C00C5F6020037
:10291000016841F080710160704700000000000014
:1029200080B501F0DDFA44F220414AF69412C5F672
:102930000201C0F600020968C1F30211515C01F006
:102940001F01C84080BD000080B544F2304EC5F67E
:10295000020E5EF8083C5EF8081CC1F3051C5EF828
:10296000041CBCF1000FDEF8042019D001F00101B5
:1029700003F003034942022B01EAD2016FF35F31F6
:1029800000EE101AB8EE400A10D0012B12D01BB97D
:102990005EF8301C890611D49FED361A1CE000BF8A
:1029A00000218160C0E9001180BD00BF9FED301A99
:1029B00012E000BF9FED2D1A0EE000BF5EF8301C44
:1029C00049F20002C0F2D032C1F3C10122FA01F192
:1029D00001EE101AB8EE411ADEF800109FED263A0B
:1029E0006FF35F2102EE101ADEF80010C1F34621EA
:1029F000B8EE422A00EE032A00EE10CAB7EE003A03
:102A0000B8EE400A81EE000A32EE031A02EE101A06
:102A1000B8EE422A20EE010A32EE031A80EE011AC5
:102A2000BCEEC11A80ED001ADEF80010C1F30641B9
:102A300001EE101AB8EE411A31EE031A80EE011AB7
:102A4000BCEEC11A80ED011ADEF80010C1F3066178
:102A500001EE101AB8EE411A31EE031A80EE010AA7
:102A6000BCEEC00A10EE101A816080BD0024744ACA
:102A700020BCBE4B0024744C000000390000000054
:102A800080B544F2384EC5F6020E5EF8103C5EF892
:102A9000101C5EF80C2CC1F3053CDEF80410BCF1F0
:102AA000000F15D0C908D20601EAE2716FF35F3159
:102AB00000EE101A03F003010229B8EE400A0DD00F
:102AC00081B95EF8381C890610D49FED361A1BE0D8
:102AD00000218160C0E9001180BD00BF9FED301A68
:102AE00012E000BF9FED2D1A0EE000BF5EF8381C0B
:102AF00049F20002C0F2D032C1F3C10122FA01F161
:102B000001EE101AB8EE411ADEF800109FED263AD9
:102B10006FF35F2102EE101ADEF80010C1F34621B8
:102B2000B8EE422A00EE032A00EE10CAB7EE003AD1
:102B3000B8EE400A81EE000A32EE031A02EE101AD5
:102B4000B8EE422A20EE010A32EE031A80EE011A94
:102B5000BCEEC11A80ED001ADEF80010C1F3064188
:102B600001EE101AB8EE411A31EE031A80EE011A86
:102B7000BCEEC11A80ED011ADEF80010C1F3066147
:102B800001EE101AB8EE411A31EE031A80EE010A76
:102B9000BCEEC00A10EE101A816080BD0024744A99
:102BA00020BCBE4B0024744C000000390000000023
:102BB00080B544F2404EC5F6020E5EF8183C5EF851
:102BC000181C5EF8142CC1F3055CDEF80410BCF18F
:102BD000000F15D0C908D20501EAE2716FF35F3129
:102BE00000EE101A03F003010229B8EE400A0DD0DE
:102BF00081B95EF8401C890610D49FED361A1BE09F
:102C000000218160C0E9001180BD00BF9FED301A36
:102C100012E000BF9FED2D1A0EE000BF5EF8401CD1
:102C200049F20002C0F2D032C1F3C10122FA01F12F
:102C300001EE101AB8EE411ADEF800109FED263AA8
:102C40006FF35F2102EE101ADEF80010C1F3462187
:102C5000B8EE422A00EE032A00EE10CAB7EE003AA0
:102C6000B8EE400A81EE000A32EE031A02EE101AA4
:102C7000B8EE422A20EE010A32EE031A80EE011A63
:102C8000BCEEC11A80ED001ADEF80010C1F3064157
:102C900001EE101AB8EE411A31EE031A80EE011A55
:102CA000BCEEC11A80ED011ADEF80010C1F3066116
:102CB00001EE101AB8EE411A31EE031A80EE010A45
:102CC000BCEEC00A10EE101A816080BD0024744A68
:102CD00020BCBE4B0024744C0000003900000000F2
:102CE00010B584B0024641F6FF7300209B1A70EBCA
:102CF00001033BDB40F2FF339B1A70EB010361DA07
:102D000082F480630B4300F0F78082F400630B438E
:102D100000F0188182F48052114340F0868144F221
:102D20000041C5F60201086DC0F30232042A00F228
:102D3000548148F20000C0F2BB00DFE812F0150138
:102D40003701410176010500C86C0A68520700F09E
:102D50004052086802D5002A00F0B981C00540F150
:102D60007581B2F1805F00F0CC816FE147F6FF73AF
:102D70009B1A70EB010355DA82F400430B4300F019
:102D8000F58082F480330B4300F0008182F400224E
:102D9000114340F04A8144F20040C5F60200816DC3
:102DA00001F44031B1F5003F00F02081B1F5803FE2
:102DB00000F02A81002940F010810068000140F1F4
:102DC0000C81F6E082F480730B4357D082F40072DA
:102DD000114340F02A8144F20041C5F60201086D1A
:102DE000C0F38212042A00F2F88048F20000C0F218
:102DF000BB00DFE812F0B900DB00E5001A010500B6
:102E0000C86C0A68520700F04052086802D5002AD0
:102E100000F05D81C00540F11981B2F1805F00F0E2
:102E2000708113E182F400530B434DD082F4804251
:102E3000114340F0FA8044F20044C5F60204A06D4C
:102E4000C0F30270052800F2C880DFE810F0070028
:102E50001101130115011B011D0100BF01F040F814
:102E6000216A4AF69412C0F60002C1F30211515CC5
:102E700001F01F01C84004B010BD00BF44F2004182
:102E8000C5F60201086D00F00702042A00F2A580D1
:102E900048F20000C0F2BB00DFE802F0668892C78B
:102EA000040000BFC86C0A68520700F0405208686E
:102EB00002D5002A00F00B81C00540F1C780B2F1B5
:102EC000805F00F01E81C1E044F20040C5F60200C0
:102ED000016DC1F30241052900F27F80DFE811F0A6
:102EE0000600DE00E800F2000201540004B0BDE874
:102EF000104001F01DB800BF44F20041C5F60201C8
:102F0000886DC0F34252042A00F2678048F2000044
:102F1000C0F2BB00DFE802F0284A5489040000BF79
:102F2000C86C0A68520700F04052086802D5002AAF
:102F300000F0CD80C00540F18980B2F1805F00F0E3
:102F4000E08083E044F20041C5F60201886DC0F3E1
:102F50000262042A41D848F20000C0F2BB00DFE858
:102F600002F003252F646700086834E044F2004053
:102F7000C5F60200016D01F04051B1F1005F4DD086
:102F8000B1F1805F26D041BB00687EE044F2004092
:102F9000C5F60200C16C0068C9031CD500011CD530
:102FA00001A8FFF76DFD039804B010BD086800018B
:102FB00013D501A8FFF764FD019804B010BD00BF50
:102FC0000868800009D501A8FFF7F2FD019804B058
:102FD00010BD00BF0068800102D4002004B010BD05
:102FE00001A8FFF7B1FC029804B010BDC16C0268E3
:102FF000520701F04051026840F17E80002940F004
:103000007B80C2F3C10064E000688000E5D501A8C0
:10301000FFF7CEFD039804B010BD00BF00680001AB
:10302000DBD501A8FFF72CFD029804B010BD00BF4E
:10303000C86C0A68520700F04052086801D5002A9F
:1030400045D0C00502D5B2F1805F5AD00868B2F110
:10305000005F00F400314FF0000004BF47F640006D
:10306000C0F27D10002908BF084604B010BD00BFA3
:10307000206814E020681CE020684007ADD5206877
:1030800025E000BF20682EE0206847F6400180035D
:10309000C0F27D1101EAE07004B010BD00680001CB
:1030A0009BD501A8FFF7ECFC029804B010BD00BF4F
:1030B000006880007FF591AF01A8FFF779FD0298C5
:1030C00004B010BD016849077FF587AF0068C0F301
:1030D000C10049F20001C0F2D03121FA00F004B081
:1030E00010BD00BF006840F60011C005C0F23D01F0
:1030F00001EAE07004B010BDD20509D5B1F1805FDE
:1031000006D140F60010C0F23D0004B010BD00BF73
:103110000068B1F1005F00F400324FF0000004BF1E
:1031200047F64000C0F27D10002A08BF104604B0E8
:1031300010BD0000000000002DE9F0470446C078F3
:1031400044F22C480007C5F6020833D5A06E4FEABA
:10315000305103290CD8DFE801F003111D2600BF10
:10316000D8F8001041F40031C8F800101BE000BF8F
:1031700001266078C0070BD020E000BF04F10800F2
:10318000022104F049FE064660B16078C00715D1FF
:10319000354646E004F12800022104F0D1FE06463F
:1031A0000028F2D1A06ED8F8241021F44011084371
:1031B000C8F8240000266078C007E9D0A06D042874
:1031C0000ED83546DFE800F00412181E1E0000BFBE
:1031D000D8F80000354640F40030C8F8000011E08F
:1031E00001250127607880071FD452E004F1080010
:1031F000002104F011FE04E004F12800002104F095
:103200009FFE05462F461DB1607880070DD440E033
:10321000D8F82400A16D20F0070000250843C8F865
:10322000240037466078800733D5E06D4FEAB01050
:1032300004280DD8DFE800F00412181E1E0000BF9D
:10324000D8F8000040F40030C8F8000012E000BFD9
:1032500001250126607840071FD455E004F10800DD
:10326000002104F0D9FD04E004F12800002104F05D
:1032700067FE05462E461DB1607840070DD443E039
:10328000D8F82400E16D20F4E07000250843C8F868
:1032900024003E466078400736D5D4F8A8004FEAAF
:1032A000705004280CD8DFE800F00313191F1F002A
:1032B000D8F8000040F40030C8F8000014E000BF67
:1032C00001254FF001096078000721D456E000BFC6
:1032D00004F10800002104F09FFD04E004F128003F
:1032E000002104F02DFE0546A9461DB160780007B7
:1032F0000ED443E0D8F82C00D4F8A81020F46000D5
:1033000000250843C8F82C00B1466078000735D581
:10331000D4F8AC004FEA306004280DD8DFE800F0A4
:103320000412181E1E0000BFD8F8000040F4003040
:10333000C8F8000012E000BF01250127E0788007EF
:1033400020D44EE004F10800002104F065FD04E003
:1033500004F12800002104F0F3FD05462F461DB1BD
:10336000E07880070ED43CE0D8F82C00D4F8AC10FC
:1033700020F0E06000250843C8F82C004F46E078B4
:1033800080072ED5E06C4FEA301003280ED8DFE816
:1033900000F00903130900BFD8F8000040F4003022
:1033A000C8F800002E467DB912E000BF01250126B5
:1033B0006078C00619D44CE004F10800022104F042
:1033C0002BFD05462E461DB16078C0060DD440E0A9
:1033D000D8F82000E16C20F0300000250843C8F840
:1033E00020003E466078C00633D5206E4FEA30306C
:1033F00004280DD8DFE800F00412181E1E0000BFDC
:10340000D8F8000040F40030C8F8000012E000BF17
:1034100001250127607880061FD44EE004F10800E2
:10342000002104F0F9FC04E004F12800002104F07C
:1034300087FD05462F461DB1607880060DD43CE01F
:10344000D8F82400216E20F4E04000250843C8F895
:1034500024003746607880062FD5606E4FEA3040F2
:10346000052809D8DFE800F0040E1404040400BFA6
:103470002E46ADB918E000BF012501266078400650
:103480001FD44FE004F10800012104F0C5FC04E062
:1034900004F12800012104F053FD05462E461DB11C
:1034A000607840060DD43DE0D8F82400616E20F429
:1034B000E02000250843C8F824003E466078400616
:1034C00030D5D4F8B0004FEA3070052808D8DFE8CE
:1034D00000F0030D130303032F46ADB918E000BF3E
:1034E000012501276078000620D442E004F108009D
:1034F000012104F091FC04E004F12800012104F012
:103500001FFD05462F461DB1607800060ED430E041
:10351000D8F82C00D4F8B01020F0E0400025084383
:10352000C8F82C0037466078000622D5206F58B1C5
:10353000B0F1005F0CD0B0F1805F2FD1D8F800005F
:1035400040F40030C8F800002E469DB908E000BFE6
:1035500004F10800012104F05FFC05462E464DB938
:10356000D8F82400216F20F0405000250843C8F807
:1035700024003E46E078C00733D0A06C032813D85F
:10358000DFE800F008021A08D8F8000040F4003024
:10359000C8F80000A946BDB91AE000BF0125012600
:1035A000E078C007E9D11CE001254FF00109A078BF
:1035B00040061AD51CE000BF04F10800022104F007
:1035C0002BFC0546A9461DB1A07840060DD50FE09D
:1035D000D8F82000A16C20F0030000250843C8F8AB
:1035E0002000B146A078400602D44F4618E000BF44
:1035F000D8F8D40340F48070C8F8D403FEF790FEE6
:10360000064600BFD8F8D403C00507D4FEF788FEED
:10361000801B6428F6D90325032701E02F468DB1CE
:103620002078C00761D0E06F4FEAF00005283BD852
:10363000DFE800F004404604040400BF002D2E46DD
:1036400046D149E0D8F84410D4F8B400414011F410
:10365000407F11D0D8F84410D8F8442042F480328A
:10366000C8F84420D8F8442021F4407122F4803274
:10367000C8F84420C8F84410B0F5807F40F0DE82DE
:10368000FEF74EFE064641F2883A0325032700BFA7
:10369000D8F84400800700F1CF82FEF741FE801B7E
:1036A0005045F5D9BCE700BF0126012520788007E9
:1036B0001FD44CE004F10800012104F0ADFB04E04C
:1036C00004F12800012104F03BFC05462E461DB103
:1036D000207880070DD43AE0D8F82800E16F20F078
:1036E000380000250843C8F828003E4620788007A7
:1036F0002DD5A06F052809D8DFE800F0040E1404CA
:10370000040400BF2F46ADB918E000BF0127012512
:10371000207840071FD44DE004F10800012104F097
:103720007BFB04E004F12800012104F009FC0546BC
:103730002F461DB1207840070DD43BE0D8F8280073
:10374000A16F20F0070000250843C8F8280037467D
:10375000207840072ED5D4F89400052808D8DFE853
:1037600000F0030D130303032E46ADB918E000BFAC
:10377000012601252078800620D451E004F10800BC
:10378000012104F049FB04E004F12800012104F0C8
:10379000D7FB05462E461DB1207880060ED43FE0AB
:1037A000D8F82C00D4F8941020F007000025084326
:1037B000C8F82C003E462078800631D5D4F8900019
:1037C0004FEA3070052809D8DFE800F0040E140431
:1037D000040400BF2F46ADB918E000BF0127012542
:1037E0002078400620D451E004F10800002104F0C4
:1037F00013FB04E004F12800022104F0A1FB0546BC
:103800002F461DB1207840060ED43FE0D8F828009E
:10381000D4F8901020F0E04000250843C8F82800B4
:1038200037462078400631D5D4F89C004FEAB020C6
:10383000052809D8DFE800F0040E1404040400BFD2
:103840002E46ADB918E000BF0126012520780006FC
:1038500020D454E004F10800002104F0DDFA04E073
:1038600004F12800022104F06BFB05462E461DB131
:10387000207800060ED442E0D8F82C00D4F89C1032
:1038800020F4E05000250843C8F82C003E4620787C
:10389000000634D5D4F8A0004FEA703005280FD8C0
:1038A000DFE800F004141A04040400BF2F46E5B159
:1038B0002068010727D4C1063ED4000355D475E023
:1038C0000127012520680107F5D51CE004F1080057
:1038D000002104F0A1FA04E004F12800022104F020
:1038E0002FFB0546002D2F46E2D1D8F82C00D4F846
:1038F000A01020F4604000250843C8F82C0037468B
:1039000020680107D7D5D4F88400B0F5805F09D1CD
:1039100004F12800022104F013FB002818BF01273E
:10392000D4F88400D8F8281021F440510843C8F88E
:1039300028002068C106C0D5D4F89800B0F5807F73
:1039400009D104F12800022104F0FAFA002818BF76
:103950000127D4F89800D8F82C1021F440710843BE
:10396000C8F82C002068000320D5D4F8A400B0F5D6
:10397000003F0FD0B0F5803F06D078BB04F10800BF
:10398000002104F049FA04E004F12800022104F0C7
:10399000D7FA05462E4655B9D8F82C00D4F8A4100D
:1039A00020F4403000250843C8F82C003E46A0789B
:1039B00040072BD5D4F88800B0F5401F0BD0B0F5E8
:1039C000001F11D0B0F5801F2AD1D8F8000040F4B4
:1039D0000030C8F800002F46CDB90DE001260125C2
:1039E000A0784007E6D411E004F12800012104F09A
:1039F000A7FA05462F4655B9D8F82800D4F88810FC
:103A000020F4401000250843C8F828003746A07865
:103A1000C0070AD13E462168880016D533E000BFB2
:103A200001270125A078C007F4D0206DB0F5803FB4
:103A300010D018BBD8F8000040F40030C8F80000DF
:103A40002E4685B1216888001DD460688A0326D47B
:103A500069E000BF04F10800022104F0DDF9054629
:103A6000002D2E46EED1D8F82000216D20F48030B4
:103A700000250843C8F82000CCE700BF0126012537
:103A800021688800E1D504F12800022104F058FAE9
:103A9000002818BF0126D4E900108A0343D5D4F8C2
:103AA00080206FF0010303EB3223022B0BD34FEA8C
:103AB000322343B1012B40F0B980D8F8003043F4F1
:103AC0000033C8F800303DB3CA022FD4CA0037D43F
:103AD0008A0240D44A0048D4CA0F55D109025DD4A5
:103AE000C10766D181076FD4410779D4010700F17E
:103AF0008380C10600F18C80800607D504F1280080
:103B0000022104F01DFA002818BF0125002D18BF5E
:103B100001252846BDE8F087D8F8283023F4407303
:103B20001A43C8F828203546CA02CFD5D8F8242031
:103B3000636F22F000421A43C8F82420CA00C7D598
:103B400058F81C2CD4F8B83022F480421A4348F8B4
:103B50001C2C8A02BED5D8F82420E36E22F0807295
:103B60001A43C8F824204A00B6D558F81C2C22F471
:103B7000004248F81C2CD4F8BC2058F81C3C1A43CE
:103B800048F81C2CCA0FA9D0D8F82020636D22F069
:103B900040521A43C8F820200902A1D5D8F82810AD
:103BA000D4F88C2021F440011143C8F82810C10733
:103BB00098D004F10800002104F02EF9002818BF65
:103BC0000546606881078FD504F10800012104F0E3
:103BD00023F9002818BF0546606841077FF586AFC6
:103BE00004F10800022104F017F9002818BF054667
:103BF000606801077FF57DAF04F12800002104F023
:103C00009FF9002818BF05466068C1067FF574AFAC
:103C100004F12800012104F093F9002818BF05469B
:103C2000606880067FF572AF68E700BF0125CA02B1
:103C30007FF54CAF7AE700BFD4F8B4004FF6CF73EE
:103C400058F81C2CC0F2FF0300F4407122F47C529F
:103C500003EA10136FF31F30B1F5407F08BF1A431A
:103C6000002548F81C2CD8F844100843C8F8440034
:103C7000FFF7BBBC000000002DE9F04381B0002835
:103C800000F02A8142F200080446C5F20028894665
:103C9000D8F8000000F00F0088420ED2D8F80000DB
:103CA00020F00F0040EA0900C8F80000D8F8000032
:103CB00000F00F00484540F00F81206844F218479B
:103CC0004107C5F602070AD521693A6802F0700279
:103CD000914204D93A6822F0700211433960010719
:103CE0000AD561697A6802F07002914204D97A6853
:103CF00022F0700211437960C1060AD5A1697A6881
:103D000002F4E062914204D97A6822F4E06211433D
:103D1000796081060AD5E169BA6802F070029142C1
:103D200004D9BA6822F070021143B96010F00201A0
:103D30000AD0E2683B6803F00F039A4204D93B685B
:103D400023F00F031A433A60C20746D0386820F4C4
:103D50007061D4E90102012841EA0201396009D009
:103D600003280DD0022811D157F8181C890340F1FF
:103D7000B38010E057F8181CC90540F1AD800AE087
:103D800057F8181C890140F1A78004E057F8181C67
:103D9000490740F1A18057F8081C21F007010843AA
:103DA00047F8080CFEF7BCFA064641F2883500BF1A
:103DB00057F8080C616800F03800B0EBC10F09D06B
:103DC000FEF7AEFA801BA842F2D9032001B0BDE88D
:103DD000F08300BF206800F0020151B1E1683A6849
:103DE00002F00F02914204D23A6822F00F0211430E
:103DF0003960D8F8001001F00F0149450DD9D8F805
:103E0000001021F00F0141EA0901C8F80010D8F8AC
:103E1000001001F00F0149455ED141070AD5216923
:103E20003A6802F07002914204D23A6822F07002BD
:103E30001143396001070AD561697A6802F070029E
:103E4000914204D27A6822F0700211437960C1066F
:103E50000AD5A1697A6802F4E062914204D27A68D4
:103E600022F4E0621143796080060AD5E069B968FE
:103E700001F07001884204D2B96821F07001084352
:103E8000B86000F0B5F839684AF694133A68C0F69D
:103E90000003C1F3032102F00F02595C9A5C01F0A8
:103EA0001F0120FA01F102F01F0040F20C0221FA7A
:103EB00000F0C2F20042106040F2040040F208023A
:103EC000C2F20040C2F200420068116001B0BDE8D9
:103ED000F043FEF765BC00BF012001B0BDE8F083F0
:103EE00080B500F085F844F218414AF69413C5F6FF
:103EF0000201C0F600030A68096801F00F01C2F36D
:103F00000322595C9A5C02F01F0220FA02F201F0CF
:103F10001F0040F20C0122FA00F0C2F200410860DA
:103F200040F20801C2F200410A6080BD00000000BA
:103F300080B500F05DF844F2184C4AF69411C5F6CD
:103F4000020CC0F60001DCF80020DCF8003003F0C1
:103F50000F03C2F30322CB5C8A5C02F01F02D04045
:103F600003F01F0240F20C0320FA02F2C2F20043F7
:103F70001A6040F20803C2F200431860DCF8040043
:103F8000C0F30210085C00F01F0022FA00F080BDB0
:103F900080B500F02DF844F2184C4AF69411C5F69D
:103FA000020CC0F60001DCF80020DCF8003003F061
:103FB0000F03C2F30322CB5C8A5C02F01F02D040E5
:103FC00003F01F0240F20C0320FA02F2C2F2004397
:103FD0001A6040F20803C2F200431860DCF80400E3
:103FE000C0F30220085C00F01F0022FA00F080BD40
:103FF00044F20041C5F602010869C0F3C20003287B
:1040000010D002282ED098BB0868800649F2000024
:10401000C0F2D03058BF70470968C1F3C101C84031
:10402000704700BF8A6A886AC0F3051CC86ABCF181
:10403000000F4B6B22D000F0010002F0030240425F
:10404000022A00EAD3006FF35F3000EE100AB8EEE8
:10405000400A15D0C2B90868800619D49FED281A05
:1040600023E000BF47F64000C0F27D10704700BF5C
:1040700040F60010C0F23D00704700BF00207047BE
:104080009FED1E1A11E000BF9FED1B1A0DE000BF4F
:10409000086849F20002C0F2D032C0F3C10022FA2F
:1040A00000F001EE100AB8EE411A086B9FED153AC8
:1040B0006FF35F2002EE100A086BC0F34620B8EEE3
:1040C000422A013000EE032A00EE10CAB7EE003A91
:1040D000B8EE400A81EE000A32EE031A20EE010A21
:1040E00001EE100AB8EE411A80EE010ABCEEC00AD9
:1040F00010EE100A704700BF0024744A20BCBE4B6B
:104100000024744C0000003970B586B0002844F2D9
:10411000E04640F2000014460D46C5F60206C5F61C
:10412000020023D0316800F5006041F004013160E5
:10413000316801F00401019101994FF4007101917E
:10414000022102910321049100210391059101A90B
:10415000FDF7FEFF56F8D00C20F07E4040EAC41078
:10416000284346F8D00C06B070BD00BF316841F05E
:1041700001013160316801F00101019101994FF4B1
:104180008071019102210291032104910021039188
:10419000059101A9FDF7DCFF56F8D00C20F0FE7068
:1041A0002843204346F8D00C06B070BD0000000044
:1041B000F0B581B0002800F063810446007844F235
:1041C0000046C007C5F6020622D12078800740F1DC
:1041D000BC80306910F03801B06A3FD0182908BFA0
:1041E0005FEA80703AD0E0683168002862D021F040
:1041F000190108433060FEF793F805463068400720
:1042000048D4FEF78DF8401B0228F7D977E100BFAC
:10421000306900F03801B06A102905D018290BD197
:1042200000F00300022807D130688003CDD5606814
:104230000028CAD124E100BF606800284CD0B0F546
:10424000A02F61D0B0F5803F62D0306820F480307C
:104250003060306820F480205DE000BF30684007A7
:10426000E06802D5002800F00B81316821F01901C7
:1042700008433060FEF754F8054600BF3068400739
:1042800008D4FEF74DF8401B02284FF00300F5D983
:1042900021E200BFFEF73CF841F20301884249D811
:1042A00020697168402821F47C314BD141F4003001
:1042B0004AE000BF21F001003060FEF731F805460A
:1042C0003068400741D5FEF72BF8401B02284FF01D
:1042D0000300F5D9FFE100BF306820F48030306082
:1042E000306820F480203060FEF71AF8054600BFE1
:1042F000306880037FF569AFFEF712F8401B642831
:104300004FF00300F4D9E6E1306840F480203060DB
:10431000306840F480303060FEF702F8054600BF98
:10432000306880033FF551AFFDF7FAFF401B64286A
:10433000F6D9E4E07068216920F0FE4040EA0160AF
:1043400002E000BF41EA003070602078C00654D51A
:10435000306900F03801B06A082905D0182919D150
:1043600000F00300012815D13068C00503D5E069CD
:10437000802840F08580FDF7CBFF41F203018842A1
:104380001ED8206A7168202821F0F84132D141F00E
:10439000804031E0E0690028306819D040F08000AA
:1043A0003060FDF7BDFF05463068C005E3D4FDF77A
:1043B000B7FF401B02284FF00300F5D98BE100BF87
:1043C000F068216A20F07C5040EA0160F06014E05F
:1043D00020F080003060FDF7A3FF05463068C0057F
:1043E0000BD5FDF79DFF401B02284FF00300F5D9C8
:1043F00071E100BF41EA806070602078000743D41B
:104400002078800654D42078400765D4656A9DB32F
:10441000306900F03800182840F0A880012DB16AFA
:10442000306B2DD001F00302A36A9A4228D1C1F368
:104430000511E26A914223D10146226B6FF35F219D
:10444000013A91421CD1C0F34622616B01398A4284
:1044500016D1C0F30642A16B01398A4210D1C0F3D4
:104460000660E16B013988420AD1706BA16CC0F320
:10447000CC00814240F03281002001B0F0BD00BF8D
:10448000012001B0F0BD00BF60690028706F39D015
:1044900040F001007067FDF743FF0546706F80072D
:1044A000AED4FDF73DFF401B0228F7D927E000BF3F
:1044B000A0690028306847D040F480503060FDF794
:1044C0002FFF0546306880049DD4FDF729FF401B6F
:1044D0000228F7D913E000BFD6F8000440F480703A
:1044E000C6F80004FDF71CFF054600BFD6F800041F
:1044F000C00519D4FDF714FF401B6428F6D903202A
:1045000001B0F0BD20F001007067FDF709FF05461E
:10451000706F80077FF574AFFDF702FF401B022824
:104520004FF00300F4D9D6E0A068002840D0052859
:1045300058D001285AD0306F20F001003067306F1A
:1045400020F0040055E000BF20F480503060FDF7FB
:10455000E7FE0546306880047FF555AFFDF7E0FEC5
:10456000401B02284FF00300F4D9B4E0306820F07B
:1045700080703060FDF7D4FE022D05460CD100BFDF
:104580003068800148D5FDF7CBFE401B02284FF074
:104590000300F5D99FE000BF306880017FF56CAF64
:1045A000FDF7BEFE401B02284FF00300F4D992E055
:1045B000306F20F001003067306F20F0040030676A
:1045C000FDF7AEFE054641F28837306F80077FF574
:1045D0001DAFFDF7A5FE401BB8424FF00300F4D914
:1045E00079E000BF306F40F004003067306F40F07A
:1045F00001003067FDF794FE054641F2883700BFA1
:10460000306F80073FF502AFFDF78AFE401BB842CE
:104610004FF00300F4D95EE004F12807B06A40F2DD
:10462000F33188438ECF0843591E40EA02104FF4FD
:104630007E426FF35F21B06202EB47204FF4FE022F
:1046400080B2E36B0844A16B02EB01414FF0FE42E4
:1046500001F4FE0102EB0362084402F0FE4108444B
:104660003063F06A4FF6F87120F00100F062706B71
:10467000A26C884340EAC2007063F06A216C20F0AB
:104680000C000843F062F06A616C20F002000843FD
:10469000F062F06A40F48030F062F06A40F400307A
:1046A000F062F06A40F48020F062F06A40F00100AD
:1046B000F062306840F080703060FDF731FE0446F3
:1046C000306880013FF5D8AEFDF72AFE001B0228B6
:1046D0004FF00300F4D901B0F0BD00BFF06A20F044
:1046E0000100F062FDF71CFE0546FDF719FEA84229
:1046F000FBD0706B4FF6F871A26C884340EAC200A1
:104700007063F06A40F00100F062002001B0F0BD7B
:104710002DE9F041C0B10446FDF7FAFD94F83800E8
:104720002168012814D145F20440C5F600008142F9
:1047300005D045F60400C4F20100814204D160684E
:10474000012801D1606C18B10120BDE8F08100BFE3
:1047500046F2030045F60005C4F20100C4F201056B
:1047600081424FF0010013DC45F60342C4F201021E
:10477000914227DC45F60402C4F20102914230D096
:1047800045F62402C4F2010291422AD0D3E100BFCF
:1047900045F20342C5F6000291426BDC46F2040288
:1047A000C4F20102914206D046F22402C4F2010290
:1047B000914240F0C08105F5006594F89100D0B9B0
:1047C00012E000BF45F60442C4F20102914206D055
:1047D00045F62442C4F20102914240F0AC8105F555
:1047E000806594F8910030B9002084F8900020464C
:1047F00000F0AEF9216840F208004EF61B42C2F20A
:104800000040C9F2CB520068A0FB0202086820F405
:10481000803008606FEA12329000043000F08E8120
:104820000A68D20309D50A68D20344BF0A685FEA5E
:10483000C23202D50A68D203EFD4022084F8910074
:10484000E268A368501E022AB0FA80F0A3F10102C8
:104850004FEA50104FEA001008BF2020042A1FD84A
:10486000DFE802F0042C22262A0000BF4FF4806803
:1048700026E000BF45F20442C5F60002914206D090
:1048800045F22442C5F60002914240F0548145F2BF
:104890000045C5F6000594F891000028ABD1A3E7C8
:1048A0004FF000080CE000BF40F0010006E000BF40
:1048B00040F0020002E000BF40F003004FF4006847
:1048C0002860206A002800F0868045F6240241F026
:1048D0002000C4F20102904206D14FF48070002102
:1048E000FEF7FEF9216800E0002045F6244341F080
:1048F0002002C4F201039A4205D14FF40070002156
:10490000FEF7EEF9216846F2240341F02002C4F2DA
:1049100001039A4205D14FF400700021FEF7E0F93F
:10492000216845F20047C5F600073A1D91420FD0B5
:1049300007F12402914215D0A169B1F5002F1AD1D7
:10494000616C042928D0082928D14FF4807226E010
:104950004FF480600021FEF7C3F9216807F12402BB
:104960009142E9D14FF400600021FEF7B9F9A16945
:10497000B1F5002FE4D0A16A0122B1F1806F216A64
:1049800008BF022200EB8000514340000902B0FB47
:10499000F1F0616C0AE000BF402200E0626D236A22
:1049A00000EB800040005A43B0FBF2F04CF6CD42E1
:1049B000CCF6CC42A0FB0223DA0802EB8207A0EB84
:1049C00047000127082888BF07EBD3020429626249
:1049D00001D150086062606840F00200022805D1F1
:1049E000206D013818BF012005E000BF206D01389F
:1049F000B0FA80F040094CF210064702CFF20506EB
:104A0000FDF786FC2168B0F5005F086818D33040D8
:104A100004F144060860636845CE1843636A104396
:104A2000E26A304366691043A26930431043A26AC8
:104A300040EA0350236910430A681843104317E003
:104A400006F1006204F1440610400860636845CE38
:104A50001843636A1043E26A304366691043A269EF
:104A600030431043A26A40EA03500B6810431843D6
:104A700040EA08004EF20F0238430860486890434D
:104A80004860E069D4E90C231043676D18434A6815
:104A90001043486048F200028868CFF6F8726FF061
:104AA000FF0310408860781E626E1043E26D104371
:104AB000226E1043A26D8F6803EB0222384310432D
:104AC0008860C8684FF2200204F168071040C8608F
:104AD000C5CF104303EB062240EA074045F20447E6
:104AE000CB68C5F600071843B94240EA0200C86027
:104AF00005D045F60400C4F20100814213D1686C70
:104B000020F00100686494F8380001280BD1E06BB4
:104B10006FF00F01226C01EB001010436864686CA9
:104B200040F0010068640020C4F89400012184F87A
:104B3000911084F89000BDE8F08100BFD4F8940093
:104B400040F04000C4F894000120BDE8F08100006E
:104B5000B0B5B8B0044645F6040502A8C021C4F2B9
:104B60000105FBF781FC2068A84205D005F1200172
:104B7000884237D038B0B0BD002003904FF4807029
:104B8000029002A8FEF7D8FA08B1FBF78DFD40F2BB
:104B90007400C2F20040016869B944F2F041C5F600
:104BA00002010A6842F480020A60096801F4800187
:104BB00033913399016801310160742033900220F0
:104BC0003490002033A9CDE935000620379041F21A
:104BD0000000C5F60200FDF7BBFA206805F12001D0
:104BE0008842C7D100200390189002A84FF480712A
:104BF0000291FEF7A1FA08B1FBF756FD40F27400EE
:104C0000C2F20040016869B944F2F041C5F6020100
:104C10000A6842F480020A60096801F48001019187
:104C2000019901680131016008203390022034901D
:104C3000002033A9CDE935000620379041F200006D
:104C4000C5F60200FDF784FA38B0B0BD00000000E0
:104C500020B3B0B5044690F82C000D4628B90020CA
:104C600084F82D00204600F01BF8022084F82C0068
:104C70002068211DFBF720FDD4E900022946FBF73F
:104C80008BFD44F20000C5F20020016841F00041B4
:104C90000160012084F82C000020B0BD0120704785
:104CA0002DE9F043B5B040F27000C2F20040017847
:104CB00000296ED16C460121017004F10800B82171
:104CC000FBF7D2FB4FF08070009020464FF00008B9
:104CD000CDF80480FEF730FA08B1FBF7E5FC44F2AA
:104CE000D4400024C5F60200C5F6020430AD4FF0F2
:104CF00002090168032641F48051016000682946D9
:104D000000F48050309030984FF63F00309004F51A
:104D1000A050CDE9319833960C273497FDF718FA57
:104D200080202946CDE9300920463497CDE93286E6
:104D3000FDF70EFA30202946CDE9300904F5006070
:104D40003497CDE93286FDF703FA48F23710294649
:104D5000CDE9300904F5C0503497CDE93286FDF72E
:104D6000F7F94FF683702946CDE9300904F58050F4
:104D70003497CDE93286FDF7EBF94CF20370294602
:104D8000CDE9300904F540603497CDE93286FDF76E
:104D9000DFF935B0BDE8F083B0B5054690F82C00DA
:104DA000022801D10220B0BD95F82C000124012871
:104DB00008D1022085F82C002868FBF7C9FC85F88B
:104DC0002C4000242046B0BD70B5054690F82C005C
:104DD000022801D1022070BD00F0FB00012401284F
:104DE0000DD1022085F82C0028680E46FBF7BCFC8C
:104DF0003068022808BF052485F82C40002420468E
:104E000070BD0000000000002DE9F04184B00446B0
:104E100003200D4684F83000A06B032810D14FF01A
:104E20008050616B40F6FF7808436063606BC1F6A9
:104E3000E07868B32068C0F8388001258EE000BFB4
:104E4000002D53D0B5F5004FE9D0B5F5804F65D1B1
:104E500000200021CDE90200206803F06DFC8001F4
:104E600060D402A9204603F0E7FC0028D9D19DF8C0
:104E70000E0040074ED5616C2068090403F0F4F879
:104E80000028CED12068022103F062F9C9E700BFF3
:104E90004FF480300021FDF723FF08B343F689313A
:104EA0006369C5F2E651A268A0FB01166168D4F8F7
:104EB00010C0B3EB166F4AD2A76DB7F5007F46D08E
:104EC000B7F5807F32D1002B3ED05F00B0FBF7F00A
:104ED0004FF28007C0F2FA27B84288BF730E36E05F
:104EE000606B40F000606063A7E700BF0020002116
:104EF000CDE90200206803F01FFC800112D402A952
:104F0000204603F099FC00287FF48BAF9DF80E003B
:104F1000C00737D14FF0806083E700BF4FF00060DB
:104F20007FE700BF4FF400607BE700BF4FEA1666E3
:104F300063B15F00B0FBF7F047F64007C0F27D17A2
:104F4000B84288BF334602E0730E00E03346206863
:104F5000CDE900C32B4603F0F3FB002520684FF496
:104F6000007103F0E1F830B121680125C1F8388003
:104F7000616B08436063012084F83000284604B068
:104F8000BDE8F081616C2068090403F06DF8002829
:104F90007FF447AF2068002103F0DAF841E7000012
:104FA00080B5D0F838C0D0E9173EBCF1010F4FEA08
:104FB00093720A70C3F383624A70C3F301628A700A
:104FC0004FEA1342CA704FEA13220A714B714FEA3B
:104FD0001E52CA80CEF303420A72CEF3C0324A7226
:104FE000CEF380328A72CEF34032CA72CEF30032F0
:104FF0000A734FF000024A7338D0BCF1000F40F042
:10500000898040F6FC72436E02EA8E0242EA937295
:105010000A61426EC2F3C2630B75C2F302634B7541
:10502000C2F342538B75C2F38243CB75C2F3C233D2
:105030000B76D1F810C00B7E0CF1010C03F00703C6
:1050400002330CFA03FCC0F848C00B7A03F00F0ED1
:10505000012303FA0EF3C3644FEA532E0EFB0CF345
:1050600003654FF40073436513E000BF0EF03F0289
:10507000B0F8663043EA02420A610A694FF480637D
:1050800003EB822282644FF400734365C0E913325C
:10509000426EC2F380334B76C2F3C6138B7602F0B6
:1050A0007F02CA76806EC20F0A77C0F341724A77D8
:1050B000C0F382628A77C0F38352CA77C0F340524A
:1050C00081F82020C0F30043002281F8212081F8DC
:1050D0002230C0F3C03381F82330C0F3803381F82D
:1050E0002430C0F3403381F82530C0F3003381F819
:1050F0002630C0F3812381F82730C0F3012381F8E3
:105100002830C0B2400881F82900012081F82A0027
:10511000104680BD016840F6FF72C1F6E0728A63F6
:105120000122416B41F08051416380F830201046EC
:1051300080BD0000000000002DE9F04196B004465B
:1051400090F83000032805D10125284616B0BDE8A7
:10515000F08100BF40F6FF780D46C1F6E078FDF71C
:10516000DFF806462068002103F0E6FA800125D426
:105170002068402102F0D8FF0146E0B9616C206848
:10518000090402F071FF0146A8B94FF0FF301090FA
:105190004020119060201290022013900020149063
:1051A00001201590206810A903F0E2F9206803F0AF
:1051B000CBF90146F0B1606B606301E04FF4006130
:1051C00020680125C0F83880626B1143616384F860
:1051D00030504FF4007102F0A7FF0028B5D02168CD
:1051E0000125C1F83880606384F83050284616B035
:1051F000BDE8F0816F4606E0FDF792F8801B4FF0A6
:1052000000410130DCD02068416B11F4957F416B87
:1052100022D10904F0D503F0AFFA3860206803F01A
:10522000ABFA7860206803F0A7FAB860206803F052
:10523000A3FAF860206803F09FFA3861206803F051
:105240009BFA7861206803F097FAB861206803F050
:1052500093FAF8612037CFE7090715D4416B890726
:1052600014D4406B800613D42068416BC90411D557
:1052700003F082FA47F8040BFDF752F8801B4FF059
:1052800000410130F0D19BE7082199E7022197E71F
:10529000202195E740F63A716FF0FF0CC1F600014E
:1052A00081639DE88E00CEB2B6092E70C1F3401620
:1052B0006E700CEA112646EA1161698011BA6960C4
:1052C0002B72190AFAB26972C3F30351A9720CEA7C
:1052D00013411144A981C7F38521A973C7F30121A3
:1052E000E9731109297407F00F0169749DF813100F
:1052F000A97400254FF4007102F016FF00287FF416
:105300006EAF22E700000000B0B586B050B304468F
:1053100090F8300020B900202076204600F084F973
:10532000042084F83000204600F04AF8D0B901A9E2
:105330002046FFF701FFA8B99DF814009DF815104D
:10534000A26B012A04D1084304D04FF4007003E09B
:10535000002001E04FF48070A065E1682046FFF76F
:1053600053FD18B1012006B0B0BD00BFFCF7D8FF57
:10537000054607E0616B08436063FCF7D1FF401B03
:10538000013013D0616C2068090403F059F800283B
:10539000F0D12068002103F0CFF900F4F050B0F50F
:1053A000006FEAD100206063E06203E04FF000404C
:1053B00060630320012184F8301006B0B0BD000006
:1053C000F0B58FB004464FF4803000210027FDF780
:1053D00087FCA8B348F659310546000AC0F24F11C0
:1053E000A0FB01012068002200230E090021009784
:1053F000019603F0A5F9206803F0B6F943F20050D6
:10540000C0F20C00854202D37000B5FBF0F542F209
:105410001010C0F20100B0FBF5F00130FCF73CFCCD
:1054200000200490206802F0A7FE98B1012184F8C2
:105430003010626B1043606308460FB0F0BD00BFD0
:10544000012184F830104FF00060606308460FB00F
:10545000F0BD00BF206802F0C7FEB0F1004F0BD1D5
:105460000020E063206802F087FE0028DED1E06BB8
:10547000012803D00AE000BF0120E063206800217A
:1054800002F0F2FD10B14FF08050CFE704984FF6D4
:10549000FE76B0421ED80025CCF2101520680021FF
:1054A00002F0E2FD0028C1D12068294602F0F0FD9B
:1054B000C0BB2068002103F03FF904990131049139
:1054C0000499B14202D8B0F1FF3FE7DCC0F380702D
:1054D00001E000BF002004994FF6FF72914203D310
:1054E0004FF08070A2E700BFA0630020ADF80E006F
:1054F000FCF716FF0546206803F01AF9B0B1A06B5F
:10550000032817D12068042103F016F9000D206448
:1055100004A92046FFF744FD00285DD04FF08050DD
:1055200084E700BF4FF0805080E700BF4FF08060FD
:105530007CE700BF206802F0C7FE00287FF476AF4A
:105540002068002103F0F8F8E0662068042103F0E9
:10555000F3F820672068082103F0EEF86067206800
:105560000C2103F0E9F8A16BA0670329CAD00DF163
:105570000E0641F287372068314602F075FF002899
:105580007FF454AFFCF7CCFE401BB84246D8BDF8C0
:105590000E100029EFD0A06B0328B3D061642068FF
:1055A000090402F0E5FE00287FF440AF20680021E6
:1055B00003F0C2F8E0652068042103F0BDF820661E
:1055C0002068082103F0B8F8606620680C2103F019
:1055D000B3F8A06696E700BF616C2068090402F08A
:1055E0005FFE00287FF422AF20684FF4007102F0C4
:1055F0009BFD78B1216840F6FF72C1F6E0728A63C4
:10560000616B08430121606384F8301008460FB0D5
:10561000F0BD00BF002108460FB0F0BD4FF00040C4
:1056200004E70000000000002DE9F041B6B0694633
:10563000044601F10800B821FAF716FF42F20041D2
:105640002068C4F60201884202D036B0BDE8F0817D
:105650004FF48030009068464FF00008CDF8048089
:10566000FDF76AFD08B1FBF71FF844F2E04040F295
:105670000044C5F60200C5F6020431AD022750F819
:10568000041C032641F4007140F8041C50F8041C6B
:1056900001F4007131913199016841F0020101601A
:1056A000016801F0020131913199016841F008016E
:1056B00001600068294600F00800319031984CF2F2
:1056C00018003190092035902046CDE93278349683
:1056D000FCF73EFD31A9C020349681E881010B2002
:1056E000359004F500602946FCF732FD36B0BDE880
:1056F000F0810000000000002DE9F04381B0002897
:105700005BD043F6000104460068C4F2000143F296
:10571000000E43F6004C8842C4F2010EC4F2000CA5
:105720004FF00002A26203D0604518BF704541D11E
:10573000E36B0125E268884202F1080205EB53138E
:105740004FEAD20202FB03F318BF704526D1102B9B
:1057500033D894F8810028B9002084F880002046CE
:1057600000F0AAF8022084F88100D4E90009D4F8F6
:1057700018800368B8F1806F23F001030360836829
:1057800003F4F81E26D1B9F1000F1BD0B9F5800F34
:1057900020D1A36BD3B14FF4800921E0604518BF3D
:1057A000082B0AD80CF57441884218BF6045CED04A
:1057B000CFE700BFE3680F2BBAD9012001B0BDE8E5
:1057C000F08300BFA36BB3F1805F71D1036843F432
:1057D000805303605FEA492302D44FF0010C0FE0CD
:1057E000E368072B0AD3056825F4807C256D45EA1C
:1057F0000C0505604FF0000C07E000BF4FF0000CF7
:10580000036823F480730360E368E769A26A47EAE8
:105810000E07E16B3A43A56811432669676919438E
:105820008160B9F1000F626AD4E90D1341EA020107
:10583000226A41EA0301E36C41EA060141EA0701F9
:1058400041EA0201A26C41EA0301A36D41EA0501AC
:1058500041EA020141EA030141EA080141EA090182
:10586000C1600DD0016DBCF1000F21F00101016597
:1058700014D1C168626D21F000411143C1600DE097
:105880008168012262F3CC2181608168022262F387
:105890004A218160016D21F0010101650020C4F8F9
:1058A0008400012184F8811001B0BDE8F08300BFBD
:1058B0004FF0000991E7000070B5B8B0044602A8A7
:1058C000C0210025CDE93655CDE934553395FAF799
:1058D000CBFD41F200412068C5F6000188424FD05F
:1058E00045F20001C4F20101884279D043F600017B
:1058F000C4F20001884240F0A7804FF4805002902B
:1059000002A800250395FDF717FC08B1FAF7CCFEB5
:1059100044F2E04040F20044C5F60200C5F602043D
:105920000226816841F480418160816801F48041F0
:1059300001910199016841F004010160016801F0E1
:10594000040101910199016841F0020101600068C0
:1059500033A900F002000190019806203390052041
:10596000379004F58060CDE934653695FCF7F0FB9F
:105970004FF48060CDE93306CDE935555EE000BFD8
:105980004FF48040029002A80395FDF7D5FB08B1C3
:10599000FAF78AFE44F2E040C5F60200416941F0A0
:1059A00020014161416901F02001019101990168E3
:1059B00041F04001016040F200410068C5F602017B
:1059C00000F04000019001F5A05401984FF4E04030
:1059D0003390022034900020359036902EE000BFA6
:1059E0004FF40050029002A800240394FDF7A4FB9A
:1059F00008B1FAF759FE44F2E040C5F60200016929
:105A000041F480110161016901F480110191019952
:105A1000016841F020010160006800F02000019061
:105A200001984FF4607033900220CDE9340440F2C5
:105A300000403694C5F6020000F5805405203790EA
:105A400033A92046FCF784FB38B070BD000000008D
:105A50002DE9F0471D4617460E460446D0F8009043
:105A6000FCF75EFC94F8811001290BD180460120DF
:105A7000002E18BF002F01D1BDE8F08794F88000F8
:105A8000012803D10220BDE8F08700BF012184F87E
:105A90008010032084F881000020C4F88400E665AB
:105AA000A4F86070A4F862706066A4F86800A4F8B6
:105AB0006A00A2682067B2F5C02F6067206805D130
:105AC000016841F40061016004E000BFC26861F355
:105AD0005242C26041684FF6FF72914339444160BF
