:020000040800F2
:10000000A008002439030008814900086935000868
:100010007949000841040008595000080000000018
:10002000000000000000000000000000B14C0008CB
:10003000890400080000000089490008B94C000844
:100040005303000853030008530300085303000838
:100050005303000853030008530300085303000828
:1000600053030008530300085303000879040008F1
:100070005303000853030008530300085303000808
:1000800053030008530300085303000853030008F8
:1000900053030008530300085303000853030008E8
:1000A00053030008530300085303000853030008D8
:1000B00053030008E14E00085303000853030008EF
:1000C00053030008530300085303000853030008B8
:1000D00053030008530300085303000853030008A8
:1000E00053030008530300080000000053030008F6
:1000F0005303000853030008530300085303000888
:100100005303000853030008530300085303000877
:100110005303000853030008530300085303000867
:100120005303000853030008530300085303000857
:100130005303000853030008530300085303000847
:1001400000000000000000000000000000000000AF
:100150005303000853030008530300085303000827
:100160005303000853030008530300085303000817
:10017000530300085303000869040008000000004E
:1001800053030008530300085303000853030008F7
:1001900053030008530300085303000853030008E7
:1001A00053030008530300085303000853030008D7
:1001B00053030008530300085303000853030008C7
:1001C00053030008530300085303000853030008B7
:1001D00053030008530300085303000853030008A7
:1001E0005303000853030008530300085303000897
:1001F0005303000853030008530300085303000887
:100200005303000853030008530300085303000876
:100210005303000853030008530300085303000866
:1002200053030008530300085303000800000000B4
:1002300053030008530300080000000053030008A4
:100240005303000853030008530300085303000836
:100250005303000853030008530300085303000826
:100260005303000853030008530300085303000816
:100270005303000853030008530300080000000064
:100280005303000853030008530300080000000054
:10029000000000005303000800F002F800F03CF8F2
:1002A0000AA090E8000C82448344AAF10107DA45D1
:1002B00001D100F031F8AFF2090EBAE80F0013F0E7
:1002C000010F18BFFB1A43F0010318479C5D0000A3
:1002D000BC5D0000103A24BF78C878C1FAD8520734
:1002E00024BF30C830C144BF04680C6070470000B0
:1002F0000023002400250026103A28BF78C1FBD82F
:10030000520728BF30C148BF0B6070471FB505F0CA
:1003100056F81FBD10B510BD00F058F81146FFF794
:10032000F5FF04F09DFE00F076F803B4FFF7F2FF4E
:1003300003BC00F07DF800000948804709480047E9
:10034000FEE7FEE7FEE7FEE7FEE7FEE7FEE7FEE785
:10035000FEE7FEE704480549054A064B70470000E2
:10036000114E000899020008A0020024A0080024F1
:10037000A0040024A00400244FF0000200B513469E
:1003800094469646203922BFA0E80C50A0E80C50B5
:10039000B1F12001BFF4F7AF090728BFA0E80C5066
:1003A00048BF0CC05DF804EB890028BF40F8042B5F
:1003B00008BF704748BF20F8022B11F0804F18BFCC
:1003C00000F8012B7047704770477047754600F082
:1003D0002BF8AE4605006946534620F007008546D7
:1003E00018B020B5FFF7B6FFBDE820404FF000067B
:1003F0004FF000074FF000084FF0000BAC46ACE8A0
:10040000C009ACE8C009ACE8C009ACE8C00921F0FB
:1004100007018D46704710B50446AFF300802046B3
:10042000BDE81040FFF781BF00487047100000246E
:1004300001491820ABBEFEE726000200704700000D
:10044000FEE7000000000000806B816C496D02290E
:1004500006D0012180F83510C16C41F04001C16423
:1004600000F01EB80000000040F2C000C2F20040E0
:1004700000F01EB80000000040F21010C2F2004070
:1004800000F0D2B90000000070470000000000003A
:10049000EFF3108072B600BFFEE70000000000001E
:1004A00070470000000000007047000000000000DE
:1004B00070B50446006840F249460569C0F600067A
:1004C000690721D4A8072DD4E8063BD4280705D511
:1004D000206808214161204600F042F8E80708BF83
:1004E00070BD20680168890703D5C16821F01E012D
:1004F000C160C16821F00101C16001214161204654
:10050000BDE87040FFF7D0BF04214161E06C40F0CE
:100510000200E06484F83510A06C066500F024F851
:10052000A807D1D521680222A06C4A61E16C41F094
:100530000101E164042184F83510066500F014F827
:10054000E806C3D5206810214161204600F004F878
:100550002807C3D5BCE7000070470000000000007A
:10056000704700000000000080B5D8B190F8351049
:10057000022919D140F20F420168C4F202029142ED
:1005800016DC6F23C4F20203994227DC3F23C4F236
:10059000020399423EDC1023C4F2020399425FD069
:1005A000282359E0012080BD80214165012080BDC4
:1005B00040F26F43C4F2020399421BDC40F23F4316
:1005C000C4F2020399422DDC40F21043C4F202034C
:1005D000994245D040F228433EE000BF9F23C4F239
:1005E0000203994228DC7023C4F20203994237D0F7
:1005F000882331E040F29F43C4F20203994223DC96
:1006000040F27043C4F20203994229D040F2884379
:1006100022E000BF4023C4F20203994220D05823B5
:100620001AE000BF40F24043C4F20203994217D0DF
:1006300040F2584310E000BFA023C4F202039942E5
:100640000ED0B82308E000BF40F2B843C4F2020362
:10065000994205D040F2A043C4F20203994275D1F9
:1006600091424FF0040280F8352011DC6F20C4F273
:100670000200814222DC3F20C4F20200814239DCC8
:100680001020C4F20200814259D0282054E000BF5B
:1006900040F26F40C4F2020081421BDC40F23F4056
:1006A000C4F2020081422DDC40F21040C4F202008C
:1006B000814244D040F228403EE000BF9F20C4F277
:1006C0000200814228DC7020C4F20200814236D050
:1006D000882031E040F29F40C4F20200814223DCD6
:1006E00040F27040C4F20200814228D040F28840BB
:1006F00022E000BF4020C4F2020081421FD05820F7
:100700001AE000BF40F24040C4F20200814216D01D
:1007100040F2584010E000BFA020C4F20200814225
:100720000DD0B82008E000BF40F2B840C4F202008B
:10073000814204D040F2A040C4F202008142086825
:1007400020F001000860002080BD00BF0A6822F090
:100750000E020A6045F25742C5F6020291420A684B
:1007600022F001020A600FDC45F22F42C5F60202B8
:10077000914219DC45F20842C5F60202914229D0A5
:1007800045F21C4222E000BF45F27F42C5F602025C
:10079000914213DC45F25842C5F60202914219D04B
:1007A00045F26C4212E000BF45F23042C5F602024B
:1007B00091420FD045F2444208E000BF45F2944216
:1007C000C5F60202914205D045F28042C5F602020A
:1007D00091421AD1D0E9181CD0E916E30A6822F434
:1007E00080720A6003F01F01012202FA01F1CEF8C3
:1007F0000410816ECCF80410C16E31B10A6822F485
:1008000080720A60D0E91C124A60012180F835101C
:10081000026D002180F834100AB19047002108468B
:1008200080BD0000000000002DE9F04782B00021EB
:10083000019140F208010446C2F2004148F2B512AB
:10084000C1F64E32A56D096840F26F490068C4F2E6
:100850000209A1FB021848452E68296816DC9F2171
:10086000C4F2020188422DDC5721C4F20201884201
:1008700052DC1021C4F2020188427CD02821C4F24B
:100880000201884277D0402170E000BF45F22F423C
:10089000C5F60202904229DC40F2B742C4F20202DD
:1008A000904245DC40F27041C4F20201884262D0BD
:1008B00040F28841C4F2020188425CD040F2A0417B
:1008C00054E000BF40F22741C4F2020188423FDCFD
:1008D000A021C4F2020188424DD0B821C4F2020125
:1008E000884248D040F2104140E000BF45F26B42E0
:1008F000C5F60202904275DC45F23042C5F60202AE
:10090000904200F0828045F24442C5F602029042D5
:100910007BD045F2584273E05821C4F2020188426C
:1009200029D07021C4F20201884224D088211DE020
:1009300040F2B842C4F2020290421CD045F2084292
:10094000C5F60202904260D045F21C4258E000BF5A
:1009500040F22841C4F2020188420CD040F24041EA
:10096000C4F20201884206D040F25841C4F20201AA
:10097000884240F05A83E16D082201F01F0140F2E5
:100980000F4A8A40C4F2020A324200F0E680504523
:100990004FF0040312DC6F27C4F20207B8426FDC89
:1009A0003F27C4F20207B84200F3A4801027C4F224
:1009B0000207B84200F0C5802827BDE048456BDC3F
:1009C00040F23F47C4F20207B84200F39B8040F276
:1009D0001047C4F20207B84200F0B38040F2284743
:1009E000AAE000BF45F26C42C5F6020290420CD06C
:1009F00045F28042C5F60202904206D045F294428A
:100A0000C5F60202904240F010830268E36D03F0E5
:100A10001F0304279F400F4218BF12F0040621D184
:100A200002279F400F4218BF12F002064CD1D94056
:100A3000090740F1FA8212F0080100F0F68201681D
:100A400021F00E010160012000FA03F16960606588
:100A500084F835000020E16C84F83400002940F06F
:100A6000DC82E2E211046F6026D4910603D40168AF
:100A700021F004010160216C002940F0CE82D4E213
:100A80009F27C4F20207B84246DC7027C4F202076F
:100A9000B84256D088274FE040F29F47C4F2020781
:100AA000B84241DC40F27047C4F20207B84248D075
:100AB00040F2884740E000BFD00300F1B382A16C50
:100AC000002940F0AA82B0E211046F6000F1B08208
:100AD000910609D4016821F00A010160012084F81F
:100AE0003500002084F83400E16B002940F0958245
:100AF0009BE200BF4027C4F20207B84221D058272A
:100B00001AE000BF40F24047C4F20207B84218D0D2
:100B100040F2584710E000BFA027C4F20207B842D5
:100B20000FD0B82708E000BF40F2A047C4F2020788
:100B3000B84206D040F2B847C4F20207B84218BF24
:100B4000082307681F4208D0036823F004030360EA
:100B5000AA60626D42F00102626501228A4032425F
:100B60006FD0504510DC6F23C4F2020398421DDCA5
:100B70003F23C4F20203984234DC1023C4F2020380
:100B8000984256D028234FE048451BDC40F23F43B3
:100B9000C4F2020398422DDC40F21043C4F2020377
:100BA000984246D040F228433EE000BF9F23C4F263
:100BB0000203984228DC7023C4F20203984238D022
:100BC000882331E040F29F43C4F20203984223DCC1
:100BD00040F27043C4F2020398422AD040F28843A4
:100BE00022E000BF4023C4F20203984221D05823E0
:100BF0001AE000BF40F24043C4F20203984218D00A
:100C000040F2584310E000BFA023C4F20203984210
:100C10000FD0B82308E000BF40F2A043C4F20203A3
:100C2000984206D040F2B843C4F20203984240F022
:100C3000058243691B0604D5AA60626D42F0020278
:100C4000626504228A4032426FD0504510DC6F2327
:100C5000C4F2020398421DDC3F23C4F2020398420F
:100C600034DC1023C4F20203984256D028234FE00C
:100C700048451BDC40F23F43C4F2020398422DDC9E
:100C800040F21043C4F20203984246D040F2284397
:100C90003EE000BF9F23C4F20203984228DC702389
:100CA000C4F20203984238D0882331E040F29F43D7
:100CB000C4F20203984223DC40F27043C4F2020300
:100CC00098422AD040F2884322E000BF4023C4F279
:100CD0000203984221D058231AE000BF40F240435B
:100CE000C4F20203984218D040F2584310E000BF0B
:100CF000A023C4F2020398420FD0B82308E000BF3B
:100D000040F2A043C4F20203984206D040F2B84336
:100D1000C4F20203984240F0998103689B0704D50E
:100D2000AA60626D42F004026265102202FA01F1CB
:100D3000314200F0818050454FF0080210DC6F23F3
:100D4000C4F2020398421DDC3F23C4F2020398421E
:100D500034DC1023C4F20203984256D028234FE01B
:100D600048451BDC40F23F43C4F2020398422DDCAD
:100D700040F21043C4F20203984246D040F22843A6
:100D80003EE000BF9F23C4F20203984228DC702398
:100D9000C4F20203984238D0882331E040F29F43E6
:100DA000C4F20203984223DC40F27043C4F202030F
:100DB00098422AD040F2884322E000BF4023C4F288
:100DC0000203984221D058231AE000BF40F240436A
:100DD000C4F20203984218D040F2584310E000BF1A
:100DE000A023C4F2020398420FD0B82308E000BF4A
:100DF00040F2A043C4F20203984206D040F2B84346
:100E0000C4F20203984218BF04220368134213D0AD
:100E1000A96001684903016808D4C90508D40168BC
:100E200021F008010160216C21B905E008034FD4CD
:100E3000216C09B120468847E06D00F01F01202099
:100E400000FA01F2324200F0AB80206810235045D6
:100E500010DC6F27C4F20207B8421DDC3F27C4F242
:100E60000207B84238DC1027C4F20207B8425AD051
:100E7000282753E048451BDC40F23F47C4F20207F5
:100E8000B84231DC40F21047C4F20207B8424AD0FF
:100E900040F2284742E000BF9F27C4F20207B84251
:100EA0002CDC7027C4F20207B8423CD0882735E01A
:100EB00040F29F47C4F20207B84227DC40F2704775
:100EC000C4F20207B8422ED040F2884726E000BFA5
:100ED000A16C0029AED1AFE74027C4F20207B842A7
:100EE00021D058271AE000BF40F24047C4F2020761
:100EF000B84218D040F2584710E000BFA027C4F213
:100F00000207B8420FD0B82708E000BF40F2A04760
:100F1000C4F20207B84206D040F2B847C4F2020752
:100F2000B84218BF022307681F4239D0AA6094F85C
:100F30003520042A02681BD122F0160202604269A1
:100F400022F080024261226C0AB9A26C1AB10268D6
:100F500022F0080202603F208840A860012084F847
:100F60003500216D0020002984F8340055D15CE063
:100F7000510301680CD4C9050ED4016821F0100199
:100F80000160012084F83500002084F8340003E07B
:100F9000080301D4616C00E0E16B09B12046884789
:100FA000606D002841D0606DC00734D0042084F803
:100FB000350020684FEA9821026822F001020260A1
:100FC000019A013201928A421AD80268D20717D0D8
:100FD000019A013201928A4212D80268D2070FD0D8
:100FE000019A013201928A420AD80268D20707D0D8
:100FF000019A013201928A4202D80268D207DFD1F7
:101000000068C0074FF0030008BF012084F83500D6
:10101000002084F83400E16C39B1204602B0BDE80C
:10102000F0470847216C0029F7D102B0BDE8F087EE
:10103000D0030DD4616C0029EFD1F6E702680422D9
:101040008A4032427FF401AE6FE600BF02686CE670
:10105000E16B0029E1D1E8E7B0B5044600F0F8F80B
:1010600040F200010546C2F20041621C097818BF37
:101070000C4400BF00F0ECF8401BA042FAD3B0BD16
:101080002DE9F04F82B00D68002D00F0CB8000F10B
:10109000264242F2004302F1FF72C5F602030A261D
:1010A00098424FEAB22444F2F44E08BF0926092CB4
:1010B00040F2040C38BF4FEAB226C5F6020EC5F660
:1010C000000C009600220027002609E001360D687A
:1010D00035FA06F307F1040702F1020200F0A280DC
:1010E000012303FA06F415EA0408EFD0D1F804A0AE
:1010F00003230AF0030B9340ABF101056FEA0309E8
:10110000012D0FD88368CD6803EA090395402B436E
:101110008360CAF300154368A34305FA06F423432A
:10112000436005E0BBF1030F02D14FF0030B21E058
:10113000C3688C6803EA09039440BBF1020F43EAD9
:101140000403C36016D16FF0030307F01C0503EA24
:1011500056030F24034404FA05FBD3F820A00C69BE
:101160002AEA0B0AAC4044EA0A041C62D1F804A043
:101170000AF0030B03680BFA02F403EA09031AF4FA
:10118000403F43EA04030360A0D0DEF8003040F2A1
:10119000084A43F00203CEF80030DEF80030C5F60E
:1011A000000A03F00203019326F00303019C07F0F9
:1011B0000C040F2553F80A90A54029EA0509009D63
:1011C00005FA04F444EA090443F80A404FF0B04A2F
:1011D000DAF800904C6849EA0805E30258BF29EAAA
:1011E0000805A302CAF80050DCF8009049EA080597
:1011F00058BF29EA0805A303CCF80050DCF880901A
:1012000049EA080558BF29EA0805E403CCF88050EC
:10121000DCF87C3043EA080558BF23EA0805CCF81F
:101220007C5053E702B0BDE8F08F000000000000E2
:10123000002A08BF09048161704700000000000017
:1012400041F20000C5F600400068000C7047000045
:1012500040F29820C2F20040006870470000000091
:1012600040F2000040F29821C2F20040C2F2004178
:1012700000780A6810440860704700000000000011
:1012800080B5032000F0ACF800F0B6FF44F218413E
:1012900045F2D833C5F60201C0F600030A680968B2
:1012A00001F00F01C2F30322595C9A5C01F01F01A7
:1012B00002F01F02D04040F20C02C2F2004220FABB
:1012C00001F1116040F20801C2F2004108600F20F4
:1012D00000F00AF800281CBF012080BD00F02CF8A7
:1012E000002080BD0000000070B540F20006C2F290
:1012F00000463178E1B1044640F20800C2F20040F5
:101300004FF47A72B2FBF1F10068B0FBF1F001F03A
:10131000FFFD0F2C4FF0010508D838B94FF0FF3012
:1013200000222146002500F02BF87460284670BD8D
:10133000012070BD0000000081B044F2F440C5F609
:101340000200016841F002010160006800F0020043
:101350000090009801B07047002848BF704781B2E4
:1013600000F01F000122490902FA00F04EF20012BB
:10137000CEF2000242F82100704700000000000099
:1013800070B54EF60C5C4FF0FF36CEF2000C00F15B
:10139000604505F56445DCF80030C3F3022E8EF09D
:1013A0000703042B28BF0423BEF1030406FA03F34A
:1013B00021EA030100F00F0338BF0024043B00289A
:1013C000634406FA04F048BF03F10C05A14022EA89
:1013D000000008430001287070BD000000000000FC
:1013E0004EF60C514FF6FF03CEF200010A681A4088
:1013F00060F30A2242F0806040F0FD7008607047A0
:10140000B0B544F60C05C5F60205296849072968F8
:1014100006D401F00701081A18BF0120B0BD00BFB3
:1014200021F0070108432860FFF712FF044600BFC0
:1014300055F8080C800407D4FFF70AFF001BB0F52D
:101440007A7FF5D90120B0BD0020B0BD00000000BA
:101450002DE9F0470446C07844F22C480007C5F651
:10146000020833D5A06E4FEA305103290CD8DFE8CB
:1014700001F003111D2600BFD8F8001041F400311F
:10148000C8F800101BE000BF01266078C0070BD031
:1014900020E000BF04F10800022103F079FA0646BB
:1014A00060B16078C00715D1354646E004F12800E8
:1014B000022103F001FB06460028F2D1A06ED8F805
:1014C000241021F440110843C8F824000026607855
:1014D000C007E9D0A06D04280ED83546DFE800F03B
:1014E0000412181E1E0000BFD8F80000354640F454
:1014F0000030C8F8000011E001250127607880075E
:101500001FD452E004F10800002103F041FA04E086
:1015100004F12800002103F0CFFA05462F461DB143
:10152000607880070DD440E0D8F82400A16D20F049
:10153000070000250843C8F8240037466078800774
:1015400033D5E06D4FEAB01004280DD8DFE800F085
:101550000412181E1E0000BFD8F8000040F400302E
:10156000C8F8000012E000BF01250126607840079E
:101570001FD455E004F10800002103F009FA04E04B
:1015800004F12800002103F097FA05462E461DB10C
:10159000607840070DD443E0D8F82400E16D20F4D2
:1015A000E07000250843C8F824003E4660784007F4
:1015B00036D5D4F8A8004FEA705004280CD8DFE8DC
:1015C00000F00313191F1F00D8F8000040F400308A
:1015D000C8F8000014E000BF01254FF00109607851
:1015E000000721D456E000BF04F10800002103F0F9
:1015F000CFF904E004F12800002103F05DFA05466C
:10160000A9461DB1607800070ED443E0D8F82C003D
:10161000D4F8A81020F4600000250843C8F82C0076
:10162000B1466078000735D5D4F8AC004FEA306099
:1016300004280DD8DFE800F00412181E1E0000BFB9
:10164000D8F8000040F40030C8F8000012E000BFF5
:1016500001250127E078800720D44EE004F108003E
:10166000002103F095F904E004F12800002103F0C3
:1016700023FA05462F461DB1E07880070ED43CE0E2
:10168000D8F82C00D4F8AC1020F0E0600025084316
:10169000C8F82C004F46E07880072ED5E06C4FEA62
:1016A000301003280ED8DFE800F00903130900BF4B
:1016B000D8F8000040F40030C8F800002E467DB98C
:1016C00012E000BF012501266078C00619D44CE065
:1016D00004F10800022103F05BF905462E461DB116
:1016E0006078C0060DD440E0D8F82000E16C20F00E
:1016F000300000250843C8F820003E466078C00648
:1017000033D5206E4FEA303004280DD8DFE800F0E2
:101710000412181E1E0000BFD8F8000040F400306C
:10172000C8F8000012E000BF01250127607880069C
:101730001FD44EE004F10800002103F029F904E071
:1017400004F12800002103F0B7F905462F461DB12A
:10175000607880060DD43CE0D8F82400216E20F497
:10176000E04000250843C8F824003746607880062A
:101770002FD5606E4FEA3040052809D8DFE800F029
:10178000040E1404040400BF2E46ADB918E000BFD7
:1017900001250126607840061FD44FE004F10800BF
:1017A000012103F0F5F804E004F12800012103F021
:1017B00083F905462E461DB1607840060DD43DE004
:1017C000D8F82400616E20F4E02000250843C8F812
:1017D00024003E466078400630D5D4F8B0004FEA89
:1017E0003070052808D8DFE800F0030D1303030369
:1017F0002F46ADB918E000BF01250127607800062B
:1018000020D442E004F10800012103F0C1F804E013
:1018100004F12800012103F04FF905462F461DB1C0
:10182000607800060ED430E0D8F82C00D4F8B01060
:1018300020F0E04000250843C8F82C0037466078C7
:10184000000622D5206F58B1B0F1005F0CD0B0F186
:10185000805F2FD1D8F8000040F40030C8F80000B5
:101860002E469DB908E000BF04F10800012103F0F5
:101870008FF805462E464DB9D8F82400216F20F088
:10188000405000250843C8F824003E46E078C007D1
:1018900033D0A06C032813D8DFE800F008021A0840
:1018A000D8F8000040F40030C8F80000A946BDB9DF
:1018B0001AE000BF01250126E078C007E9D11CE04D
:1018C00001254FF00109A07840061AD51CE000BFA1
:1018D00004F10800022103F05BF80546A9461DB19A
:1018E000A07840060DD50FE0D8F82000A16C20F0BC
:1018F000030000250843C8F82000B146A078400640
:1019000002D44F4618E000BFD8F8D40340F48070EA
:10191000C8F8D403FFF79CFC064600BFD8F8D403F0
:10192000C00507D4FFF794FC801B6428F6D9032573
:10193000032701E02F468DB12078C00761D0E06F0A
:101940004FEAF00005283BD8DFE800F004404604E9
:10195000040400BF002D2E4646D149E0D8F84410BB
:10196000D4F8B400414011F4407F11D0D8F84410AD
:10197000D8F8442042F48032C8F84420D8F84420F3
:1019800021F4407122F48032C8F84420C8F8441091
:10199000B0F5807F40F0DE82FFF75AFC064641F248
:1019A000883A0325032700BFD8F84400800700F1D8
:1019B000CF82FFF74DFC801B5045F5D9BCE700BF37
:1019C00001260125207880071FD44CE004F108008F
:1019D000012102F0DDFF04E004F12800012103F001
:1019E0006BF805462E461DB1207880070DD43AE0ED
:1019F000D8F82800E16F20F0380000250843C8F827
:101A000028003E46207880072DD5A06F052809D8EC
:101A1000DFE800F0040E1404040400BF2F46ADB943
:101A200018E000BF01270125207840071FD44DE0B2
:101A300004F10800012102F0ABFF04E004F12800EA
:101A4000012103F039F805462F461DB120784007E3
:101A50000DD43BE0D8F82800A16F20F00700002546
:101A60000843C8F828003746207840072ED5D4F818
:101A70009400052808D8DFE800F0030D13030303E2
:101A80002E46ADB918E000BF01260125207880065A
:101A900020D451E004F10800012102F079FF04E0B4
:101AA00004F12800012103F007F805462E461DB178
:101AB000207880060ED43FE0D8F82C00D4F894109B
:101AC00020F0070000250843C8F82C003E46207887
:101AD000800631D5D4F890004FEA3070052809D837
:101AE000DFE800F0040E1404040400BF2F46ADB973
:101AF00018E000BF012701252078400620D451E0DE
:101B000004F10800002102F043FF04E004F1280082
:101B1000022102F0D1FF05462F461DB12078400674
:101B20000ED43FE0D8F82800D4F8901020F0E04020
:101B300000250843C8F8280037462078400631D5EC
:101B4000D4F89C004FEAB020052809D8DFE800F05F
:101B5000040E1404040400BF2E46ADB918E000BF03
:101B6000012601252078000620D454E004F1080065
:101B7000002102F00DFF04E004F12800022102F030
:101B80009BFF05462E461DB1207800060ED442E08C
:101B9000D8F82C00D4F89C1020F4E050002508431D
:101BA000C8F82C003E462078000634D5D4F8A000B2
:101BB0004FEA703005280FD8DFE800F004141A044B
:101BC000040400BF2F46E5B12068010727D4C106F1
:101BD0003ED4000355D475E0012701252068010794
:101BE000F5D51CE004F10800002102F0D1FE04E06C
:101BF00004F12800022102F05FFF0546002D2F4668
:101C0000E2D1D8F82C00D4F8A01020F460400025D0
:101C10000843C8F82C00374620680107D7D5D4F808
:101C20008400B0F5805F09D104F12800022102F0A0
:101C300043FF002818BF0127D4F88400D8F82810E3
:101C400021F440510843C8F828002068C106C0D5D7
:101C5000D4F89800B0F5807F09D104F12800022162
:101C600002F02AFF002818BF0127D4F89800D8F8FE
:101C70002C1021F440710843C8F82C0020680003A0
:101C800020D5D4F8A400B0F5003F0FD0B0F5803FC8
:101C900006D078BB04F10800002102F079FE04E0D0
:101CA00004F12800022102F007FF05462E4655B92F
:101CB000D8F82C00D4F8A41020F4403000250843B4
:101CC000C8F82C003E46A07840072BD5D4F88800F1
:101CD000B0F5401F0BD0B0F5001F11D0B0F5801F3C
:101CE0002AD1D8F8000040F40030C8F800002F4690
:101CF000CDB90DE001260125A0784007E6D411E01A
:101D000004F12800012102F0D7FE05462F4655B9FF
:101D1000D8F82800D4F8881020F440100025084393
:101D2000C8F828003746A078C0070AD13E46216887
:101D3000880016D533E000BF01270125A078C00731
:101D4000F4D0206DB0F5803F10D018BBD8F800005B
:101D500040F40030C8F800002E4685B121688800A4
:101D60001DD460688A0326D469E000BF04F108002E
:101D7000022102F00DFE0546002D2E46EED1D8F8C8
:101D80002000216D20F4803000250843C8F8200091
:101D9000CCE700BF0126012521688800E1D504F1C8
:101DA0002800022102F088FE002818BF0126D4E98D
:101DB00000108A0343D5D4F880206FF0010303EBB1
:101DC0003223022B0BD34FEA322343B1012B40F0D5
:101DD000B980D8F8003043F40033C8F800303DB380
:101DE000CA022FD4CA0037D48A0240D44A0048D449
:101DF000CA0F55D109025DD4C10766D181076FD4DE
:101E0000410779D4010700F18380C10600F18C807D
:101E1000800607D504F12800022102F04DFE0028BB
:101E200018BF0125002D18BF01252846BDE8F08701
:101E3000D8F8283023F440731A43C8F828203546D0
:101E4000CA02CFD5D8F82420636F22F000421A438B
:101E5000C8F82420CA00C7D558F81C2CD4F8B830CC
:101E600022F480421A4348F81C2C8A02BED5D8F8C6
:101E70002420E36E22F080721A43C8F824204A001E
:101E8000B6D558F81C2C22F4004248F81C2CD4F883
:101E9000BC2058F81C3C1A4348F81C2CCA0FA9D087
:101EA000D8F82020636D22F040521A43C8F8202051
:101EB0000902A1D5D8F82810D4F88C2021F44001CB
:101EC0001143C8F82810C10798D004F10800002178
:101ED00002F05EFD002818BF0546606881078FD5B7
:101EE00004F10800012102F053FD002818BF054647
:101EF000606841077FF586AF04F10800022102F017
:101F000047FD002818BF0546606801077FF57DAFD3
:101F100004F12800002102F0CFFD002818BF05467B
:101F20006068C1067FF574AF04F12800012102F05A
:101F3000C3FD002818BF0546606880067FF572AFB4
:101F400068E700BF0125CA027FF54CAF7AE700BF02
:101F5000D4F8B4004FF6CF7358F81C2CC0F2FF032E
:101F600000F4407122F47C5203EA10136FF31F3027
:101F7000B1F5407F08BF1A43002548F81C2CD8F85B
:101F800044100843C8F84400FFF7BBBC0000000041
:101F90002DE9F04381B0002800F02A8142F20008C8
:101FA0000446C5F200288946D8F8000000F00F006A
:101FB00088420ED2D8F8000020F00F0040EA090055
:101FC000C8F80000D8F8000000F00F00484540F0C5
:101FD0000F81206844F218474107C5F602070AD569
:101FE00021693A6802F07002914204D93A6822F0FD
:101FF00070021143396001070AD561697A6802F0FD
:102000007002914204D97A6822F07002114379601B
:10201000C1060AD5A1697A6802F4E062914204D946
:102020007A6822F4E0621143796081060AD5E16999
:10203000BA6802F07002914204D9BA6822F07002C4
:102040001143B96010F002010AD0E2683B6803F066
:102050000F039A4204D93B6823F00F031A433A60F6
:10206000C20746D0386820F47061D4E90102012823
:1020700041EA0201396009D003280DD0022811D1AC
:1020800057F8181C890340F1B38010E057F8181C6A
:10209000C90540F1AD800AE057F8181C890140F1EC
:1020A000A78004E057F8181C490740F1A18057F8B1
:1020B000081C21F00701084347F8080CFFF7C8F88F
:1020C000064641F2883500BF57F8080C616800F0F9
:1020D0003800B0EBC10F09D0FFF7BAF8801BA84257
:1020E000F2D9032001B0BDE8F08300BF206800F002
:1020F000020151B1E1683A6802F00F02914204D244
:102100003A6822F00F0211433960D8F8001001F04C
:102110000F0149450DD9D8F8001021F00F0141EA0F
:102120000901C8F80010D8F8001001F00F01494566
:102130005ED141070AD521693A6802F070029142E6
:1021400004D23A6822F070021143396001070AD5BF
:1021500061697A6802F07002914204D27A6822F0D2
:10216000700211437960C1060AD5A1697A6802F448
:10217000E062914204D27A6822F4E062114379600D
:1021800080060AD5E069B96801F07001884204D27E
:10219000B96821F070010843B86000F02DF8396883
:1021A00045F2D8333A68C0F60003C1F3032102F0C8
:1021B0000F02595C9A5C01F01F0120FA01F102F054
:1021C0001F0040F20C0221FA00F0C2F2004210603F
:1021D00040F2040040F20802C2F20040C2F20042A3
:1021E0000068116001B0BDE8F043FFF77DB800BFA3
:1021F000012001B0BDE8F08344F20041C5F60201C0
:102200000869C0F3C200032810D002282ED098BB62
:102210000868800649F20000C0F2D03058BF70470D
:102220000968C1F3C101C840704700BF8A6A886A63
:10223000C0F3051CC86ABCF1000F4B6B22D000F044
:10224000010002F003024042022A00EAD3006FF3C9
:102250005F3000EE100AB8EE400A15D0C2B9086827
:10226000800619D49FED281A23E000BF47F64000EE
:10227000C0F27D10704700BF40F60010C0F23D0074
:10228000704700BF002070479FED1E1A11E000BF8D
:102290009FED1B1A0DE000BF086849F20002C0F272
:1022A000D032C0F3C10022FA00F001EE100AB8EEFD
:1022B000411A086B9FED153A6FF35F2002EE100A8A
:1022C000086BC0F34620B8EE422A013000EE032A24
:1022D00000EE10CAB7EE003AB8EE400A81EE000AEE
:1022E00032EE031A20EE010A01EE100AB8EE411A8E
:1022F00080EE010ABCEEC00A10EE100A704700BF63
:102300000024744A20BCBE4B0024744C00000039E9
:1023100070B586B0002844F2E04640F20000144652
:102320000D46C5F60206C5F6020023D0316800F559
:10233000006041F004013160316801F00401019155
:1023400001994FF40071019102210291032104913E
:1023500000210391059101A9FEF792FE56F8D00CD9
:1023600020F07E4040EAC410284346F8D00C06B066
:1023700070BD00BF316841F001013160316801F08A
:102380000101019101994FF48071019102210291A3
:102390000321049100210391059101A9FEF770FE2C
:1023A00056F8D00C20F0FE702843204346F8D00C9D
:1023B00006B070BD00000000F0B581B0002800F04C
:1023C00063810446007844F20046C007C5F6020661
:1023D00022D12078800740F1BC80306910F03801AC
:1023E000B06A3FD0182908BF5FEA80703AD0E06831
:1023F0003168002862D021F0190108433060FEF7EF
:1024000027FF05463068400748D4FEF721FF401BF0
:102410000228F7D977E100BF306900F03801B06ACF
:10242000102905D018290BD100F00300022807D18C
:1024300030688003CDD560680028CAD124E100BF90
:10244000606800284CD0B0F5A02F61D0B0F5803F77
:1024500062D0306820F480303060306820F4802012
:102460005DE000BF30684007E06802D5002800F05A
:102470000B81316821F0190108433060FEF7E8FE56
:10248000054600BF3068400708D4FEF7E1FE401B58
:1024900002284FF00300F5D921E200BFFEF7D0FE7D
:1024A00041F20301884249D820697168402821F42B
:1024B0007C314BD141F400304AE000BF21F00100F3
:1024C0003060FEF7C5FE05463068400741D5FEF78F
:1024D000BFFE401B02284FF00300F5D9FFE100BF0B
:1024E000306820F480303060306820F48020306024
:1024F000FEF7AEFE054600BF306880037FF569AF8A
:10250000FEF7A6FE401B64284FF00300F4D9E6E175
:10251000306840F480203060306840F480303060B3
:10252000FEF796FE054600BF306880033FF551AFC9
:10253000FEF78EFE401B6428F6D9E4E0706821693E
:1025400020F0FE4040EA016002E000BF41EA0030B6
:1025500070602078C00654D5306900F03801B06A48
:10256000082905D0182919D100F00300012815D138
:102570003068C00503D5E069802840F08580FEF70B
:102580005FFE41F2030188421ED8206A716820284C
:1025900021F0F84132D141F0804031E0E06900287B
:1025A000306819D040F080003060FEF751FE0546DB
:1025B0003068C005E3D4FEF74BFE401B02284FF005
:1025C0000300F5D98BE100BFF068216A20F07C5050
:1025D00040EA0160F06014E020F080003060FEF717
:1025E00037FE05463068C0050BD5FEF731FE401BAF
:1025F00002284FF00300F5D971E100BF41EA806085
:1026000070602078000743D42078800654D4207866
:10261000400765D4656A9DB3306900F0380018281A
:1026200040F0A880012DB16A306B2DD001F003027B
:10263000A36A9A4228D1C1F30511E26A914223D1DB
:102640000146226B6FF35F21013A91421CD1C0F326
:102650004622616B01398A4216D1C0F30642A16B52
:1026600001398A4210D1C0F30660E16B013988421A
:102670000AD1706BA16CC0F3CC00814240F0328172
:10268000002001B0F0BD00BF012001B0F0BD00BFCF
:1026900060690028706F39D040F001007067FEF764
:1026A000D7FD0546706F8007AED4FEF7D1FD401B05
:1026B0000228F7D927E000BFA0690028306847D07A
:1026C00040F480503060FEF7C3FD0546306880045A
:1026D0009DD4FEF7BDFD401B0228F7D913E000BFD3
:1026E000D6F8000440F48070C6F80004FEF7B0FD90
:1026F000054600BFD6F80004C00519D4FEF7A8FDB2
:10270000401B6428F6D9032001B0F0BD20F0010081
:102710007067FEF79DFD0546706F80077FF574AF0B
:10272000FEF796FD401B02284FF00300F4D9D6E0D7
:10273000A068002840D0052858D001285AD0306F12
:1027400020F001003067306F20F0040055E000BF3A
:1027500020F480503060FEF77BFD05463068800431
:102760007FF555AFFEF774FD401B02284FF00300C4
:10277000F4D9B4E0306820F080703060FEF768FD76
:10278000022D05460CD100BF3068800148D5FEF708
:102790005FFD401B02284FF00300F5D99FE000BF0A
:1027A000306880017FF56CAFFEF752FD401B0228B8
:1027B0004FF00300F4D992E0306F20F00100306751
:1027C000306F20F004003067FEF742FD054641F20D
:1027D0008837306F80077FF51DAFFEF739FD401B4E
:1027E000B8424FF00300F4D979E000BF306F40F0F9
:1027F00004003067306F40F001003067FEF728FDBD
:10280000054641F2883700BF306F80073FF502AFC1
:10281000FEF71EFD401BB8424FF00300F4D95EE006
:1028200004F12807B06A40F2F33188438ECF0843A1
:10283000591E40EA02104FF47E426FF35F21B062EE
:1028400002EB47204FF4FE0280B2E36B0844A16B19
:1028500002EB01414FF0FE4201F4FE0102EB036284
:10286000084402F0FE4108443063F06A4FF6F87104
:1028700020F00100F062706BA26C884340EAC20055
:102880007063F06A216C20F00C000843F062F06A7B
:10289000616C20F002000843F062F06A40F480307E
:1028A000F062F06A40F40030F062F06A40F4802098
:1028B000F062F06A40F00100F062306840F0807031
:1028C0003060FEF7C5FC0446306880013FF5D8AEA5
:1028D000FEF7BEFC001B02284FF00300F4D901B044
:1028E000F0BD00BFF06A20F00100F062FEF7B0FC1E
:1028F0000546FEF7ADFCA842FBD0706B4FF6F871B1
:10290000A26C884340EAC2007063F06A40F00100A4
:10291000F062002001B0F0BD2DE9F04381B0002845
:102920005BD043F6000104460068C4F2000143F2A4
:10293000000E43F6004C8842C4F2010EC4F2000CB3
:102940004FF00002A26203D0604518BF704541D12C
:10295000E36B0125E268884202F1080205EB53139C
:102960004FEAD20202FB03F318BF704526D1102BA9
:1029700033D894F8810028B9002084F880002046DC
:1029800000F0AAF8022084F88100D4E90009D4F804
:1029900018800368B8F1806F23F001030360836837
:1029A00003F4F81E26D1B9F1000F1BD0B9F5800F42
:1029B00020D1A36BD3B14FF4800921E0604518BF4B
:1029C000082B0AD80CF57441884218BF6045CED058
:1029D000CFE700BFE3680F2BBAD9012001B0BDE8F3
:1029E000F08300BFA36BB3F1805F71D1036843F440
:1029F000805303605FEA492302D44FF0010C0FE0DB
:102A0000E368072B0AD3056825F4807C256D45EA29
:102A10000C0505604FF0000C07E000BF4FF0000C04
:102A2000036823F480730360E368E769A26A47EAF6
:102A30000E07E16B3A43A56811432669676919439C
:102A40008160B9F1000F626AD4E90D1341EA020115
:102A5000226A41EA0301E36C41EA060141EA070107
:102A600041EA0201A26C41EA0301A36D41EA0501BA
:102A700041EA020141EA030141EA080141EA090190
:102A8000C1600DD0016DBCF1000F21F001010165A5
:102A900014D1C168626D21F000411143C1600DE0A5
:102AA0008168012262F3CC2181608168022262F395
:102AB0004A218160016D21F0010101650020C4F807
:102AC0008400012184F8811001B0BDE8F08300BFCB
:102AD0004FF0000991E7000070B5B8B0044602A8B5
:102AE000C0210025CDE93655CDE934553395FDF7A4
:102AF00043FC41F200412068C5F6000188424FD0F6
:102B000045F20001C4F20101884279D043F6000188
:102B1000C4F20001884240F0A7804FF48050029038
:102B200002A800250395FEF793FC08B1FDF7B0FC61
:102B300044F2E04040F20044C5F60200C5F602044B
:102B40000226816841F480418160816801F48041FE
:102B500001910199016841F004010160016801F0EF
:102B6000040101910199016841F0020101600068CE
:102B700033A900F00200019001980620339005204F
:102B8000379004F58060CDE934653695FEF778FA24
:102B90004FF48060CDE93306CDE935555EE000BFE6
:102BA0004FF48040029002A80395FEF751FC08B153
:102BB000FDF76EFC44F2E040C5F60200416941F0C9
:102BC00020014161416901F02001019101990168F1
:102BD00041F04001016040F200410068C5F6020189
:102BE00000F04000019001F5A05401984FF4E0403E
:102BF0003390022034900020359036902EE000BFB4
:102C00004FF40050029002A800240394FEF720FC29
:102C100008B1FDF73DFC44F2E040C5F60200016951
:102C200041F480110161016901F480110191019960
:102C3000016841F020010160006800F0200001906F
:102C400001984FF4607033900220CDE9340440F2D3
:102C500000403694C5F6020000F5805405203790F8
:102C600033A92046FEF70CFA38B070BD0000000012
:102C70002DE9F0471D4617460E460446D0F8009051
:102C8000FEF7E6FA94F8811001290BD18046012065
:102C9000002E18BF002F01D1BDE8F08794F8800006
:102CA000012803D10220BDE8F08700BF012184F88C
:102CB0008010032084F881000020C4F88400E665B9
:102CC000A4F86070A4F862706066A4F86800A4F8C4
:102CD0006A00A2682067B2F5C02F6067206805D13E
:102CE000016841F40061016004E000BFC26861F363
:102CF0005242C26041684FF6FF72914339444160CD
:102D0000016841F0010101606168B1F5800F03D1F4
:102D1000016841F400710160E16810294ED3B4F8F4
:102D20006200002800F0C880681C10D133E000BFAA
:102D3000E16D51F8042B0262E165B4F862000138DC
:102D4000A4F86200B4F86200002800F0B5802068A2
:102D500041698907ECD4FEF77BFAA0EB0800A84292
:102D6000F0D3204601F03CFFD4F8840040F480709A
:102D7000C4F88400012084F88100002084F88000D9
:102D80000320BDE8F08700BFFEF762FAB4F86200E6
:102D9000002800F09180206841698907F4D5E16D31
:102DA00051F8042B0262E165B4F862000138A4F81E
:102DB0006200B4F862000028EDD17DE0B4F8620052
:102DC000072933D9002877D04FF6FE706E1C471CB8
:102DD00010E000BFE16D31F8020BA9F82000384681
:102DE000E165B4F862100844A4F86200B4F8620027
:102DF000002861D020684169890709D4FEF728FAC4
:102E0000002EF3D0A0EB0800A842EFD3A9E700BF43
:102E1000B4F862100229DDD3E16B0029DAD0E16D4C
:102E200051F8042B02624FF6FE70D9E7002843D018
:102E30004FF6FE706E1CA0F1020A471C10E000BFA6
:102E4000E16D097880F82010E06D411C3846E1659D
:102E5000B4F862100844A4F86200B4F8620058B3F1
:102E600020684169890709D4FEF7F2F9002EF4D0F1
:102E7000A0EB0800A842F0D373E700BFB4F86210DB
:102E8000042909D3E16B412906D3E16D51F8042BE4
:102E900002625046DBE700BFB4F862100229CFD3CC
:102EA000E16B0029CCD0E16D31F8020BA9F82000CC
:102EB0004FF6FE70CBE700BF681C13D02068406956
:102EC000000713D4FEF7C4F9A0EB0800A842F5D31D
:102ED000D4F8840040F02000C4F8840006E000BF6D
:102EE000FEF7B6F9206840690007F9D5204601F0E1
:102EF00077FE012084F88100002084F88000D4F857
:102F00008400002818BF0120BDE8F0870000000001
:102F1000411E0020B0EB116F02D00120704700BFAE
:102F20004EF21002F023CEF2000251604EF6235111
:102F3000CEF200010B700721906011607047000015
:102F40007047000000000000704700000000000013
:102F50007047000000000000B0B590F83C20012A46
:102F60004FF002025BD080F83D2040F2004C026836
:102F7000C4F2010C42F4806363455368D2F808E060
:102F800002BF23F470034C68234341F2FF740D68C1
:102F9000C4F2000423F07003A24243EA0503536025
:102FA0000CDC40F2FF73C4F200039A4216DCB2F16B
:102FB000804F29D040F2004318E000BF40F2FF33B9
:102FC000C4F201039A4217DC41F60003C4F2000385
:102FD0009A4219D00023C4F2010309E040F600032D
:102FE000C4F200039A420FD040F60043C4F200033B
:102FF0009A4209D00DE000BF44F20003C4F201037D
:103000009A4201D0624504D12EF0800389681943A9
:1030100091600022012180F83D1080F83C2010468C
:10302000B0BD00000000000060B310B5044690F889
:103030003D0028B9002084F83C00204600F024F828
:10304000022084F83D002068211D01F051FF01207D
:1030500084F8480084F83E0084F83F0084F840007B
:1030600084F8410084F8420084F8430084F8440066
:1030700084F8450084F8460084F8470084F83D0051
:10308000002010BD0120704780B582B040F20041A1
:103090000068C4F2000188421CBF02B080BD44F247
:1030A000E8400022C5F60200016841F0020101601B
:1030B0000068002100F00200019001981D20FEF739
:1030C0005FF91D2002B0BDE88040FEF745B9000061
:1030D00090F83D1001291BD1022180F83D100168B4
:1030E00041F2FF70C4F200008142C86840F0010064
:1030F000C8600FDC40F2FF70C4F20000814217DCB0
:10310000B1F1804F2CD040F20040C4F2000025E025
:103110000120704740F2FF30C4F20100814213DC0D
:1031200041F60000C4F20000814219D0002013E0F3
:1031300040F60000C4F20000814211D040F6004089
:10314000C4F200000AE000BF44F20000C4F2010033
:10315000814205D040F20040C4F2010081420BD10F
:1031600007228868C0F2010202400020062A18BF28
:10317000B2F5803F00D17047086840F00100086058
:10318000002070470000000080B590F83C20012A24
:103190004FF0020200F0A78080F83D208822D0F88E
:1031A00000C0CFF6CE72DCF808301A40CCF8082008
:1031B0000B686F2B0EDDB3F1101F37DAB3F5005F2C
:1031C00046DA702B00F09280B3F5805F00F08480C7
:1031D000D6E000BF2F2B33DD4F2B3FDC302B6FD0E1
:1031E000402B40F0CD80D1F804E0C968DCF82030F5
:1031F000DCF8202022F00102CCF82020DCF8182096
:1032000022F0F00242EA011123F00A02CCF8181071
:1032100042EA0E01CCF820104FF68872DCF8081054
:10322000CFF6CF721140473154E000BF2F21C0F2DA
:1032300010018B423ADCB3F1101F41D020213BE05A
:10324000002B18BF102B3BD0202B39D098E000BFAB
:1032500060D0B3F5801F33D092E000BF502B6DD00B
:10326000602B40F08D80D1F804E0C968DCF8203094
:10327000DCF8202022F01002CCF82020DCF8182006
:1032800022F4704242EA013123F0A002CCF8181077
:1032900042EA0E11CCF820104FF68872DCF80810C4
:1032A000CFF6CF721140673114E000BF3021C0F279
:1032B00010018B4204D04021C0F210018B425FD13B
:1032C0004FF68872DCF80810CFF6CF721140194320
:1032D00041F00701CCF808100022012180F83D10D0
:1032E000002180F83C10104680BD00BFD1E901E309
:1032F000C968DCF8082043EA0E0322F47F4243EA5F
:1033000001211143CCF80810DCF8081041F07701D6
:10331000E0E700BFD1E901E3C968DCF8082043EA2F
:103320000E0322F47F4243EA01211143CCF8081036
:10333000DCF8081041F48041CCE700BFD1F804E08C
:10334000C968DCF82030DCF8202022F00102CCF83B
:103350002020DCF8182022F0F00242EA011123F0CC
:103360000A02CCF8181042EA0E01CCF820104FF6F1
:103370008872DCF80810CFF6CF7211405731A9E7F8
:103380000122AAE7000000007047000000000000D2
:10339000F0B581B004460068C5680669B10717D565
:1033A00015F0020114D06FF00201016101212177B3
:1033B0008069800704D02046FFF7E6FF06E000BFE3
:1033C000204600F09DF8204600F09EF8002020776F
:1033D000700719D515F0040016D020686FF00401AD
:1033E000016102212177806910F4407F04D02046DA
:1033F000FFF7CAFF06E000BF204600F081F8204634
:1034000000F082F800202077300717D515F008006B
:1034100014D020686FF00801016104212177C06990
:10342000800703D02046FFF7AFFF05E0204600F0FD
:1034300067F8204600F068F800202077F00619D5DC
:1034400015F0100016D020686FF0100101610821FE
:103450002177C06910F4407F04D02046FFF794FF25
:1034600006E000BF204600F04BF8204600F04CF884
:1034700000202077F00718BF15F0010006D0206863
:103480006FF001010161204600F042F805F080076D
:1034900016F4025F18BF002F02D1F00509D410E026
:1034A00020686FF4025101612046FFF74DFDF005E1
:1034B00007D537B120686FF4807101612046FFF7AE
:1034C0003FFD700609D515F0400006D020686FF06A
:1034D00040010161204600F043F8B0060CD515F01C
:1034E000200009D020686FF020010161204601B062
:1034F000BDE8F040FFF72CBD01B0F0BD00000000BA
:10350000704700000000000070470000000000004D
:10351000B0B540F27005C2F20045291D884218BFBF
:10352000B0BD287841F60004C5F602044FF40061EE
:1035300080F00102A4F540602A70FDF779FE2A7838
:1035400008212046FDF774FE402100222046FDF7A9
:103550006FFE68686FF001010161B0BD00000000FE
:103560007047000000000000FEE7000000000000BF
:103570002DE9F04182B040F600041746C5F602047A
:103580000E4605462A208DF805004FF40051002212
:1035900020469846FDF74CFE4FF48041002220461D
:1035A000FDF746FE40F210200DF10501C2F2004089
:1035B00001224FF47A73FFF75BFB08B1FCF768FF59
:1035C0004FF4804101222046FDF732FE05F1220032
:1035D00080B201F055F907F1220080B201F050F9F4
:1035E0002B208DF806004FF4005100222046FDF7F5
:1035F0001FFE4FF4804100222046FDF719FE40F2E5
:1036000010200DF10601C2F2004001224FF47A733E
:10361000FFF72EFB08B1FCF73BFF4FF4804101227E
:103620002046FDF705FE304601F02AF9404601F03C
:1036300027F92C208DF807004FF400510022204676
:10364000FDF7F6FD4FF4804100222046FDF7F0FD26
:1036500040F210200DF10701C2F2004001224FF4A8
:103660007A73FFF705FB08B1FCF712FF4FF48041B6
:1036700001222046FDF7DCFD02B0BDE8F08100002C
:103680002DE9F04F83B015460E46013A591E92B20D
:103690001C468BB231460190FFF76AFFA6420094A8
:1036A00060D20198A8425DD20C9840F6000740F223
:1036B00010244FEA1029C5F60207C2F200440DF1AA
:1036C0000A0B0DF10B0804E001360099B0B28842F4
:1036D00048D2DDF804A00BE04FF4804101223846C7
:1036E000FDF7A6FD0AF1010A1FFA8AF0A842EBD203
:1036F0004FF40051012238468DF80A90FDF798FDED
:103700004FF4804100223846FDF792FD01224FF42C
:103710007A7320465946FFF7ABFA08B1FCF7B8FEBA
:103720004FF4804101223846FDF782FD0C988DF858
:103730000B004FF4005101223846FDF779FD4FF49C
:10374000804100223846FDF773FD01224FF47A7361
:1037500020464146FFF78CFA0028BDD0FCF798FEC2
:10376000BAE700BF03B0BDE8F08F00000000000022
:10377000B0B582B040F600044FF40041C5F6020433
:1037800001222046FDF754FD4FF4FA70FDF764FC6A
:1037900011208DF807004FF4005100222046FDF75C
:1037A00047FD4FF4804100222046FDF741FD40F2E5
:1037B00010200DF10701C2F2004001224FF47A738C
:1037C000FFF756FA08B1FCF763FE4FF4804101227F
:1037D0002046FDF72DFD7820FDF73EFC36208DF8C4
:1037E00007004FF40051002220460025FDF720FD80
:1037F0004FF4804100222046FDF71AFD40F21020D0
:103800000DF10701C2F2004001224FF47A73FFF775
:103810002FFA08B1FCF73CFE4FF48041012220460C
:10382000FDF706FD4FF40051012220468DF80750A8
:10383000FDF7FEFC4FF4804100222046FDF7F8FC26
:1038400040F210200DF10701C2F2004001224FF4B6
:103850007A73FFF70DFA08B1FCF71AFE4FF48041B6
:1038600001222046FDF7E4FC3A208DF807004FF4D2
:10387000005100222046FDF7DBFC4FF4804100227E
:103880002046FDF7D5FC40F210200DF10701C2F2F1
:10389000004001224FF47A73FFF7EAF908B1FCF710
:1038A000F7FD4FF4804101222046FDF7C1FC0520C1
:1038B0008DF807004FF4005101222046FDF7B8FCB7
:1038C0004FF4804100222046FDF7B2FC40F2102068
:1038D0000DF10701C2F2004001224FF47A73FFF7A5
:1038E000C7F908B1FCF7D4FD4FF48041012220460E
:1038F000FDF79EFCB2208DF807004FF40051002226
:103900002046FDF795FC4FF4804100222046FDF74C
:103910008FFC40F210200DF10701C2F2004001229D
:103920004FF47A73FFF7A4F908B1FCF7B1FD4FF437
:10393000804101222046FDF77BFC4FF4005101221B
:1039400020460C258DF80750FDF772FC4FF480419E
:1039500000222046FDF76CFC40F210200DF107011B
:10396000C2F2004001224FF47A73FFF781F908B1E7
:10397000FCF78EFD4FF4804101222046FDF758FCF4
:103980004FF40051012220468DF80750FDF750FCFE
:103990004FF48041002220460025FDF749FC40F20B
:1039A00010200DF10701C2F2004001224FF47A739A
:1039B000FFF75EF908B1FCF76BFD4FF4804101227F
:1039C0002046FDF735FC4FF40051012220468DF8CA
:1039D0000750FDF72DFC4FF4804100222046FDF7F3
:1039E00027FC40F210200DF10701C2F20040012235
:1039F0004FF47A73FFF73CF908B1FCF749FD4FF437
:103A0000804101222046FDF713FC4FF400510122B2
:103A1000204633258DF80750FDF70AFC4FF480410E
:103A200000222046FDF704FC40F210200DF10701B2
:103A3000C2F2004001224FF47A73FFF719F908B17E
:103A4000FCF726FD4FF4804101222046FDF7F0FBF4
:103A50004FF40051012220468DF80750FDF7E8FB96
:103A60004FF4804100222046FDF7E2FB40F2102097
:103A70000DF10701C2F2004001224FF47A73FFF703
:103A8000F7F808B1FCF704FD4FF48041012220460D
:103A9000FDF7CEFBB7208DF807004FF40051002250
:103AA0002046FDF7C5FB4FF4804100222046FDF77C
:103AB000BFFB40F210200DF10701C2F200400122CD
:103AC0004FF47A73FFF7D4F808B1FCF7E1FC4FF438
:103AD000804101222046FDF7ABFB72208DF80700E4
:103AE0004FF4005101222046FDF7A2FB4FF4804124
:103AF00000222046FDF79CFB40F210200DF107014B
:103B0000C2F2004001224FF47A73FFF7B1F808B116
:103B1000FCF7BEFC4FF4804101222046FDF788FBF4
:103B2000BB208DF807004FF4005100222046FDF71E
:103B30007FFB4FF4804100222046FDF779FB40F2E5
:103B400010200DF10701C2F2004001224FF47A73F8
:103B5000FFF78EF808B1FCF79BFC4FF4804101227F
:103B60002046FDF765FB3D208DF807004FF400511E
:103B700001222046FDF75CFB4FF4804100222046E5
:103B8000FDF756FB40F210200DF10701C2F2004094
:103B900001224FF47A73FFF76BF808B1FCF778FC59
:103BA0004FF4804101222046FDF742FBC0208DF8F2
:103BB00007004FF4005100222046FDF739FB4FF477
:103BC000804100222046FDF733FB40F210200DF12A
:103BD0000701C2F2004001224FF47A73FFF748F860
:103BE00008B1FCF755FC4FF4804101222046FDF757
:103BF0001FFB2C208DF807004FF4005101222046B6
:103C0000FDF716FB4FF4804100222046FDF710FB24
:103C100040F210200DF10701C2F2004001224FF4E2
:103C20007A73FFF725F808B1FCF732FC4FF48041B6
:103C3000012220460125FDF7FBFAC2208DF807007E
:103C40004FF4005100222046FDF7F2FA4FF4804174
:103C500000222046FDF7ECFA40F210200DF107019A
:103C6000C2F2004001224FF47A73FFF701F808B165
:103C7000FCF70EFC4FF4804101222046FDF7D8FAF4
:103C80004FF40051012220468DF80750FDF7D0FA7D
:103C90004FF4804100222046FDF7CAFA40F210207E
:103CA0000DF10701C2F2004001224FF47A73FEF7D2
:103CB000DFFF08B1FCF7ECFB4FF480410122204606
:103CC000FDF7B6FAFF208DF807004FF400510122EE
:103CD0002046FDF7ADFA4FF4804100222046FDF763
:103CE000A7FA40F210200DF10701C2F200400122B4
:103CF0004FF47A73FEF7BCFF08B1FCF7C9FB4FF431
:103D0000804101222046FDF793FAC3208DF8070079
:103D10004FF4005100222046FDF78AFA4FF480410B
:103D200000222046FDF784FA40F210200DF1070131
:103D3000C2F2004001224FF47A73FEF799FF08B1F6
:103D4000FCF7A6FB4FF4804101222046FDF770FAF4
:103D500019208DF807004FF4005101222046FDF78D
:103D600067FA4FF4804100222046FDF761FA40F2E5
:103D700010200DF10701C2F2004001224FF47A73C6
:103D8000FEF776FF08B1FCF783FB4FF48041012278
:103D90002046FDF74DFAC4208DF807004FF400517E
:103DA00000222046FDF744FA4FF4804100222046CD
:103DB000FDF73EFA40F210200DF10701C2F200407B
:103DC00001224FF47A73FEF753FF08B1FCF760FB52
:103DD0004FF4804101222046FDF72AFA20208DF879
:103DE00007004FF4005101222046FDF721FA4FF45D
:103DF000804100222046FDF71BFA40F210200DF111
:103E00000701C2F2004001224FF47A73FEF730FF3F
:103E100008B1FCF73DFB4FF4804101222046FDF73D
:103E200007FAC6208DF807004FF400510022204603
:103E3000FDF7FEF94FF4804100222046FDF7F8F926
:103E400040F210200DF10701C2F2004001224FF4B0
:103E50007A73FEF70DFF08B1FCF71AFB4FF48041AF
:103E600001222046FDF7E4F90F208DF807004FF4FA
:103E7000005101222046FDF7DBF94FF4804100227A
:103E80002046FDF7D5F940F210200DF10701C2F2EE
:103E9000004001224FF47A73FEF7EAFE08B1FCF706
:103EA000F7FA4FF4804101222046FDF7C1F9D020F6
:103EB0008DF807004FF4005100222046FDF7B8F9B5
:103EC0004FF4804100222046FDF7B2F940F2102065
:103ED0000DF10701C2F2004001224FF47A73FEF7A0
:103EE000C7FE08B1FCF7D4FA4FF480410122204606
:103EF000FDF79EF9A4208DF807004FF40051012230
:103F00002046FDF795F94FF4804100222046FDF749
:103F10008FF940F210200DF10701C2F2004001229A
:103F20004FF47A73FEF7A4FE08B1FCF7B1FA4FF430
:103F3000804101222046FDF77BF9A1208DF8070082
:103F40004FF4005101222046FDF772F94FF48041F1
:103F500000222046FDF76CF940F210200DF1070118
:103F6000C2F2004001224FF47A73FEF781FE08B1DD
:103F7000FCF78EFA4FF4804101222046FDF758F9F4
:103F8000E0208DF807004FF4005100222046FDF795
:103F90004FF94FF4804100222046FDF749F940F2E5
:103FA00010200DF10701C2F2004001224FF47A7394
:103FB000FEF75EFE08B1FCF76BFA4FF48041012278
:103FC0002046FDF735F9D0208DF807004FF4005159
:103FD00001222046FDF72CF94FF4804100222046B3
:103FE000FDF726F940F210200DF10701C2F2004062
:103FF00001224FF47A73FEF73BFE08B1FCF748FA52
:104000004FF4804101222046FDF712F904208DF87B
:1040100007004FF4005101222046FDF709F94FF443
:10402000804100222046FDF703F940F210200DF1F7
:104030000701C2F2004001224FF47A73FEF718FE26
:1040400008B1FCF725FA4FF4804101222046FDF724
:10405000EFF80D208DF807004FF4005101222046A3
:10406000FDF7E6F84FF4804100222046FDF7E0F826
:1040700040F210200DF10701C2F2004001224FF47E
:104080007A73FEF7F5FD08B1FCF702FA4FF48041B0
:1040900001222046FDF7CCF811208DF807004FF4DF
:1040A000005101222046FDF7C3F84FF48041002261
:1040B0002046FDF7BDF840F210200DF10701C2F2D5
:1040C000004001224FF47A73FEF7D2FD08B1FCF7ED
:1040D000DFF94FF4804101222046FDF7A9F81320B3
:1040E0008DF807004FF4005101222046FDF7A0F89B
:1040F0004FF4804100222046FDF79AF840F210204C
:104100000DF10701C2F2004001224FF47A73FEF76D
:10411000AFFD08B1FCF7BCF94FF480410122204605
:10412000FDF786F82B208DF807004FF4005101228F
:104130002046FDF77DF84FF4804100222046FDF730
:1041400077F840F210200DF10701C2F20040012281
:104150004FF47A73FEF78CFD08B1FCF799F94FF430
:10416000804101222046FDF763F83F208DF80700CB
:104170004FF4005101222046FDF75AF84FF48041D8
:1041800000222046FDF754F840F210200DF10701FF
:10419000C2F2004001224FF47A73FEF769FD08B1C4
:1041A000FCF776F94FF4804101222046FDF740F8F4
:1041B00054208DF807004FF4005101222046FDF7EE
:1041C00037F84FF4804100222046FDF731F840F2E5
:1041D00010200DF10701C2F2004001224FF47A7362
:1041E000FEF746FD08B1FCF753F94FF48041012278
:1041F0002046FDF71DF84C208DF807004FF40051C4
:1042000001222046FDF714F84FF480410022204699
:10421000FDF70EF840F210200DF10701C2F2004048
:1042200001224FF47A73FEF723FD08B1FCF730F951
:104230004FF4804101222046FCF7FAFF18208DF848
:1042400007004FF4005101222046FCF7F1FF4FF424
:10425000804100222046FCF7EBFF40F210200DF1D8
:104260000701C2F2004001224FF47A73FEF700FD0D
:1042700008B1FCF70DF94FF4804101222046FCF70C
:10428000D7FF0D208DF807004FF400510122204682
:10429000FCF7CEFF4FF4804100222046FCF7C8FF18
:1042A00040F210200DF10701C2F2004001224FF44C
:1042B0007A73FEF7DDFC08B1FCF7EAF84FF48041B1
:1042C00001222046FCF7B4FF0B208DF807004FF4C5
:1042D000005101222046FCF7ABFF4FF48041002241
:1042E0002046FCF7A5FF40F210200DF10701C2F2B5
:1042F000004001224FF47A73FEF7BAFC08B1FCF7D4
:10430000C7F84FF4804101222046FCF791FF1F209F
:104310008DF807004FF4005101222046FCF788FF7A
:104320004FF4804100222046FCF782FF40F210202B
:104330000DF10701C2F2004001224FF47A73FEF73B
:1043400097FC08B1FCF7A4F84FF480410122204605
:10435000FCF76EFF23208DF807004FF40051012277
:104360002046FCF765FF4FF4804100222046FCF711
:104370005FFF40F210200DF10701C2F20040012260
:104380004FF47A73FEF774FC08B1FCF781F84FF430
:10439000804101222046FCF74BFFE1208DF8070009
:1043A0004FF4005100222046FCF742FF4FF48041B9
:1043B00000222046FCF73CFF40F210200DF10701DF
:1043C000C2F2004001224FF47A73FEF751FC08B1AB
:1043D000FCF75EF84FF4804101222046FCF728FFED
:1043E000D0208DF807004FF4005101222046FCF741
:1043F0001FFF4FF4804100222046FCF719FF40F2D6
:1044000010200DF10701C2F2004001224FF47A732F
:10441000FEF72EFC08B1FCF73BF84FF48041012277
:104420002046FCF705FF04208DF807004FF40051EB
:1044300001222046FCF7FCFE4FF48041002220467A
:10444000FCF7F6FE40F210200DF10701C2F2004029
:1044500001224FF47A73FEF70BFC08B1FCF718F851
:104460004FF4804101222046FCF7E2FE0C208DF83B
:1044700007004FF4005101222046FCF7D9FE4FF40B
:10448000804100222046FCF7D3FE40F210200DF1BF
:104490000701C2F2004001224FF47A73FEF7E8FBF5
:1044A00008B1FBF7F5FF4FF4804101222046FCF7ED
:1044B000BFFE11208DF807004FF400510122204665
:1044C000FCF7B6FE4FF4804100222046FCF7B0FE18
:1044D00040F210200DF10701C2F2004001224FF41A
:1044E0007A73FEF7C5FB08B1FBF7D2FF4FF48041AA
:1044F00001222046FCF79CFE13208DF807004FF4A4
:10450000005101222046FCF793FE4FF48041002227
:104510002046FCF78DFE40F210200DF10701C2F29B
:10452000004001224FF47A73FEF7A2FB08B1FBF7BB
:10453000AFFF4FF4804101222046FCF779FE2C208A
:104540008DF807004FF4005101222046FCF770FE61
:104550004FF4804100222046FCF76AFE40F2102012
:104560000DF10701C2F2004001224FF47A73FEF709
:104570007FFB08B1FBF78CFF4FF4804101222046FE
:10458000FCF756FE3F208DF807004FF40051012242
:104590002046FCF74DFE4FF4804100222046FCF7F8
:1045A00047FE40F210200DF10701C2F20040012247
:1045B0004FF47A73FEF75CFB08B1FBF769FF4FF429
:1045C000804101222046FCF733FE44208DF807008D
:1045D0004FF4005101222046FCF72AFE4FF480419F
:1045E00000222046FCF724FE40F210200DF10701C6
:1045F000C2F2004001224FF47A73FEF739FB08B192
:10460000FBF746FF4FF4804101222046FCF710FEE5
:1046100051208DF807004FF4005101222046FCF78D
:1046200007FE4FF4804100222046FCF701FE40F2D5
:1046300010200DF10701C2F2004001224FF47A73FD
:10464000FEF716FB08B1FBF723FF4FF48041012270
:104650002046FCF7EDFD2F208DF807004FF40051A8
:1046600001222046FCF7E4FD4FF480410022204661
:10467000FCF7DEFD40F210200DF10701C2F2004010
:1046800001224FF47A73FEF7F3FA08B1FBF700FF4B
:104690004FF4804101222046FCF7CAFD4FF400513F
:1046A000012220461F258DF80750FCF7C1FD4FF46D
:1046B000804100222046FCF7BBFD40F210200DF1A6
:1046C0000701C2F2004001224FF47A73FEF7D0FADC
:1046D00008B1FBF7DDFE4FF4804101222046FCF7D4
:1046E000A7FD4FF40051012220468DF80750FCF73A
:1046F0009FFD4FF4804100222046FCF799FD40F2D7
:1047000010200DF10701C2F2004001224FF47A732C
:10471000FEF7AEFA08B1FBF7BBFE4FF48041012271
:104720002046FCF785FD20208DF807004FF400514E
:1047300001222046FCF77CFD4FF4804100222046F8
:10474000FCF776FD40F210200DF10701C2F20040A7
:1047500001224FF47A73FEF78BFA08B1FBF798FE4B
:104760004FF4804101222046FCF762FD23208DF8A2
:1047700007004FF4005101222046FCF759FD4FF489
:10478000804100222046FCF753FD40F210200DF13D
:104790000701C2F2004001224FF47A73FEF768FA73
:1047A00008B1FBF775FE4FF4804101222046FCF76B
:1047B0003FFD21208DF807004FF4005100222046D4
:1047C000FCF736FD4FF4804100222046FCF730FD17
:1047D00040F210200DF10701C2F2004001224FF417
:1047E0007A73FEF745FA08B1FBF752FE4FF48041A9
:1047F00001222046FCF71CFD29208DF807004FF40C
:10480000005100222046FCF713FD4FF480410022A6
:104810002046FCF70DFD40F210200DF10701C2F219
:10482000004001224FF47A73FEF722FA08B1FBF739
:104830002FFE4FF4804101222046FCF7F9FC02B024
:10484000B0BD000000000000B0B51C461546024493
:104850000B44013A013B92B29BB2FEF789FE002D58
:1048600018BF002C0BD004986C43851E15F8020F5E
:1048700000F056F8687800F053F8013CF6D1B0BD6E
:10488000B0B582B040F600040546C5F60204000A41
:104890008DF806004FF4005101222046FCF7C8FCB9
:1048A0004FF4804100222046FCF7C2FC40F2102069
:1048B0000DF10601C2F2004001224FF47A73FEF7B7
:1048C000D7F908B1FBF7E4FD4FF4804101222046FF
:1048D000FCF7AEFC4FF40051012220468DF8075042
:1048E000FCF7A6FC4FF4804100222046FCF7A0FC18
:1048F00040F210200DF10701C2F2004001224FF4F6
:104900007A73FEF7B5F908B1FBF7C2FD4FF48041A9
:1049100001222046FCF78CFC02B0B0BD0000000074
:1049200010B582B040F600048DF80700C5F6020409
:104930004FF4005101222046FCF77AFC4FF48041ED
:1049400000222046FCF774FC40F210200DF1070114
:10495000C2F2004001224FF47A73FEF789F908B1E0
:10496000FBF796FD4FF4804101222046FCF760FCE6
:1049700002B010BD00000000FEE7000000000000D3
:10498000FEE700000000000070470000000000008B
:10499000F0B581B044F22C47C5F6020757F8042C55
:1049A00002F00302032A03D1012001B0F0BD00BFD1
:1049B000054657F82C0C0C4620F0806047F82C0C6C
:1049C000FCF746FC064600BF57F82C0C000105D545
:1049D000FCF73EFC801B0228F6D964E057F8040C73
:1049E000EE6895E80E0020F47C30012C40EA01309E
:1049F000A2F101016FF35F214FF47E4202EB4322EB
:104A000047F8040C92B24FF0FE4302EB01004FF462
:104A1000FE012A6901EB064101F4FE0103EB02628B
:104A2000084402F0FE410844F8603868696920F0E3
:104A3000C00040EA010038603868A96920F0200011
:104A400040EA0100386038684FF6F87120F0100035
:104A500038603869EA6920EA01004FF4001140EA41
:104A6000C2003861386808BF4FF4801140F0100070
:104A7000002C386008BF4FF40021386808433860C4
:104A800057F82C0C40F0806047F82C0CFCF7E0FB4A
:104A9000044600BF57F82C0C000107D4FCF7D8FBE4
:104AA000001B0328F6D3032001B0F0BD002001B0A5
:104AB000F0BD000000000000F0B581B044F22C47CA
:104AC000C5F6020757F8042C02F00302032A03D1AB
:104AD000012001B0F0BD00BF054657F82C0C0C4674
:104AE00020F0805047F82C0CFCF7B2FB064600BFC4
:104AF00057F82C0C800005D5FCF7AAFB801B022878
:104B0000F6D964E057F8040CEE6895E80E0020F042
:104B10007C70012C40EA0150A2F101016FF35F218A
:104B20004FF47E4202EB432247F8040C92B24FF05E
:104B3000FE4302EB01004FF4FE012A6901EB06413E
:104B400001F4FE0103EB0262084402F0FE41084456
:104B500078613868696920F4406040EA0100386093
:104B60003868A96920F4007040EA010038603868AC
:104B70004FF6F87120F480703860B869EA6920EA6D
:104B800001004FF0807140EAC200B861386808BF88
:104B90004FF4000140F48070002C386008BF4FF4DF
:104BA000800138680843386057F82C0C40F080507A
:104BB00047F82C0CFCF74CFB044600BF57F82C0CB4
:104BC000800007D4FCF744FB001B0328F6D3032026
:104BD00001B0F0BD002001B0F0BD000000000000F9
:104BE000016840F26F32D1F814C08B6943F00803BA
:104BF0008B618B6943F010038B610B6823F0010319
:104C00000B600B6923EA02020A618A6822F44042BF
:104C10008A6090F88120042A18BF1CF0200209D075
:104C2000D0F8842042F08002C0F884208A6942F0E3
:104C300020028A6190F88120032A18BF1CF04002EC
:104C40000CD15FEA8C5216D45FEACC5220D40021FA
:104C5000A0F86210A0F86A10704700BFD0F8842056
:104C600042F00402C0F884208A6942F040028A615E
:104C70005FEA8C52E8D5D0F8842042F00102C0F8F7
:104C800084208A6942F400728A615FEACC52DED5E0
:104C9000D0F8842042F00802C0F884208A6942F4E7
:104CA00080728A610021A0F86210A0F86A10704733
:104CB0007047000000000000FCF7D2BA00000000BE
:104CC00070B59CB044F6180440F22C4509A84C215C
:104CD000C5F60204C5F60005FBF74EFB02200026D0
:104CE000CDE90766CDE90566CDE90366CDE9016644
:104CF000FCF786FB0096286820F0010028602868F1
:104D000000F001000090206840F4404020602068DE
:104D100000F44040009000982068800409D4206886
:104D200080045CBF20685FEA804002D42068800471
:104D3000F2D54FF6DC40CFF6FF70215841F002016A
:104D40002150205800F002000090009800200090B0
:104D5000206840F440402060206800F4404000900B
:104D6000286840F001002860286800F001000090E9
:104D700000982068800409D4206880045CBF206803
:104D80005FEA804002D420688004F2D52320099095
:104D90004FF4A0200A9001200C900F900220CDE942
:104DA000120005211491C0214024CDE915100720DF
:104DB00017900420189009A80D940825199500262D
:104DC000CDE91A66FDF7F8FA20B1EFF3108072B65C
:104DD000FEE700BF3F20019003200421CDE9020639
:104DE0004FF480600694CDE9070401A8CDE904548E
:104DF000FDF7CEF820B1EFF3108072B6FEE700BFEA
:104E0000002000214FF48022FDF782FA1CB070BD13
:104E10004EF6885042F2000CCEF20000C5F2002C93
:104E2000016841F470010160DCF8000000F00F003F
:104E3000062806D8DCF80000072161F30300CCF84F
:104E4000000044F200404EF67F52C5F60200CEF656
:104E5000F622016841F0010101600021016103684F
:104E60001A400260DCF80020120706D5DCF80020AA
:104E7000072363F30302CCF8002040F20022816193
:104E8000C161C0F20222016282620022C0F2FF12FE
:104E9000C26240F28022C0F2011202634163826367
:104EA000C16302644164026822F4802202600166E8
:104EB00041F20000C5F600400068B1EB507F05D11B
:104EC00048F208100121C5F20010016044F2000010
:104ED00043F2D201C5F200200160704700000000DB
:104EE00040F27400C2F20040FEF752BA0000000027
:104EF00010B540F6FF32C4F20002904202680FDCA7
:104F0000B0F1804F1DD040F20043C4F2000398423C
:104F100017D040F60003C4F20003984211D014E009
:104F200040F60043C4F2000398420AD040F2004326
:104F3000C4F20103984204D00023C4F20103984252
:104F400003D122F070024B681A434FF6FF7343F609
:104F5000FF7CC4F20003C4F2010C984214DD6045EA
:104F600022DD44F20003C4F20103984234D044F637
:104F70000003C4F2010398422ED044F20043C4F26D
:104F80000103984228D02BE040F2FF73C4F20003E3
:104F9000984215DCB0F1804F1ED040F20043C4F2BD
:104FA0000003984218D01BE00023C4F2010398428A
:104FB00012D040F20043C4F2010398420CD00FE03B
:104FC00040F60003C4F20003984205D040F60043C7
:104FD000C4F20003984203D122F44072CB681A4312
:104FE00022F080024C696045D1F800E08B6842EA0B
:104FF00004020260C362C0F828E013DD44F200023C
:10500000C4F20102904218D044F60002C4F2010238
:10501000904212D044F20042C4F2010290420CD0FD
:105020000DE000BF0022C4F20102904205D040F220
:105030000042C4F20102904201D1096901630121D9
:1050400041610169C90708BF10BD016921F0010173
:10505000016110BD00000000FEE70000000000003C
:10506000B6B0FCF70DF9FFF72BFE02ACB82104F146
:105070000800FBF781F94FF0804002904FF40040A8
:105080003190204600270397FCF7E2F920B1EFF3B7
:10509000108072B6FEE700BF44F2E0400697C5F606
:1050A000020041F6000AC5F6020A002201680AF56C
:1050B000006941F01001016001684FF4807601F051
:1050C000100133913399016841F4807101600168E6
:1050D00001F4807133913399016841F0040101605A
:1050E000016801F0040133913399016841F0200116
:1050F0000160016801F0200133913399016841F0AA
:1051000080010160016801F08001339133990168E9
:1051100041F001010160016801F00101339133990F
:10512000016841F040010160016801F040013391E4
:105130003399016841F002010160016801F0020148
:1051400033913399016841F00801016000684FF420
:10515000807100F00800339033984846FCF768F8F7
:10516000AAF580584EF2C03100224046FCF760F8A4
:10517000AAF5C0554FF4C16100222846FCF758F843
:10518000AAF540644FF4006100222046FCF750F875
:10519000482100225046FCF74BF8029602AE4846E2
:1051A00031464FF0010B0597CDE903B7FBF768FFD8
:1051B0004EF2C0303146CDE9020B4046CDE90477CE
:1051C000FBF75EFF4FF4C1603146CDE9020B284684
:1051D000CDE90477FBF754FF4FF400603146CDE989
:1051E000020B2046CDE90477FBF74AFF4820314601
:1051F000CDE9020B5046CDE90477FBF741FF4FF4B0
:105200008070029002203146CDE903072846CDE99F
:105210000577FBF735FF4FF400403146CDE9020733
:105220000AF580600497FBF72BFF484631464FF0A4
:10523000030B0497CDE902B7FBF722FF4FF400619F
:1052400001222046FBF7F4FF082100225046FBF71D
:10525000EFFF402101225046FBF7EAFF4FF40041E7
:1052600000224046FBF7E4FF40F21025AAF501308A
:10527000C2F2004528214FF480064FF08068286074
:105280000720C5E903074FF080506F61C5E90707A4
:1052900005F13400C5F81880C5E90167C5E909774B
:1052A000EF62FBF769F82846FDF736FB20B1EFF314
:1052B000108072B6FEE700BF40F2881440F200474B
:1052C000C2F20044C4F2000707F550502421C4E99B
:1052D00000064FF08040606304F138000025C4E907
:1052E000025BC4E90455C4E90685C4E90855C4E96C
:1052F0000A55FBF741F82046FDF70EFB20B1EFF30E
:10530000108072B6FEE700BF40F270040595C2F24D
:1053100000443495204642F21071CDE9035540F81F
:10532000047FC0E9011545F6C051C0E9031580218D
:105330008161FDF779FE28B1EFF3108072B600BFEE
:10534000FEE700BF251D4FF48050029002A92846B9
:10535000FDF71AFF20B1EFF3108072B6FEE700BF31
:1053600000203390359033A92846FDF7F5FD28B18C
:10537000EFF3108072B600BFFEE700BFFEF7F8F94A
:1053800000200021AC224FF4A0734FF4FC6700977B
:10539000FEF776F945F2E83728202821282228232D
:1053A000C0F600070097FFF74FFA54F8040F6FF0AC
:1053B000010101612046FDF78BFE00BFFEE7F1EE23
:1053C000100A4FF6FF71C0F2C03120EA010040F030
:1053D0004070E1EE100A7047000000000102030473
:1053E0000102030406070809FFFFFFFFFFFFFFFF9D
:1053F000FFFFFFFFFFFFFFFFFFFFFFFFFFFFFFFFBD
:10540000FFFFFFFFFFFFF7BEFFFFFFDEC6388C92F6
:105410006B8E6B6E7C10AD96E73CFFFFFFFFFFFFCE
:10542000FFFFFFFFFFFFFFFFFFFFFFFFFFFFFFFF8C
:10543000FFFFFFFFFFFFFFFFFFFFFFFFFFFFFFFF7C
:10544000FFFFFFFFFFFFFFFFFFFFFFFFFFFFFFFF6C
:10545000FFFFFFFFFFFFEF5D9D15634F426C320AB8
:10546000298819461925214531E86B8EC638FFFF7A
:10547000FFFFFFFFFFFFFFFFFFFFFFFFFFFFFFFF3C
:10548000FFFFFFFFFFFFFFFFFFFFFFFFFFFFFFFF2C
:10549000FFFFFFFFFFFFFFFFFFFFFFFFFFFFFFFF1C
:1054A000FFFFFFFFA53653104B1053514B0F3A6CC3
:1054B00031E92167192510E408A30062088352CB63
:1054C000D69AFFFFFFFFFFFFFFFFFFFFFFFFFFFF7A
:1054D000FFFFFFFFFFFFFFFFFFFFFFFFFFFFFFFFDC
:1054E000FFFFFFFFFFFFFFFFFFFFFFFFFFFFFFFFCC
:1054F000E73C637063B37CB863F54311324D29EA2E
:1055000021881926190519051104110410E40083D6
:1055100008A38C72FFFFFFFFFFFFFFFFFFFFFFFFEE
:10552000FFFFFFFFFFFFFFFFFFFFFFFFFFFFFFFF8B
:10553000FFFFFFFFFFFFFFFFFFFFFFFFFFFFDEDBC0
:105540003A4B42F06C354B5432B12A2E21EB21A953
:105550001967190511041104110411041104190526
:1055600010E4004273AFFFFFFFFFFFFFFFFFFFFFED
:10557000FFFFFFFFFFFFFFFFFFFFFFFFFFFFFFFF3B
:10558000FFFFFFFFFFFFFFFFFFFFFFFFEF5D3209A0
:10559000324C4B10328F2A4F2A2E19CC198921896F
:1055A000194719051104110410C410C41104110481
:1055B000110410E400428431FFFFFFFFFFFFFFFFF3
:1055C000FFFFFFFFFFFFFFFFFFFFFFFFFFFFFFFFEB
:1055D000FFFFFFFFFFFFFFFFFFFFFFFF52EC194739
:1055E000324C2A0B21EC21EC220C5B914AEE110685
:1055F0001926190410E410E429A7216608A3190547
:105600001104110410E40082BDF7FFFFFFFFFFFF4C
:10561000FFFFFFFFFFFFFFFFFFFFFFFFFFFFFFFF9A
:10562000FFFFFFFFFFFFFFFFFFFFA5350883218876
:105630002188218921AA218A426B8C71FFFF8C72FB
:105640000883110408C44229DEFBEF5D5AEC08838D
:10565000110411041104088331E8FFDFFFFFFFFF8D
:10566000FFFFFFFFFFFFFFFFFFFFFFFFFFFFFFFF4A
:10567000FFFFFFFFFFFFFFFFF7BE31C710C4192573
:1056800019261947194729A8528A4A28AD55FFFFFC
:1056900031E808A319056B4D6B4DFFFFEF7D2145E8
:1056A00010C41104110411040062AD76FFFFFFFF66
:1056B000FFFFFFFFFFFFFFFFFFFFFFFFFFFFFFFFFA
:1056C000FFFFFFFFFFFFFFFFB59600621104190403
:1056D0001105190508C44A8BB5B6EF5DBDF7FFFF8C
:1056E0006B8E006242295AAA4208FFFFFFFF52CC8C
:1056F000088311041104110408A352ADFFFFFFFF3A
:10570000FFFFFFFFFFFFFFFFFFFFFFFFFFFFE71CA4
:10571000FFFFFFFFFFFFFFFF634E00621104110454
:10572000110410E40062638EFFFFFFFFFFFFFFFF25
:1057300073CF00019CF3632CB596FFFFFFFF5B2D39
:10574000008311041104110410E42167EF3DFFFFF1
:10575000FFFFFFFFFFFFFFFFBDF8B5B7EF9E52CB86
:1057600094B3FFFFFFFFFFDF31E808A3110411042A
:105770001104110408A34249F7FFF7FFFFFFFFFFE1
:105780004A6A00018472FFFFFFFFF7FFEFDF3A096B
:1057900008A311041104110411041105BE18FFFF20
:1057A000FFFFFFFFFFFFFFFF7BF0006231E831C723
:1057B0000041A535FFFFEF5D214610C4110411041F
:1057C0001104110410E408A39D76F7FFFFFFADB7A5
:1057D00008A308A331C7E79EF7FFF7FFA57608A344
:1057E00010E411041104110411051105A535FFFF82
:1057F000FFFFFFFFFFFFFFFFDEDB29A7008310C4D1
:1058000010C410C4E71CEF9E110510E4110411042C
:1058100011041104190408C410E56BD16BD108C53B
:10582000006408A50043322B9D7784B3192510C46A
:105830001104110411041104192509269D35FFFFD7
:10584000FFFFFFFFFFFFFFFFFFFF73AF00621904C1
:10585000190500825B0D9B8E106211051104110465
:10586000190410E40085110539C45A817B409C223B
:10587000AC43A4039B837282498218C200A400C572
:1058800010E4190411041905194711675AECFFBEF9
:10589000FFFFFFFFFFFFFFFFFFDFDEDB10C410E4B1
:1058A0001104110518A4C001888300E41905190426
:1058B00008C521448343D523FE42FEE4FF27FF07AA
:1058C000FEA4FE64FE03FDA3FCE2EC42B38362246B
:1058D00010E508C41904192619A821879000BCD323
:1058E000FFFFFFFFFFFFFFFFFFDFFFFF7C10004216
:1058F000190511052883D001F84448A300E408C520
:105900005A44ED02FDE2FE02FE66FF74FFB8FF732B
:10591000F6E7F6A6F645F5A4FCC3FC62FCC2FCC2A1
:10592000CBE349C411061988018790A4F8019AECC9
:10593000FFFFFFFFFFFFFFFFFFFFFFFFF7BE31E8A5
:10594000008309054082C001F823F08548A300A424
:105950005A44FD02CC23DCC2FE04FE28F648F6467B
:10596000F624F5E4FD64FCE3FC62FCC2E402DC0224
:10597000FCE27AA40148016778C4F824F802B084F4
:10598000E77DFFFFFFFFFFFFFFFFFFFFFFFFDEDB06
:10599000192500A338C4E002D822F844F8A678A458
:1059A00000632143728339839B82F521FD61FD22CF
:1059B000FCE2FCA2FC42FC42FC42AB22418392C3CB
:1059C00052040126192598A4F844F823F802D0A41B
:1059D000EF9EFFFFFFFFFFFFFFFFFFFFFFFFFFFF48
:1059E000D69A298700A5B843F822E023F865F8E89D
:1059F000C9074883004200A3008429637AA2B362E6
:105A0000CBA2D362BB028A82398300A400E500E501
:105A100008E560C4D864F844F824F823F8028883C1
:105A2000C6DBFFFFFFFFFFFFFFFFFFFFFFFFFFFFE3
:105A3000FFFFE73D5B503108E823F843F044F86589
:105A4000F909F9ABD189890648A31842000200423E
:105A50000061008200620062008320A350C488A518
:105A6000D885F865F844F844F823F823D003108269
:105A700029C7EF5DFFFFFFFFFFFFFFFFFFFFFFFFF6
:105A8000FFFFFFFFFFFF326C38A5D802F823F8654F
:105A9000F866F8A7F94AFA0CFA4DEA4CD20BB9A904
:105AA000B168A947B127B907D107E8E7F8C7F8A750
:105AB000F865F865F844F823F803D00228A309052F
:105AC00008C45AECFFFFFFFFFFFFFFFFFFFFFFFFD0
:105AD000FFFFFFFFDEFB190500C441A7C0E6F80386
