:020000040800F2
:10000000207700243903000889F8000809E5000872
:1000100081F80008C1060008316F010800000000E7
:100020000000000000000000000000002121010885
:100030008915000800000000F1020108B92101083B
:100040005303000853030008530300085303000838
:100050005303000853030008530300085303000828
:100060005303000853030008530300081109000854
:100070002109000853030008530300085303000834
:1000800053030008530300085303000853030008F8
:1000900053030008530300085303000853030008E8
:1000A00053030008530300085303000853030008D8
:1000B0005303000899240108530300085303000860
:1000C00053030008530300085303000853030008B8
:1000D00053030008530300085303000853030008A8
:1000E00053030008530300080000000053030008F6
:1000F0005303000853030008530300085303000888
:100100005303000853030008530300085303000877
:100110005303000853030008530300085303000867
:100120005303000853030008530300085303000857
:100130005303000853030008530300085303000847
:1001400000000000000000000000000000000000AF
:100150005303000853030008530300085303000827
:100160005303000853030008530300085303000817
:1001700053030008530300080109000800000000B1
:1001800053030008530300085303000853030008F7
:100190005303000853030008311F010853030008EC
:1001A00053030008530300085303000853030008D7
:1001B00053030008530300085303000853030008C7
:1001C00053030008530300085303000853030008B7
:1001D0005303000801F90008530300085303000803
:1001E0005303000853030008530300085303000897
:1001F0005303000853030008530300085303000887
:100200005303000853030008530300085303000876
:100210005303000853030008530300085303000866
:1002200053030008530300085303000800000000B4
:1002300053030008530300080000000053030008A4
:100240005303000853030008530300085303000836
:100250005303000853030008530300085303000826
:100260005303000853030008530300085303000816
:100270005303000853030008530300080000000064
:100280005303000853030008530300080000000054
:10029000000000005303000800F002F800F03CF8F2
:1002A0000AA090E8000C82448344AAF10107DA45D1
:1002B00001D100F031F8AFF2090EBAE80F0013F0E7
:1002C000010F18BFFB1A43F001031847ECDD0100D2
:1002D0000CDE0100103A24BF78C878C1FAD8520762
:1002E00024BF30C830C144BF04680C6070470000B0
:1002F0000023002400250026103A28BF78C1FBD82F
:10030000520728BF30C148BF0B6070471FB519F0B6
:10031000F8F91FBD10B510BD00F002F91146FFF746
:10032000F5FF18F04DFD00F020F903B4FFF7F2FFE0
:1003300003BC00F027F9000009488047094800473E
:10034000FEE7FEE7FEE7FEE7FEE7FEE7FEE7FEE785
:10035000FEE7FEE704480549054A064B70470000E2
:10036000392301089902000820470024207700243F
:10037000205700242057002453EA020C00F0698023
:100380002DE9F04B4FF00006002B1FBFB3FA83F5A9
:1003900003FA05F424FA05F65E4012BF1643B2FADA
:1003A00082F502FA05F4C5F120051EBF22FA05FC0C
:1003B00044EA0C04203556EA044C4FEA144418BFB2
:1003C000641C4FF000084FF00009904271EB030CE1
:1003D00039D3002919BFB1FA81F701FA07F6B0FA4B
:1003E00080F700FA07F6C7F120071EBF20FA07FCC6
:1003F00046EA0C062037B6FBF4FCA7EB0507103FD6
:1004000007F01F0BCBF120062CFA06F60CFA0BFBBB
:1004100044BFB3460026202FA4BF5E464FF0000B1A
:100420005BEA060C08BF4FF0010B19EB0B0948EB18
:100430000608ABFB027C06FB02CC0BFB03CCC01B0B
:1004400071EB0C01C1E70B46024641464846BDE848
:10045000F08B13B5084318BF4FF0FF300146AFF3E0
:100460000080BDE81C40704710B5203AC0F00B80FA
:10047000B1E81850A0E81850B1E81850A0E818509A
:10048000203ABFF4F5AF5FEA027C24BFB1E8185010
:10049000A0E8185044BF18C918C0BDE810405FEA72
:1004A000827C24BF51F8043B40F8043B08BF7047EE
:1004B000D20728BF31F8023B48BF11F8012B28BFF3
:1004C00020F8023B48BF00F8012B70474FF00002B4
:1004D00000B5134694469646203922BFA0E80C503A
:1004E000A0E80C50B1F12001BFF4F7AF090728BF15
:1004F000A0E80C5048BF0CC05DF804EB890028BF91
:1005000040F8042B08BF704748BF20F8022B11F0B9
:10051000804F18BF00F8012B704770477047704735
:10052000754600F02BF8AE4605006946534620F0AC
:100530000700854618B020B5FFF70CFFBDE8204046
:100540004FF000064FF000074FF000084FF0000B8F
:10055000AC46ACE8C009ACE8C009ACE8C009ACE8FE
:10056000C00921F007018D46704710B50446AFF36E
:1005700000802046BDE81040FFF7D7BE0048704716
:100580000801002401491820ABBEFEE72600020046
:10059000704700000000000080B582B00190019912
:1005A00044F2B010C2F200400BF0A6FD02B080BDD4
:1005B00080B544F2B010C2F200400BF0C5FD043823
:1005C00018BF012080BD000080B582B000208DF8EA
:1005D000060000F02DF8012804D0FFE702208DF876
:1005E00007001FE044F2B010C2F200400BF064FEBE
:1005F0008DF806009DF8060078B9FFE744F2B010C8
:10060000C2F200404FF480410BF0F2FA20B1FFE754
:1006100001208DF80600FFE7FFE79DF806008DF842
:100620000700FFE79DF8070002B080BD0000000052
:1006300081B001208DF803009DF8030001B07047E0
:1006400080B586B0059004910392029300208DF846
:1006500007000599049A039B0298EC46CCF8000029
:1006600044F2B010C2F200400BF0DAFF20B1FFE715
:1006700001208DF80700FFE79DF8070006B080BD58
:1006800080B586B0059004910392029300208DF806
:1006900007000599049A039B0298EC46CCF80000E9
:1006A00044F2B010C2F200400CF05EF920B1FFE756
:1006B00001208DF80700FFE79DF8070006B080BD18
:1006C000FFE7FEE70000000084B08DF80F00029104
:1006D000ADF806209DF80F000146009123281DD893
:1006E0000099DFE801F012131415161B1B1B1B1BCE
:1006F0001B1B1B1B1B1B1B1B1B1B1B1B1B1B1B1B4A
:100700001B1B1B1B1B1B1718191A08E007E006E030
:1007100005E004E003E002E001E000E0FFE7002084
:1007200004B0704700000000002070470000000087
:1007300080B582B043F23860C2F20040009042F6C9
:100740002461C2F200410022019213F0ADFA009838
:1007500042F22461C2F2004113F086FA019802B01D
:1007600080BD00000000000080B584B003900291BD
:10077000039943F23860C2F20040019013F074FA1A
:10078000019813F015FA002004B080BD00000000AD
:1007900083B0029001918DF8032000208DF80200B3
:1007A0009DF9020003B0704780B582B001900198B6
:1007B000806B00900098806C406D02280AD0FFE7A3
:1007C0000099012081F835000099C86C40F0400084
:1007D000C864FFE7009801F0C3F902B080BD0000D3
:1007E00080B584B003900398806B01900198806B72
:1007F000002840D0FFE70198806C0068006800F492
:10080000002002900198806BC007B0B9FFE7029802
:1008100098B1FFE70198806C0068C0680290019A67
:10082000906C0299D26B01EBC201002201F060FCD6
:100830000199886B013888631CE00198806C00681E
:1008400000680003002813D4FFE70198806C00685B
:1008500000690290019A906C0299D26B01EBC2017F
:10086000012201F045FC0199886B0138886300E0A2
:10087000FFE7FFE728E00198806C0068006800034C
:10088000002806D5FFE70199486C896C0968C860A3
:1008900019E00198806C006800680003002810D4FB
:1008A000FFE70198406C029002980199C96B00EB38
:1008B00081000199896C096808610199086C886355
:1008C00000E0FFE7FFE7FFE70198806B0199096C03
:1008D000884213D1FFE701980168C86840F0010021
:1008E000C8600198006800688007002805D5FFE708
:1008F0000199012081F83500FFE7FFE704B080BDD2
:1009000080B543F61410C2F2004001F045F980BDF5
:1009100080B543F66410C2F2004002F015FD80BDC0
:10092000704700000000000083B002900298016848
:1009300001201022C4F202029142009000F0A38034
:10094000FFE70298016801202822C4F202029142C6
:10095000009000F09880FFE7029801680120402293
:10096000C4F202029142009000F08D80FFE70298ED
:10097000016801205822C4F202029142009000F066
:100980008280FFE70298016801207022C4F202020F
:100990009142009077D0FFE70298016801208822F9
:1009A000C4F20202914200906DD0FFE70298016804
:1009B0000120A022C4F202029142009063D0FFE71E
:1009C000029801680120B822C4F20202914200900C
:1009D00059D0FFE702980168012040F21042C4F2AA
:1009E0000202914200904ED0FFE702980168012078
:1009F00040F22842C4F202029142009043D0FFE745
:100A000002980168012040F24042C4F20202914281
:100A1000009038D0FFE702980168012040F2584268
:100A2000C4F20202914200902DD0FFE702980168C3
:100A3000012040F27042C4F202029142009022D0A2
:100A4000FFE702980168012040F28842C4F20202E6
:100A50009142009017D0FFE702980168012040F210
:100A6000A042C4F20202914200900CD0FFE702982B
:100A700000684FF64831CBF6FD710844B0FA80F0BB
:100A800040090090FFE70098C00740B3FFE70298D5
:100A9000007810384AF6AB21CAF6AA21A0FB011053
:100AA00000090190019800F0070149F27870C0F642
:100AB0000100405C0299C8650198042807D3FFE74C
:100AC00002990868042262F30900886506E0029929
:100AD000086840F2FF3290438865FFE705E002991D
:100AE000086820F0FF008865FFE70298806D03B07A
:100AF000704700000000000084B003900398006875
:100B0000019003980168012045F20842C5F60202EF
:100B1000914200904ED0FFE703980168012045F212
:100B20001C42C5F602029142009043D0FFE70398B1
:100B30000168012045F23042C5F602029142009060
:100B400038D0FFE703980168012045F24442C5F61A
:100B50000202914200902DD0FFE703980168012026
:100B600045F25842C5F602029142009022D0FFE7BA
:100B700003980168012045F26C42C5F602029142D9
:100B8000009017D0FFE703980168012045F28042EA
:100B9000C5F60202914200900CD0FFE7039800686E
:100BA0004AF66C31CAF2FD710844B0FA80F040098F
:100BB0000090FFE70098C00710B3FFE703980078A4
:100BC00008384CF6CD41CCF6CC41A0FB0110000911
:100BD0000290029945F60000C5F6020000EB810084
:100BE00003990866039945F68000C5F60200486639
:100BF000029800F01F01012088400399886635E0C3
:100C00000398007810384AF6AB21CAF6AA21A0FB57
:100C1000011000090290019840F2B841C4F20201AB
:100C200088420CD8FFE7019840F21041C4F202015B
:100C3000884204D3FFE7029808300290FFE7029948
:100C400040F60000C4F2020000EB81000399086640
:100C5000039940F68000C4F202004866029800F052
:100C60001F010120884003998866FFE704B07047A0
:100C700083B002900298007901900198002800F05A
:100C80008A80FFE70198082800F28580FFE7029834
:100C90000168012045F20842C5F602029142009027
:100CA0004ED0FFE702980168012045F21C42C5F6CC
:100CB00002029142009043D0FFE7029801680120B0
:100CC00045F23042C5F602029142009038D0FFE76B
:100CD00002980168012045F24442C5F602029142A1
:100CE00000902DD0FFE702980168012045F258429C
:100CF000C5F602029142009022D0FFE702980168F7
:100D0000012045F26C42C5F602029142009017D0D4
:100D1000FFE702980168012045F28042C5F6020211
:100D2000914200900CD0FFE7029800684AF66C31BF
:100D3000CAF2FD710844B0FA80F040090090FFE764
:100D40000098C00780B1FFE7019945F6FC00C5F6A1
:100D5000020000EB81000299C866029945F6401036
:100D6000C5F6020008670FE0019940F6FC00C4F2E6
:100D7000020000EB81000299C866029940F640101B
:100D8000C4F202000867FFE70198411E0120884075
:100D900002994867FFE703B07047000000000000B9
:100DA00085B0049000208DF80F000498806918BB6E
:100DB000FFE70498806A029003281BD80299DFE8B5
:100DC00001F0020D0218049890F82F00C00720B11E
:100DD000FFE701208DF80F00FFE70CE00498C06AE0
:100DE000B0F1C07F04D1FFE701208DF80F00FFE7CD
:100DF00001E000E0FFE747E004988069B0F5005F9C
:100E000026D1FFE70498806A019003281ED8019933
:100E1000DFE801F00206021101208DF80F0016E054
:100E2000049890F82F00C00720B1FFE701208DF84B
:100E30000F00FFE70BE00498C06AB0F1C07F04D157
:100E4000FFE701208DF80F00FFE700E0FFE71AE061
:100E50000498806A0090032804D3FFE700980328D1
:100E600004D00EE001208DF80F000BE0049890F8FC
:100E70002F00C00720B1FFE701208DF80F00FFE72A
:100E800000E0FFE7FFE7FFE79DF80F0005B07047C0
:100E900085B00490039102920193049801680120A7
:100EA0001022C4F202029142009000F0A380FFE7FA
:100EB0000498016801202822C4F2020291420090A5
:100EC00000F09880FFE70498016801204022C4F2F6
:100ED00002029142009000F08D80FFE704980168C3
:100EE00001205822C4F202029142009000F0828058
:100EF000FFE70498016801207022C4F202029142C7
:100F0000009077D0FFE70498016801208822C4F29E
:100F10000202914200906DD0FFE704980168012021
:100F2000A022C4F202029142009063D0FFE704982D
:100F300001680120B822C4F202029142009059D007
:100F4000FFE704980168012040F21042C4F2020257
:100F5000914200904ED0FFE704980168012040F2D2
:100F60002842C4F202029142009043D0FFE7049865
:100F70000168012040F24042C4F202029142009016
:100F800038D0FFE704980168012040F25842C4F2CB
:100F90000202914200902DD0FFE7049801680120E1
:100FA00040F27042C4F202029142009022D0FFE768
:100FB00004980168012040F28842C4F20202914282
:100FC000009017D0FFE704980168012040F2A0428A
:100FD000C4F20202914200900CD0FFE7049800682E
:100FE0004FF64831CBF6FD710844B0FA80F0400965
:100FF0000090FFE70098C007E0B1FFE7019804996F
:101000000968486004988068402809D1FFE7029881
:10101000049909688860039804990968C86008E021
:101020000398049909688860029804990968C8605F
:10103000FFE71BE0019804990968486004988068FC
:10104000402809D1FFE7029804990968886003984D
:1010500004990968C86008E00398049909688860E1
:10106000029804990968C860FFE7FFE705B0704778
:1010700089B008900791069205930898806D0490B6
:101080000898806D03900898016801201022C4F22E
:1010900002029142029000F00381FFE70898016884
:1010A00001202822C4F202029142029000F0F8804E
:1010B000FFE70898016801204022C4F20202914231
:1010C000029000F0ED80FFE70898016801205822A7
:1010D000C4F202029142029000F0E280FFE7089819
:1010E000016801207022C4F202029142029000F0D5
:1010F000D780FFE70898016801208822C4F2020225
:101100009142029000F0CC80FFE70898016801202E
:10111000A022C4F202029142029000F0C180FFE7D7
:10112000089801680120B822C4F20202914202909C
:1011300000F0B680FFE708980168012040F21042F5
:10114000C4F202029142029000F0AA80FFE70898E0
:101150000168012040F22842C4F20202914202904A
:1011600000F09E80FFE708980168012040F24042AD
:10117000C4F202029142029000F09280FFE70898C8
:101180000168012040F25842C4F2020291420290EA
:1011900000F08680FFE708980168012040F2704265
:1011A000C4F20202914202907AD0FFE708980168E7
:1011B000012040F28842C4F20202914202906FD0B4
:1011C000FFE708980168012040F2A042C4F2020241
:1011D0009142029064D0FFE708980168012040F234
:1011E000B842C4F202029142029059D0FFE7089837
:1011F0000168012045F20842C5F6020291420290C0
:101200004ED0FFE708980168012045F21C42C5F660
:1012100002029142029043D0FFE708980168012042
:1012200045F23042C5F602029142029038D0FFE703
:1012300008980168012045F24442C5F60202914235
:1012400002902DD0FFE708980168012045F258422E
:10125000C5F602029142029022D0FFE70898016889
:10126000012045F26C42C5F602029142029017D06D
:10127000FFE708980168012045F28042C5F60202A6
:10128000914202900CD0FFE7089800684AF66C3152
:10129000CAF2FD710844B0FA80F040090290FFE7FD
:1012A0000298C00770B1FFE70898416E806E4860F1
:1012B0000898C06E28B1FFE70898016F406F48603A
:1012C000FFE7FFE70898016801201022C4F202023C
:1012D0009142019000F0A380FFE708980168012087
:1012E0002822C4F202029142019000F09880FFE7A8
:1012F0000898016801204022C4F202029142019044
:1013000000F08D80FFE70898016801205822C4F2A0
:1013100002029142019000F08280FFE70898016884
:1013200001207022C4F202029142019077D0FFE7BF
:101330000898016801208822C4F2020291420190BB
:101340006DD0FFE7089801680120A022C4F20202D4
:101350009142019063D0FFE7089801680120B8220C
:10136000C4F202029142019059D0FFE70898016847
:10137000012040F21042C4F20202914201904ED08C
:10138000FFE708980168012040F22842C4F20202F7
:101390009142019043D0FFE708980168012040F294
:1013A0004042C4F202029142019038D0FFE708980F
:1013B0000168012040F25842C4F2020291420190B9
:1013C0002DD0FFE708980168012040F27042C4F276
:1013D00002029142019022D0FFE7089801680120A3
:1013E00040F28842C4F202029142019017D0FFE716
:1013F00008980168012040F2A042C4F20202914222
:1014000001900CD0FFE7089800684FF64831CBF602
:10141000FD710844B0FA80F040090190FFE701989F
:10142000C00750B3FFE70898C06D00F01F013F20D0
:1014300088400499886008980168086820F4802032
:1014400008600598089909684860089880684028ED
:1014500009D1FFE7069808990968886007980899F4
:101460000968C86008E007980899096888600698C4
:1014700008990968C860FFE782E0089801680120C0
:1014800045F20842C5F60202914200904ED0FFE7B5
:1014900008980168012045F21C42C5F602029142FB
:1014A000009043D0FFE708980168012045F23042E0
:1014B000C5F602029142009038D0FFE70898016813
:1014C000012045F24442C5F60202914200902DD01F
:1014D000FFE708980168012045F25842C5F602026C
:1014E0009142009022D0FFE708980168012045F260
:1014F0006C42C5F602029142009017D0FFE70898AF
:101500000168012045F28042C5F602029142009036
:101510000CD0FFE7089800684AF66C31CAF2FD71FA
:101520000844B0FA80F040090090FFE70098C00737
:1015300020B3FFE70898C06D00F01F01012088402C
:101540000399486005980899096848600898806878
:10155000402809D1FFE7069808990968886007982C
:1015600008990968C86008E00798089909688860C0
:10157000069808990968C860FFE700E0FFE7FFE701
:1015800009B0704700000000704700000000000034
:1015900081B0EFF3108072B60090FFE7FEE7000025
:1015A00080B582B00190009101980099002200F06E
:1015B00003F802B080BD000084B0039002918DF862
:1015C000072001208DF8060000208DF8050043F269
:1015D0002860C2F20040407A002827DCFFE743F28F
:1015E0002863C2F200430093597A002058540399AB
:1015F0005A7A03EB820251609DF807105A7A1A4416
:101600001172597A4A1C5A728DF805109DF805100E
:101610003031029A1170029A3A215170029A2F21A8
:1016200091700299C8708DF80600FFE79DF80600DA
:1016300004B070470000000084B002900298406B34
:10164000009002980068D0F884004FF6FC7188433F
:10165000009940EA810002990968C1F88400029863
:101660000068D0F8840020F47F00029A1168926B21
:1016700040EA0240C1F884000298816B0098084457
:10168000009002980068D0F888006FF38F000099EE
:1016900040EA810002990968C1F888000298006850
:1016A000D0F8880020F4FE00029A1168D26B40EA5C
:1016B0000240C1F888000298C16B009800EB41001D
:1016C000009002980068D0F8A0006FF38F00009996
:1016D00040EA810002990968C1F8A00002980068F8
:1016E000D0F8A00020F4FE00029A1168126C40EAC3
:1016F0000240C1F8A0000299086C496C009A00FBF6
:101700000120009002980068D0F8B0006FF38F00BD
:10171000009940EA810002990968C1F8B000029876
:101720000068D0F8B00020F4FE00029A1168926CB4
:1017300040EA0240C1F8B0000299886CC96C009A76
:1017400000FB0120009002980068D0F8AC006FF315
:101750008F00009940EA810002990968C1F8AC0045
:101760000299086D496D009A00FB012000900298D3
:101770000068D0F8F0006FF38F00009940EA810014
:1017800002990968C1F8F00002980068D0F8F000EA
:1017900020F47C10029A1168926D40EA0240C1F870
:1017A000F0000298816D009800EB410000900298D3
:1017B0000068D0F8C0006FF38F00009940EA810004
:1017C00002990968C1F8C00002980068D0F8C0000A
:1017D00020F47C10029A1168D26D40EA0240C1F8F0
:1017E000C00002980068D0F8C00020F07C50029A37
:1017F0001168126E40EA0260C1F8C00002994A6B9B
:101800004AF60040C4F2000000EB8200C86602996C
:101810008A6BC86E00EB820008670299CA6B086F7A
:1018200000EBC200486702990A6C4B6C486F5A4340
:1018300000EB8200886702998A6CCB6C886F5A43F0
:1018400000EB8200C86702990A6D4B6DC86F5A435E
:1018500000EB8200C1F8800002998A6DD1F8800007
:1018600000EBC200C1F884000299CA6D8B6ED1F8FA
:1018700084005A4300EB8200C1F8880002990A6E86
:101880008B6ED1F888005A4300EB8200C1F89000BB
:101890000298D0F890004DF2FD31C4F20001884268
:1018A0000FD3FFE70299D1F89C0040F02000C1F867
:1018B0009C000299032081F8980001208DF80F0008
:1018C00017E00298C06E0190FFE701980299D1F8E5
:1018D0009010884208D2FFE7019900200860FFE7D6
:1018E000019804300190F0E7FFE700208DF80F0029
:1018F000FFE79DF80F0004B07047000000000000F3
:1019000080B583B0029001910198006800BBFFE7A9
:101910000298006847F6FF718843019A0092516867
:10192000D2F808E0D2F80CC0136941EA0E0141EA8E
:101930000C0119435369194393691943D369194336
:10194000136A1943526A114308430299086025E05B
:101950000298006820F4F840019AD169136A526A2B
:10196000194311430843029908600298406847F6FA
:10197000FF718843019A5168D2F808E0D2F80CC090
:10198000136941EA0E0141EA0C01194353691943F5
:1019900092691143084302994860FFE7002003B0B1
:1019A00080BD00000000000082B00190009101980D
:1019B000406943F6FE718843009940EA410001996D
:1019C0004861002002B0704783B0029001910092FC
:1019D000029800696FF31500019A11685368D2F8F4
:1019E00008C0D26819436FF01F0303EB4C1319436F
:1019F00041EA4221084302990861002003B0704780
:101A000010B583B00290019100920098A8BBFFE747
:101A10000298806800F07040019A11685468D2F80A
:101A200008E0D2F80CC001396FF00F0303EB041388
:101A300019436FF0FF0303EB0E2319434FF200032A
:101A4000CFF6FF7303EB0C331943D2F810C0002319
:101A5000CFF6FF7303EB0C431943D2F814C00023F5
:101A6000CFF6F07303EB0C5319439269013A41EA44
:101A700002610843029988603CE00298806840F661
:101A8000FF71CFF60F7108400199CA684B694FF298
:101A90000001CFF6FF7101EB02310022CFF6F072A8
:101AA00002EB035211430843029988600298C06810
:101AB00000F07040019A11685468D2F808E0D2F83A
:101AC00010C001396FF00F0303EB041319436FF0DB
:101AD000FF0303EB0E2319430023CFF6FF7303EB41
:101AE0000C4319439269013A41EA026108430299A1
:101AF000C860FFE7002003B010BD00000000000038
:101B000080B584B04EF60000C1F6F1700068039015
:101B10004EF60400C1F6F170006802904EF608001F
:101B2000C1F6F17000680190019903980844039090
:101B3000039888B1FFE7039840F2E401C2F2004144
:101B40000091023108220CF0E3FC00990298123156
:101B500004220CF0DDFCFFE704B080BD00000000B3
:101B600081B0009001B0704780B582B0019040F222
:101B70000000CCF20000694608600021AA23084654
:101B80001A460DF02DF801980168C86840F0010070
:101B9000C86002B080BD000080B582B0019001989D
:101BA0000068006900909DF800004007002818D5E3
:101BB000FFE70198016804204861019AD16C41F067
:101BC0000201D164019981F835000198816C40F2DD
:101BD000A970C0F6000008650198806C01F05CF8FF
:101BE000FFE79DF800008007002819D5FFE701985E
:101BF0000168022048610199C86C40F00100C86486
:101C00000199042081F835000198816C40F2A97097
:101C1000C0F6000008650198806C01F03DF8FFE710
:101C20009DF80000C006002808D5FFE7019801686C
:101C300010204861019800F09BF8FFE79DF8000034
:101C40000007002808D5FFE70198016808204861CF
:101C5000019800F049FAFFE79DF80000C007E0B1E5
:101C6000FFE70198006800688007002807D5FFE7B4
:101C700001980168C86820F01E00C860FFE701985D
:101C80000168C86820F00100C8600198016801205F
:101C900048610198FFF768FFFFE702B080BD0000D0
:101CA00080B584B00290029820B9FFE701208DF83A
:101CB0000F0058E0029890F8350020B9FFE702982D
:101CC00000F05AF8FFE70299022081F835000298E7
:101CD000806920B1FFE7029900204862FFE702987F
:101CE000016808684FF20702CFF6E0721040086002
:101CF000029A0192D2F814E0116850689368D2F801
:101D00000CC040EA0E0040EA0C00D2F810C040EAD5
:101D10000C00184393691843136A1843536A184315
:101D2000936A1843D36A1843126B0243086810433E
:101D3000086002984068102805D1FFE70298016802
:101D4000C0698861FFE702980168C86840F01E001A
:101D5000C86002990020C864029A012182F83510F7
:101D60008DF80F00FFE79DF80F0004B080BD000064
:101D700081B0009001B0704780B592B01190002002
:101D800010900F900E900D900C901198006800210B
:101D9000C4F60201884240F0D380FFE7FFE744F237
:101DA000DC40C5F60200016841F0010101600068F5
:101DB00000F001000B900B98FFE7FFE744F2E040D2
:101DC000C5F60200016841F001010160006800F001
:101DD00001000A900A98FFE7FFE744F2E040C5F6E9
:101DE0000200016841F080010160006800F080009D
:101DF00009900998FFE7FFE744F2E040C5F60200CA
:101E0000016841F004010160006800F004000890DE
:101E10000898FFE7FFE744F2E040C5F602000168DA
:101E200041F480710160006800F4807007900798A9
:101E3000FFE740200C90022002900D9000200590BA
:101E40000E900F900D20039010900020C5F6020018
:101E50000CA9049103F0B8FE029B03980499059A1B
:101E60004FF4F85CCDF830C00D930E920F921090A5
:101E700041F60040C5F6020003F0A6FE029B03985F
:101E80000499059A4FF4006CCDF830C00D930E9272
:101E90000F92109040F60000C5F6020003F094FE89
:101EA000029B03980499059A4FF0F00CCDF830C0CE
:101EB0000D930E920F92109042F20000C5F60200B0
:101EC00003F082FE059943F66410C2F200400690CA
:101ED0001022C4F2020202604B2242608160C160A3
:101EE0004FF4806202614FF4805242614FF48042AD
:101EF00082614FF48072C2614FF440320262042268
:101F0000426201228262C162016302F0FDFA18B1ED
:101F1000FFE7FFF73DFBFFE7FFE7119843F664118A
:101F2000C2F20041816411988863FFE74E2001905E
:101F30000022114604F0E8FA019804F0D9FAFFE70C
:101F400012B080BD0000000080B588B006900591F9
:101F500004920393FFE7069890F83400012804D117
:101F6000FFE702208DF81F00BAE00699012081F8F2
:101F70003400FFE7FFE70699022081F83500069854
:101F80000168086840F480400860069801680868A5
:101F900020F002000860059A06980168086810435E
:101FA00008600698816C40F2E170C0F60000C863DA
:101FB0000698816C40F2A970C0F60000C8640698CB
:101FC000816C002008650699886306990864069963
:101FD000C86306994864BDF80E00E0B9FFE70698AB
:101FE0000168806C2831049A039B02F041FF88B19C
:101FF000FFE706994020C8640699012081F8350062
:10200000FFE70699002081F83400FFE701208DF8F2
:102010001F0065E054E00698816C40F2E170C0F664
:102020000000486406990120886303980699C863F4
:10203000049806994864FFE70698C06BB0F5803FA6
:102040000BD3FFE70698C06B40080699C863069853
:10205000806B400006998863EEE70698806B023833
:10206000069988630698806B069908640498069917
:10207000C96B00EB81000290DDF818C0DCF800109D
:10208000DCF848002831049A029BDCF83CC0EE469C
:10209000CEF800C000F004F988B1FFE706994020AF
:1020A000C8640699012081F83500FFE706990020F1
:1020B00081F83400FFE701208DF81F0010E0FFE7F2
:1020C00006980168086840F001000860FFE706997B
:1020D000002081F83400FFE700208DF81F00FFE7A3
:1020E0009DF81F0008B080BD81B0009001B070471E
:1020F00084B0039002918DF80720039801680120B5
:102100001022C4F202029142009000F0A380FFE787
:102110000398016801202822C4F202029142009033
:1021200000F09880FFE70398016801204022C4F284
:1021300002029142009000F08D80FFE70398016851
:1021400001205822C4F202029142009000F08280E5
:10215000FFE70398016801207022C4F20202914255
:10216000009077D0FFE70398016801208822C4F22D
:102170000202914200906DD0FFE7039801680120B0
:10218000A022C4F202029142009063D0FFE70398BC
:1021900001680120B822C4F202029142009059D095
:1021A000FFE703980168012040F21042C4F20202E6
:1021B000914200904ED0FFE703980168012040F261
:1021C0002842C4F202029142009043D0FFE70398F4
:1021D0000168012040F24042C4F2020291420090A4
:1021E00038D0FFE703980168012040F25842C4F25A
:1021F0000202914200902DD0FFE703980168012070
:1022000040F27042C4F202029142009022D0FFE7F5
:1022100003980168012040F28842C4F20202914210
:10222000009017D0FFE703980168012040F2A04218
:10223000C4F20202914200900CD0FFE703980068BC
:102240004FF64831CBF6FD710844B0FA80F04009F2
:102250000090FFE70098C00778B1FFE79DF80700FE
:1022600028B9FFE7029803990968C86004E002985A
:10227000039909680861FFE70EE09DF8070028B997
:10228000FFE7029803990968C86004E0029803997F
:1022900009680861FFE7FFE7002004B0704700000D
:1022A00080B58CB0DDF838C00A9009910892079388
:1022B00000208DF81B000A988068802809D1FFE76C
:1022C0000A994FF48070486501208DF82F0000F0C6
:1022D000DEBCFFE70A9890F83400012805D1FFE73B
:1022E00002208DF82F0000F0D2BC0A99012081F85D
:1022F0003400FFE7FFE70A9890F83500012840F026
:10230000B984FFE70A99022081F835000A99002074
:1023100048650A98016801201022C4F20202914225
:10232000049000F0A380FFE70A98016801202822AA
:10233000C4F202029142049000F09880FFE70A98EC
:10234000016801204022C4F202029142049000F090
:102350008D80FFE70A98016801205822C4F202022A
:102360009142049000F08280FFE70A980168012002
:102370007022C4F202029142049077D0FFE70A98DB
:10238000016801208822C4F20202914204906DD0BB
:10239000FFE70A9801680120A022C4F202029142DC
:1023A000049063D0FFE70A9801680120B822C4F2C4
:1023B00002029142049059D0FFE70A980168012077
:1023C00040F21042C4F20202914204904ED0FFE764
:1023D0000A980168012040F22842C4F202029142A8
:1023E000049043D0FFE70A980168012040F2404280
:1023F000C4F202029142049038D0FFE70A980168C3
:10240000012040F25842C4F20202914204902DD0C1
:10241000FFE70A980168012040F27042C4F202020C
:102420009142049022D0FFE70A980168012040F20F
:102430008842C4F202029142049017D0FFE70A9842
:102440000168012040F2A042C4F2020291420490CD
:102450000CD0FFE70A9800684FF64831CBF6FD71C3
:102460000844B0FA80F040090490FFE70498C007E0
:10247000B8B1FFE70A980168086840F48020086056
:1024800007980A99096808610A98806D08300590D4
:102490000A98C06D00F01F013F2088400599086030
:1024A00017E00A980168086848F2200210430860A3
:1024B00007980A99096808610A98806D04300590A8
:1024C0000A98C06D00F01F0101208840059908603E
:1024D000FFE70A980999089A0E9BFEF7D9FC0A981B
:1024E000016801201022C4F202029142039000F020
:1024F0000381FFE70A98016801202822C4F2020242
:102500009142039000F0F880FFE70A9801680120EB
:102510004022C4F202029142039000F0ED80FFE7F6
:102520000A98016801205822C4F2020291420390E5
:1025300000F0E280FFE70A98016801207022C4F2EF
:1025400002029142039000F0D780FFE70A980168E9
:1025500001208822C4F202029142039000F0CC8054
:10256000FFE70A9801680120A022C4F2020291420A
:10257000039000F0C180FFE70A9801680120B822AB
:10258000C4F202029142039000F0B680FFE70A987D
:102590000168012040F21042C4F20202914203900D
:1025A00000F0AA80FFE70A980168012040F2284263
:1025B000C4F202029142039000F09E80FFE70A9865
:1025C0000168012040F24042C4F2020291420390AD
:1025D00000F09280FFE70A980168012040F258421B
:1025E000C4F202029142039000F08680FFE70A984D
:1025F0000168012040F27042C4F20202914203904D
:102600007AD0FFE70A980168012040F28842C4F2BC
:102610000202914203906FD0FFE70A9801680120FF
:1026200040F2A042C4F202029142039064D0FFE75C
:102630000A980168012040F2B842C4F202029142B5
:10264000039059D0FFE70A980168012045F208423B
:10265000C5F60202914203904ED0FFE70A98016846
:10266000012045F21C42C5F602029142039043D07C
:10267000FFE70A980168012045F23042C5F60202E0
:102680009142039038D0FFE70A980168012045F293
:102690004442C5F60202914203902DD0FFE70A980A
:1026A0000168012045F25842C5F6020291420390AA
:1026B00022D0FFE70A980168012045F26C42C5F676
:1026C00002029142039017D0FFE70A9801680120A7
:1026D00045F28042C5F60202914203900CD0FFE71A
:1026E0000A9800684AF66C31CAF2FD710844B0FAE3
:1026F00080F040090390FFE70398C00770B1FFE73F
:102700000A98416E806E48600A98C06E28B1FFE753
:102710000A98016F406F4860FFE7FFE70A98016879
:1027200001201022C4F202029142029000F0A38024
:10273000FFE70A98016801202822C4F202029142B0
:10274000029000F09880FFE70A980168012040227B
:10275000C4F202029142029000F08D80FFE70A98D5
:10276000016801205822C4F202029142029000F056
:102770008280FFE70A98016801207022C4F20202F9
:102780009142029077D0FFE70A98016801208822E1
:10279000C4F20202914202906DD0FFE70A980168EC
:1027A0000120A022C4F202029142029063D0FFE70E
:1027B0000A9801680120B822C4F2020291420290F4
:1027C00059D0FFE70A980168012040F21042C4F294
:1027D0000202914202904ED0FFE70A980168012060
:1027E00040F22842C4F202029142029043D0FFE735
:1027F0000A980168012040F24042C4F2020291426C
:10280000029038D0FFE70A980168012040F2584250
:10281000C4F20202914202902DD0FFE70A980168AB
:10282000012040F27042C4F202029142029022D092
:10283000FFE70A980168012040F28842C4F20202D0
:102840009142029017D0FFE70A980168012040F2F8
:10285000A042C4F20202914202900CD0FFE70A9813
:1028600000684FF64831CBF6FD710844B0FA80F0AD
:1028700040090290FFE70298C007F8B1FFE70A9805
:10288000006800680B2161F344000A990968086038
:102890000A980168486940F0800048610A98006C15
:1028A00020B9FFE70A98806C38B1FFE70A98016801
:1028B000086840F008000860FFE718E00A98006820
:1028C0000068052161F343000A99096808600A98C5
:1028D000006C20B9FFE70A98806C38B1FFE70A98CE
:1028E0000168086840F004000860FFE7FFE70A9805
:1028F000016801201022C4F202029142019000F00E
:102900000381FFE70A98016801202822C4F202022D
:102910009142019000F0F880FFE70A9801680120D9
:102920004022C4F202029142019000F0ED80FFE7E4
:102930000A98016801205822C4F2020291420190D3
:1029400000F0E280FFE70A98016801207022C4F2DB
:1029500002029142019000F0D780FFE70A980168D7
:1029600001208822C4F202029142019000F0CC8042
:10297000FFE70A9801680120A022C4F202029142F6
:10298000019000F0C180FFE70A9801680120B82299
:10299000C4F202029142019000F0B680FFE70A986B
:1029A0000168012040F21042C4F2020291420190FB
:1029B00000F0AA80FFE70A980168012040F228424F
:1029C000C4F202029142019000F09E80FFE70A9853
:1029D0000168012040F24042C4F20202914201909B
:1029E00000F09280FFE70A980168012040F2584207
:1029F000C4F202029142019000F08680FFE70A983B
:102A00000168012040F27042C4F20202914201903A
:102A10007AD0FFE70A980168012040F28842C4F2A8
:102A20000202914201906FD0FFE70A9801680120ED
:102A300040F2A042C4F202029142019064D0FFE74A
:102A40000A980168012040F2B842C4F202029142A1
:102A5000019059D0FFE70A980168012045F2084229
:102A6000C5F60202914201904ED0FFE70A98016834
:102A7000012045F21C42C5F602029142019043D06A
:102A8000FFE70A980168012045F23042C5F60202CC
:102A90009142019038D0FFE70A980168012045F281
:102AA0004442C5F60202914201902DD0FFE70A98F8
:102AB0000168012045F25842C5F602029142019098
:102AC00022D0FFE70A980168012045F26C42C5F662
:102AD00002029142019017D0FFE70A980168012095
:102AE00045F28042C5F60202914201900CD0FFE708
:102AF0000A9800684AF66C31CAF2FD710844B0FACF
:102B000080F040090190FFE70198C007D0B1FFE7CE
:102B10000A98006E0068C003002807D5FFE70A98EE
:102B2000016E086840F480700860FFE70A98C06E84
:102B300038B1FFE70A98C16E086840F480700860F9
:102B4000FFE7FFE70A9800681021C4F202018842FB
:102B500000F08180FFE70A9800682821C4F2020192
:102B6000884278D0FFE70A9800684021C4F2020149
:102B7000884270D0FFE70A9800685821C4F2020129
:102B8000884268D0FFE70A9800687021C4F2020109
:102B9000884260D0FFE70A9800688821C4F20201E9
:102BA000884258D0FFE70A980068A021C4F20201C9
:102BB000884250D0FFE70A980068B821C4F20201A9
:102BC000884248D0FFE70A98006840F21041C4F2FA
:102BD000020188423FD0FFE70A98006840F228418E
:102BE000C4F20201884236D0FFE70A98006840F23A
:102BF0004041C4F2020188422DD0FFE70A980068E4
:102C000040F25841C4F20201884224D0FFE70A98FA
:102C1000006840F27041C4F2020188421BD0FFE715
:102C20000A98006840F28841C4F20201884212D03A
:102C3000FFE70A98006840F2A041C4F2020188420E
:102C400009D0FFE70A98006840F2B841C4F20201D7
:102C5000884207D1FFE70A980168086840F0010040
:102C6000086006E00A980168086840F00100086002
:102C7000FFE707E00A994FF40060486501208DF8EE
:102C80001B00FFE79DF81B008DF82F00FFE79DF864
:102C90002F000CB080BD000080B586B00490049871
:102CA00020B9FFE701208DF8170046E3049890F85B
:102CB0003500022807D0FFE70499802048650120ED
:102CC0008DF8170039E30498016801201022C4F23E
:102CD00002029142029000F0A380FFE7049801688D
:102CE00001202822C4F202029142029000F0988052
:102CF000FFE70498016801204022C4F202029142D9
:102D0000029000F08D80FFE70498016801205822AE
:102D1000C4F202029142029000F08280FFE7049820
:102D2000016801207022C4F202029142029077D021
:102D3000FFE70498016801208822C4F20202914250
:102D400002906DD0FFE7049801680120A022C4F230
:102D500002029142029063D0FFE7049801680120CB
:102D6000B822C4F202029142029059D0FFE70498BF
:102D70000168012040F21042C4F202029142029026
:102D80004ED0FFE704980168012040F22842C4F2C7
:102D900002029142029043D0FFE7049801680120AB
:102DA00040F24042C4F202029142029038D0FFE762
:102DB00004980168012040F25842C4F20202914294
:102DC00002902DD0FFE704980168012040F2704284
:102DD000C4F202029142029022D0FFE704980168F7
:102DE000012040F28842C4F202029142029017D0C0
:102DF000FFE704980168012040F2A042C4F20202F9
:102E0000914202900CD0FFE7049800684FF64831D9
:102E1000CBF6FD710844B0FA80F040090290FFE75C
:102E20000298C007002800F09D80FFE70499042065
:102E300081F83500049800681021C4F2020188422C
:102E400000F08180FFE7049800682821C4F20201A5
:102E5000884278D0FFE7049800684021C4F202015C
:102E6000884270D0FFE7049800685821C4F202013C
:102E7000884268D0FFE7049800687021C4F202011C
:102E8000884260D0FFE7049800688821C4F20201FC
:102E9000884258D0FFE704980068A021C4F20201DC
:102EA000884250D0FFE704980068B821C4F20201BC
:102EB000884248D0FFE70498006840F21041C4F20D
:102EC000020188423FD0FFE70498006840F22841A1
:102ED000C4F20201884236D0FFE70498006840F24D
:102EE0004041C4F2020188422DD0FFE704980068F7
:102EF00040F25841C4F20201884224D0FFE704980E
:102F0000006840F27041C4F2020188421BD0FFE722
:102F10000498006840F28841C4F20201884212D04D
:102F2000FFE70498006840F2A041C4F20201884221
:102F300009D0FFE70498006840F2B841C4F20201EA
:102F4000884207D1FFE704980168086820F0010073
:102F5000086006E004980168086820F00100086035
:102F6000FFE7E5E104980168086820F00E000860BA
:102F7000049800681021C4F20201884200F08180A8
:102F8000FFE7049800682821C4F20201884278D043
:102F9000FFE7049800684021C4F20201884270D023
:102FA000FFE7049800685821C4F20201884268D003
:102FB000FFE7049800687021C4F20201884260D0E3
:102FC000FFE7049800688821C4F20201884258D0C3
:102FD000FFE704980068A021C4F20201884250D0A3
:102FE000FFE704980068B821C4F20201884248D083
:102FF000FFE70498006840F21041C4F202018842E1
:103000003FD0FFE70498006840F22841C4F2020173
:10301000884236D0FFE70498006840F24041C4F28D
:10302000020188422DD0FFE70498006840F2584121
:10303000C4F20201884224D0FFE70498006840F2FD
:103040007041C4F2020188421BD0FFE70498006877
:1030500040F28841C4F20201884212D0FFE704988E
:10306000006840F2A041C4F20201884209D0FFE7A3
:103070000498006840F2B841C4F20201884207D1C6
:10308000FFE704980168086820F00100086006E086
:1030900004980168086820F001000860FFE70498C0
:1030A000016801201022C4F202029142019000F056
:1030B0000381FFE70498016801202822C4F202027C
:1030C0009142019000F0F880FFE704980168012028
:1030D0004022C4F202029142019000F0ED80FFE72D
:1030E0000498016801205822C4F202029142019022
:1030F00000F0E280FFE70498016801207022C4F22A
:1031000002029142019000F0D780FFE70498016825
:1031100001208822C4F202029142019000F0CC808A
:10312000FFE7049801680120A022C4F20202914244
:10313000019000F0C180FFE7049801680120B822E7
:10314000C4F202029142019000F0B680FFE70498B9
:103150000168012040F21042C4F202029142019043
:1031600000F0AA80FFE704980168012040F228429D
:10317000C4F202029142019000F09E80FFE70498A1
:103180000168012040F24042C4F2020291420190E3
:1031900000F09280FFE704980168012040F2584255
:1031A000C4F202029142019000F08680FFE7049889
:1031B0000168012040F27042C4F202029142019083
:1031C0007AD0FFE704980168012040F28842C4F2F7
:1031D0000202914201906FD0FFE70498016801203C
:1031E00040F2A042C4F202029142019064D0FFE793
:1031F00004980168012040F2B842C4F202029142F0
:10320000019059D0FFE704980168012045F2084277
:10321000C5F60202914201904ED0FFE70498016882
:10322000012045F21C42C5F602029142019043D0B2
:10323000FFE704980168012045F23042C5F602021A
:103240009142019038D0FFE704980168012045F2CF
:103250004442C5F60202914201902DD0FFE7049846
:103260000168012045F25842C5F6020291420190E0
:1032700022D0FFE704980168012045F26C42C5F6B0
:1032800002029142019017D0FFE7049801680120E3
:1032900045F28042C5F60202914201900CD0FFE750
:1032A000049800684AF66C31CAF2FD710844B0FA1D
:1032B00080F040090190FFE70198C00728B3FFE7BD
:1032C0000498016E086820F4807008600498806D8E
:1032D00003900498C06D00F01F01012088400399FD
:1032E00048600498416E806E48600498C06E58B182
:1032F000FFE70498C16E086820F4807008600498A5
:10330000016F406F4860FFE7FFE70499012081F8F3
:103310003500FFE70499002081F83400FFE70498A6
:10332000006D20B1FFE70498016D8847FFE7FFE7D4
:10333000FFE700208DF81700FFE79DF8170006B0A3
:1033400080BD00000000000080B590B00F9000200C
:103350000B9040F22800C2F20040006848F2B5111C
:10336000C1F64E31A0FB0110800A0A900F98806DC3
:1033700009900F98806D0890099800680E90089841
:1033800000680D900F98016801201022C4F202021B
:103390009142079000F0A380FFE70F980168012099
:1033A0002822C4F202029142079000F09880FFE7C1
:1033B0000F98016801204022C4F202029142079056
:1033C00000F08D80FFE70F98016801205822C4F2B9
:1033D00002029142079000F08280FFE70F98016897
:1033E00001207022C4F202029142079077D0FFE7D9
:1033F0000F98016801208822C4F2020291420790CE
:103400006DD0FFE70F9801680120A022C4F20202EC
:103410009142079063D0FFE70F9801680120B8221E
:10342000C4F202029142079059D0FFE70F98016859
:10343000012040F21042C4F20202914207904ED0A5
:10344000FFE70F980168012040F22842C4F202020F
:103450009142079043D0FFE70F980168012040F2A6
:103460004042C4F202029142079038D0FFE70F9821
:103470000168012040F25842C4F2020291420790D2
:103480002DD0FFE70F980168012040F27042C4F28E
:1034900002029142079022D0FFE70F9801680120B5
:1034A00040F28842C4F202029142079017D0FFE72F
:1034B0000F980168012040F2A042C4F2020291423A
:1034C00007900CD0FFE70F9800684FF64831CBF615
:1034D000FD710844B0FA80F040090790FFE70798B3
:1034E000C007002800F01385FFE70E980F99C96DFB
:1034F00001F01F01C8400007002840F1B080FFE73D
:103500000F9800681021C4F20201884200F0818007
:10351000FFE70F9800682821C4F20201884278D0A2
:10352000FFE70F9800684021C4F20201884270D082
:10353000FFE70F9800685821C4F20201884268D062
:10354000FFE70F9800687021C4F20201884260D042
:10355000FFE70F9800688821C4F20201884258D022
:10356000FFE70F980068A021C4F20201884250D002
:10357000FFE70F980068B821C4F20201884248D0E2
:10358000FFE70F98006840F21041C4F20201884240
:103590003FD0FFE70F98006840F22841C4F20201D3
:1035A000884236D0FFE70F98006840F24041C4F2ED
:1035B000020188422DD0FFE70F98006840F2584181
:1035C000C4F20201884224D0FFE70F98006840F25D
:1035D0007041C4F2020188421BD0FFE70F980068D7
:1035E00040F28841C4F20201884212D0FFE70F98EE
:1035F000006840F2A041C4F20201884209D0FFE70E
:103600000F98006840F2B841C4F20201884207D125
:10361000FFE70F980068006800F00400069006E0DD
:103620000F980068006800F008000690FFE7069811
:10363000A0B1FFE70F980168086820F00400086057
:103640000F98C06D00F01F0108208840099988601C
:103650000F99486D40F001004865FFE7FFE70E98BD
:103660000F99C96D01F01F01C840C007002800F084
:10367000A980FFE70F9800681021C4F20201884278
:1036800000F08180FFE70F9800682821C4F2020152
:10369000884278D0FFE70F9800684021C4F2020109
:1036A000884270D0FFE70F9800685821C4F20201E9
:1036B000884268D0FFE70F9800687021C4F20201C9
:1036C000884260D0FFE70F9800688821C4F20201A9
:1036D000884258D0FFE70F980068A021C4F2020189
:1036E000884250D0FFE70F980068B821C4F2020169
:1036F000884248D0FFE70F98006840F21041C4F2BA
:10370000020188423FD0FFE70F98006840F228414D
:10371000C4F20201884236D0FFE70F98006840F2F9
:103720004041C4F2020188422DD0FFE70F980068A3
:1037300040F25841C4F20201884224D0FFE70F98BA
:10374000006840F27041C4F2020188421BD0FFE7DA
:103750000F98006840F28841C4F20201884212D0FA
:10376000FFE70F98006840F2A041C4F202018842CE
:1037700009D0FFE70F98006840F2B841C4F2020197
:10378000884207D1FFE70F980068406900F0800089
:10379000059005E00F980068006800200590FFE79D
:1037A000059870B1FFE70F98C06D00F01F01012070
:1037B0008840099988600F99486D40F0020048657B
:1037C000FFE7FFE70E980F99C96D01F01F01C84090
:1037D0004007002840F1A980FFE70F9800681021FA
:1037E000C4F20201884200F08180FFE70F98006870
:1037F0002821C4F20201884278D0FFE70F980068C0
:103800004021C4F20201884270D0FFE70F9800689F
:103810005821C4F20201884268D0FFE70F9800687F
:103820007021C4F20201884260D0FFE70F9800685F
:103830008821C4F20201884258D0FFE70F9800683F
:10384000A021C4F20201884250D0FFE70F9800681F
:10385000B821C4F20201884248D0FFE70F980068FF
:1038600040F21041C4F2020188423FD0FFE70F98B6
:10387000006840F22841C4F20201884236D0FFE7D6
:103880000F98006840F24041C4F2020188422DD0F6
:10389000FFE70F98006840F25841C4F202018842E5
:1038A00024D0FFE70F98006840F27041C4F2020193
:1038B00088421BD0FFE70F98006840F28841C4F2AD
:1038C0000201884212D0FFE70F98006840F2A04141
:1038D000C4F20201884209D0FFE70F98006840F265
:1038E000B841C4F20201884207D1FFE70F9800688F
:1038F000006800F00200049005E00F98006800687E
:1039000000200490FFE7049870B1FFE70F98C06DA6
:1039100000F01F0104208840099988600F99486DC4
:1039200040F004004865FFE7FFE70E980F99C96D66
:1039300001F01F01C840C006002840F1DE80FFE70B
:103940000F9800681021C4F20201884200F08180C3
:10395000FFE70F9800682821C4F20201884278D05E
:10396000FFE70F9800684021C4F20201884270D03E
:10397000FFE70F9800685821C4F20201884268D01E
:10398000FFE70F9800687021C4F20201884260D0FE
:10399000FFE70F9800688821C4F20201884258D0DE
:1039A000FFE70F980068A021C4F20201884250D0BE
:1039B000FFE70F980068B821C4F20201884248D09E
:1039C000FFE70F98006840F21041C4F202018842FC
:1039D0003FD0FFE70F98006840F22841C4F202018F
:1039E000884236D0FFE70F98006840F24041C4F2A9
:1039F000020188422DD0FFE70F98006840F258413D
:103A0000C4F20201884224D0FFE70F98006840F218
:103A10007041C4F2020188421BD0FFE70F98006892
:103A200040F28841C4F20201884212D0FFE70F98A9
:103A3000006840F2A041C4F20201884209D0FFE7C9
:103A40000F98006840F2B841C4F20201884207D1E1
:103A5000FFE70F980068006800F00800039006E098
:103A60000F980068006800F004000390FFE70398D7
:103A7000002841D0FFE70F98C06D00F01F01102013
:103A80008840099988600F98006800684003002802
:103A90001AD5FFE70F98006800680003002809D4D2
:103AA000FFE70F98006C20B1FFE70F98016C884783
:103AB000FFE708E00F98806C20B1FFE70F98816C5A
:103AC0008847FFE7FFE716E00F9800680068C00529
:103AD000002807D4FFE70F980168086820F0080065
:103AE0000860FFE70F98006C20B1FFE70F98016CAA
:103AF0008847FFE7FFE7FFE7FFE70E980F99C96DDB
:103B000001F01F01C8408006002840F12681FFE730
:103B10000F9800681021C4F20201884200F08180F1
:103B2000FFE70F9800682821C4F20201884278D08C
:103B3000FFE70F9800684021C4F20201884270D06C
:103B4000FFE70F9800685821C4F20201884268D04C
:103B5000FFE70F9800687021C4F20201884260D02C
:103B6000FFE70F9800688821C4F20201884258D00C
:103B7000FFE70F980068A021C4F20201884250D0EC
:103B8000FFE70F980068B821C4F20201884248D0CC
:103B9000FFE70F98006840F21041C4F2020188422A
:103BA0003FD0FFE70F98006840F22841C4F20201BD
:103BB000884236D0FFE70F98006840F24041C4F2D7
:103BC000020188422DD0FFE70F98006840F258416B
:103BD000C4F20201884224D0FFE70F98006840F247
:103BE0007041C4F2020188421BD0FFE70F980068C1
:103BF00040F28841C4F20201884212D0FFE70F98D8
:103C0000006840F2A041C4F20201884209D0FFE7F7
:103C10000F98006840F2B841C4F20201884207D10F
:103C2000FFE70F980068006800F01000029006E0BF
:103C30000F980068006800F002000290FFE7029809
:103C4000002800F08980FFE70F98C06D00F01F0189
:103C500020208840099988600F9890F83500042842
:103C600037D1FFE70F980168086820F01600086058
:103C70000F980168486920F0800048610F98006C37
:103C800020B9FFE70F98806C38B1FFE70F98016803
:103C9000086820F008000860FFE70F98C06D00F08A
:103CA0001F013F208840099988600F99012081F801
:103CB0003500FFE70F99002081F83400FFE70F98E7
:103CC000006D20B1FFE70F98016D8847FFE700F016
:103CD00019BC0F9800680068400300281AD5FFE758
:103CE0000F98006800680003002809D4FFE70F98C8
:103CF000406C20B1FFE70F98416C8847FFE708E070
:103D00000F98C06B20B1FFE70F98C16B8847FFE7A2
:103D1000FFE720E00F9800680068C005002811D474
:103D2000FFE70F980168086820F0100008600F99FD
:103D3000012081F83500FFE70F99002081F8340059
:103D4000FFE7FFE70F98C06B20B1FFE70F98C16B4B
:103D50008847FFE7FFE7FFE7FFE70F98406D002880
:103D600000F0D480FFE70F98406DC007002800F0F6
:103D7000C480FFE70F99042081F835000F98006890
:103D80001021C4F20201884200F08180FFE70F9801
:103D900000682821C4F20201884278D0FFE70F981A
:103DA00000684021C4F20201884270D0FFE70F98FA
:103DB00000685821C4F20201884268D0FFE70F98DA
:103DC00000687021C4F20201884260D0FFE70F98BA
:103DD00000688821C4F20201884258D0FFE70F989A
:103DE0000068A021C4F20201884250D0FFE70F987A
:103DF0000068B821C4F20201884248D0FFE70F985A
:103E0000006840F21041C4F2020188423FD0FFE74F
:103E10000F98006840F22841C4F20201884236D06F
:103E2000FFE70F98006840F24041C4F20201884267
:103E30002DD0FFE70F98006840F25841C4F202010C
:103E4000884224D0FFE70F98006840F27041C4F226
:103E5000020188421BD0FFE70F98006840F28841BA
:103E6000C4F20201884212D0FFE70F98006840F2C6
:103E7000A041C4F20201884209D0FFE70F98006810
:103E800040F2B841C4F20201884207D1FFE70F981F
:103E90000168086820F00100086006E00F980168DA
:103EA000086820F001000860FFE7FFE70B98013089
:103EB0000B900A99884201D9FFE707E0FFE70F98C6
:103EC00000680068C0070028F0D1FFE70F9800687D
:103ED0000068C00728B1FFE70F99032081F835007B
:103EE00004E00F99012081F83500FFE7FFE70F9903
:103EF000002081F83400FFE7FFE70F98C06C20B185
:103F0000FFE70F98C16C8847FFE7FFE7FAE20F98D9
:103F10000168012045F20842C5F602029142019073
:103F20004ED0FFE70F980168012045F21C42C5F60C
:103F300002029142019043D0FFE70F9801680120EF
:103F400045F23042C5F602029142019038D0FFE7B7
:103F50000F980168012045F24442C5F602029142E1
:103F600001902DD0FFE70F980168012045F25842DB
:103F7000C5F602029142019022D0FFE70F98016836
:103F8000012045F26C42C5F602029142019017D021
:103F9000FFE70F980168012045F28042C5F6020252
:103FA000914201900CD0FFE70F9800684AF66C31FF
:103FB000CAF2FD710844B0FA80F040090190FFE7B1
:103FC0000198C007002800F09B82FFE70F98006867
:103FD00000680C900D980F99C96D01F01F01C84041
:103FE0004007002840F1D780FFE79DF830004007E8
:103FF000002840F1D080FFE70F98C06D00F01F014E
:1040000004208840089948609DF831000006002887
:1040100018D5FFE79DF83200C00748B9FFE70F98B1
:10402000806C20B1FFE70F98816C8847FFE708E0BC
:104030000F98006C20B1FFE70F98016C8847FFE7ED
:10404000FFE7A7E09DF830008006002800F1998086
:10405000FFE70F9800681021C4F20201884200F0C7
:104060008180FFE70F9800682821C4F2020188428E
:1040700078D0FFE70F9800684021C4F2020188421F
:1040800070D0FFE70F9800685821C4F202018842FF
:1040900068D0FFE70F9800687021C4F202018842DF
:1040A00060D0FFE70F9800688821C4F202018842BF
:1040B00058D0FFE70F980068A021C4F2020188429F
:1040C00050D0FFE70F980068B821C4F2020188427F
:1040D00048D0FFE70F98006840F21041C4F2020197
:1040E00088423FD0FFE70F98006840F22841C4F2B1
:1040F0000201884236D0FFE70F98006840F2404145
:10410000C4F2020188422DD0FFE70F98006840F208
:104110005841C4F20201884224D0FFE70F9800689A
:1041200040F27041C4F2020188421BD0FFE70F98B1
:10413000006840F28841C4F20201884212D0FFE7D1
:104140000F98006840F2A041C4F20201884209D0F1
:10415000FFE70F98006840F2B841C4F202018842BC
:1041600007D1FFE70F980168086820F00800086091
:1041700006E00F980168086820F004000860FFE777
:10418000FFE70F98006C20B1FFE70F98016C88479C
:10419000FFE7FFE7B3E10D980F99C96D01F01F012B
:1041A000C8408007002840F1E180FFE79DF830001B
:1041B0008007002840F1DA80FFE70F98C06D00F01B
:1041C0001F0102208840089948609DF831000006D0
:1041D000002818D5FFE79DF83200C00748B9FFE76F
:1041E0000F98406C20B1FFE70F98416C8847FFE7BC
:1041F00008E00F98C06B20B1FFE70F98C16B8847AC
:10420000FFE7FFE7B1E09DF830008006002800F1ED
:10421000A380FFE70F9800681021C4F202018842D2
:1042200000F08180FFE70F9800682821C4F20201A6
:10423000884278D0FFE70F9800684021C4F202015D
:10424000884270D0FFE70F9800685821C4F202013D
:10425000884268D0FFE70F9800687021C4F202011D
:10426000884260D0FFE70F9800688821C4F20201FD
:10427000884258D0FFE70F980068A021C4F20201DD
:10428000884250D0FFE70F980068B821C4F20201BD
:10429000884248D0FFE70F98006840F21041C4F20E
:1042A000020188423FD0FFE70F98006840F22841A2
:1042B000C4F20201884236D0FFE70F98006840F24E
:1042C0004041C4F2020188422DD0FFE70F980068F8
:1042D00040F25841C4F20201884224D0FFE70F980F
:1042E000006840F27041C4F2020188421BD0FFE72F
:1042F0000F98006840F28841C4F20201884212D04F
:10430000FFE70F98006840F2A041C4F20201884222
:1043100009D0FFE70F98006840F2B841C4F20201EB
:10432000884207D1FFE70F980168086820F0140061
:10433000086006E00F980168086820F00A0008602D
:10434000FFE70F99012081F83500FFE70F99002062
:1043500081F83400FFE7FFE70F98C06B20B1FFE75B
:104360000F98C16B8847FFE7FFE7C7E00D980F99EB
:10437000C96D01F01F01C8400007002840F1BC8052
:10438000FFE79DF830000007002840F1B580FFE707
:104390000F9800681021C4F20201884200F0818069
:1043A000FFE70F9800682821C4F20201884278D004
:1043B000FFE70F9800684021C4F20201884270D0E4
:1043C000FFE70F9800685821C4F20201884268D0C4
:1043D000FFE70F9800687021C4F20201884260D0A4
:1043E000FFE70F9800688821C4F20201884258D084
:1043F000FFE70F980068A021C4F20201884250D064
:10440000FFE70F980068B821C4F20201884248D043
:10441000FFE70F98006840F21041C4F202018842A1
:104420003FD0FFE70F98006840F22841C4F2020134
:10443000884236D0FFE70F98006840F24041C4F24E
:10444000020188422DD0FFE70F98006840F25841E2
:10445000C4F20201884224D0FFE70F98006840F2BE
:104460007041C4F2020188421BD0FFE70F98006838
:1044700040F28841C4F20201884212D0FFE70F984F
:10448000006840F2A041C4F20201884209D0FFE76F
:104490000F98006840F2B841C4F20201884207D187
:1044A000FFE70F980168086820F01C00086006E02C
:1044B0000F980168086820F00E000860FFE70F9869
:1044C000C06D00F01F01012000FA01F1089A51604F
:1044D0000F9948650F9981F83500FFE70F99002083
:1044E00081F83400FFE70F98C06C20B1FFE70F9808
:1044F000C16C8847FFE700E0FFE7FFE7FFE700E068
:10450000FFE7FFE710B080BD10B58EB00C9001F052
:1045100077FD0A900C9828B9FFE701208DF8370045
:1045200000F09FBC0C98016801201022C4F2020226
:104530009142079000F0A380FFE70C9801680120EA
:104540002822C4F202029142079000F09880FFE70F
:104550000C98016801204022C4F2020291420790A7
:1045600000F08D80FFE70C98016801205822C4F20A
:1045700002029142079000F08280FFE70C980168E8
:1045800001207022C4F202029142079077D0FFE727
:104590000C98016801208822C4F20202914207901F
:1045A0006DD0FFE70C9801680120A022C4F202023E
:1045B0009142079063D0FFE70C9801680120B82270
:1045C000C4F202029142079059D0FFE70C980168AB
:1045D000012040F21042C4F20202914207904ED0F4
:1045E000FFE70C980168012040F22842C4F2020261
:1045F0009142079043D0FFE70C980168012040F2F8
:104600004042C4F202029142079038D0FFE70C9872
:104610000168012040F25842C4F202029142079020
:104620002DD0FFE70C980168012040F27042C4F2DF
:1046300002029142079022D0FFE70C980168012006
:1046400040F28842C4F202029142079017D0FFE77D
:104650000C980168012040F2A042C4F2020291428B
:1046600007900CD0FFE70C9800684FF64831CBF666
:10467000FD710844B0FA80F040090790FFE7079801
:10468000C007002800F07981FFE70C98406A08B164
:10469000FFE7FFE70C99022081F83500FFE70C994E
:1046A000002081F83400FFE70C9800681021C4F264
:1046B0000201884200F08180FFE70C980068282101
:1046C000C4F20201884278D0FFE70C9800684021CC
:1046D000C4F20201884270D0FFE70C9800685821AC
:1046E000C4F20201884268D0FFE70C98006870218C
:1046F000C4F20201884260D0FFE70C98006888216C
:10470000C4F20201884258D0FFE70C980068A0214B
:10471000C4F20201884250D0FFE70C980068B8212B
:10472000C4F20201884248D0FFE70C98006840F2CA
:104730001041C4F2020188423FD0FFE70C980068A4
:1047400040F22841C4F20201884236D0FFE70C98BB
:10475000006840F24041C4F2020188422DD0FFE7D8
:104760000C98006840F25841C4F20201884224D0FB
:10477000FFE70C98006840F27041C4F202018842E1
:104780001BD0FFE70C98006840F28841C4F2020198
:10479000884212D0FFE70C98006840F2A041C4F2B2
:1047A0000201884209D0FFE70C98006840F2B84146
:1047B000C4F20201884207D1FFE70C98016808683B
:1047C00020F00100086006E00C980168086820F0FD
:1047D00001000860FFE7FFE70C9800680068C00769
:1047E00098B1FFE701F00CFC0A99401A06280BD398
:1047F000FFE70C99202048650C99032081F83500CB
:1048000001208DF837002CE3E6E70C98006800687B
:104810000B900B9848F23F01CFF6106108400B90C7
:104820000C998868D1F80CC00B694A6940EA0C0001
:10483000184310438A691043CA691043096A014347
:104840000B9808430B900C98406A042808D1FFE7A6
:104850000C99C86A096B01430B9808430B90FFE75A
:1048600041F20000C5F6004000684FF6FF71884332
:10487000B0F1005F40D3FFE70C984068292807D3C8
:10488000FFE70C98416801202F2906902AD3FFE703
:104890000C9840683F2807D3FFE70C984168012037
:1048A000432906901ED3FFE70C984068472807D39A
:1048B000FFE70C98416801204929069012D3FFE7D1
:1048C0000C98416800204F29059008D3FFE70C9809
:1048D00041680020532938BF01200590FFE7059863
:1048E0000690FFE70698C00728B1FFE70B9840F451
:1048F00080100B90FFE7FFE70B980C9909680860A0
:104900000C98006840690B900B9820F007000B9002
:104910000C98416A0B9808430B900C98406A042845
:104920001AD1FFE70C98816A0B9808430B900C98FA
:10493000C06A80B1FFE70C98FCF732FA50B1FFE78C
:104940000C99402048650C99012081F835008DF8BC
:10495000370086E2FFE7FFE70B980C99096848618A
:104960000C98FBF7E1FF09900C98C06D00F01F0157
:104970003F2088400999886026E10C980168012051
:1049800045F20842C5F60202914204904ED0FFE77C
:104990000C980168012045F21C42C5F602029142C2
:1049A000049043D0FFE70C980168012045F23042A3
:1049B000C5F602029142049038D0FFE70C980168D6
:1049C000012045F24442C5F60202914204902DD0E6
:1049D000FFE70C980168012045F25842C5F6020233
:1049E0009142049022D0FFE70C980168012045F223
:1049F0006C42C5F602029142049017D0FFE70C9872
:104A00000168012045F28042C5F6020291420490FD
:104A10000CD0FFE70C9800684AF66C31CAF2FD71C1
:104A20000844B0FA80F040090490FFE70498C007FA
:104A3000002800F0BD80FFE70C980168012045F2D6
:104A40000842C5F60202914203904ED0FFE70C984F
:104A50000168012045F21C42C5F602029142039012
:104A600043D0FFE70C980168012045F23042C5F6BB
:104A700002029142039038D0FFE70C9801680120B0
:104A800045F24442C5F60202914203902DD0FFE761
:104A90000C980168012045F25842C5F60202914285
:104AA000039022D0FFE70C980168012045F26C4288
:104AB000C5F602029142039017D0FFE70C980168F7
:104AC000012045F28042C5F60202914203900CD0CB
:104AD000FFE70C9800684AF66C31CAF2FD71084491
:104AE000B0FA80F040090390FFE70398C00708B1CF
:104AF000FFE7FFE70C99022081F83500FFE70C99EA
:104B0000002081F83400FFE70C98006800680B90E3
:104B10000B986FF310100B900C988068402803D10D
:104B2000FFE71020029008E00C9880688038B0FA07
:104B300080F0400980030290FFE702980C99CA6850
:104B40000B69D1F814C0D1F818E0CC694EEA040E14
:104B50004CEA0E0C43EA0C031A4340EAD200096AFD
:104B600040EA11110B9808430B900B980C990968B7
:104B700008600C9908684AF6F832CAF2FD721044CF
:104B80004CF6CD42CCF6CC42A0FB02026FF0030003
:104B900000EA9200C8650C98FBF7C6FE08900C98D6
:104BA000C06D00F01F0101208840089948600AE0AC
:104BB0000C99402048650C99032081F835000120AC
:104BC0008DF837004DE1FFE70C98016801201022B5
:104BD000C4F202029142019000F00381FFE70C98B9
:104BE000016801202822C4F202029142019000F0E3
:104BF000F880FFE70C98016801204022C4F202020D
:104C00009142019000F0ED80FFE70C9801680120CF
:104C10005822C4F202029142019000F0E280FFE7C4
:104C20000C98016801207022C4F2020291420190A6
:104C300000F0D780FFE70C98016801208822C4F2B9
:104C400002029142019000F0CC80FFE70C980168CD
:104C50000120A022C4F202029142019000F0C18022
:104C6000FFE70C9801680120B822C4F202029142C9
:104C7000019000F0B680FFE70C980168012040F237
:104C80001042C4F202029142019000F0AA80FFE7B4
:104C90000C980168012040F22842C4F202029142BD
:104CA000019000F09E80FFE70C980168012040F21F
:104CB0004042C4F202029142019000F09280FFE76C
:104CC0000C980168012040F25842C4F2020291425D
:104CD000019000F08680FFE70C980168012040F207
:104CE0007042C4F20202914201907AD0FFE70C9820
:104CF0000168012040F28842C4F202029142019010
:104D00006FD0FFE70C980168012040F2A042C4F286
:104D100002029142019064D0FFE70C9801680120E3
:104D200040F2B842C4F202029142019059D0FFE72A
:104D30000C980168012045F20842C5F60202914232
:104D400001904ED0FFE70C980168012045F21C420B
:104D5000C5F602029142019043D0FFE70C9801682A
:104D6000012045F23042C5F602029142019038D04E
:104D7000FFE70C980168012045F24442C5F60202A3
:104D8000914201902DD0FFE70C980168012045F277
:104D90005842C5F602029142019022D0FFE70C98DA
:104DA0000168012045F26C42C5F602029142019071
:104DB00017D0FFE70C980168012045F28042C5F644
:104DC0000202914201900CD0FFE70C9800684AF66D
:104DD0006C31CAF2FD710844B0FA80F040090190CC
:104DE000FFE70198C00790B3FFE70C98FBF784FE3C
:104DF0000C988068802804D1FFE70C990020486057
:104E0000FFE70C990879096E08600C98416E806E76
:104E100048600C98406888B1FFE70C984068082803
:104E20000CD8FFE70C98FBF723FF0C98C16E00200D
:104E300008600C98016F406F486007E00C990020F3
:104E4000C8660C9908670C994867FFE7FFE70C995B
:104E5000002048650C9A012182F835108DF8370042
:104E6000FFE79DF837000EB010BD00000000000005
:104E700080B588B0069005910492039300208DF8C8
:104E80000B00069820B9FFE701208DF81F006CE3A6
:104E9000FFE7069890F83400012804D1FFE70220CC
:104EA0008DF81F0061E30699012081F83400FFE7C7
:104EB000FFE7069890F83500012840F04383FFE7AC
:104EC0000699022081F83500069900204865069869
:104ED00000681021C4F20201884200F08180FFE7DF
:104EE000069800682821C4F20201884278D0FFE7C2
:104EF000069800684021C4F20201884270D0FFE7A2
:104F0000069800685821C4F20201884268D0FFE781
:104F1000069800687021C4F20201884260D0FFE761
:104F2000069800688821C4F20201884258D0FFE741
:104F300006980068A021C4F20201884250D0FFE721
:104F400006980068B821C4F20201884248D0FFE701
:104F50000698006840F21041C4F2020188423FD036
:104F6000FFE70698006840F22841C4F20201884237
:104F700036D0FFE70698006840F24041C4F20201D3
:104F800088422DD0FFE70698006840F25841C4F2ED
:104F90000201884224D0FFE70698006840F2704181
:104FA000C4F2020188421BD0FFE70698006840F275
:104FB0008841C4F20201884212D0FFE706980068D7
:104FC00040F2A041C4F20201884209D0FFE70698EE
:104FD000006840F2B841C4F20201884207D1FFE7FD
:104FE00006980168086820F00100086006E006984D
:104FF0000168086820F001000860FFE7069805993D
:10500000049A039BFCF734F80698016801201022EB
:10501000C4F202029142019000F0A380FFE70698DB
:10502000016801202822C4F202029142019000F09E
:105030009880FFE70698016801204022C4F202022E
:105040009142019000F08D80FFE7069801680120F1
:105050005822C4F202029142019000F08280FFE7E0
:105060000698016801207022C4F202029142019068
:1050700077D0FFE70698016801208822C4F2020277
:10508000914201906DD0FFE7069801680120A022AF
:10509000C4F202029142019063D0FFE706980168D2
:1050A0000120B822C4F202029142019059D0FFE7D8
:1050B00006980168012040F21042C4F202029142B7
:1050C00001904ED0FFE706980168012040F2284287
:1050D000C4F202029142019043D0FFE706980168B2
:1050E000012040F24042C4F202029142019038D0C5
:1050F000FFE706980168012040F25842C4F202021C
:10510000914201902DD0FFE706980168012040F2FE
:105110007042C4F202029142019022D0FFE7069849
:105120000168012040F28842C4F2020291420190DB
:1051300017D0FFE706980168012040F2A042C4F2B0
:105140000202914201900CD0FFE7069800684FF6EA
:105150004831CBF6FD710844B0FA80F04009019067
:10516000FFE70198C007A8B1FFE70698006800684C
:105170000B2161F344000699096808600698006CE9
:1051800038B1FFE706980168086840F00800086039
:10519000FFE714E0069800680068052161F343000A
:1051A0000699096808600698006C38B1FFE7069810
:1051B0000168086840F004000860FFE7FFE7069810
:1051C000016801201022C4F202029142009000F016
:1051D0000381FFE70698016801202822C4F2020239
:1051E0009142009000F0F880FFE7069801680120E6
:1051F0004022C4F202029142009000F0ED80FFE7ED
:105200000698016801205822C4F2020291420090DF
:1052100000F0E280FFE70698016801207022C4F2E6
:1052200002029142009000F0D780FFE706980168E3
:1052300001208822C4F202029142009000F0CC804A
:10524000FFE7069801680120A022C4F20202914201
:10525000009000F0C180FFE7069801680120B822A5
:10526000C4F202029142009000F0B680FFE7069877
:105270000168012040F21042C4F202029142009003
:1052800000F0AA80FFE706980168012040F228425A
:10529000C4F202029142009000F09E80FFE706985F
:1052A0000168012040F24042C4F2020291420090A3
:1052B00000F09280FFE706980168012040F2584212
:1052C000C4F202029142009000F08680FFE7069847
:1052D0000168012040F27042C4F202029142009043
:1052E0007AD0FFE706980168012040F28842C4F2B4
:1052F0000202914200906FD0FFE7069801680120FA
:1053000040F2A042C4F202029142009064D0FFE752
:1053100006980168012040F2B842C4F202029142AC
:10532000009059D0FFE706980168012045F2084235
:10533000C5F60202914200904ED0FFE70698016840
:10534000012045F21C42C5F602029142009043D072
:10535000FFE706980168012045F23042C5F60202D7
:105360009142009038D0FFE706980168012045F28D
:105370004442C5F60202914200902DD0FFE7069804
:105380000168012045F25842C5F6020291420090A0
:1053900022D0FFE706980168012045F26C42C5F66D
:1053A00002029142009017D0FFE7069801680120A1
:1053B00045F28042C5F60202914200900CD0FFE710
:1053C000069800684AF66C31CAF2FD710844B0FADA
:1053D00080F040090090FFE70098C007D0B1FFE7D8
:1053E0000698006E0068C003002807D5FFE70698FE
:1053F000016E086840F480700860FFE70698C06E90
:1054000038B1FFE70698C16E086840F48070086004
:10541000FFE7FFE7069800681021C4F20201884206
:1054200000F08180FFE7069800682821C4F202019D
:10543000884278D0FFE7069800684021C4F2020154
:10544000884270D0FFE7069800685821C4F2020134
:10545000884268D0FFE7069800687021C4F2020114
:10546000884260D0FFE7069800688821C4F20201F4
:10547000884258D0FFE706980068A021C4F20201D4
:10548000884250D0FFE706980068B821C4F20201B4
:10549000884248D0FFE70698006840F21041C4F205
:1054A000020188423FD0FFE70698006840F2284199
:1054B000C4F20201884236D0FFE70698006840F245
:1054C0004041C4F2020188422DD0FFE706980068EF
:1054D00040F25841C4F20201884224D0FFE7069806
:1054E000006840F27041C4F2020188421BD0FFE71D
:1054F0000698006840F28841C4F20201884212D046
:10550000FFE70698006840F2A041C4F20201884219
:1055100009D0FFE70698006840F2B841C4F20201E2
:10552000884207D1FFE706980168086840F001004B
:10553000086006E006980168086840F0010008600D
:10554000FFE70DE006994FF400604865FFE7069914
:10555000002081F83400FFE701208DF80B00FFE701
:105560009DF80B008DF81F00FFE79DF81F0008B0A5
:1055700080BD00000000000080B584B0039000F002
:105580003FFD0290039801900198013048B1FFE778
:1055900040F2FE00C2F200400178019808440190F8
:1055A000FFE7FFE700F02CFD0299401A01998842BD
:1055B00001D2FFE7F6E704B080BD00000000000064
:1055C00080B598B0169049F21C71C0F6010101A88F
:1055D0004C22FAF749FF169820B9FFE701208DF811
:1055E0005F00D9E1169800684AF20001C4F2000198
:1055F000884206D1FFE71699086800F58070486078
:10560000FFE716988068B0F5407F01D1FFE7FFE71C
:105610001698006C08B1FFE7FFE71698806C08B198
:10562000FFE7FFE71698006D08B1FFE7FFE7169860
:10563000006E08B1FFE7FFE71699C86D096E0844D0
:1056400008B1FFE7FFE7169890F8980040B9FFE728
:105650001699002081F89900169800F0A1F9FFE74B
:1056600016980168886920F01000886100F0C8FC75
:105670001590FFE71698006880690007002817D585
:10568000FFE700F0BDFC1599401A0B280FD3FFE788
:105690001699D1F89C0040F00100C1F89C001699C1
:1056A000032081F8980001208DF85F0074E1E1E7A4
:1056B00016980168886940F00100886100F0A0FC3C
:1056C0001590FFE7169800688069C007B8B9FFE732
:1056D00000F096FC1599401A0B280FD3FFE7169996
:1056E000D1F89C0040F00100C1F89C0016990320FD
:1056F00081F8980001208DF85F004DE1E2E71698EF
:105700000168886940F0020088611698007C0128D1
:1057100007D1FFE716980168886920F0400088618A
:1057200006E016980168886940F040008861FFE74C
:105730001698407C012807D1FFE716980168886910
:1057400040F48040886106E016980168886920F47A
:1057500080408861FFE71698807C012807D1FFE729
:1057600016980168886920F48050886106E01698D0
:105770000168886940F480508861FFE716980068E6
:10578000806920F44070169A11689268104388610D
:1057900016980168886920F0A4008861169801684D
:1057A000086920F0100008611698C068012807D128
:1057B000FFE716980168886940F0040088612BE0D3
:1057C0001698C06830B3FFE71698C068022819D051
:1057D000FFE716980168886940F080008861169894
:1057E0000168086940F0100008611698C068032835
:1057F00007D1FFE716980168886940F020008861AA
:10580000FFE706E016980168886940F0200088618B
:10581000FFE700E0FFE7FFE7169A11685369906918
:10582000D2F81CE0A0F1010C6FF0FF0000EB0E209D
:1058300040EA4C60126A013A10430022CFF6FF7230
:1058400002EB03421043C86116988068B0F5407FB0
:105850001CD1FFE7169A1168536A906AD2F82CE0BF
:1058600001386FF0FF0C0CEB0E2C40EA0C00D2F864
:1058700030C06FF00F0202EB0C1210430022CFF683
:10588000FF7202EB03421043C860FFE71698006EF8
:1058900048B1FFE716980168426ED1F8C000104386
:1058A000C1F8C000FFE71699C86D096E084480B1C1
:1058B000FFE716980068D0F8C80020F00700169A95
:1058C0001168936E01AA52F823201043C1F8C80052
:1058D000FFE71698006C80B1FFE716980068D0F8D3
:1058E000BC0020F00700169A1168536C01AA52F808
:1058F00023201043C1F8BC00FFE71698806C88B1E4
:10590000FFE716980068D0F8BC0020F07000169AE7
:105910001168D36C01AA52F8232040EA0210C1F8A2
:10592000BC00FFE71698006D88B1FFE71698006885
:10593000D0F8BC0020F4E060169A1168536D01AAFB
:1059400052F8232040EA0220C1F8BC00FFE7169875
:1059500000684AF20001C4F20001884207D1FFE763
:1059600016984168886820F003008860FFE7169960
:105970000020C1F894001699C1F89C0016990120E6
:1059800081F898001698FBF757FE8DF853009DF8A4
:1059900053008DF85F00FFE79DF85F0018B080BDF1
:1059A00080B5B8B037900020369035903490339061
:1059B000329002A8C021FAF789FD379800684AF2B0
:1059C0000001C4F2000188423ED1FFE700200390AD
:1059D0004FF4004102911E9002A803F035FA18B16D
:1059E000FFE7FBF7D5FDFFE7FFE744F2EC40C5F624
:1059F0000200016841F480710160006800F4807069
:105A000001900198FFE7FFE744F2E040C5F602008D
:105A1000016841F080010160006800F080000090A2
:105A20000098FFE74FF4C0403290022033900020EE
:105A3000349035900920369041F60040C5F60200BA
:105A400032A900F0C1F8FFE738B080BD00000000C7
:105A500080B5BEB000203D903C903B903A9039908C
:105A600040F26810C2F20040006808B1FFE7A7E00A
:105A700040F26811C2F200410120086008A80690B7
:105A8000C021FAF723FD0698002109914FF080729A
:105A900008921A9103F0D8F918B1FFE7FBF778FDE7
:105AA000FFE7FFE744F2D440C5F60200016841F485
:105AB00080510160006800F4805007900798FFE76C
:105AC0004FF63F003990022001903A90002002905A
:105AD0003B90032003903C900C2004903D9041F2B9
