:020000040800F2
:10000000E81C0020B9020008C53B00083D39000883
:10001000C13B0008B10400085D6A00080000000050
:10002000000000000000000000000000D53E0008B5
:100030004105000800000000C93B000871410008AC
:10004000D3020008D3020008D3020008D30200083C
:10005000D3020008D3020008D3020008D30200082C
:10006000D3020008D3020008D3020008D30200081C
:10007000D3020008D3020008D3020008D30200080C
:10008000D302000800000000D3020008D3020008D9
:1000900019690008D3020008D3020008D30200083F
:1000A000D3020008D3020008D3020008D3020008DC
:1000B000D3020008D3020008D3020008D3020008CC
:1000C000D3020008D3020008D3020008D3020008BC
:1000D000D3020008D3020008D3020008D3020008AC
:1000E000D3020008D3020008D3020008D30200089C
:1000F000D3020008D3020008D30200080000000069
:1001000000000000D302000800000000D302000835
:10011000D302000800000000F9410008D3020008E3
:10012000D3020008D3020008D3020008D30200085B
:10013000D30200080000000000000000D302000805
:10014000D3020008D30200080000000000000000F5
:10015000000000000000000000000000000000009F
:10016000000000000000000000000000D3020008B2
:10017000D3020008000000000000000000000000A2
:1001800000000000D3020008000000000000000092
:10019000000000000000000000000000000000005F
:1001A0000000000000000000D3020008D302000895
:1001B000D3020008D3020008D302000800000000A8
:1001C00000000000D3020008000000000000000052
:1001D000D3020008D302000800F002F800F05CF837
:1001E0000AA090E8000C82448344AAF10107DA4592
:1001F00001D100F051F8AFF2090EBAE80F0013F088
:10020000010F18BFFB1A43F001031847507E00008E
:10021000707E00000A444FF0000C10F8013B13F010
:10022000070408BF10F8014B1D1108BF10F8015B4F
:10023000641E05D010F8016B641E01F8016BF9D142
:1002400013F0080F1EBF10F8014BAD1C0C1B09D199
:100250006D1E58BF01F801CBFAD505E014F8016B0B
:1002600001F8016B6D1EF9D59142D6D3704700009D
:100270000023002400250026103A28BF78C1FBD8AF
:10028000520728BF30C148BF0B6070471FB507F049
:1002900078FA1FBD10B510BD00F0D4F81146FFF775
:1002A000F5FF06F0BFFC00F0F2F803B4FFF7F2FF31
:1002B00003BC00F0F5F800000948804709480047F2
:1002C000FEE7FEE7FEE7FEE7FEE7FEE7FEE7FEE706
:1002D000FEE7FEE704480549054A064B7047000063
:1002E000E5410008D9010008E8160020E81C0020BC
:1002F000E8180020E818002053EA020C00F069809A
:100300002DE9F04B4FF00006002B1FBFB3FA83F529
:1003100003FA05F424FA05F65E4012BF1643B2FA5A
:1003200082F502FA05F4C5F120051EBF22FA05FC8C
:1003300044EA0C04203556EA044C4FEA144418BF32
:10034000641C4FF000084FF00009904271EB030C61
:1003500039D3002919BFB1FA81F701FA07F6B0FACB
:1003600080F700FA07F6C7F120071EBF20FA07FC46
:1003700046EA0C062037B6FBF4FCA7EB0507103F56
:1003800007F01F0BCBF120062CFA06F60CFA0BFB3C
:1003900044BFB3460026202FA4BF5E464FF0000B9B
:1003A0005BEA060C08BF4FF0010B19EB0B0948EB99
:1003B0000608ABFB027C06FB02CC0BFB03CCC01B8C
:1003C00071EB0C01C1E70B46024641464846BDE8C9
:1003D000F08B13B5084318BF4FF0FF300146AFF361
:1003E0000080BDE81C4070474FF0000200B5134686
:1003F00094469646203922BFA0E80C50A0E80C5045
:10040000B1F12001BFF4F7AF090728BFA0E80C50F5
:1004100048BF0CC05DF804EB890028BF40F8042BEE
:1004200008BF704748BF20F8022B11F0804F18BF5B
:1004300000F8012B704770477047704700487047BD
:10044000A00100207546FFF7F9FFAE46050069469A
:10045000534620F00700854618B020B5FFF73AFF55
:10046000BDE820404FF000064FF000074FF00008B5
:100470004FF0000BAC46ACE8C009ACE8C009ACE8F2
:10048000C009ACE8C00921F007018D46704710B5DE
:100490000446AFF300802046BDE81040FFF705BFDB
:1004A00001491820ABBEFEE726000200704700009D
:1004B000FEE70000002070470020704710B540F6AE
:1004C000C064C2F2000440F6C021C2F2000120461E
:1004D000002204F081FD40F2C061C2F2000120461A
:1004E00004F070FD002010BD10B540F6C064C2F2EB
:1004F00000040146204604F065FD204604F08EFC11
:10050000002010BD0020704710B540F6C062C2F256
:100510000002D2F8BC22D2F81432002B1CBF0120FA
:1005200010BD40F6C064C2F200040A4601462046EF
:1005300004F052FD2046BDE8104004F0D1BD00009B
:1005400070470000EFF3108072B600BFFEE70000B6
:10055000704700002DE9F041044600284FF00100EB
:1005600000F0E6800D46002900F0E2806079012865
:100570004FF0020008BFBDE8F081012161712071D8
:10058000A8681646042831D100F036FC21684A6B71
:1005900007469EB1B2F1FF3F05DD686A486411E08D
:1005A000486B0028F9D500F027FCC01B2168022801
:1005B000F6D3486BB0F1FF3FF2DC3DE0100432D4DB
:1005C000686A0864886C06F0100240F2FF339340BA
:1005D0009843D5E90A37934018438864C86CFF23D1
:1005E0009340984307FA02F21043C864E96920680F
:1005F000012929D1816B06F010081F222B6A02FA0B
:1006000008F2914303FA08F211438163D0F83CC029
:10061000A96901291FD0022920D14FF0010E22E043
:10062000486B0004CCD500F0E7FBC01B2168022812
:10063000F6D3486B0004F3D5206940F00800206130
:1006400003202071BDE8F08106F01008D0F83CC00E
:10065000A9690129DFD14FF0000E04E06969B1FA00
:1006600081F14FEA511EAA686B692E7940F2073773
:1006700042EA0E0207FA08F0697942EA0307012EFE
:1006800008BF47F48077012908BF47F400776FF46B
:10069000404229685040022900EA0C060AD102F0C3
:1006A0008FF846F60101C0F68911884204D346F45A
:1006B000004609E00E4307E04BF20041C0F2C4419E
:1006C000884288BF46F4804607FA08F12068314323
:1006D000C1634FF48041026801FA08F122EA010186
:1006E0000160016840F6FE7202FA08F29143D5E912
:1006F000032302FA08F739430160C021076801FAB1
:1007000008F127EA01010160C2F3830103F03C0212
:1007100041EA8211026E40F60F7303FA08F39A431E
:1007200001FA08F111430166012020710020607177
:10073000BDE8F0817047000070B5044600680668A7
:10074000456BB10412D515F400510FD0042121716D
:10075000216941F0010121614FF4005141630168B9
:1007600021F4805101602046FFF7E4FFB00058BF3C
:1007700070BD15F0005013D004202071206940F0A6
:100780000200206121684FF000504863086820F0A3
:10079000805220460A60BDE87040FFF7D9BE00BF16
:1007A00070BD0000002804BF0120704710B504464A
:1007B000007920B900206071204600F007F802207F
:1007C0002071002001212061217110BD80B586B00B
:1007D000006840F60002C5F2000200219042059137
:1007E000049101D006B080BD41F24C00C4F2020079
:1007F000026842F480320260026802F480320092A1
:10080000009A026842F001020260006800F00100F4
:1008100000900098302001900320CDE9020101A949
:100820004FF0904000F004FA36200221002200F040
:100830005BFC362000F044FC06B080BD81B04FF078
:10084000000CCDF800C088B1D0F800C00029DCF859
:100850003C00CDF800C00098104414BF143008309C
:10086000009000980360002001B07047012001B0A3
:100870007047000010B581B0002843D04279012AAA
:100880004FF002023FD0012343710271D0F800E023
:1008900001F0100CDEF8002003FA0CF42243CEF82D
:1008A000002040F24002C2F20002126842F6635495
:1008B0009209C0F23E54A2FB042403EB941200926E
:1008C000009AA2B1009A013A0092009A7AB1009A75
:1008D000013A0092009A52B1009A013A0092009AAD
:1008E0002AB1009A013A0092009A002AEAD1DEF871
:1008F000003059B1022103F4781201FA0CF39A4244
:100900000ED108E00122104601B010BD03F03E01F7
:10091000022905D10121DEF804201143CEF804108C
:100920000121002201714271104601B010BD00008A
:10093000B0B5044600F060FA054640F21800C2F275
:1009400000004068611C18BF044400BF00F054FA66
:10095000401BA042FAD3B0BD70B5D8B1044690F8A0
:100960005C0028B9002084F85D00204600F018F9EA
:100970002068816921F01001816100F03DFA05468F
:1009800020688169090707D500F036FA401B0B285B
:10099000F6D312E0012070BD816941F0010181614F
:1009A00000F02AFA054600BF21688869C0070DD10A
:1009B00000F022FA401B0B28F6D3206E032140F0F2
:1009C00001002066012084F85C1070BD4AF20040EE
:1009D0008A69C4F20000A0F5804342F00202994205
:1009E0008A6105D162684CF20013CFF6FF73C250E2
:1009F000227C8B69012A23F0400318BF40338B61AE
:100A0000627C8B69012A23F4804308BF03F580438D
:100A10008B61A27C8B69012A23F4805318BF03F5F4
:100A200080538B618A69D4E902E322F4407545EA78
:100A30000E058D618D6925F0A4058D610D6925F088
:100A400010050D61A3B1012B0ED0022B09D08D69C9
:100A5000032B45F080058D610D6945F010050D6192
:100A600006D1202301E000BF04238D692B438B6155
:100A7000D4E90535D4E907266FF0FF0C013D0CEBF6
:100A8000022242EA4562751E2A430025CFF6FF7511
:100A900005EB03431A43BEF5407FCA6110D1D4E988
:100AA00009E3D4E90B62013B0CEB062633436FF0FC
:100AB0000F0606EB02121A4305EB0E431A43CA60F7
:100AC00004F134064CCED1F8C0502E43C1F8C060BA
:100AD0002064D1F880604AF2704526F4F816C4F21A
:100AE000000546EA0242C1F880206564D1F8802002
:100AF00022F0706242EA0362C1F8802005F14001F1
:100B0000A16405F58C71E16405F5F871216505F5C1
:100B100002716165002105F5037200BFC0E9001193
:100B2000C0E90211C0E90411C0E90611C0E90811C9
:100B3000C0E90A11C0E90C11C0E90E11C0E9101199
:100B4000C0E91211C0E91411C0E91611C0E9181169
:100B5000C0E91A11C0E91C11C0E91E11C0E9201139
:100B6000C0E92211C0E92411C0E92611C0E9281109
:100B7000C0E92A11C0E92C11C0E92E11C0E93011D9
:100B8000C0E93211C0F8D010904200F1D400C5D3B2
:100B900000200121A065206684F85C1070BD000073
:100BA00010B596B00446684604304021FFF71CFC9F
:100BB000206846F20041C4F20001884202D016B01B
:100BC00010BD00BF4FF4805000904FF000700C90AB
:100BD000684601F035FB002818BFFFF7B3FC41F26F
:100BE0004C00C4F20200C16841F00071C160C168EC
:100BF00001F0007111911199016841F00201016049
:100C0000006811A900F00200119011984FF4407093
:100C10001190022012900020CDE9130009201590B8
:100C200040F20040C4F6000000F002F816B010BD1B
:100C30002DE9F04F82B00D68002D00F0CB8041F21D
:100C4000004400F13847C4F6000406224FEAB726F4
:100C5000A04208BF0522052E38BF4FEAB722002464
:100C600001274FF0000E0026009209E00D680136C2
:100C700035FA06F20EF1040E04F1020400F0AA8027
:100C800007FA06FB15EA0B08F0D0D1F804A00322FE
:100C90000AF0030CACF10105A240012D6FEA020934
:100CA00010D88268CD6802EA0902A5402A43826012
:100CB0004268CAF3001522EA0B02B5402A4342609B
:100CC00006E000BFBCF1030F02D14FF0030C21E09E
:100CD000C2688D6802EA0902A5402A43BCF1020FEE
:100CE000C26017D16FF0030202EA560202440EF00E
:100CF0001C030F25D2F820C005FA03FA0D692CEA6F
:100D00000A0C05FA03F343EA0C031362D1F804A0BA
:100D10000AF0030C02680CFA04F302EA09021A430F
:100D20001AF4403F0260A1D041F26003C4F2020312
:100D30001A6840F2004942F001021A601A68C4F2CF
:100D4000010902F001020192019A26F003024FF616
:100D5000084A4A44CFF6FF7A52F80AC00EF00C0552
:100D60000F23009FAB402CEA030307FA05F52B4342
:100D700042F80A30D9F808C04B684CEA0805DA0294
:100D800058BF2CEA080540F20C4CC9F80850C4F2D0
:100D9000010CDCF800209F0242EA080558BF22EA55
:100DA0000805CCF80050D9F804209D0342EA080752
:100DB00058BF22EA0807C9F80470D9F80020DB03FD
:100DC00042EA080758BF22EA0807C9F8007001275D
:100DD0004CE700BF02B0BDE8F08F0000426902EAB4
:100DE0000103914341EA0341816170471823002ABE
:100DF00008BF2823C150704741F2E060C2F20000F2
:100E00000068704790F84120202A03D190F84020D4
:100E1000012A01D102207047242280F84120026873
:100E2000136823F001031360136823F480531360E5
:100E3000136819431160116841F00101116020210C
:100E400080F84110002180F84010084670470000EB
:100E500090F84120202A03D190F84020012A01D1A6
:100E600002207047242280F841200268136823F092
:100E700001031360136823F4706343EA01211160D6
:100E8000116841F001011160202180F8411000211A
:100E900080F8401008467047002804BF01207047C2
:100EA00010B5044690F8410028B9002084F84000AD
:100EB000204600F049F8242084F8410094E8091005
:100EC000E2680168012A21F00101016023F07061EC
:100ED0000161816821F40041816003D14CF400413B
:100EE000816009E04CF40441022A816004D1416828
:100EF00041F4006103E000BF416821F400614160FA
:100F0000416804F1100C41F0007141F4004141606E
:100F1000C16821F40041C1609CE80E10114341EA10
:100F20000321C160216A41EA0C010160016841F0BE
:100F30000101016000202021606484F841102063D9
:100F400084F8420010BD00002DE9F04198B004463D
:100F500002A8043040214025FFF746FA206845F2F8
:100F60000041C4F20001884202D018B0BDE8F0810F
:100F700002A8029501F064F9002818BFFFF7E2FA11
:100F800041F24C05C4F20205286813AC40F00100A0
:100F9000286028684FF0120800F0010013901398A1
:100FA0002868002740F0020028602868042600F026
:100FB0000200139013984FF4004013904FF09040AC
:100FC0002146CDF85080CDE915771796FFF730FE12
:100FD0008020CDE9130840F20040C4F6000021460D
:100FE000CDE915771796FFF723FEE86840F4001067
:100FF000E860E86800F400100190019818B0BDE8BE
:10100000F081000040F2180041F2E061C2F20000FD
:10101000C2F2000140680A6810440860704700008E
:1010200080B5032000F08CF80F2000F009F80028AC
:101030001CBF012080BD00F029F8002080BD000009
:1010400070B540F21806C2F200067168E1B10446BC
:1010500040F24000C2F200004FF47A720068B2FB26
:10106000F1F1B0FBF1F002F0C3F80F2C4FF00105E5
:1010700008D838B94FF0FF3021460022002500F093
:1010800033F83460284670BD012070BD82B041F253
:101090005800C4F20200816841F00101816081685A
:1010A00001F0010101910199016841F08051016055
:1010B000006800F080500090009802B001F0B6B8CF
:1010C000002848BF7047C1B200F01F00012202FA99
:1010D00000F04EF20012CEF2000242EAD10121F0FD
:1010E000030108607047000010B54EF60C5CCEF2AC
:1010F000000CDCF80030C3F3022E8EF00704042C41
:1011000028BF0424BEF103034FF0FF3E0EFA04F49F
:1011100038BF0023A14399400EFA03F39A431143C9
:1011200000F00F0200F160430901043A03F5644343
:101130006244002848BF02F10C03197010BD000082
:101140004EF60C51CEF200010A684FF6FF031A402A
:1011500060F30A2242F0806040F0FD700860704742
:1011600001220168C0F8D022002280F8C822B1F81C
:10117000540040F00100A1F85400B1F8540040F0D0
:1011800002020020A1F854207047000010B5012988
:10119000044613D011BB607A48B102F0EBFF4EF663
:1011A0001050CEF20000016821F006010160D4F871
:1011B000D802BDE8104004F0EFB900BFD4F8D8025F
:1011C00004F070FA607A002808BF10BD4EF6105087
:1011D000CEF20000016841F00601016010BD000080
:1011E00080B501F0070C0CEB8C0C00EBCC0C01EB88
:1011F000810E0CF1100C00EBCE00090658BF00F573
:10120000A87C0020002A19BFCCF808300121ACF8D6
:10121000063000218CF80C1080BD000001EB81022B
:10122000D0F8D83200EBC200426A184604F074B815
:1012300001EB8102D0F8D83200EBC200D0F8642173
:10124000184604F0BDB8000010B5044648B2B0F12D
:10125000FF3F01F0070000EB800104EBC10205DD58
:1012600002F5A871002382F8513103E0012302F155
:101270001001537494F890220870012A04BF0220D0
:1012800010BD2068012284F8902204F01FFE002087
:1012900084F8900210BD0000B0B50446007901F05A
:1012A0000F02824284BF0120B0BD48B2B0F1FF3FBF
:1012B00001F0070000EB800104EBC10206DD02F53E
:1012C000A871002382F8513104E000BF012302F12C
:1012D0001001537494F890220025012A8D70087033
:1012E00004BF0220B0BD2068012284F8902204F0DF
:1012F00081FE284684F89052B0BD000001F007013D
:1013000001EB810100EBC100D0F86C0170470000D7
:1013100070B5064648B2B0F1FF3F01F0070000EBA0
:10132000800107DD06EBC10404F5A871002584F8EF
:10133000515106E006EBC10C01240CF110018CF8B0
:10134000114008700A61022BCB7004BF00200871A5
:1013500096F89002012804BF022070BD3068012277
:1013600086F8902204F08CFC002086F8900270BD74
:1013700010B501F0070C0CEB8C0100EBC10E0068FE
:101380000EF5A8710024CEF86421CEF86831CEF8AD
:101390006C418EF851418EF850C104F083FE00205C
:1013A00010BD000010B50279044601F0070090421C
:1013B00084BF012010BD4AB2B2F1FF3F0ADD01EB4C
:1013C000810104EBC10202F5A871002382F85131BA
:1013D00008E000BF00EB800104EBC102012302F131
:1013E0001001537494F890320122012B8A70087016
:1013F00004BF022010BD206884F8902204F038FE5B
:10140000002084F8900210BD80B501F0070C0CEBB1
:101410008C0100EBC10101F810CF00684FF0010C06
:1014200001F1140781F824C04FF0000E87E80C404A
:101430000B6281F801C004F035FE002080BD000081
:101440002DE9F04F81B00446006805F06BFA010405
:1014500020D4410500F1FA83410400F1098481049C
:1014600000F11E84C10400F12584010500F14884C7
:10147000010600F15B84810500F16884C00540F13C
:10148000F3832068B0F8441021F48071A0F8441070
:10149000EAE300BF2068B0F94410B1F1FF3F00F368
:1014A000E38304F5267140F60F7B009123E000BF33
:1014B000B0F8501094F85021014401EBC201B1F88A
:1014C0000634B4F8562100996FF39F23C4F86C31A9
:1014D00005F02CFA2068018801EA0B0180310180B7
:1014E000204600F0DDFD00BF2068B0F94410B1F1E6
:1014F000FF3F00F3B983B0F8442012F00F090DD07C
:1015000030F929104FEA490AB1F1FF3F1FFA81F87B
:101510002EDD5FEA0860E7D560E100BF0188D206F2
:101520006AD401EA0B0101F500410180B0F85010C6
:10153000227C084400EBC200B0F80204616A6FF339
:101540009F20E0620844606220460021FFF766FEAB
:10155000207B0028C8D0A06A0028C5D1207B216844
:1015600040F08000C0B2A1F84C0000202073BBE71F
:1015700030F81A1040F60F7C01EA0B01803120F898
:101580001A1009EB890104EBC10B9BF85C110BF5F8
:10159000A876002900F082809BF85311022940F0C0
:1015A0008F80B0F850703178DBF8683107440BF564
:1015B000B4725FEA484507EBC10700F19B80B7F8BA
:1015C000067400256FF39F27DB1B38BF2B46136083
:1015D00040F2A6805FEA486200F1B28030F8212034
:1015E00048F2C00302EA0C021A4320F82120002F1F
:1015F00040F0A780CCE000BF0A053FF559AF09B223
:10160000B1F1FF3F3FF770AF018801EA0B01803174
:101610000180B0F8501094F85021014401EBC20150
:10162000B1F806346FF39F23C4F86C3193B1D4F84A
:10163000641179B1B4F8562105F078F9D4F8640151
:10164000D4F86C110844C4F8640120460021FFF767
:10165000EFFD206801880A053FF546AF01F44051CF
:10166000B1F5405F3FF440AFB0F8501000F20642D1
:10167000535A6FF39F235352D4F860313F2BC0F07D
:101680000782DE068E5A4FEA53174FF0FF3508BF28
:1016900005EB531746EA87237DE200BFB0F85010F0
:1016A0003278014401EBC201B1F806746FF39F2751
:1016B000002F6DD0DBF86411BBF8562163E000BF4A
:1016C000327848F2C00330F8221001EA0C011943C5
:1016D00020F8221030F82230B0F8501000EBC2028F
:1016E0005B04114416D4B1F806746FF39F2747BB0F
:1016F0004EE000BFB7F8027400256FF39F27DB1B95
:1017000038BF2B46136021D95FEA48622DD4B7BB9E
:101710003EE000BFB1F802746FF39F277FBB37E054
:1017200030F8212043F60F731A404CF28003A3F5E2
:1017300000535A4020F821205FEA48627FF54EAFFF
:1017400037B3DBF86411BBF85A211CE030F82120D4
:1017500043F60F731A404CF28003A3F500535A402E
:1017600020F821205FEA4862D1D530F8212048F2E4
:10177000C00302EA0C021A4320F8212047B1DBF82B
:101780006411BBF858213B4605F0D0F801E000BFDA
:101790000027DBF86C11DBE9590239443844CBF8F7
:1017A0006C11CBF864011AB1DBF86001B8420BD9B7
:1017B00031782046FFF73CFD40F60F7B5FEA08607A
:1017C0007FF592AE0AE000BF2068314604F06AFC63
:1017D00040F60F7B5FEA08607FF586AE206809EB74
:1017E000890130F81A2004EBC10502EA0B0101F56A
:1017F000004120F81A10E97C05F11009012923D1D4
:10180000297F00294FF00001A96200F03B815FEAC7
:10181000486100F18780697C012900F01D81002961
:1018200040F03081B0F8501099F80020084400EBE7
:10183000C200B0F806146FF39F21A0F80614B0F8A8
:10184000061441F400410FE15FEAC8511ED4B0F81C
:10185000502099F80010024402EBC102B2F80224B1
:10186000AB6A6FF39F229B1A4FF0000738BF3B46CD
:10187000AB6240F20981696AEB6A114469629918A6
:10188000E962494604F00EFC2EE600BFB0F8507045
:1018900099F800102A4652F8286F5FEA486300EB77
:1018A000C10C59D40CF2064E3EF8077000236FF3BA
:1018B0009F27F61B38BF1E46166040F285805FEA00
:1018C000484208D430F821204CF2800302EA0B028F
:1018D0001A4320F821202A4612F8341F012940F02B
:1018E000A4812B4653F8308F53E904C153F8046C9C
:1018F00039443E44E04543F80C1C43F8046C80F046
:101900000381B8F1000F00F05D810027C4461F601D
:1019100017706A7C012A40F0FE80B0F850202EF843
:1019200002C075E1697C012900F0A280002940F025
:10193000A980B0F8501099F80020084400EBC200CC
:10194000B0F802146FF39F21A0F80214B0F802144B
:1019500041F4004194E000BF0CF2024E3EF80770E3
:1019600000236FF39F27F61B38BF1E4616604FD922
:101970005FEA484208D530F821204CF2800302EAA1
:101980000B021A4320F821202B4613F8341F01299B
:1019900040F04B812A4652F830CF52E9046152F8A8
:1019A000048C3944B844B44542F80C1C42F8048C09
:1019B00080F0CC804FF00008BCF1000F83F800806D
:1019C00040F0C780BC46C6E06A7C012A6CD0002A81
:1019D00074D1B0F850206244B2F802346FF39F2300
:1019E000A2F80234B2F8023443F40043A2F80234FD
:1019F000B0F850003EF800206FF39F222EF8002030
:101A00003EF8002042F400422EF8002056E000BFCD
:101A10006A7C012A5AD0002A62D1B0F850203EF8E0
:101A200002706FF39F272EF802703EF8027047F4A1
:101A300000472EF80270B0F850006044B0F8062459
:101A40006FF39F22A0F80624B0F8062442F4004267
:101A5000A0F8062444E000BFB0F8501099F8002028
:101A6000084400EBC2000021A0F806140AE000BF01
:101A7000B0F8501099F80020084400EBC200002193
:101A8000A0F8021499F800102046FFF7C7FB2BE5D9
:101A9000002B00F07F8003F001078E5A07EB530301
:101AA00046EA83237CE000BFB0F850200023624464
:101AB000A2F80234B0F850002EF800302046FFF7AC
:101AC000ADFB5FEA484012D5AFE000BFB0F8502050
:101AD00000232EF80230B0F850006044A0F806341D
:101AE0002046FFF79BFB5FEA484040F19E8020685C
:101AF00099F800104CF2800330F8212002EA0B0222
:101B00001A4320F8212090E0A8EB0C021A606A7CAE
:101B1000012A3FF402AF002A7AD1B0F85070BCF12C
:101B20003F0F3EF807206FF39F222EF8072051D376
:101B30005FEACC634FEA5C1237F80E304FF0FF36A5
:101B400008BF06EB5C1243EA82225DE0ACEB0608BC
:101B5000B446C2F800806A7C012A2DD0002A5FD1E9
:101B6000B0F85070BCF13F0F3EF807206FF39F2292
:101B70002EF807203AD35FEACC634FEA5C1237F8BD
:101B80000E304FF0FF3608BF06EB5C1243EA8222AC
:101B900042E000BF8B5A48F20007CFF6FF773B4385
:101BA0008B52018843F60F7211404CF28002A2F56D
:101BB00080525140018097E4B0F850202EF802C0C6
:101BC0002EE000BF00231370BC466A7C012AA2D11C
:101BD000A3E600BFBCF1000F14D00CF0010237F8EF
:101BE0000E3002EB5C0243EA82220FE0BCF1000FF0
:101BF00010D00CF0010237F80E3002EB5C0243EA21
:101C000082220BE037F80E2042F4004227F80E2023
:101C10006A8B06E037F80E2042F4004227F80E20C7
:101C20002A8B1FFA8CF304F0D7FE206899F8001075
:101C300040F63F7330F821201A4048F2C003103BB1
:101C40005A4020F82120FFF74FBC00BF2068B0F8B1
:101C5000441021F48061A0F84410204600F0E2F91D
:101C600094F8900201280DD101B0BDE8F08F00BFBB
:101C70002068B0F8441021F48041A0F8441001B06D
:101C8000BDE8F08F0120002584F8900225732068BC
:101C9000002104F099FE84F8905201B0BDE8F08F65
:101CA0002068B0F8441021F40051A0F8441001B0AD
:101CB000BDE8F08F2068B0F8401021F00401A0F8D2
:101CC0004010B0F8401021F00801A0F8401094F83E
:101CD000C802012806D1002084F8C802204600214D
:101CE000FFF754FA204600F0AFF92068B0F844102E
:101CF00021F48051A0F8441001B0BDE8F08F00BF7E
:101D00002168B1F8400040F00800A1F84000B1F8A7
:101D1000440020F40060A1F84400B1F8400040F015
:101D200004022046A1F840200BE000BF2068B0F874
:101D3000441021F08001A0F8441094F8C81299B121
:101D4000204601B0BDE8F04F00F0C8B92168B1F8F5
:101D5000440020F400722046A1F8442001B0BDE800
:101D6000F04F00F085B900BFB0F8401041F0040119
:101D7000A0F84010B0F8401041F00801A0F8401061
:101D8000012184F8C812B0F854003C2101EA900205
:101D900020460121C4F8CC2201B0BDE8F04FFFF786
:101DA000F5B90000F0B581B0002800F003810446C9
:101DB00090F8910228B9002084F89002204600F0A3
:101DC000FDF8032084F89102206804F009F92179D4
:101DD000002900F0DD80A1F1010E01F0030CBEF13D
:101DE000030F4FF0000334D301F0FC0004F1A00214
:101DF000012600256F1C02F8687CAF1C02F8905C7D
:101E000002F8407CEF1C043502F88F6C02F88D3C20
:101E100042E9203342F8783C02F8676C02F8653CEE
:101E200042E9163342F8503C02F83F6C02F83D3C60
:101E300042E90C3342F8283C02F8176C02F8187C8F
:101E400002F8153C42E9023342F8A03B8542D1D169
:101E50002B46BCF1000F29D003EB830004EBC00537
:101E600001220020BCF1010F6A742B74E874C5E9EB
:101E70000800A8621AD05D1C05EB850604EBC606B7
:101E8000BCF1020F72743574F074C6E90800B062D8
:101E90000CD0981C00EB800204EBC20201231074EA
:101EA00000205374D074C2E90800906200296FD0FA
:101EB000BEF1030F4FF0000233D301F0FC0004F534
:101EC000F07100235F1C01F8687C9F1C01F8903CB6
:101ED00001F8407CDF1C043301F88F2C01F88D2CB5
:101EE00041E9202241F8782C01F8672C01F8652C93
:101EF00041E9162241F8502C01F83F2C01F83D2C05
:101F000041E90C2241F8282C01F8172C01F8187C23
:101F100001F8152C41E9022241F8A02B8342D1D1CE
:101F20001A46BCF1000F33D002EB820004EBC00173
:101F30000020BCF1010F81F8510181F8502181F896
:101F40005301C1E95800C1F8680121D0511C01EBCF
:101F5000810304EBC303BCF1020F83F8510183F842
:101F6000501183F85301C3E95800C3F868010FD03A
:101F7000901C00EB800104EBC101002281F851218B
:101F800081F8500181F85321C1E95822C1F8682134
:101F900094E8070004F016F800200121207384F86B
:101FA0009112A17A012903D12046FFF7D9F8002028
:101FB00001B0F0BD012001B0F0BD000010B592B03D
:101FC000044601A804304021FEF70EFA206845F6C9
:101FD0000041C4F20001884202D012B010BD00BF1F
:101FE0004FF40050019001A800F02AF9002818BF12
:101FF000FEF7A8FA41F25800C4F20200016800227C
:1020000041F4000101600068002100F4000000902C
:1020100000981420FFF768F81420FFF751F812B069
:1020200010BD000010B504464079022818BFFEF725
:1020300089FAD4F8D802012103F0C8FAD4F8D802FA
:10204000BDE8104003F074BA10B50446407A48B1B8
:102050004EF61050CEF20000016821F0060101603A
:1020600002F088F8D4F8D802BDE8104003F094BA22
:10207000D0F8D80203F09ABA10B5044690F890024E
:10208000012804BF022010BD012084F890022173B2
:10209000206804F099FC002084F8900210BD000034
:1020A000D0F8D82200F52671104603F0A5BA00003A
:1020B00010B5044690F89002012804BF022010BD1C
:1020C0002068012184F8901204F01CFC206803F0C1
:1020D0006FFF002084F8900210BD000010B5044688
:1020E000D0F8D80203F0DEFA607A002808BF10BDED
:1020F0004EF61050CEF20000016841F0060101607A
:1021000010BD0000B0F5007F42D0002840F0808074
:1021100047F21400C4F2000050F8141CC26E01F41F
:10212000C06122F48072B1F5806FC2662ED150F882
:10213000141C012262F34A2140F8141C40F24001B1
:10214000C2F200010968322251434DF68362C4F2A3
:102150001B32A1FB0212910C0268520511D54A1CD8
:102160000FD0026852050CD559B10268520508D546
:10217000012906D00268520503D50229A1F1040104
:10218000EAD10068400544BF032070470020704733
:1021900047F21400C4F2000050F8141CC26E01F49F
:1021A000C06142F48072B1F5806FC266EED150F822
:1021B000141C012262F34A2140F8141C40F2400131
:1021C000C2F200010968322251434DF68362C4F223
:1021D0001B32A1FB0212910C0268520511D54A1C58
:1021E0000FD0026852050CD559B10268520508D5C6
:1021F000012906D00268520503D50229A1F1040184
:10220000EAD10068400544BF03207047BEE700BF25
:1022100047F21400C4F2000050F8141C022262F3CA
:102220004A2140F8141C00207047000047F20800C3
:10223000C4F20000016841F4804101607047000071
:102240002DE9F04182B00446807841F2880600070B
:10225000C4F2020602D400202FE000BF56F8300C72
:1022600010F080580BD156F8300C40F0805046F8F2
:10227000300C56F8300C00F080500190019847F275
:102280000007C4F20007386840F480703860FEF739
:10229000B3FD05463868C00500F1D680FEF7ACFDF9
:1022A000401B0228F6D90320B8F1000F05D156F8DB
:1022B000301C21F0805146F8301C2168CA0713D128
:1022C0008A0719D44A071FD40A0725D48A062BD4B3
:1022D0004A0631D40A0637D4CA053DD48A0543D408
:1022E0004A0549D457E000BF3268636822F0030210
:1022F0001A4332608A07E5D53268A36822F00C02DF
:102300001A4332604A07DFD53268E36822F03002B0
:102310001A4332600A07D9D53268236922F0C00215
:102320001A4332608A06D3D53268636922F4406268
:102330001A4332604A06CDD53268A36922F440526E
:102340001A4332600A06C7D53268E36922F4404274
:102350001A433260CA05C1D53268236A22F440327A
:102360001A4332608A05BBD53268636A22F4402280
:102370001A4332604A050ED53268A36A22F440122D
:102380001A43B3F5801F326005D156F87C2C42F415
:10239000801246F87C2C0A050ED53268E36A22F4D6
:1023A00040021A43B3F5800F326005D156F87C2CF9
:1023B00042F4801246F87C2CCA040ED53268236B96
:1023C00022F040721A43B3F1807F326005D156F893
:1023D0007C2C42F4801246F87C2C8A040ED532689C
:1023E000636B22F040621A43B3F1006F326005D193
:1023F00056F87C2C42F4801246F87C2C4A040ED508
:102400003268A36B22F040621A43B3F1006F32606E
:1024100005D156F87C2C42F4801246F87C2C090435
:102420000ED53168E26B21F040511143B2F1805F6B
:10243000316005D156F87C1C41F4803146F87C1C93
:1024400002B0BDE8F08100BFB06810F4407010D059
:10245000216C88420BD0B068B16820F4407041F420
:102460008031B160B16821F48031B160B060C007E3
:102470000CD1B068216C20F440700843B06000209B
:10248000B8F1000F7FF419AF11E700BFFEF7B4FCFD
:10249000054641F2883700BFB0688007E9D4FEF7EF
:1024A000ABFC401BB842F7D9FDE600002DE9F04730
:1024B00000286DD042F2000AC4F2020A0446DAF89B
:1024C00000000D4600F00F0088420CD2DAF8000040
:1024D00020F00F002843CAF80000DAF8000000F0EE
:1024E0000F00A84254D1216841F20808C807C4F27D
:1024F000020803D1880740F1D880BDE06068022857
:102500003AD0032840D158F8082C920140D5D8F889
:102510000420D8F8043042F20046C3F3031302F05B
:102520000302D8F804700133C0F2F406032A04BF92
:1025300041F20026C0F27A06B6FBF3F2D8F8043076
:10254000C7F306277A43C3F34163022707EB43032C
:10255000B2FBF3F24BF20043C0F2C4439A4261D99A
:10256000D8F8002012F0F00F51D089075AD5A16891
:10257000002957D14BE000BF58F8081C89035CBF05
:102580000120BDE8F08707E058F8081C490503D48E
:102590000120BDE8F08700BFD8F8001001F00C0161
:1025A00004293FD0D8F8001001F00C01082939D0D7
:1025B000D8F8001001F00C010C2933D1D8F8041020
:1025C000D8F8042042F20047C2F3031201F00301DD
:1025D000D8F804300132C0F2F407032904BF41F2F5
:1025E0000027C0F27A07B7FBF2F1D8F80420C3F352
:1025F00006235943C2F34162022303EB4202B1FBBB
:10260000F2F14BF20042C0F2C44291420AD9D8F82A
:102610000010082262F307114FF00109C8F80010FA
:1026200002E000BF4FF00009D8F8001021F00301CC
:102630000843C8F80000FEF7DFFB064641F2883782
:10264000D8F80000616800F00C00B0EB810F07D0F3
:10265000FEF7D2FB801BB842F2D90320BDE8F08719
:102660002168880708D4B9F1000F1ED0D8F80000FF
:1026700020F0F00017E000BF480705D5D8F80000AB
:1026800040F4E060C8F80000080706D5D8F800005C
:10269000072262F30D20C8F80000D8F80000A268F5
:1026A00020F0F0001043C8F80000DAF8000000F055
:1026B0000F00A8421BD9DAF8000020F00F002843D1
:1026C000CAF80000FEF798FB064641F2883700BFC3
:1026D000DAF8000000F00F00A84207D0FEF78CFBEC
:1026E000801BB842F4D90320BDE8F0872168480771
:1026F00007D5D8F80000E26820F4E0601043C8F87D
:102700000000080708D5D8F80000216920F46050BF
:1027100040EAC100C8F80000D8F8000042F20041C9
:10272000C0F2F40100F00C00042808462DD0D8F8BF
:10273000000000F00C00082841F20020C0F27A00EE
:1027400023D0D8F8002002F00C020C2A1CD1D8F8B3
:102750000420D8F8043002F00302C3F30313D8F8BE
:1027600004700133032A08BF0146B1FBF3F0D8F827
:102770000410C7F30627C1F341610222784302EB3C
:102780004101B0FBF1F000E00020D8F8001047F65E
:102790000802C1F30311C0F60002515C40F240028E
:1027A00001F01F0120FA01F140F21800C2F200000E
:1027B0000068C2F200021160BDE8F047FEF740BCBD
:1027C00040F24000C2F200000068704740F2400052
:1027D00041F20801C2F20000C4F202010068096877
:1027E00047F61802C1F30221C0F60002515C01F065
:1027F0001F01C8407047000040F2400041F208014C
:10280000C2F20000C4F202010068096847F618022B
:10281000C1F3C221C0F60002515C01F01F01C840A3
:102820007047000080B541F20C01C4F2020151F87A
:10283000040C42F20042C0F2F40200F00C00042842
:10284000104608BF80BD51F8040C00F00C000828A9
:1028500041F20020C0F27A0022D051F8043C03F08B
:102860000C030C2B1CBF002080BDD1F800C00B68EE
:102870000CF0030CC3F3031E0B680EF1010EBCF148
:10288000030F08BF02460968B2FBFEF0C3F306233C
:10289000C1F341610222584302EB4101B0FBF1F068
:1028A00080BD00002DE9F04182B0002800F00681D3
:1028B0000446007841F20006C007C4F2020655D172
:1028C0002078800774D42078000700F19780207862
:1028D000400700F1B7802078800600F10781E569A4
:1028E000002D00F03082B06800F00C000C2840F0A1
:1028F0005981012D00F0E280F068216A00F00302A6
:102900008A4240F0DB80626A6FF00F0300F0F00152
:1029100003EB0212914240F0D180A16A00F4FE4222
:10292000B2EB012F40F0CA80E16A00F07842B2EBCE
:10293000C16F40F0C380226B0023CFF6E07303EA3F
:10294000025200F4C001A2F50012914240F0B6809C
:10295000616B4FF07E4202EA016100F0C06001F15C
:102960007E41884240F0AA80EDE100BFB06800F0EF
:102970000C01F06808295BD0032281F00C0122EAE7
:1029800000000844B0FA80F0400951D16068B0F509
:10299000803F07D0B0F5A02F40F0DA80306840F4D7
:1029A00080203060306840F480303060DBE000BF71
:1029B000B068F16800F00C00042869D001F0030150
:1029C00080F00C0081F002010844B0FA80F0400968
:1029D0005ED1E1683068002900F0D28040F4807058
:1029E0003060FEF709FA05463068400500F1FC80CA
:1029F000FEF702FA401B0228F6D92EE16169D6F8EB
:102A00009400002900F0908040F00100C6F8940086
:102A1000FEF7F2F9054600BFD6F8940080073FF5AF
:102A200056AFFEF7E9F9401B0228F5D915E100BFC2
:102A3000306880037FF544AF606800287FF440AFC2
:102A40003CE000BFB06D10F0805808D1B06D40F090
:102A50008050B065B06D00F080500190019847F251
:102A60000007C4F200073868C0052BD4386840F46A
:102A700080703860FEF7C0F9054600BF3868C005B1
:102A800020D4FEF7B9F9401B0228F7D9E5E000BFD2
:102A90003068400501D5E06880B17068216920F098
:102AA000FE4040EA0160706040F21800C2F200008F
:102AB0000068FEF7C5FA00283FF405AF012002B018
:102AC000BDE8F081A068012808D0052840F0AA8060
:102AD000D6F8900040F00400C6F89000D6F89000B8
:102AE00040F00100C6F89000A9E000BFA169D6F847
:102AF0009800002900F0808040F00100C6F898009E
:102B0000FEF77AF9054600BFD6F8980080073FF532
:102B1000E6AEFEF771F9401B02284FF00300F3D92F
:102B200002B0BDE8F08100BF20F00100C6F89400BB
:102B3000FEF762F9054600BFD6F8940080077FF5DE
:102B4000C6AEFEF759F9401B0228F5D985E000BF53
:102B50003168002821F480313160316821F480210E
:102B6000316000F07F80FEF747F90546306880034A
:102B70003FF5A6AEFEF740F9401B6428F6D96CE09D
:102B800020F480703060FEF737F905463068400564
:102B90007FF599AEFEF730F9401B02284FF0030095
:102BA000F4D9BDE7306820F080703060FEF724F97A
:102BB000022D05460CD100BF3068800140F17E80B7
:102BC000FEF71AF9401B02284FF00300F4D9A7E7DB
:102BD0003068800140F1B080FEF70EF9401B0228FA
:102BE0004FF00300F4D99BE77068216920F0FE40A4
:102BF00040EA0160706066E620F00100C6F89800C7
:102C0000FEF7FAF8054600BFD6F8980080077FF572
:102C100066AEFEF7F1F8401B02284FF00300F3D92F
:102C20007EE700BFD6F8901021F00101C6F89010A1
:102C3000D6F8901021F00401C6F8901010B3FEF7FA
:102C4000DBF8054641F28837D6F8900080072BD490
:102C5000FEF7D2F8401BB842F6D9032002B0BDE817
:102C6000F08100BFFEF7C8F8054600BF306880035A
:102C70007FF526AEFEF7C0F8401B64284FF0030036
:102C8000F4D94DE7FEF7B8F8054641F2883700BFA2
:102C9000D6F89000800707D5FEF7AEF8401BB84283
:102CA0004FF00300F4D93BE7B8F1000F7FF413AE07
:102CB000B06D20F08050B0650DE600BFF06848F2BE
:102CC0000C01C0F29F1104F1200700EA010C8ECF25
:102CD0006FF00F00D4E90C5400EB02100022CFF685
:102CE000E07241EA0C0102EA05520843A2F5001223
:102CF0004FF07E4540EA032005EA0465104305F1E4
:102D00007E4540EAC7602843F060306840F080703C
:102D10003060F06840F08070F060FEF76DF80446B7
:102D2000306880010FD4FEF767F8001B02284FF0CF
:102D30000300F5D9F4E600BFF0684FF6FC71CFF65A
:102D4000EE610840F060002002B0BDE8F0810000B4
:102D5000002804BF01207047B0B50446406A28B17E
:102D60000020206104F1140006E000BF6068B0F5A7
:102D7000827F03D004F11C00002101600025A562C0
:102D800094F85D0020B9204684F85C5000F052F8B9
:102D9000022084F85D002068D4F80CE00268BEF5DB
:102DA000E06F22F0400202604EF4006298BF0125FD
:102DB000B2F5706F1CBF0023A3624FEA053CD4E953
:102DC0000135D4E9042103F4827305F404452B444E
:102DD00002F002021A44A36901F00101E5691144FD
:102DE00003F40072114405F03802256A114405F01D
:102DF0008002A56A114405F40052114301600421C8
:102E0000626A0EF4706501EA1341636B45EA0C05D2
:102E100002F01002294303F00803114319434160F3
:102E2000C16921F40061C16100200121206684F89C
:102E30005D10B0BD80B586B0006843F60041C4F2B5
:102E4000000188424FF000010591CDE90311CDE961
:102E500001111FD043F60001C4F2000188423FD1A6
:102E600041F24C00C4F20200C16841F48041C160EB
:102E7000C16801F4804100910099016841F00201AC
:102E8000016000684FF4604100F00200009000987B
:102E9000052017E041F24C00C4F20200C16841F481
:102EA0000041C160C16801F40041009100990168CE
:102EB00041F0020101600068382100F0020000903A
:102EC000009806200191022102910021059040F214
:102ED0000040CDE90311C4F6000001A9FDF7A8FEEA
:102EE00006B080BD2DE9F04381B0044690F85C0047
:102EF000012803D1022001B0BDE8F08301201E4665
:102F000015460F4684F85C00FDF776FF94F85D10D7
:102F1000814601290CD1002F4FF0010018BF002D70
:102F200014D1002184F85C1001B0BDE8F08300BF2B
:102F30006068B0F5827F40F0B180A06800284FF053
:102F4000020008BF0429ECD1E5E700BF002EE8D05D
:102F500094F85D0004281CBF052084F85D00002063
:102F600020662564A4F84660A4F84460A763E68759
:102F7000C4E913002068A687E1684268B1F5E06FF4
:102F800022F48052134698BF03F58053012E88BF68
:102F9000134643600268520603D4026842F04002BE
:102FA00002606268731EB2FA82F2B3FA83F3DDF84C
:102FB000208052095B09B1F5E06F43EA020175D93F
:102FC00031B137F8021BC160A763E08F0138E08799
:102FD000012518F1010036D102E000BFFDF70CFF1A
:102FE000E08F20B9B4F84600002800F0CD802068BA
:102FF000816889070CD5E18F51B1012D08D1A16BF2
:10300000002531F8022BC260A163E18F0139E1870D
:103010008168C907E2D0B4F846100029DED0C06844
:10302000216C012521F8020B2164B4F84600013817
:10303000A4F84600D2E700BFFDF7DEFEA0EB0900D2
:10304000404580F09F80E08F20B9B4F8460000280A
:1030500000F09A802068816889070CD5E18F51B112
:10306000012D08D1A16B002531F8022BC260A163AC
:10307000E18F0139E1878168C907DDD0B4F84610D6
:103080000029D9D0C068216C012521F8020B2164E8
:10309000B4F846000138A4F84600CDE7022000212C
:1030A00084F85C1001B0BDE8F08300BF89B1E18F06
:1030B00002294FF6FE7103D337F8022BC26004E0F9
:1030C0003A7801310273A06B471CA763E08F084474
:1030D000E087012608F10105E08F18B9B4F8460031
:1030E000002851D020688168890719D5E18FB9B1CE
:1030F000012E15D1E28FA16B022A07D331F8022BE2
:10310000C260A163E18F023908E000BF0978017352
:10311000A16B20680131A163E18F01390026E187AD
:103120008168C90726D0B4F8461019B3B4F8461020
:10313000022913D3C168226C22F8021B2264B4F85E
:1031400046100239A4F84610B4F84610012910D8E8
:10315000416841F4805141600BE000BF007B216C6D
:103160000870206C01302064B4F846000138A4F8DF
:1031700046000126FDF740FE002DADD0A0EB090072
:103180004045A9D3032029E020464FF4C0514246D0
:103190004B4600F073FD68B9204641464A4600F0B0
:1031A00031FE38B920464FF4C06142464B4600F02C
:1031B00065FD78B1206E40F020002066202020665A
:1031C0000120216E51B10120002184F85C1001B072
:1031D000BDE8F0830020216E0029F4D1012184F89C
:1031E0005D10002184F85C1001B0BDE8F0830000A0
:1031F000411E0020B0EB116F1CBF012070474EF242
:103200001002CEF2000251604EF62351CEF20001C0
:10321000F0230B7007219060116070477047000029
:1032200070470000704700007047000070470000C2
:103230007047000070B590F83C20012A4FF0020260
:1032400047D080F83D20026843F2004C54689368F0
:10325000C4F2010C42F6004E6245C4F2010E01D0E8
:10326000724503D14D6824F470042C434FF68F75DA
:10327000CFF6FF550E682C4042F6FF35C4F201052B
:103280003443AA4254600FDCB2F1804F16D040F2B2
:103290000046C4F20006B24210D040F60006C4F266
:1032A0000006B2420AD00EE0724507D044F2000692
:1032B000C4F20106B24201D0624504D1896823F00C
:1032C0008003194391600121002280F83D1080F8AD
:1032D0003C20104670BD000070470000002804BF6D
:1032E0000120704710B5044690F83D0028B9002031
:1032F00084F83C00204600F023F8022084F83D00CA
:103300002068211D00F088FF012084F8480084F81F
:103310003E0084F83F0084F8400084F8410084F8BF
:10332000420084F8430084F8440084F8450084F89F
:10333000460084F8470084F83D00002010BD0000DE
:1033400080B582B0006841F20001C4F200018842F9
:103350001CBF02B080BD41F25800C4F202000168F7
:10336000002241F0100101600068022100F010000D
:10337000019001983620FDF7B7FE362002B0BDE877
:103380008040FDF79DBE000090F83D1001291CBF54
:1033900001207047022180F83D10016842F6FF329B
:1033A000C868C4F20102914240F00100C8600FDC1D
:1033B000B1F1804F1ED040F20040C4F200008142C3
:1033C00018D040F60000C4F20000814212D01EE086
:1033D00042F60040C4F2010081420BD044F20000EA
:1033E000C4F20100814205D043F20040C4F2010062
:1033F00081420CD188680722C0F201020240062AED
:103400004FF0000008D0B2F5803F08BF7047086851
:1034100040F0010008600020704700007047000085
:10342000F0B581B004460068C5680669B10717D5D4
:1034300015F0020114D06FF0020101610121217722
:103440008069800704D02046FFF7E8FF06E000BF50
:10345000204600F0CBF8204600F0CAF80020207784
:10346000700719D515F0040016D020686FF004011C
:10347000016102212177806910F4407F04D0204649
:10348000FFF7CCFF06E000BF204600F0AFF8204673
:1034900000F0AEF800202077300717D515F00800AF
:1034A00014D020686FF00801016104212177C06900
:1034B000800703D02046FFF7B1FF05E0204600F06B
:1034C00095F8204600F094F800202077F00619D5F2
:1034D00015F0100016D020686FF01001016108216E
:1034E0002177C06910F4407F04D02046FFF796FF93
:1034F00006E000BF204600F079F8204600F078F89A
:1035000000202077F00718BF15F0010006D02068D2
:103510006FF001010161204600F06CF816F4025FC3
:1035200005F0800718BF002F02D1F00509D410E084
:1035300020686FF4025101612046FFF771FEF0052B
:1035400007D537B120686FF4807101612046FFF71D
:1035500065FE700609D515F0400006D020686FF0B2
:1035600040010161204600F0CDF8B00609D515F004
:10357000200006D020686FF0200101612046FFF78F
:1035800051FEF00209D515F4801006D020686FF4C2
:10359000801101612046FFF749FEB00209D515F4FC
:1035A000001006D020686FF4001101612046FFF77B
:1035B0003BFE700209D515F4800006D020686FF438
:1035C000800101612046FFF733FE30020CD515F46F
:1035D000000009D021686FF4000220460A6101B0A2
:1035E000BDE8F040FFF778BE01B0F0BD70470000C5
:1035F0007047000041F28061C2F20001884218BFAA
:103600007047F0B581B040F20024C2F20004207887
:10361000617801302070481CA1686070481CA0606F
:103620004FF090404FF48071FDF7D8FB254635F8F8
:10363000020F43F6FF7140F200470843C4F600074B
:10364000288038464FF480510022FDF7CFFB41F22D
:10365000B8500A26AA1CC2F200002946012300968F
:10366000FFF740FC68884FF480516FF39F3068800B
:1036700038460122FDF7BAFB40F26125C2F200058F
:10368000287828B100F028FC2878012807D012E01B
:10369000A088E08000F020FC287801280BD103F0FE
:1036A00009FD6078042806D12878012803D100F0AC
:1036B0008DFA00206070A0684EF6602188420DD11E
:1036C00040F28020C2F2000090ED000AB0EE001A35
:1036D00030EE010A80ED000A0020A06041F2CC60CB
:1036E000C2F2000090E80E00076944F8201FC4E908
:1036F000013220462821E76001B0BDE8F040FCF728
:1037000003BF00007047000090F88410012904BF37
:10371000022070472421C0F88810026811681368DD
:1037200023F00103136021F0005300214166136070
:103730002022C0F8882080F88410084670470000D6
:10374000B0B590F88420012A04BF0220B0BD242225
:10375000C0F888200268D0F864E0D2F800C013688E
:10376000BEF1000F23F001031360936823F0606340
:1037700041EA0301916019D09368916847F6480EB9
:10378000490FC0F6000E47F650051EF80140C0F67E
:103790000005695CC3F34263E400B4FBF1F11EF879
:1037A0000340EB5CE500B5FBF3F301E001210123ED
:1037B000A0F86A102021A0F86830C2F800C0C0F854
:1037C0008810002180F884100846B0BDB0B590F88C
:1037D0008420012A04BF0220B0BD2422C0F8882022
:1037E0000268D0F864E0D2F800C01368BEF1000FA0
:1037F00023F001031360936823F0604341EA03015F
:10380000916019D09368916847F6480E490FC0F649
:10381000000E47F650051EF80140C0F60005695C31
:10382000C3F34263E400B4FBF1F11EF80340EB5C28
:10383000E500B5FBF3F301E001210123A0F86A10D4
:103840002021A0F86830C2F800C0C0F8881000211C
:1038500080F884100846B0BD10B5D8B10446D0F841
:10386000880028B9002084F88400204600F026F85B
:103870002420C4F888002068A16A026822F00102AE
:10388000026011B1204600F055FD204600F07EFE9A
:10389000012801D1012010BD2168486820F4904022
:1038A0004860886820F02A008860086840F00102BB
:1038B00020460A60BDE8104000F0B0BD10B596B0DB
:1038C0000446684604304021FCF78EFD206848F22B
:1038D0000001C4F20001884202D016B010BD00BF42
:1038E000202000906846FEF7ABFC002818BFFCF7CC
:1038F00029FE41F24C00C4F20200016941F00101CD
:103900000161016901F0010111911199016841F012
:10391000010101600068022100F00100119011987E
:103920000C20129100211190CDE91311159011A9CD
:103930004FF09040FDF77CF916B010BDFEE7000097
:1039400080B540F6C06040F22001C2F20000C2F231
:103950000001002201F0A6FC002818BFFCF7F2FDD0
:1039600040F6C06040F24401C2F20000C2F2000121
:1039700001F0C0FE002818BFFCF7E4FD40F6C0606F
:1039800040F26811C2F20000C2F2000101F05CFADC
:10399000002818BFFCF7D6FD40F6C060C2F2000058
:1039A00001F0C8FE002808BF80BDBDE88040FCF7DC
:1039B000C9BD00002DE9F04381B02DED108B82B020
:1039C00040F24824C2F20004894621886288411AE4
:1039D00094ED03BA9FED6E1A8E1894ED01AA94ED42
:1039E000020A6FF39F3694ED04CA2BEE011A208071
:1039F000668004F10C0831EE009A31EE0A8A03F079
:103A0000F9FCB0EE490A07460D4603F0C5FB10EE7F
:103A1000100A03F045FE02460B463846294603F0DD
:103A200051FD03F00DFC0EEE100A304603F0E2FCEF
:103A3000B0EE480A05460E4603F0AEFB10EE100A43
:103A400003F02EFE02460B462846314603F03AFDAF
:103A500003F0F6FB9FED4FDA0FEE100A2FEE0D0A82
:103A600003F0D2FBDFED4C8A20EE280A3FEE40FA4D
:103A70009FED4A0A3FEE4C1A21EE000A9FED481ACC
:103A800030EE0C0A84ED040A2EEE010A30EE090A2B
:103A900084ED020A2FEE010A30EE088A28EE0D0AA4
:103AA00003F0B2FB20EE280A38EE400A3DA0B5EE46
:103AB000400AF1EE10FAB8BF043090ED001A01A9E7
:103AC00030EE010A9FED391A84ED010A2FEE010A4A
:103AD00030EE0B0A4046012284ED030A02F0C0FFDB
:103AE0009DED010AB3EE0E1AB4EE410AF1EE10FAA2
:103AF00004DA9FED2F9A0020E06003E094ED030AC2
:103B000020EE0D9A94ED010A94ED021A30EE4A0A65
:103B100020EE0D8A94ED05BAB0EE480A21EE0DCAEA
:103B200003F072FB6088B6EE002A01EE100AB8EED0
:103B3000411A31EE021A9FED1F2A9FED1FAA21EEB6
:103B400002DA8DEE0A1A38EE400A3BEE008A84ED66
:103B5000058AB0EE410A03F057FB9FED181A20EEDC
:103B60000A0A29EE0A2A30EE4D0A22EE011A89EDE0
:103B700000CA89ED019A89ED020A89ED031A89EDDF
:103B8000048A02B0BDEC108B01B0BDE8F08300BF29
:103B900082A87B380000803800008046CDCCCC3D28
:103BA0008FC2F53D0000008000008046000070429A
:103BB0000000000063149D3CDB0FC9400000484238
:103BC000FEE70000FEE700007047000040F26020C2
:103BD00041F2CC61C2F20000C2F2000191ED040A90
:103BE00090ED081A40F20001C2F2000190ED0A2A9D
:103BF00031EE401A91ED030A91ED023A22EE000AED
:103C000021EE033A31EE022A80ED091A9FED191ACE
:103C100033EE000AB4EE412AF1EE10FA80ED0A2AE2
:103C200080ED0B0A12DD80ED0A1AB7EE001AB4EE31
:103C3000410AF1EE10FA19DCBFEE001AB4EE410AA7
:103C4000F1EE10FAB8BF80ED0B1A70479FED0A1A1B
:103C5000B4EE412AF1EE10FAB8BF80ED0A1AB7EEC1
:103C6000001AB4EE410AF1EE10FAE5DD80ED0B1A10
:103C7000704700BF00803B4500803BC52DE9F04701
:103C800082B000261F4690460D4681468DF803609F
:103C9000FDF7B2F8381A00EB0807FDF7ADF840F26F
:103CA0004001C2F20001096823225143090DD9F8ED
:103CB000004079430191A168294271D0824618F1F0
:103CC000010037D0B5F5C06F1CD100BF207B8DF847
:103CD00003009DF80300FDF78FF8A0EB0A00B8423F
:103CE00062D2019801990028A1F101010191D9F84E
:103CF0000010896808BF074611F4C06FE6D100269E
:103D00004EE000BFFDF778F8A0EB0A00B8424BD2B6
:103D1000019801990028A1F101010191D9F8001041
:103D2000896808BF07462942ECD10026304602B018
:103D3000BDE8F0870026B5F5C06F25D1207B8DF852
:103D400003009DF80300A06810F4C06FEDD0207B45
:103D50008DF803009DF80300A06810F4C06FE4D054
:103D6000207B8DF803009DF80300A06810F4C06F5D
:103D7000DBD0207B8DF803009DF80300A06810F4D1
:103D8000C06FDBD10CE000BFA0682842CDD0A06896
:103D90002842CAD0A0682842C7D0A0682842F3D1E0
:103DA000304602B0BDE8F087D9E900014268B1F5BC
:103DB000827F22F0E00242600BD1D9F80810B1F501
:103DC000004F02D0B1F5806F03D1016821F04001AE
:103DD0000160D9F82810B1F5005F07D1016821F41E
:103DE00000510160016841F400510160012089F82F
:103DF0005D00002089F85C000326304602B0BDE873
:103E0000F0870000F0B581B015460E460446FCF779
:103E1000F3FF281A8719FCF7EFFF40F24001C2F2C6
:103E200000010968C1F3CB317943009121688A68A8
:103E3000120622D50546701C15D000BFFCF7DCFF2A
:103E4000401BB8421CD2009800990028A1F1010142
:103E500000912168896808BF07460806EED40CE087
:103E60008868000609D58868000606D588680006B7
:103E700044BF88685FEA0060F2D4002001B0F0BD62
:103E8000D4E900014268B1F5827F22F0E00242608D
:103E90000AD1A168B1F5004F02D0B1F5806F03D10E
:103EA000016821F040010160A16AB1F5005F07D10E
:103EB000016821F400510160016841F40051016082
:103EC000012084F85D00002084F85C00032001B02C
:103ED000F0BD000070470000B0B540F26024C2F2AF
:103EE00000046078012816D140F2042040F2062137
:103EF000C2F20000C2F2000100880988401A01B233
:103F0000002948BF00F5804041F2CC6180B2C2F286
:103F10000001FFF74FFD41F2CC65C2F2000595EDBF
:103F2000020AB1EE400A02F0EDFD95ED021A84EDB1
:103F3000030AB1EE410A02F02FFE40F20000C2F285
:103F4000000090ED013A94ED024A94ED035A90ED91
:103F5000001A84ED040A20EE042A23EE056A20EEFE
:103F6000033AB2EE0C0A81EE000A36EE422A24EE43
:103F7000054A34EE033A0120B5EE402A84ED052AC5
:103F800084ED063AF1EE10FAC8BF0220B5EE403AD1
:103F9000F1EE10FAC8BF023020700138032884ED1A
:103FA000070A25D8DFE800F00226486A22EE402AF8
:103FB00023EE400A31EE421A31EE401AB6EE003AD4
:103FC00021EE031ABDEEC11AB8EEC13A11EE100A85
:103FD00032EE031A32EE000ABDEEC11A30EE030AC9
:103FE00011EE101ABDEEC00A10EE103A0A4666E055
:103FF00065E000BF22EE002A23EE400A31EE421AAD
:1040000031EE401AB6EE003A21EE031ABDEEC11AA7
:10401000B8EEC13A11EE101A32EE031A32EE000A6F
:10402000BDEEC11A30EE030A11EE100ABDEEC00A51
:1040300010EE103A024642E022EE402A23EE000A39
:1040400031EE421A31EE401AB6EE003A21EE031A72
:10405000BDEEC11AB8EEC13A11EE100A32EE031AE3
:1040600032EE000ABDEEC11A30EE030A11EE101A4C
:10407000BDEEC00A10EE102A0B4620E022EE002A08
:1040800023EE000A31EE421A31EE401AB6EE003A43
:1040900021EE031ABDEEC11AB8EEC13A11EE101AA4
:1040A00032EE031A32EE000ABDEEC11A30EE030AF8
:1040B00011EE100ABDEEC00A10EE102A0346401A97
:1040C000D21A608000B211B2A280BDE8B04000F008
:1040D00001B80000F0B581B0054600280C464FF04D
:1040E00090404FF0400109D40122FCF77FFE4FF0D1
:1040F000904080210022FCF779FE09E00022FCF7C5
:1041000075FE4FF0904080210122FCF76FFE6D425A
:1041100040F20020C2F2000000F10C0640F200471D
:104120003046002100222B46C4F60007FCF786FB30
:1041300007F580601021002C08D40122FCF756FE00
:10414000384601210022FCF751FE08E00022FCF76E
:104150004DFE384601210122FCF748FE64423046FC
:1041600010210022234601B0BDE8F040FCF766BBF9
:10417000FCF748BFB0B594B000240020CDE90A4454
:10418000CDE90844FDF7BEFF212006904FF4A020A2
:10419000079001200C9002207E21CDE9101006210D
:1041A0000D900325CDE9121006A8CDE90E55FEF7B6
:1041B00079FB28B1EFF3108072B600BFFEE700BFB5
:1041C0000F20CDE9010501A80421CDE903440594A0
:1041D000FEF76CF920B1EFF3108072B6FEE700BF76
:1041E00014B0B0BD4EF68850CEF20000016841F424
:1041F000700101607047000080B541F28060C2F23A
:104200000000FFF70DF940F20C20C2F20000BDE8FB
:104210008040FCF791BA000080B540F2FF7C026854
:10422000C4F2000C604521DD40F60003C4F2000337
:10423000984224D043F20043C4F2010398421ED0B6
:1042400042F60043C4F20103984218D043F2FF3310
:10425000C4F2010398421CDC604529DCB0F1804FB8
:104260003CD040F20043C4F2000335E0B0F1804F8F
:1042700005D040F20043C4F200039842E6D14B68F7
:1042800022F070021A4343F2FF33C4F20103984252
:10429000E2DD44F2FF33C4F20103984212DC43F240
:1042A0000043C4F20103984218D044F2000311E025
:1042B00040F60003C4F2000398420FD042F60043D8
:1042C00008E000BF44F60003C4F20103984205D0A1
:1042D00044F20043C4F20103984203D1CB6822F4B4
:1042E00040721A434B6922F0800E8A6843EA0E033B
:1042F000D1F800C00360C262A0F18042A2F59632FC
:104300004FEAB222072AC0F828C007D8012303FACF
:1043100002F212F0E50F1CBF09690163012141613E
:104320000169C90708BF80BD016921F00101016170
:1043300080BD000080B5816A0A070DD4CA0716D176
:104340008A071FD44A0728D4CA0631D48A063AD429
:104350004A0658D542E000BF0268D0F838C053681A
:1043600023F4004343EA0C035360CA07E8D0026811
:10437000D0F82CC0536823F4003343EA0C03536095
:104380008A07DFD50268D0F830C0536823F4803341
:1043900043EA0C0353604A07D6D50268D0F834C00C
:1043A000536823F4802343EA0C035360CA06CDD537
:1043B0000268D0F83CC0936823F4805343EA0C03AE
:1043C00093608A06C4D50268D0F840C0936823F48D
:1043D000005343EA0C0393604A0614D50268D0F8F0
:1043E00044C05368BCF5801F23F4801343EA0C03D8
:1043F000536008D1D2F804C0D0F848E02CF4C003D0
:1044000043EA0E035360090658BF80BD0168C06CC3
:104410004A6822F400221043486080BDB0B582B0E3
:1044200004460020C4F89000FCF7E6FC216805462D
:104430000A68120737D56FF07E4C20464FF4001102
:1044400000222B46CDF800C000F0F2F950B300BFB7
:10445000206850E8000F216820F0800041E8000249
:10446000DAB1206850E8000F216820F0800041E8B0
:10447000000292B1206850E8000F216820F080000F
:1044800041E800024AB1206850E8000F216820F09E
:10449000800041E80002002ADAD12020C4F8880018
:1044A00060E000BF21680868400761D56FF07E4C6E
:1044B00020464FF4800100222B46CDF800C000F0CA
:1044C000B7F9002854D000BF206850E8000F2168D9
:1044D00020F4907041E80002E2B1206850E8000F3B
:1044E000216820F4907041E800029AB1206850E8F9
:1044F000000F216820F4907041E8000252B120685A
:1045000050E8000F216820F4907041E80002002A72
:10451000DAD100BF206850E8020F216820F00100C6
:1045200041E80202DAB1206850E8020F216820F069
:10453000010041E8020292B1206850E8020F2168B0
:1045400020F0010041E802024AB1206850E8020F61
:10455000216820F0010041E80202002ADAD120207F
:10456000C4F88C000320002184F8841002B0B0BD90
:104570002020C4F88800C4F88C000020E066206782
:10458000002184F8841002B0B0BD000070B505466B
:1045900005F108041ECC0068194341EA0403EE69E2
:1045A000046846F6F311CCF6FF71214019433143FC
:1045B0000160416848F2000C21F440511143416010
:1045C000AA69C4F2000C60451CBF296A0A438168CD
:1045D0004FF2FF43C1F2FF13194011438160C16ADA
:1045E000D5F824E021F00F0141EA0E01C16244F642
:1045F000FF31C4F2000188424FF0100314DD44F68D
:104600000041C4F20001884222D0604528D043F620
:104610000001C4F20101884238D141F28801C4F29C
:1046200002010B687EA22DE044F20041C4F20001B9
:1046300088421DD044F60001C4F20001884225D111
:1046400041F28801C4F2020109680B0916E000BFBB
:1046500041F28801C4F2020109688B090EE000BF33
:1046600041F28801C4F2020109688B0A06E000BF2A
:1046700041F28801C4F2020109688B0847F638024A
:10468000C0F6000203F0030152F82130604542F207
:104690000040C0F2F40015D0B6F5004F24D1082B2D
:1046A0004FF0010100F2B380DFE803F0065E6CB169
:1046B00064B1B1B16A0000BFFEF788F8002856D196
:1046C0005CE000BF082B4FF0010100F2A080DFE8A2
:1046D00003F0059E259E1D9E9E9E2300FEF776F804
:1046E000C0B1D5F824E019E0082B4FF0010100F229
:1046F0008E80DFE803F00565738C6B8C8C8C710009
:10470000FEF764F800285ED164E000BFFEF78AF887
:104710000028E6D100217AE04FF4004047F620015E
:10472000C0F6000131F81E106A68B0FBF1F002EB30
:10473000420188424FF0010169D31303984266D8C1
:10474000010E000210EB520041F100010023FBF7C3
:10475000D3FD4FF60052A0F54071C0F20F02914216
:104760004FD3012153E000BFFEF746F830B1D5F832
:1047700024E007E0FEF756F80028F8D1002146E0D3
:104780004FF4004047F62001C0F6000131F81E103A
:104790006A68B0FBF1F0510801EB4000B0FBF2F0A9
:1047A0004FF6EF72A0F11001914207D84FF6F07169
:1047B0000140C0F34200084423E000BF012126E08D
:1047C000FEF71AF830B1D5F824E007E0FEF72AF832
:1047D0000028F8D100211AE04FF4004047F62001EC
:1047E000C0F6000131F81E104FF6EF72B0FBF1F089
:1047F000696800EB5100B0FBF1F0A0F110019142AB
:1048000004D82968C860002101E000BF01214FF0F1
:104810000110A866002208466A67AA6770BD00BF3B
:104820000100000004000000020000000800000079
:104830002DE9F041804600681546C2690E461140D8
:10484000891BB1FA81F14909A94223D1069C2CB3F5
:10485000611C29D1C1693140891BB1FA81F1490933
:10486000A94217D1C1693140891BB1FA81F14909C7
:10487000A9420FD1C1693140891BB1FA81F14909BF
:10488000A94207D1C1693140891BB1FA81F14909B7
:10489000A942DFD00020BDE8F08100BFFCF7ACFAF0
:1048A0000320BDE8F08100BF1F4607E0C06930402B
:1048B000801BB0FA80F04009A842EBD1FCF79CFACB
:1048C000C01BA04200F2AE80D8F800000168490782
:1048D000ECD5402EEAD0802EE8D0C169090700F15E
:1048E000A580C1690905E1D54FF400610162D8F8DE
:1048F000000050E8000FD8F8001020F4907041E854
:1049000000020AB3D8F8000050E8000FD8F80010F1
:1049100020F4907041E80002B2B1D8F8000050E8ED
:10492000000FD8F8001020F4907041E800025AB14E
:10493000D8F8000050E8000FD8F8001020F490706C
:1049400041E80002002AD2D14FF6FE70CEF6FF7089
:10495000D8F8001051E8021FD8F80020014042E8C2
:104960000213F3B1D8F8001051E8021FD8F8002064
:10497000014042E80213A3B1D8F8001051E8021F29
:10498000D8F80020014042E8021353B1D8F80010D3
:1049900051E8021FD8F80020014042E80213002B22
:1049A000D6D1D8F86C0001282CD1D8F8000050E8F6
:1049B000000FD8F8001020F0100041E800020AB300
:1049C000D8F8000050E8000FD8F8001020F01000D0
:1049D00041E80002B2B1D8F8000050E8000FD8F862
:1049E000001020F0100041E800025AB1D8F8000091
:1049F00050E8000FD8F8001020F0100041E8000245
:104A0000002AD2D120200021C8F88C00C8F86C10F0
:104A1000C8F87410C8F89000032088F88410BDE826
:104A2000F08100BF0320BDE8F08100BF08210162D2
:104A3000D8F8000050E8000FD8F8001020F490706B
:104A400041E800020AB3D8F8000050E8000FD8F897
:104A5000001020F4907041E80002B2B1D8F80000D4
:104A600050E8000FD8F8001020F4907041E80002E0
:104A70005AB1D8F8000050E8000FD8F8001020F420
:104A8000907041E80002002AD2D14FF6FE70CEF6B7
:104A9000FF70D8F8001051E8021FD8F8002001403C
:104AA00042E80213F3B1D8F8001051E8021FD8F819
:104AB0000020014042E80213A3B1D8F8001051E8E9
:104AC000021FD8F80020014042E8021353B1D8F881
:104AD000001051E8021FD8F80020014042E80213FC
:104AE000002BD6D1D8F86C0001282CD1D8F80000C2
:104AF00050E8000FD8F8001020F0100041E8000244
:104B00000AB3D8F8000050E8000FD8F8001020F0E1
:104B1000100041E80002B2B1D8F8000050E8000FE0
:104B2000D8F8001020F0100041E800025AB1D8F87F
:104B3000000050E8000FD8F8001020F0100041E805
:104B40000002002AD2D12020C8F88C0000200821C1
:104B5000C8F86C00C8F87400C8F8901088F8840091
:104B60000120BDE8F081000010B540F2A024C2F29F
:104B700000040A4602A0214600F026FB204610BD94
:104B800043444320436F6E666967000010B5D0F858
:104B9000BC323BB38E4601EB810100EB810151F841
:104BA000184F64B1D0F8C4C20EEB8E020CEBC202F7
:104BB000D2F820C0B4FBFCF202FB1C42A2B10024DC
:104BC000C3F81442D0F8C002D0F810C0BCF1000FF6
:104BD00006D0D3F8080203F504717246E0470024BA
:104BE000204610BD032010BD00240C607146002239
:104BF000002300F061FD204610BD0000B0B5D0F8E4
:104C0000BC527DB1044600F013FCD4F8C02205F577
:104C10000371D368D5F80422C5F80C0210469847F2
:104C20000020B0BD0320B0BDB0B58121044600F026
:104C300061FB002520460121258700F05BFB204613
:104C40008221A4F8785100F055FBD4F8BC02E56449
:104C500048B1D4F8C00240688047D4F8BC0201F0E3
:104C600007F8C4F8BC520020B0BD000040F20410A8
:104C70001222C2F200000A807047000010B5D0F87E
:104C8000BC428CB1D0F8C01281B194F80002FF2868
:104C90000CD08B6894F8012221469847FF2084F8B5
:104CA0000002002010BD00BF032010BD002010BD79
:104CB000014640F218100A22C2F200000A80704732
:104CC000014640F27C004322C2F200000A80704795
:104CD000014640F2C0004322C2F200000A80704741
:104CE000014640F224104322C2F200000A807047BD
:104CF000F0B581B004464FF4077000F0BBFFE8B395
:104D00000546C4F8BC02207C4026002808BF4FF4AA
:104D10000076204681210222334600F0E3FB012782
:104D20002046012102223346278700F0DBFB1020BA
:104D3000A4F84E002046822103220823A4F87871AB
:104D400000F0D0FBD4F8C002A4F84C700068804793
:104D50000020C5F81402C5F81802207CD5F80422FA
:104D6000002820464FF001010CBF4FF40073402390
:104D700000F0CCFB002001B0F0BD00BF0020C4F863
:104D8000BC02022001B0F0BD10B540F2A024C2F276
:104D900000040A4602A0214600F016FA204610BD83
:104DA00043444320496E7465726661636500000088
:104DB00040F27C100422C2F200000A80704700001A
:104DC00010B540F2A024C2F200040A4602A0214617
:104DD00000F0FAF9204610BD53544D6963726F65B7
:104DE0006C656374726F6E696373000010B540F296
:104DF000A024C2F200040A4602A0214600F0E4F911
:104E0000204610BD53544D3332205669727475617B
:104E10006C20436F6D506F727400000080B5D0F845
:104E2000BC1279B190F810C0D1F8042240230121BE
:104E3000BCF1000F08BF4FF4007300F067FB0020C7
:104E400080BD00BF032080BD00290EBF0320C0F835
:104E5000C012002070470000B0B547F29050C1F674
:104E6000FF70026883684FF01A0C9B18A1F800C00D
:104E700000F0A3804FF0370C1A0F0CEB1371406851
:104E8000B3F1204F38BF02F1300140F28012C2F27C
:104E90000002917019014FF0000E0CEB117582F8B1
:104EA00003E0C3F30364B1F1204F38BF04F13005D0
:104EB000190215710CEB117582F805E0C3F3035468
:104EC000B1F1204F38BF04F13005190395710CEB97
:104ED000117582F807E0C3F30344B1F1204F38BFE6
:104EE00004F13005190415720CEB117582F809E014
:104EF000C3F30334B1F1204F38BF04F13005190575
:104F000095720CEB117582F80BE0C3F30324B1F139
:104F1000204F38BF04F1300519061573C3F303148D
:104F20000CEB1175B1F1204F4FEA037103F00F0341
:104F300082F80DE038BF04F1300503F137049573B2
:104F400082F80FE0B1F1204F38BF03F13004010FB8
:104F50000CEB1073147482F811E0B0F1204F38BFDD
:104F600001F1300301010CEB1174937482F813E02A
:104F7000C0F30363B1F1204F38BF03F130040102E5
:104F80001475C0F303530CEB1174B1F1204F4FEAC9
:104F9000003182F815E038BF03F130040CEB1173D7
:104FA000947582F817E0C0F30340B1F1204F38BF89
:104FB00000F13003137682F819E040F28010C2F25B
:104FC0000000B0BDD0F8BC0200280EBF0320C0F81E
:104FD0000412002070470000D0F8BC0200280FBF68
:104FE0000320C0F80812C0F810220020704700000B
:104FF00070B582B0D0F8BC62044600208DF807007E
:10500000ADF80400C6B108780D4610F0600117D065
:1050100020295DD1EA88002A2AD040B2B0F1FF3FB2
:1050200032DD6878314686F80002204686F8012293
:1050300000F096F8002617E00326304602B070BD57
:1050400068780B2844D80026DFE800F0060E4242BC
:105050004242424242422C3A94F89C02032837D101
:1050600001A92046022225E0304602B070BD00BFF3
:10507000D4F8C00229468368687800220026984741
:10508000304602B070BD00BFD4F8C002314683681C
:1050900068789847EA8820463146072A28BF0722C1
:1050A00008E000BF94F89C02032811D10DF107011C
:1050B0002046012200F06EF80026304602B070BD96
:1050C00094F89C02032803D10026304602B070BD3C
:1050D0002046294600F038F80326304602B070BD5D
:1050E00080B5D0F8BC223AB1D2F8141200294FF0A2
:1050F000010103D0084680BD032080BDC2F8141210
:10510000D2F81032D2F808228121C36200F0D4FA1A
:105110000021084680BD000080B5D0F8B8220AB151
:1051200052689047002080BD80B513460A46002192
:1051300000F0ECF9002080BD80B513460A4600213E
:1051400000F0BAFA002080BD10B58021044600F0BE
:1051500085FA20460021BDE8104000F07FBA00002B
:1051600080B513460A460321C0F894120021C0E915
:10517000563300F0CBF9002080BD000080B505213A
:10518000C0F8941200210022002300F0BFF9002093
:1051900080BD000080B513460A460221C0F8941273
:1051A0000021C0E9063300F087FA002080BD00002E
:1051B00080B50421C0F8941200210022002300F0E1
:1051C0007BFA002080BD000010B5002868D003786D
:1051D000B3B100F1020E4FF0000C00BF1EF8013C0D
:1051E00093B19EF800309BB19EF80130A3B19EF8B8
:1051F00002300CF1040C002B0EF1040EEED10DE088
:105200004FF0000C0AE000BF4CF0010C06E000BFBC
:105210004CF0020C02E000BF4CF0030C5FFA8CFC77
:10522000022303EB4C03138003220B704A7090F8A7
:1052300000E0BEF1000F33D0841C02224FF0000CBE
:105240001AE000BF101DC0B20B5440F0010001F87D
:1052500000C06378002B08BF10BD901DC0B20B5476
:1052600040F0010001F800C094F802E00832BEF1FD
:10527000000F04F1040413D0D3B201F803E043F0AB
:10528000010301F803C014F8013C4BB1901CC0B2FB
:105290000B5440F0010001F800C02378002BD1D15D
:1052A00010BD0000002804BF032070470023C0F891
:1052B000B832C0F8C0320029C0F8CC3218BFC0F8EC
:1052C000B412012180F89C12027000F0B5B8000001
:1052D00080B5D0F8C402FBF7DFFF40F20032C10016
:1052E000C0F2013222FA01F1032888BF0321C8B2BB
:1052F00080BD000080B5D0F8C402FBF7A5FF40F2E6
:105300000032C100C0F2013222FA01F1032888BF45
:105310000321C8B280BD0000B0B5044671B194F855
:105320009C0203284AD1D4F8B8024269002A45D029
:1053300020469047002808BF0020B0BDD4F8940252
:10534000022834D1D4E9070188420DD9431A2046F6
:1053500011461A46E361FFF7EFFE204600210022C6
:10536000002300F0D3F822E010D1A16981420DD3CF
:10537000D4F89802814209D220460021002200255B
:10538000FFF7DAFEC4F89852E7E700BF94F89C02F2
:10539000032805D1D4F8B802C16809B1204688476E
:1053A0002046802100F05AF92046FFF7E7FE94F8E6
:1053B000A002012804BF002084F8A0020020B0BD94
:1053C00010B5044671B194F89C0203281DD1D4F89D
:1053D000B8028269CAB120469047002808BF002061
:1053E00010BD00BFD4F8940203280ED1D4E95703AE
:1053F00098420DD9C01AC4F85C01984238BF0346E0
:10540000204611461A46FFF78FFE002010BD00BF50
:1054100094F89C02032805D1D4F8B802016909B1B7
:10542000204688472046FFF7C3FE002010BD00003D
:10543000D0F8C402FBF762BF10B5044641F2DC208D
:1054400045F60041C2F20000C4F2000101604FF4D1
:10545000027181800221C1710021C0F8D842C4F8D4
:10546000C4028160FCF79EFC002818BFFBF76AF8B5
:10547000D4F8C402002100221823FBF7B1FED4F8AF
:10548000C402802100225823FBF7AAFED4F8C402EC
:1054900081210022C023FBF7A3FED4F8C40201211E
:1054A00000224FF48873FBF79BFED4F8C4028221DC
:1054B00000224FF48073FBF793FE002010BD000024
:1054C0004AB2D0F8C40201F07F0101EB810100EB88
:1054D000C10000F5A971002A48BF00F11201087847
:1054E0007047000080B59446D0F8C4021A4663465F
:1054F000FBF70EFF40F20032C100C0F2013222FA87
:1055000001F1032888BF0321C8B280BD80B5D0F85F
:10551000C402FBF72DFF40F20032C100C0F201329D
:1055200022FA01F1032888BF0321C8B280BD000020
:10553000F0B581B004460120002184F89C02C4F833
:105540009412D4F8B8026160C4F8A41200B3D4F87D
:10555000BC1221B1426812B120460021904720467A
:1055600000210022402300254026FFF7BBFF012732
:105570002046802100224023A4F86471C4F86061B1
:10558000FFF7B0FFA7842662284601B0F0BD00BF38
:105590000325284601B0F0BD90F89C12042904BFF1
:1055A00090F89D1280F89C120020704780B5D0F8CA
:1055B000B81249B190F89C22032A02D1C96901B1FD
:1055C0008847002080BD00BF032080BD0246002028
:1055D0001174704780B5D0F8C402FCF74DFD40F25D
:1055E0000032C100C0F2013222FA01F1032888BF63
:1055F0000321C8B280BD0000B0B500F2AA25044660
:10560000284600F06BF80120C4F8940294F8AA022E
:10561000B4F8B02200F01F010229C4F8982209D082
:1056200001290DD091B920462946BDE8B04000F0CF
:1056300083B800BF20462946BDE8B04000F036BA26
:1056400020462946BDE8B04000F0D4BA00F0800101
:105650002046BDE8B04000F001B8000080B5D0F8A9
:10566000C402FBF79FFE40F20032C100C0F20132DB
:1056700022FA01F1032888BF0321C8B280BD0000CF
:1056800080B5D0F8C402FCF713FD40F20032C1002F
:10569000C0F2013222FA01F1032888BF0321C8B207
:1056A00080BD0000014690F89C02042281F89D0212
:1056B000002081F89C22704780B5D0F8C402FBF727
:1056C000A3FE40F20032C100C0F2013222FA01F121
:1056D000032888BF0321C8B280BD00000A78027089
:1056E0004A7842704A8842808A888280C988C1800C
:1056F0007047000010B582B004460020ADF80600E7
:1057000061B1CA6AC4F8B81222B10DF1060090471F
:10571000C4F8CC02002002B010BD00BF032002B0CC
:1057200010BD0000D0F8B822002A04BF0320704743
:1057300012681047FFF7A4BFB0B582B00D460978D4
:10574000044611F060010DD0402901D020292FD14D
:10575000D4F8B80229468268204602B0BDE8B040BD
:10576000104700BF6878092800F2D680DFE810F003
:105770000A002C00D4003E00D40046006600D4008D
:105780008000940094F89C020138022800F2C48042
:10579000E888022840F0C080D4F8A4020322002840
:1057A00008BF0122214641F80C2F2046022203E1C6
:1057B00020468021FFF752FF204600210025FFF7F9
:1057C0004DFF284602B0B0BD94F89C020138022873
:1057D00000F2A280688800250128F2D12046C4F892
:1057E000A452FFF7E5FC284602B0B0BD6888012846
:1057F00040F068800120C4F8A40211E1A8880028C4
:1058000040F08A80E888002840F0868068887F28F9
:1058100000F2828094F89C12032900F07D80C5B2CA
:1058200084F89E0220462946FFF7D4FE2046FFF763
:10583000BFFC002D0CBF012002201DE168884FF045
:10584000FF3101EB102100220E29ADF8062000F2F5
:10585000B980DFE801F0096D7BB7B78791B7B7B7BB
:10586000B7B7B7B79D0000BFD4F8B402026893E0A1
:10587000E888012850D194F89C02411E022945D2A3
:105880000025214641F8085F20460122FFF782FCEF
:10589000284602B0B0BD00BF688840F29C25C2F225
:1058A000000510F0FE0F287010D020468021FFF771
:1058B000D5FE20460021FFF7D1FE0325284602B081
:1058C000B0BD00BF0025284602B0B0BD94F89C22B0
:1058D000C1B2032A00F08280022A40F0A980002988
:1058E00000F09E8020466160FFF71CFF002800F05A
:1058F000BF80054620468021FFF7B0FE20460021EC
:10590000FFF7ACFE284602B0B0BD00BF032803D1AC
:10591000211D204601224FE020468021FFF79EFEF8
:10592000204600210025FFF799FE284602B0B0BDB1
:10593000217CD4F8B80200290CBF816AC16A0DF13C
:10594000060088470146022020E000BFC0B20528BB
:1059500038D8DFE800F003979B9FA3A7D4F8B402E0
:10596000426818E0207C68BBD4F8B802416B0DF1A6
:105970000600884714E000BF207C18BBD4F8B802AA
:10598000016B0DF10600884701460720487008E0CA
:10599000D4F8B402C269AAB1207C0DF10601904787
:1059A0000146EA88E2B3BDF8060058B1904238BF1C
:1059B00002462046ADF80620FFF7ECFB00252846FE
:1059C00002B0B0BD20468021FFF748FE20460021EE
:1059D000FFF744FE0025284602B0B0BDC1B36068A1
:1059E00088421DD0C1B22046FFF796FB2978204699
:1059F0006160FFF797FE98B1054620468021FFF7CA
:105A00002DFE20460021FFF729FE21792046FFF7D1
:105A100083FB022084F89C02284602B0B0BD00BF80
:105A20002046FFF7C5FB0025284602B0B0BD00BFE9
:105A300020468021FFF712FE20460021FFF70EFED0
:105A400029782046FFF768FB0325284602B0B0BD41
:105A5000022084F89C026160204600210025FFF7A7
:105A60005BFB2046FFF7A4FB284602B0B0BD00BF99
:105A70002046FFF79DFB032084F89C020025284662
:105A800002B0B0BDD4F8B402826884E7D4F8B4029E
:105A9000C26880E7D4F8B40202697CE7D4F8B402A3
:105AA000426978E7D4F8B402826974E7B0B50D466C
:105AB0000978044611F060010CD0402901D020295A
:105AC00022D1D4F8B802294682682046BDE8B04009
:105AD000104700BF6878297900B3012836D0032821
